{
  "contractName": "UnknownPuzzle",
  "abi": [
    {
      "inputs": [
        {
          "internalType": "contract ShifterRegistry",
          "name": "_registry",
          "type": "address"
        },
        {
          "internalType": "bytes",
          "name": "_secretHash",
          "type": "bytes"
        },
        {
          "internalType": "uint256",
          "name": "_maxGasPrice",
          "type": "uint256"
        }
      ],
      "payable": false,
      "stateMutability": "nonpayable",
      "type": "constructor"
    },
    {
      "anonymous": false,
      "inputs": [
        {
          "indexed": false,
          "internalType": "bytes",
          "name": "_rewardAddress",
          "type": "bytes"
        },
        {
          "indexed": false,
          "internalType": "bytes",
          "name": "_secret",
          "type": "bytes"
        },
        {
          "indexed": false,
          "internalType": "uint256",
          "name": "_rewardAmount",
          "type": "uint256"
        }
      ],
      "name": "LogRewardClaimed",
      "type": "event"
    },
    {
      "anonymous": false,
      "inputs": [
        {
          "indexed": true,
          "internalType": "address",
          "name": "previousOwner",
          "type": "address"
        },
        {
          "indexed": true,
          "internalType": "address",
          "name": "newOwner",
          "type": "address"
        }
      ],
      "name": "OwnershipTransferred",
      "type": "event"
    },
    {
      "constant": false,
      "inputs": [
        {
          "internalType": "bytes",
          "name": "_rewardAddress",
          "type": "bytes"
        },
        {
          "internalType": "bytes",
          "name": "_secret",
          "type": "bytes"
        }
      ],
      "name": "claimReward",
      "outputs": [],
      "payable": false,
      "stateMutability": "nonpayable",
      "type": "function"
    },
    {
      "constant": false,
      "inputs": [
        {
          "internalType": "uint256",
          "name": "_amount",
          "type": "uint256"
        },
        {
          "internalType": "bytes32",
          "name": "_nHash",
          "type": "bytes32"
        },
        {
          "internalType": "bytes",
          "name": "_sig",
          "type": "bytes"
        }
      ],
      "name": "fund",
      "outputs": [],
      "payable": false,
      "stateMutability": "nonpayable",
      "type": "function"
    },
    {
      "constant": true,
      "inputs": [],
      "name": "isOwner",
      "outputs": [
        {
          "internalType": "bool",
          "name": "",
          "type": "bool"
        }
      ],
      "payable": false,
      "stateMutability": "view",
      "type": "function"
    },
    {
      "constant": true,
      "inputs": [],
      "name": "maxGasPrice",
      "outputs": [
        {
          "internalType": "uint256",
          "name": "",
          "type": "uint256"
        }
      ],
      "payable": false,
      "stateMutability": "view",
      "type": "function"
    },
    {
      "constant": true,
      "inputs": [],
      "name": "owner",
      "outputs": [
        {
          "internalType": "address",
          "name": "",
          "type": "address"
        }
      ],
      "payable": false,
      "stateMutability": "view",
      "type": "function"
    },
    {
      "constant": true,
      "inputs": [],
      "name": "registry",
      "outputs": [
        {
          "internalType": "contract ShifterRegistry",
          "name": "",
          "type": "address"
        }
      ],
      "payable": false,
      "stateMutability": "view",
      "type": "function"
    },
    {
      "constant": false,
      "inputs": [],
      "name": "renounceOwnership",
      "outputs": [],
      "payable": false,
      "stateMutability": "nonpayable",
      "type": "function"
    },
    {
      "constant": true,
      "inputs": [],
      "name": "rewardAmount",
      "outputs": [
        {
          "internalType": "uint256",
          "name": "",
          "type": "uint256"
        }
      ],
      "payable": false,
      "stateMutability": "view",
      "type": "function"
    },
    {
      "constant": true,
      "inputs": [],
      "name": "rewardClaimed",
      "outputs": [
        {
          "internalType": "bool",
          "name": "",
          "type": "bool"
        }
      ],
      "payable": false,
      "stateMutability": "view",
      "type": "function"
    },
    {
      "constant": true,
      "inputs": [],
      "name": "secretHash",
      "outputs": [
        {
          "internalType": "bytes",
          "name": "",
          "type": "bytes"
        }
      ],
      "payable": false,
      "stateMutability": "view",
      "type": "function"
    },
    {
      "constant": true,
      "inputs": [],
      "name": "tokenSymbol",
      "outputs": [
        {
          "internalType": "string",
          "name": "",
          "type": "string"
        }
      ],
      "payable": false,
      "stateMutability": "view",
      "type": "function"
    },
    {
      "constant": false,
      "inputs": [
        {
          "internalType": "address",
          "name": "_tokenAddress",
          "type": "address"
        },
        {
          "internalType": "uint256",
          "name": "_amount",
          "type": "uint256"
        },
        {
          "internalType": "address",
          "name": "_transferTo",
          "type": "address"
        }
      ],
      "name": "transfer",
      "outputs": [],
      "payable": false,
      "stateMutability": "nonpayable",
      "type": "function"
    },
    {
      "constant": false,
      "inputs": [
        {
          "internalType": "address",
          "name": "newOwner",
          "type": "address"
        }
      ],
      "name": "transferOwnership",
      "outputs": [],
      "payable": false,
      "stateMutability": "nonpayable",
      "type": "function"
    },
    {
      "constant": true,
      "inputs": [
        {
          "internalType": "bytes",
          "name": "_secret",
          "type": "bytes"
        }
      ],
      "name": "validateSecret",
      "outputs": [
        {
          "internalType": "bool",
          "name": "",
          "type": "bool"
        }
      ],
      "payable": false,
      "stateMutability": "view",
      "type": "function"
    }
  ],
  "bytecode": "0x60806040523480156200001157600080fd5b506040516200153838038062001538833981810160405260608110156200003757600080fd5b8151602083018051604051929492938301929190846401000000008211156200005f57600080fd5b9083019060208201858111156200007557600080fd5b82516401000000008111828201881017156200009057600080fd5b82525081516020918201929091019080838360005b83811015620000bf578181015183820152602001620000a5565b50505050905090810190601f168015620000ed5780820380516001836020036101000a031916815260200191505b506040818152602092830151828201909152600482527f7a42544300000000000000000000000000000000000000000000000000000000928201929092529092508491508383838383836200014a6001600160e01b03620001ed16565b600080546001600160a01b0319166001600160a01b03928316178082556040519216917f8be0079c531659141344cd1fd0a4f28419497f9722a3daafe3b4186f6b6457e0908290a3600580546001600160a01b0319166001600160a01b0386161790558251620001c2906002906020860190620001f2565b508151620001d8906001906020850190620001f2565b50600455506200029498505050505050505050565b335b90565b828054600181600116156101000203166002900490600052602060002090601f016020900481019282601f106200023557805160ff191683800117855562000265565b8280016001018555821562000265579182015b828111156200026557825182559160200191906001019062000248565b506200027392915062000277565b5090565b620001ef91905b808211156200027357600081556001016200027e565b61129480620002a46000396000f3fe608060405234801561001057600080fd5b50600436106100ea5760003560e01c80638da5cb5b1161008c578063d29e680311610066578063d29e68031461045d578063dbba0f0114610465578063f2fde38b1461049b578063f7b2a7be146104c1576100ea565b80638da5cb5b1461039d5780638f32d59b146103a5578063a9180d63146103ad576100ea565b8063695dfa40116100c8578063695dfa4014610250578063715018a6146102f45780637b103999146102fc5780637b61c32014610320576100ea565b806301221ce1146100ef57806301b62b781461021a5780633de39c1114610236575b600080fd5b6102186004803603604081101561010557600080fd5b810190602081018135600160201b81111561011f57600080fd5b82018360208201111561013157600080fd5b803590602001918460018302840111600160201b8311171561015257600080fd5b91908080601f0160208091040260200160405190810160405280939291908181526020018383808284376000920191909152509295949360208101935035915050600160201b8111156101a457600080fd5b8201836020820111156101b657600080fd5b803590602001918460018302840111600160201b831117156101d757600080fd5b91908080601f0160208091040260200160405190810160405280939291908181526020018383808284376000920191909152509295506104c9945050505050565b005b6102226108a3565b604080519115158252519081900360200190f35b61023e6108ac565b60408051918252519081900360200190f35b6102226004803603602081101561026657600080fd5b810190602081018135600160201b81111561028057600080fd5b82018360208201111561029257600080fd5b803590602001918460018302840111600160201b831117156102b357600080fd5b91908080601f0160208091040260200160405190810160405280939291908181526020018383808284376000920191909152509295506108b2945050505050565b6102186109fb565b610304610a9e565b604080516001600160a01b039092168252519081900360200190f35b610328610aad565b6040805160208082528351818301528351919283929083019185019080838360005b8381101561036257818101518382015260200161034a565b50505050905090810190601f16801561038f5780820380516001836020036101000a031916815260200191505b509250505060405180910390f35b610304610b38565b610222610b47565b610218600480360360608110156103c357600080fd5b813591602081013591810190606081016040820135600160201b8111156103e957600080fd5b8201836020820111156103fb57600080fd5b803590602001918460018302840111600160201b8311171561041c57600080fd5b91908080601f016020809104026020016040519081016040528093929190818152602001838380828437600092019190915250929550610b6b945050505050565b610328610da5565b6102186004803603606081101561047b57600080fd5b506001600160a01b03813581169160208101359160409091013516610dff565b610218600480360360208110156104b157600080fd5b50356001600160a01b0316610eb8565b61023e610f1d565b6004543a1115610518576040805162461bcd60e51b81526020600482015260156024820152740cec2e640e0e4d2c6ca40d2e640e8dede40d0d2ced605b1b604482015290519081900360640190fd5b60035460ff1615610569576040805162461bcd60e51b81526020600482015260166024820152751c995dd85c9908185b1c9958591e4818db185a5b595960521b604482015290519081900360640190fd5b610572816108b2565b6105b4576040805162461bcd60e51b815260206004820152600e60248201526d1a5b9d985b1a59081cd958dc995d60921b604482015290519081900360640190fd5b6003805460ff1916600117905560006105cb610f1d565b60055460405163092a29e360e41b8152602060048201908152600280546000196001821615610100020116819004602484018190529495506001600160a01b03909316936392a29e30939282916044909101908490801561066d5780601f106106425761010080835404028352916020019161066d565b820191906000526020600020905b81548152906001019060200180831161065057829003601f168201915b50509250505060206040518083038186803b15801561068b57600080fd5b505afa15801561069f573d6000803e3d6000fd5b505050506040513d60208110156106b557600080fd5b505160408051638723c37760e01b815260248101849052600481019182528551604482015285516001600160a01b0390931692638723c3779287928692829160640190602086019080838360005b8381101561071b578181015183820152602001610703565b50505050905090810190601f1680156107485780820380516001836020036101000a031916815260200191505b509350505050602060405180830381600087803b15801561076857600080fd5b505af115801561077c573d6000803e3d6000fd5b505050506040513d602081101561079257600080fd5b505060408051908101829052606080825284519082015283517fc837ffe6c503d717692e6fb85fd88c05498e00abe7c67744c760d36dc7e4f7c4918591859185918190602082810191608084019188019080838360005b838110156108015781810151838201526020016107e9565b50505050905090810190601f16801561082e5780820380516001836020036101000a031916815260200191505b50838103825285518152855160209182019187019080838360005b83811015610861578181015183820152602001610849565b50505050905090810190601f16801561088e5780820380516001836020036101000a031916815260200191505b509550505050505060405180910390a1505050565b60035460ff1681565b60045481565b6000606060026108c184611089565b6040518082805190602001908083835b602083106108f05780518252601f1990920191602091820191016108d1565b51815160209384036101000a60001901801990921691161790526040519190930194509192505080830381855afa15801561092f573d6000803e3d6000fd5b5050506040513d602081101561094457600080fd5b50516040805160208082019390935281518082038401815260018054600281831615610100026000190190911604601f81018690049095028301606090810185529383018581529195506109f494869492939192909101828280156109ea5780601f106109bf576101008083540402835291602001916109ea565b820191906000526020600020905b8154815290600101906020018083116109cd57829003601f168201915b5050505050611117565b9392505050565b610a03610b47565b610a54576040805162461bcd60e51b815260206004820181905260248201527f4f776e61626c653a2063616c6c6572206973206e6f7420746865206f776e6572604482015290519081900360640190fd5b600080546040516001600160a01b03909116907f8be0079c531659141344cd1fd0a4f28419497f9722a3daafe3b4186f6b6457e0908390a3600080546001600160a01b0319169055565b6005546001600160a01b031681565b6002805460408051602060018416156101000260001901909316849004601f81018490048402820184019092528181529291830182828015610b305780601f10610b0557610100808354040283529160200191610b30565b820191906000526020600020905b815481529060010190602001808311610b1357829003601f168201915b505050505081565b6000546001600160a01b031690565b600080546001600160a01b0316610b5c611195565b6001600160a01b031614905090565b60008311610bc0576040805162461bcd60e51b815260206004820152601d60248201527f616d6f756e74206d7573742062652067726561746572207468616e2030000000604482015290519081900360640190fd5b60055460405163092a29e360e41b8152602060048201908152600280546000196001821615610100020116819004602484018190526001600160a01b03909416936392a29e3093919291829160449091019084908015610c615780601f10610c3657610100808354040283529160200191610c61565b820191906000526020600020905b815481529060010190602001808311610c4457829003601f168201915b50509250505060206040518083038186803b158015610c7f57600080fd5b505afa158015610c93573d6000803e3d6000fd5b505050506040513d6020811015610ca957600080fd5b5051604051632ed2876360e21b815260006004820181815260248301879052604483018690526080606484019081528551608485015285516001600160a01b039095169463bb4a1d8c948993899389939192909160a49091019060208501908083838b5b83811015610d25578181015183820152602001610d0d565b50505050905090810190601f168015610d525780820380516001836020036101000a031916815260200191505b5095505050505050602060405180830381600087803b158015610d7457600080fd5b505af1158015610d88573d6000803e3d6000fd5b505050506040513d6020811015610d9e57600080fd5b5050505050565b60018054604080516020600284861615610100026000190190941693909304601f81018490048402820184019092528181529291830182828015610b305780601f10610b0557610100808354040283529160200191610b30565b610e07610b47565b610e58576040805162461bcd60e51b815260206004820181905260248201527f4f776e61626c653a2063616c6c6572206973206e6f7420746865206f776e6572604482015290519081900360640190fd5b826001600160a01b031663a9059cbb82846040518363ffffffff1660e01b815260040180836001600160a01b03166001600160a01b0316815260200182815260200192505050602060405180830381600087803b158015610d7457600080fd5b610ec0610b47565b610f11576040805162461bcd60e51b815260206004820181905260248201527f4f776e61626c653a2063616c6c6572206973206e6f7420746865206f776e6572604482015290519081900360640190fd5b610f1a81611199565b50565b60055460405163efa74f1f60e01b81526020600482019081526002805460001960018216156101000201168190046024840181905260009485946001600160a01b039091169363efa74f1f93929091829160449091019084908015610fc35780601f10610f9857610100808354040283529160200191610fc3565b820191906000526020600020905b815481529060010190602001808311610fa657829003601f168201915b50509250505060206040518083038186803b158015610fe157600080fd5b505afa158015610ff5573d6000803e3d6000fd5b505050506040513d602081101561100b57600080fd5b5051604080516370a0823160e01b815230600482015290519192506001600160a01b038316916370a0823191602480820192602092909190829003018186803b15801561105757600080fd5b505afa15801561106b573d6000803e3d6000fd5b505050506040513d602081101561108157600080fd5b505191505090565b6060816040516020018080660a6cac6e4cae8560cb1b81525060070182805190602001908083835b602083106110d05780518252601f1990920191602091820191016110b1565b6001836020036101000a03801982511681845116808217855250505050505090500180602960f81b8152506001019150506040516020818303038152906040529050919050565b6000815183511461112a5750600061118f565b60005b83518110156111895782818151811061114257fe5b602001015160f81c60f81b6001600160f81b03191684828151811061116357fe5b01602001516001600160f81b0319161461118157600091505061118f565b60010161112d565b50600190505b92915050565b3390565b6001600160a01b0381166111de5760405162461bcd60e51b815260040180806020018281038252602681526020018061123a6026913960400191505060405180910390fd5b600080546040516001600160a01b03808516939216917f8be0079c531659141344cd1fd0a4f28419497f9722a3daafe3b4186f6b6457e091a3600080546001600160a01b0319166001600160a01b039290921691909117905556fe4f776e61626c653a206e6577206f776e657220697320746865207a65726f2061646472657373a265627a7a72315820411e46ea15e6d3ba4b222818cef1921c368c0efdfbf52165348515f3ac741a1b64736f6c634300050c0032",
  "source": "pragma solidity ^0.5.12;\n\nimport \"./Puzzle.sol\";\n\nimport \"darknode-sol/contracts/Shifter/ShifterRegistry.sol\";\n\ncontract SimplePuzzle is Puzzle {\n    /// @param _registry The Shifter registry contract address\n    /// @param _tokenSymbol The token symbol for the reward and the shifting\n    /// @param _secretHash The secret hash\n    /* solium-disable-next-line no-empty-blocks */\n    constructor(\n        ShifterRegistry _registry,\n        string memory _tokenSymbol,\n        bytes memory _secretHash,\n        uint256 _maxGasPrice\n    ) public Puzzle(\n        _registry,\n        _tokenSymbol,\n        _secretHash,\n        _maxGasPrice\n    ) {}\n\n    /// @notice Allows someone to try and claim the reward by submitting the secret.\n    /// @param _rewardAddress The address that should receive the reward if the secret is correct.\n    /// @param _secret The secret.\n    function claimReward(bytes memory _rewardAddress, bytes memory _secret) public onlyNotFrontRunning {\n        require(!rewardClaimed, \"reward already claimed\");\n        require(validateSecret(_secret), \"invalid secret\");\n        rewardClaimed = true;\n        uint256 amount = rewardAmount();\n        // Shift out the funds to the specified address\n        registry.getShifterBySymbol(tokenSymbol).shiftOut(_rewardAddress, amount);\n\n        emit LogRewardClaimed(_rewardAddress, _secret, amount);\n    }\n}\n\ncontract UnknownPuzzle is SimplePuzzle {\n    constructor(\n        ShifterRegistry _registry,\n        bytes memory _secretHash,\n        uint256 _maxGasPrice\n    ) public SimplePuzzle(\n        _registry,\n        \"zBTC\",\n        _secretHash,\n        _maxGasPrice\n    ) {}\n}",
  "sourcePath": "/Users/vince/Documents/renproject/git/renvm-demo/ethereum-contracts/contracts/ChaosnetChallenges/SimplePuzzle.sol",
  "compiler": {
    "name": "solc",
    "version": "0.5.12+commit.7709ece9.Emscripten.clang"
  },
  "schemaVersion": "3.0.19",
  "updatedAt": "2019-12-23T04:45:55.603Z",
  "networkType": "ethereum",
  "devdoc": {
    "methods": {
      "claimReward(bytes,bytes)": {
        "params": {
          "_rewardAddress": "The address that should receive the reward if the secret is correct.",
          "_secret": "The secret."
        }
      },
      "fund(uint256,bytes32,bytes)": {
        "params": {
          "_amount": "The amount of token provided to the Darknodes in Sats.",
          "_nHash": "The hash of the nonce returned by the Darknodes.",
          "_sig": "The signature returned by the Darknodes."
        }
      },
      "isOwner()": {
        "details": "Returns true if the caller is the current owner."
      },
      "owner()": {
        "details": "Returns the address of the current owner."
      },
      "renounceOwnership()": {
        "details": "Leaves the contract without owner. It will not be possible to call `onlyOwner` functions anymore. Can only be called by the current owner.     * NOTE: Renouncing ownership will leave the contract without an owner, thereby removing any functionality that is only available to the owner."
      },
      "transfer(address,uint256,address)": {
        "params": {
          "_amount": "The amount to transfer",
          "_tokenAddress": "The address of the ERC20 token",
          "_transferTo": "The destination address to send ERC20 tokens to"
        }
      },
      "transferOwnership(address)": {
        "details": "Transfers ownership of the contract to a new account (`newOwner`). Can only be called by the current owner."
      },
      "validateSecret(bytes)": {
        "params": {
          "_secret": "The secret."
        }
      }
    }
  },
  "userdoc": {
    "methods": {
      "claimReward(bytes,bytes)": {
        "notice": "Allows someone to try and claim the reward by submitting the secret."
      },
      "fund(uint256,bytes32,bytes)": {
        "notice": "Funds the contract with claimable rewards"
      },
      "rewardAmount()": {
        "notice": "The amount of reward for solving the puzzle"
      },
      "transfer(address,uint256,address)": {
        "notice": "Transfers tokens from the contract to reduce the amount of reward. "
      },
      "validateSecret(bytes)": {
        "notice": "Validate that the secret is correct. Use this function to         validate your answer if you think you've got it before         submitting a swap. You could also use this to brute-force         the answer too if you want. "
      }
    }
  }
}