{
  "contractName": "BTC_DAI_Reserve",
  "abi": [
    {
      "constant": false,
      "inputs": [
        {
          "name": "spender",
          "type": "address"
        },
        {
          "name": "value",
          "type": "uint256"
        }
      ],
      "name": "approve",
      "outputs": [
        {
          "name": "",
          "type": "bool"
        }
      ],
      "payable": false,
      "stateMutability": "nonpayable",
      "type": "function"
    },
    {
      "constant": false,
      "inputs": [
        {
          "name": "_to",
          "type": "address"
        },
        {
          "name": "_from",
          "type": "address"
        },
        {
          "name": "_baseTokenAmount",
          "type": "uint256"
        }
      ],
      "name": "buy",
      "outputs": [
        {
          "name": "",
          "type": "uint256"
        }
      ],
      "payable": false,
      "stateMutability": "nonpayable",
      "type": "function"
    },
    {
      "constant": false,
      "inputs": [],
      "name": "totalSupply",
      "outputs": [
        {
          "name": "",
          "type": "uint256"
        }
      ],
      "payable": false,
      "stateMutability": "nonpayable",
      "type": "function"
    },
    {
      "constant": false,
      "inputs": [
        {
          "name": "_liquidiyProvider",
          "type": "address"
        },
        {
          "name": "_maxBaseToken",
          "type": "uint256"
        },
        {
          "name": "_tokenAmount",
          "type": "uint256"
        },
        {
          "name": "_deadline",
          "type": "uint256"
        }
      ],
      "name": "addLiquidity",
      "outputs": [
        {
          "name": "",
          "type": "uint256"
        }
      ],
      "payable": false,
      "stateMutability": "nonpayable",
      "type": "function"
    },
    {
      "constant": false,
      "inputs": [
        {
          "name": "sender",
          "type": "address"
        },
        {
          "name": "recipient",
          "type": "address"
        },
        {
          "name": "amount",
          "type": "uint256"
        }
      ],
      "name": "transferFrom",
      "outputs": [
        {
          "name": "",
          "type": "bool"
        }
      ],
      "payable": false,
      "stateMutability": "nonpayable",
      "type": "function"
    },
    {
      "constant": false,
      "inputs": [
        {
          "name": "spender",
          "type": "address"
        },
        {
          "name": "addedValue",
          "type": "uint256"
        }
      ],
      "name": "increaseAllowance",
      "outputs": [
        {
          "name": "",
          "type": "bool"
        }
      ],
      "payable": false,
      "stateMutability": "nonpayable",
      "type": "function"
    },
    {
      "constant": false,
      "inputs": [
        {
          "name": "_liquidity",
          "type": "uint256"
        }
      ],
      "name": "calculateQuoteTokenValue",
      "outputs": [
        {
          "name": "",
          "type": "uint256"
        }
      ],
      "payable": false,
      "stateMutability": "nonpayable",
      "type": "function"
    },
    {
      "constant": false,
      "inputs": [
        {
          "name": "_quoteTokenAmount",
          "type": "uint256"
        }
      ],
      "name": "expectedBaseTokenAmount",
      "outputs": [
        {
          "name": "",
          "type": "uint256"
        }
      ],
      "payable": false,
      "stateMutability": "nonpayable",
      "type": "function"
    },
    {
      "constant": false,
      "inputs": [
        {
          "name": "account",
          "type": "address"
        }
      ],
      "name": "balanceOf",
      "outputs": [
        {
          "name": "",
          "type": "uint256"
        }
      ],
      "payable": false,
      "stateMutability": "nonpayable",
      "type": "function"
    },
    {
      "constant": true,
      "inputs": [],
      "name": "BaseToken",
      "outputs": [
        {
          "name": "",
          "type": "address"
        }
      ],
      "payable": false,
      "stateMutability": "view",
      "type": "function"
    },
    {
      "constant": false,
      "inputs": [
        {
          "name": "_liquidity",
          "type": "uint256"
        }
      ],
      "name": "removeLiquidity",
      "outputs": [
        {
          "name": "",
          "type": "uint256"
        },
        {
          "name": "",
          "type": "uint256"
        }
      ],
      "payable": false,
      "stateMutability": "nonpayable",
      "type": "function"
    },
    {
      "constant": false,
      "inputs": [
        {
          "name": "spender",
          "type": "address"
        },
        {
          "name": "subtractedValue",
          "type": "uint256"
        }
      ],
      "name": "decreaseAllowance",
      "outputs": [
        {
          "name": "",
          "type": "bool"
        }
      ],
      "payable": false,
      "stateMutability": "nonpayable",
      "type": "function"
    },
    {
      "constant": false,
      "inputs": [
        {
          "name": "recipient",
          "type": "address"
        },
        {
          "name": "amount",
          "type": "uint256"
        }
      ],
      "name": "transfer",
      "outputs": [
        {
          "name": "",
          "type": "bool"
        }
      ],
      "payable": false,
      "stateMutability": "nonpayable",
      "type": "function"
    },
    {
      "constant": false,
      "inputs": [
        {
          "name": "_sendAmt",
          "type": "uint256"
        }
      ],
      "name": "calculateSellRcvAmt",
      "outputs": [
        {
          "name": "",
          "type": "uint256"
        }
      ],
      "payable": false,
      "stateMutability": "nonpayable",
      "type": "function"
    },
    {
      "constant": false,
      "inputs": [
        {
          "name": "_liquidity",
          "type": "uint256"
        }
      ],
      "name": "calculateBaseTokenValue",
      "outputs": [
        {
          "name": "",
          "type": "uint256"
        }
      ],
      "payable": false,
      "stateMutability": "nonpayable",
      "type": "function"
    },
    {
      "constant": true,
      "inputs": [],
      "name": "Token",
      "outputs": [
        {
          "name": "",
          "type": "address"
        }
      ],
      "payable": false,
      "stateMutability": "view",
      "type": "function"
    },
    {
      "constant": false,
      "inputs": [
        {
          "name": "_to",
          "type": "address"
        },
        {
          "name": "_from",
          "type": "address"
        },
        {
          "name": "_tokenAmount",
          "type": "uint256"
        }
      ],
      "name": "sell",
      "outputs": [
        {
          "name": "",
          "type": "uint256"
        }
      ],
      "payable": false,
      "stateMutability": "nonpayable",
      "type": "function"
    },
    {
      "constant": false,
      "inputs": [
        {
          "name": "_sendAmt",
          "type": "uint256"
        }
      ],
      "name": "calculateBuyRcvAmt",
      "outputs": [
        {
          "name": "",
          "type": "uint256"
        }
      ],
      "payable": false,
      "stateMutability": "nonpayable",
      "type": "function"
    },
    {
      "constant": false,
      "inputs": [
        {
          "name": "owner",
          "type": "address"
        },
        {
          "name": "spender",
          "type": "address"
        }
      ],
      "name": "allowance",
      "outputs": [
        {
          "name": "",
          "type": "uint256"
        }
      ],
      "payable": false,
      "stateMutability": "nonpayable",
      "type": "function"
    },
    {
      "inputs": [
        {
          "name": "_baseToken",
          "type": "address"
        },
        {
          "name": "_token",
          "type": "address"
        },
        {
          "name": "_feeInBIPS",
          "type": "uint256"
        }
      ],
      "payable": false,
      "stateMutability": "nonpayable",
      "type": "constructor"
    },
    {
      "anonymous": false,
      "inputs": [
        {
          "indexed": false,
          "name": "fileName",
          "type": "string"
        },
        {
          "indexed": false,
          "name": "lineNumber",
          "type": "uint256"
        }
      ],
      "name": "__CoverageDEXReserve",
      "type": "event"
    },
    {
      "anonymous": false,
      "inputs": [
        {
          "indexed": false,
          "name": "fileName",
          "type": "string"
        },
        {
          "indexed": false,
          "name": "fnId",
          "type": "uint256"
        }
      ],
      "name": "__FunctionCoverageDEXReserve",
      "type": "event"
    },
    {
      "anonymous": false,
      "inputs": [
        {
          "indexed": false,
          "name": "fileName",
          "type": "string"
        },
        {
          "indexed": false,
          "name": "statementId",
          "type": "uint256"
        }
      ],
      "name": "__StatementCoverageDEXReserve",
      "type": "event"
    },
    {
      "anonymous": false,
      "inputs": [
        {
          "indexed": false,
          "name": "fileName",
          "type": "string"
        },
        {
          "indexed": false,
          "name": "branchId",
          "type": "uint256"
        },
        {
          "indexed": false,
          "name": "locationIdx",
          "type": "uint256"
        }
      ],
      "name": "__BranchCoverageDEXReserve",
      "type": "event"
    },
    {
      "anonymous": false,
      "inputs": [
        {
          "indexed": false,
          "name": "fileName",
          "type": "string"
        },
        {
          "indexed": false,
          "name": "branchId",
          "type": "uint256"
        }
      ],
      "name": "__AssertPreCoverageDEXReserve",
      "type": "event"
    },
    {
      "anonymous": false,
      "inputs": [
        {
          "indexed": false,
          "name": "fileName",
          "type": "string"
        },
        {
          "indexed": false,
          "name": "branchId",
          "type": "uint256"
        }
      ],
      "name": "__AssertPostCoverageDEXReserve",
      "type": "event"
    },
    {
      "anonymous": false,
      "inputs": [
        {
          "indexed": false,
          "name": "_liquidityProvider",
          "type": "address"
        },
        {
          "indexed": false,
          "name": "_tokenAmount",
          "type": "uint256"
        },
        {
          "indexed": false,
          "name": "_baseTokenAmount",
          "type": "uint256"
        }
      ],
      "name": "LogAddLiquidity",
      "type": "event"
    },
    {
      "anonymous": false,
      "inputs": [
        {
          "indexed": false,
          "name": "_rcvAmount",
          "type": "uint256"
        }
      ],
      "name": "LogDebug",
      "type": "event"
    },
    {
      "anonymous": false,
      "inputs": [
        {
          "indexed": true,
          "name": "from",
          "type": "address"
        },
        {
          "indexed": true,
          "name": "to",
          "type": "address"
        },
        {
          "indexed": false,
          "name": "value",
          "type": "uint256"
        }
      ],
      "name": "Transfer",
      "type": "event"
    },
    {
      "anonymous": false,
      "inputs": [
        {
          "indexed": true,
          "name": "owner",
          "type": "address"
        },
        {
          "indexed": true,
          "name": "spender",
          "type": "address"
        },
        {
          "indexed": false,
          "name": "value",
          "type": "uint256"
        }
      ],
      "name": "Approval",
      "type": "event"
    }
  ],
  "bytecode": "0x60806040523480156200001157600080fd5b506040516060806200410d833981018060405260608110156200003357600080fd5b508051602080830151604093840151845160019381018490528581526048958101869052939491939092859285928592600080516020620040ed83398151915292909190819060608201906200408582396060019250505060405180910390a1600080516020620040cd833981519152600f60405180806020018381526020018281038252604881526020018062004085604891396060019250505060405180910390a160008051602062004065833981519152600160405180806020018381526020018281038252604881526020018062004085604891396060019250505060405180910390a1600480546001600160a01b0319166001600160a01b038516179055604080516010602082018190528282526048928201839052600080516020620040cd83398151915292909190819060608201906200408582396060019250505060405180910390a160008051602062004065833981519152600260405180806020018381526020018281038252604881526020018062004085604891396060019250505060405180910390a1600580546001600160a01b0319166001600160a01b038416179055604080516011602082018190528282526048928201839052600080516020620040cd83398151915292909190819060608201906200408582396060019250505060405180910390a160008051602062004065833981519152600360405180806020018381526020018281038252604881526020018062004085604891396060019250505060405180910390a180600381905550505050600080516020620040ed833981519152600c60405180806020018381526020018281038252604881526020018062004085604891396060019250505060405180910390a1505050613d9b80620002ca6000396000f3fe608060405234801561001057600080fd5b50600436106101215760003560e01c806390f81702116100ad578063b93e70a411610071578063b93e70a41461037f578063c24126761461039c578063cae270b6146103a4578063d1e88c72146103da578063dd62ed3e146103f757610121565b806390f81702146102b05780639c8f9f23146102d4578063a457c2d71461030a578063a9059cbb14610336578063b4d5fa7f1461036257610121565b806323b872dd116100f457806323b872dd146101ee57806339509351146102245780633d74fc4b146102505780634b90ad541461026d57806370a082311461028a57610121565b8063095ea7b314610126578063153e66e61461016657806318160ddd146101ae5780631ece366a146101b6575b600080fd5b6101526004803603604081101561013c57600080fd5b506001600160a01b038135169060200135610425565b604080519115158252519081900360200190f35b61019c6004803603606081101561017c57600080fd5b506001600160a01b0381358116916020810135909116906040013561043c565b60408051918252519081900360200190f35b61019c6109f9565b61019c600480360360808110156101cc57600080fd5b506001600160a01b0381351690602081013590604081013590606001356109ff565b6101526004803603606081101561020457600080fd5b506001600160a01b0381358116916020810135909116906040013561167e565b6101526004803603604081101561023a57600080fd5b506001600160a01b0381351690602001356116d5565b61019c6004803603602081101561026657600080fd5b5035611711565b61019c6004803603602081101561028357600080fd5b5035611a51565b61019c600480360360208110156102a057600080fd5b50356001600160a01b0316611d39565b6102b8611d54565b604080516001600160a01b039092168252519081900360200190f35b6102f1600480360360208110156102ea57600080fd5b5035611d63565b6040805192835260208301919091528051918290030190f35b6101526004803603604081101561032057600080fd5b506001600160a01b038135169060200135612365565b6101526004803603604081101561034c57600080fd5b506001600160a01b0381351690602001356123a1565b61019c6004803603602081101561037857600080fd5b50356123ae565b61019c6004803603602081101561039557600080fd5b50356127e4565b6102b8612b16565b61019c600480360360608110156103ba57600080fd5b506001600160a01b03813581169160208101359091169060400135612b25565b61019c600480360360208110156103f057600080fd5b50356130e1565b61019c6004803603604081101561040d57600080fd5b506001600160a01b03813581169160200135166134f1565b600061043233848461351c565b5060015b92915050565b6000600080516020613d508339815191526002604051808060200183815260200182810382526048815260200180613c3d604891396060019250505060405180910390a1600080516020613c858339815191526015604051808060200183815260200182810382526048815260200180613c3d604891396060019250505060405180910390a1600080516020613bfd8339815191526001604051808060200183815260200182810382526048815260200180613c3d604891396060019250505060405180910390a1600080516020613c1d8339815191526004604051808060200183815260200182810382526048815260200180613c3d604891396060019250505060405180910390a161054e6109f9565b6105a25760408051600160e51b62461bcd02815260206004820152601460248201527f7265736572766520686173206e6f2066756e6473000000000000000000000000604482015290519081900360640190fd5b600080516020613d0c8339815191526001604051808060200183815260200182810382526048815260200180613c3d604891396060019250505060405180910390a1600080516020613c858339815191526016604051808060200183815260200182810382526048815260200180613c3d604891396060019250505060405180910390a1600080516020613c1d8339815191526005604051808060200183815260200182810382526048815260200180613c3d604891396060019250505060405180910390a16000610673836130e1565b9050600080516020613c858339815191526017604051808060200183815260200182810382526048815260200180613c3d604891396060019250505060405180910390a1600080516020613c1d8339815191526006604051808060200183815260200182810382526048815260200180613c3d604891396060019250505060405180910390a16004805460408051600160e01b6323b872dd0281526001600160a01b038881169482019490945230602482015260448101879052905192909116916323b872dd916064808201926020929091908290030181600087803b15801561075c57600080fd5b505af1158015610770573d6000803e3d6000fd5b505050506040513d602081101561078657600080fd5b5050604080516018602082018190528282526048928201839052600080516020613c858339815191529290919081906060820190613c3d82396060019250505060405180910390a1600080516020613bfd8339815191526002604051808060200183815260200182810382526048815260200180613c3d604891396060019250505060405180910390a1600080516020613c1d8339815191526007604051808060200183815260200182810382526048815260200180613c3d604891396060019250505060405180910390a160055460408051600160e01b63a9059cbb0281526001600160a01b038881166004830152602482018590529151919092169163a9059cbb9160448083019260209291908290030181600087803b1580156108ab57600080fd5b505af11580156108bf573d6000803e3d6000fd5b505050506040513d60208110156108d557600080fd5b505161092b5760408051600160e51b62461bcd02815260206004820152601e60248201527f6661696c656420746f207472616e736665722071756f746520746f6b656e0000604482015290519081900360640190fd5b600080516020613d0c8339815191526002604051808060200183815260200182810382526048815260200180613c3d604891396060019250505060405180910390a1600080516020613c858339815191526019604051808060200183815260200182810382526048815260200180613c3d604891396060019250505060405180910390a1600080516020613c1d8339815191526008604051808060200183815260200182810382526048815260200180613c3d604891396060019250505060405180910390a1949350505050565b60025490565b6000600080516020613d508339815191526007604051808060200183815260200182810382526048815260200180613c3d604891396060019250505060405180910390a1600080516020613c858339815191526041604051808060200183815260200182810382526048815260200180613c3d604891396060019250505060405180910390a1600080516020613bfd8339815191526006604051808060200183815260200182810382526048815260200180613c3d604891396060019250505060405180910390a1600080516020613c1d833981519152601f604051808060200183815260200182810382526048815260200180613c3d604891396060019250505060405180910390a1438211610b605760408051600160e51b62461bcd02815260206004820152601c60248201527f6164644c69717569646974792072657175657374206578706972656400000000604482015290519081900360640190fd5b600080516020613d0c8339815191526006604051808060200183815260200182810382526048815260200180613c3d604891396060019250505060405180910390a1600080516020613c858339815191526042604051808060200183815260200182810382526048815260200180613c3d604891396060019250505060405180910390a1600080516020613c1d8339815191526020604051808060200183815260200182810382526048815260200180613c3d604891396060019250505060405180910390a160055460408051600160e01b6323b872dd0281523360048201523060248201526044810186905290516001600160a01b03909216916323b872dd916064808201926020929091908290030181600087803b158015610c8357600080fd5b505af1158015610c97573d6000803e3d6000fd5b505050506040513d6020811015610cad57600080fd5b5050604080516043602082018190528282526048928201839052600080516020613c858339815191529290919081906060820190613c3d82396060019250505060405180910390a1600080516020613c1d8339815191526021604051808060200183815260200182810382526048815260200180613c3d604891396060019250505060405180910390a16000610d416109f9565b1115611248577f8a345ede3215f7306f8f5c440eaeb5cd220eebfa1670acf8788c70994dd4437d60076000604051808060200184815260200183815260200182810382526048815260200180613c3d60489139606001935050505060405180910390a1600080516020613c858339815191526044604051808060200183815260200182810382526048815260200180613c3d604891396060019250505060405180910390a1600080516020613bfd8339815191526008604051808060200183815260200182810382526048815260200180613c3d604891396060019250505060405180910390a1600080516020613c1d8339815191526022604051808060200183815260200182810382526048815260200180613c3d604891396060019250505060405180910390a160008311610eac57604051600160e51b62461bcd02815260040180806020018281038252602c815260200180613bd1602c913960400191505060405180910390fd5b600080516020613d0c8339815191526008604051808060200183815260200182810382526048815260200180613c3d604891396060019250505060405180910390a1600080516020613c858339815191526045604051808060200183815260200182810382526048815260200180613c3d604891396060019250505060405180910390a1600080516020613c1d8339815191526023604051808060200183815260200182810382526048815260200180613c3d604891396060019250505060405180910390a16000610f7d84611a51565b9050600080516020613c858339815191526046604051808060200183815260200182810382526048815260200180613c3d604891396060019250505060405180910390a1600080516020613bfd8339815191526009604051808060200183815260200182810382526048815260200180613c3d604891396060019250505060405180910390a1600080516020613c1d8339815191526024604051808060200183815260200182810382526048815260200180613c3d604891396060019250505060405180910390a184811080156110df57506004805460408051600160e01b6323b872dd0281526001600160a01b038a81169482019490945230602482015260448101859052905192909116916323b872dd916064808201926020929091908290030181600087803b1580156110b257600080fd5b505af11580156110c6573d6000803e3d6000fd5b505050506040513d60208110156110dc57600080fd5b50515b6111335760408051600160e51b62461bcd02815260206004820152601d60248201527f6661696c656420746f207472616e73666572206261736520746f6b656e000000604482015290519081900360640190fd5b600080516020613d0c8339815191526009604051808060200183815260200182810382526048815260200180613c3d604891396060019250505060405180910390a1600080516020613c858339815191526047604051808060200183815260200182810382526048815260200180613c3d604891396060019250505060405180910390a1600080516020613c1d8339815191526025604051808060200183815260200182810382526048815260200180613c3d604891396060019250505060405180910390a1604080516001600160a01b03881681526020810186905280820183905290517f181674bd5cf175c47c164c13df571685a06664e17a0dff9ad3473062a4d95b3a9181900360600190a15061155e565b7f8a345ede3215f7306f8f5c440eaeb5cd220eebfa1670acf8788c70994dd4437d60076001604051808060200184815260200183815260200182810382526048815260200180613c3d60489139606001935050505060405180910390a1600080516020613c858339815191526049604051808060200183815260200182810382526048815260200180613c3d604891396060019250505060405180910390a1600080516020613bfd833981519152600a604051808060200183815260200182810382526048815260200180613c3d604891396060019250505060405180910390a1600080516020613c1d8339815191526026604051808060200183815260200182810382526048815260200180613c3d604891396060019250505060405180910390a16004805460408051600160e01b6323b872dd0281526001600160a01b038981169482019490945230602482015260448101889052905192909116916323b872dd916064808201926020929091908290030181600087803b1580156113ce57600080fd5b505af11580156113e2573d6000803e3d6000fd5b505050506040513d60208110156113f857600080fd5b505161144e5760408051600160e51b62461bcd02815260206004820152601d60248201527f6661696c656420746f207472616e73666572206261736520746f6b656e000000604482015290519081900360640190fd5b600080516020613d0c833981519152600a604051808060200183815260200182810382526048815260200180613c3d604891396060019250505060405180910390a1600080516020613c85833981519152604a604051808060200183815260200182810382526048815260200180613c3d604891396060019250505060405180910390a1600080516020613c1d8339815191526027604051808060200183815260200182810382526048815260200180613c3d604891396060019250505060405180910390a1604080516001600160a01b03871681526020810185905280820186905290517f181674bd5cf175c47c164c13df571685a06664e17a0dff9ad3473062a4d95b3a9181900360600190a15b600080516020613c85833981519152604c604051808060200183815260200182810382526048815260200180613c3d604891396060019250505060405180910390a1600080516020613c1d8339815191526028604051808060200183815260200182810382526048815260200180613c3d604891396060019250505060405180910390a16115ef858460020261360e565b600080516020613c85833981519152604d604051808060200183815260200182810382526048815260200180613c3d604891396060019250505060405180910390a1600080516020613c1d8339815191526029604051808060200183815260200182810382526048815260200180613c3d604891396060019250505060405180910390a1505060020292915050565b600061168b848484613701565b6001600160a01b0384166000908152600160209081526040808320338085529252909120546116cb9186916116c6908663ffffffff61384916565b61351c565b5060019392505050565b3360008181526001602090815260408083206001600160a01b038716845290915281205490916104329185906116c6908663ffffffff6138a916565b6000600080516020613d508339815191526009604051808060200183815260200182810382526048815260200180613c3d604891396060019250505060405180910390a1600080516020613c858339815191526057604051808060200183815260200182810382526048815260200180613c3d604891396060019250505060405180910390a1600080516020613bfd833981519152600c604051808060200183815260200182810382526048815260200180613c3d604891396060019250505060405180910390a1600080516020613c1d833981519152602d604051808060200183815260200182810382526048815260200180613c3d604891396060019250505060405180910390a16118236109f9565b61186d5760408051600160e51b62461bcd0281526020600482015260106024820152600160801b6f6469766973696f6e206279207a65726f02604482015290519081900360640190fd5b600080516020613d0c833981519152600c604051808060200183815260200182810382526048815260200180613c3d604891396060019250505060405180910390a1600080516020613c858339815191526058604051808060200183815260200182810382526048815260200180613c3d604891396060019250505060405180910390a1600080516020613c1d833981519152602e604051808060200183815260200182810382526048815260200180613c3d604891396060019250505060405180910390a160055460408051600160e01b6370a0823102815230600482015290516000926001600160a01b0316916370a0823191602480830192602092919082900301818787803b15801561198257600080fd5b505af1158015611996573d6000803e3d6000fd5b505050506040513d60208110156119ac57600080fd5b5051604080516059602082018190528282526048928201839052929350600080516020613c85833981519152929181906060820190613c3d82396060019250505060405180910390a1600080516020613c1d833981519152602f604051808060200183815260200182810382526048815260200180613c3d604891396060019250505060405180910390a1611a3f6109f9565b81840281611a4957fe5b049392505050565b6000600080516020613d50833981519152600a604051808060200183815260200182810382526048815260200180613c3d604891396060019250505060405180910390a1600080516020613c85833981519152605d604051808060200183815260200182810382526048815260200180613c3d604891396060019250505060405180910390a1600080516020613c1d8339815191526030604051808060200183815260200182810382526048815260200180613c3d604891396060019250505060405180910390a16004805460408051600160e01b6370a082310281523093810193909352516000926001600160a01b03909216916370a0823191602480830192602092919082900301818787803b158015611b6c57600080fd5b505af1158015611b80573d6000803e3d6000fd5b505050506040513d6020811015611b9657600080fd5b505160408051605e602082018190528282526048928201839052929350600080516020613c85833981519152929181906060820190613c3d82396060019250505060405180910390a1600080516020613c1d8339815191526031604051808060200183815260200182810382526048815260200180613c3d604891396060019250505060405180910390a160055460408051600160e01b6370a0823102815230600482015290516000926001600160a01b0316916370a0823191602480830192602092919082900301818787803b158015611c7057600080fd5b505af1158015611c84573d6000803e3d6000fd5b505050506040513d6020811015611c9a57600080fd5b505160408051605f602082018190528282526048928201839052929350600080516020613c85833981519152929181906060820190613c3d82396060019250505060405180910390a1600080516020613c1d8339815191526032604051808060200183815260200182810382526048815260200180613c3d604891396060019250505060405180910390a18082850281611d3057fe5b04949350505050565b6001600160a01b031660009081526020819052604090205490565b6004546001600160a01b031681565b600080600080516020613d508339815191526006604051808060200183815260200182810382526048815260200180613c3d604891396060019250505060405180910390a1600080516020613c858339815191526035604051808060200183815260200182810382526048815260200180613c3d604891396060019250505060405180910390a1600080516020613bfd8339815191526005604051808060200183815260200182810382526048815260200180613c3d604891396060019250505060405180910390a1600080516020613c1d8339815191526018604051808060200183815260200182810382526048815260200180613c3d604891396060019250505060405180910390a182611e7833611d39565b1015611ece5760408051600160e51b62461bcd02815260206004820152601460248201527f696e73756666696369656e742062616c616e6365000000000000000000000000604482015290519081900360640190fd5b600080516020613d0c8339815191526005604051808060200183815260200182810382526048815260200180613c3d604891396060019250505060405180910390a1600080516020613c858339815191526036604051808060200183815260200182810382526048815260200180613c3d604891396060019250505060405180910390a1600080516020613c1d8339815191526019604051808060200183815260200182810382526048815260200180613c3d604891396060019250505060405180910390a16000611f9f846127e4565b9050600080516020613c858339815191526037604051808060200183815260200182810382526048815260200180613c3d604891396060019250505060405180910390a1600080516020613c1d833981519152601a604051808060200183815260200182810382526048815260200180613c3d604891396060019250505060405180910390a1600061203085611711565b9050600080516020613c858339815191526038604051808060200183815260200182810382526048815260200180613c3d604891396060019250505060405180910390a1600080516020613c1d833981519152601b604051808060200183815260200182810382526048815260200180613c3d604891396060019250505060405180910390a16120c0338661390d565b600080516020613c858339815191526039604051808060200183815260200182810382526048815260200180613c3d604891396060019250505060405180910390a1600080516020613c1d833981519152601c604051808060200183815260200182810382526048815260200180613c3d604891396060019250505060405180910390a16004805460408051600160e01b63a9059cbb028152339381019390935260248301859052516001600160a01b039091169163a9059cbb9160448083019260209291908290030181600087803b15801561219c57600080fd5b505af11580156121b0573d6000803e3d6000fd5b505050506040513d60208110156121c657600080fd5b505060408051603a602082018190528282526048928201839052600080516020613c858339815191529290919081906060820190613c3d82396060019250505060405180910390a1600080516020613c1d833981519152601d604051808060200183815260200182810382526048815260200180613c3d604891396060019250505060405180910390a160055460408051600160e01b63a9059cbb0281523360048201526024810184905290516001600160a01b039092169163a9059cbb916044808201926020929091908290030181600087803b1580156122a757600080fd5b505af11580156122bb573d6000803e3d6000fd5b505050506040513d60208110156122d157600080fd5b505060408051603b602082018190528282526048928201839052600080516020613c858339815191529290919081906060820190613c3d82396060019250505060405180910390a1600080516020613c1d833981519152601e604051808060200183815260200182810382526048815260200180613c3d604891396060019250505060405180910390a19092509050915091565b3360008181526001602090815260408083206001600160a01b038716845290915281205490916104329185906116c6908663ffffffff61384916565b6000610432338484613701565b6000600080516020613d508339815191526005604051808060200183815260200182810382526048815260200180613c3d604891396060019250505060405180910390a1600080516020613c85833981519152602d604051808060200183815260200182810382526048815260200180613c3d604891396060019250505060405180910390a1600080516020613c1d8339815191526013604051808060200183815260200182810382526048815260200180613c3d604891396060019250505060405180910390a16004805460408051600160e01b6370a082310281523093810193909352516000926001600160a01b03909216916370a0823191602480830192602092919082900301818787803b1580156124c957600080fd5b505af11580156124dd573d6000803e3d6000fd5b505050506040513d60208110156124f357600080fd5b505160408051602e602082018190528282526048928201839052929350600080516020613c85833981519152929181906060820190613c3d82396060019250505060405180910390a1600080516020613c1d8339815191526014604051808060200183815260200182810382526048815260200180613c3d604891396060019250505060405180910390a160055460408051600160e01b6370a0823102815230600482015290516000926001600160a01b0316916370a0823191602480830192602092919082900301818787803b1580156125cd57600080fd5b505af11580156125e1573d6000803e3d6000fd5b505050506040513d60208110156125f757600080fd5b505160408051602f602082018190528282526048928201839052929350600080516020613c85833981519152929181906060820190613c3d82396060019250505060405180910390a1600080516020613c1d8339815191526015604051808060200183815260200182810382526048815260200180613c3d604891396060019250505060405180910390a160006126b3612697838763ffffffff6138a916565b6126a7858563ffffffff6139e916565b9063ffffffff613a4516565b9050600080516020613c858339815191526030604051808060200183815260200182810382526048815260200180613c3d604891396060019250505060405180910390a1600080516020613c1d8339815191526016604051808060200183815260200182810382526048815260200180613c3d604891396060019250505060405180910390a1600061274b848363ffffffff61384916565b9050600080516020613c858339815191526031604051808060200183815260200182810382526048815260200180613c3d604891396060019250505060405180910390a1600080516020613c1d8339815191526017604051808060200183815260200182810382526048815260200180613c3d604891396060019250505060405180910390a16127da81613aa9565b9695505050505050565b6000600080516020613d508339815191526008604051808060200183815260200182810382526048815260200180613c3d604891396060019250505060405180910390a1600080516020613c858339815191526051604051808060200183815260200182810382526048815260200180613c3d604891396060019250505060405180910390a1600080516020613bfd833981519152600b604051808060200183815260200182810382526048815260200180613c3d604891396060019250505060405180910390a1600080516020613c1d833981519152602a604051808060200183815260200182810382526048815260200180613c3d604891396060019250505060405180910390a16128f66109f9565b6129405760408051600160e51b62461bcd0281526020600482015260106024820152600160801b6f6469766973696f6e206279207a65726f02604482015290519081900360640190fd5b600080516020613d0c833981519152600b604051808060200183815260200182810382526048815260200180613c3d604891396060019250505060405180910390a1600080516020613c858339815191526052604051808060200183815260200182810382526048815260200180613c3d604891396060019250505060405180910390a1600080516020613c1d833981519152602b604051808060200183815260200182810382526048815260200180613c3d604891396060019250505060405180910390a16004805460408051600160e01b6370a082310281523093810193909352516000926001600160a01b03909216916370a0823191602480830192602092919082900301818787803b158015612a5957600080fd5b505af1158015612a6d573d6000803e3d6000fd5b505050506040513d6020811015612a8357600080fd5b5051604080516053602082018190528282526048928201839052929350600080516020613c85833981519152929181906060820190613c3d82396060019250505060405180910390a1600080516020613c1d833981519152602c604051808060200183815260200182810382526048815260200180613c3d604891396060019250505060405180910390a1611a3f6109f9565b6005546001600160a01b031681565b6000600080516020613d508339815191526003604051808060200183815260200182810382526048815260200180613c3d604891396060019250505060405180910390a1600080516020613c85833981519152601d604051808060200183815260200182810382526048815260200180613c3d604891396060019250505060405180910390a1600080516020613bfd8339815191526003604051808060200183815260200182810382526048815260200180613c3d604891396060019250505060405180910390a1600080516020613c1d8339815191526009604051808060200183815260200182810382526048815260200180613c3d604891396060019250505060405180910390a1612c376109f9565b612c8b5760408051600160e51b62461bcd02815260206004820152601460248201527f7265736572766520686173206e6f2066756e6473000000000000000000000000604482015290519081900360640190fd5b600080516020613d0c8339815191526003604051808060200183815260200182810382526048815260200180613c3d604891396060019250505060405180910390a1600080516020613c85833981519152601e604051808060200183815260200182810382526048815260200180613c3d604891396060019250505060405180910390a1600080516020613c1d833981519152600a604051808060200183815260200182810382526048815260200180613c3d604891396060019250505060405180910390a16000612d5c836123ae565b9050600080516020613c85833981519152601f604051808060200183815260200182810382526048815260200180613c3d604891396060019250505060405180910390a1600080516020613c1d833981519152600b604051808060200183815260200182810382526048815260200180613c3d604891396060019250505060405180910390a160055460408051600160e01b6323b872dd0281526001600160a01b03878116600483015230602483015260448201879052915191909216916323b872dd9160648083019260209291908290030181600087803b158015612e4157600080fd5b505af1158015612e55573d6000803e3d6000fd5b505050506040513d6020811015612e6b57600080fd5b50506040805160208181018190528282526048928201839052600080516020613c858339815191529290919081906060820190613c3d82396060019250505060405180910390a1600080516020613bfd8339815191526004604051808060200183815260200182810382526048815260200180613c3d604891396060019250505060405180910390a1600080516020613c1d833981519152600c604051808060200183815260200182810382526048815260200180613c3d604891396060019250505060405180910390a16004805460408051600160e01b63a9059cbb0281526001600160a01b0389811694820194909452602481018590529051929091169163a9059cbb916044808201926020929091908290030181600087803b158015612f9357600080fd5b505af1158015612fa7573d6000803e3d6000fd5b505050506040513d6020811015612fbd57600080fd5b50516130135760408051600160e51b62461bcd02815260206004820152601d60248201527f6661696c656420746f207472616e73666572206261736520746f6b656e000000604482015290519081900360640190fd5b600080516020613d0c8339815191526004604051808060200183815260200182810382526048815260200180613c3d604891396060019250505060405180910390a1600080516020613c858339815191526021604051808060200183815260200182810382526048815260200180613c3d604891396060019250505060405180910390a1600080516020613c1d833981519152600d604051808060200183815260200182810382526048815260200180613c3d604891396060019250505060405180910390a1949350505050565b6000600080516020613d508339815191526004604051808060200183815260200182810382526048815260200180613c3d604891396060019250505060405180910390a1600080516020613c858339815191526025604051808060200183815260200182810382526048815260200180613c3d604891396060019250505060405180910390a1600080516020613c1d833981519152600e604051808060200183815260200182810382526048815260200180613c3d604891396060019250505060405180910390a16004805460408051600160e01b6370a082310281523093810193909352516000926001600160a01b03909216916370a0823191602480830192602092919082900301818787803b1580156131fc57600080fd5b505af1158015613210573d6000803e3d6000fd5b505050506040513d602081101561322657600080fd5b5051604080516026602082018190528282526048928201839052929350600080516020613c85833981519152929181906060820190613c3d82396060019250505060405180910390a1600080516020613c1d833981519152600f604051808060200183815260200182810382526048815260200180613c3d604891396060019250505060405180910390a160055460408051600160e01b6370a0823102815230600482015290516000926001600160a01b0316916370a0823191602480830192602092919082900301818787803b15801561330057600080fd5b505af1158015613314573d6000803e3d6000fd5b505050506040513d602081101561332a57600080fd5b5051604080516027602082018190528282526048928201839052929350600080516020613c85833981519152929181906060820190613c3d82396060019250505060405180910390a1600080516020613c1d8339815191526010604051808060200183815260200182810382526048815260200180613c3d604891396060019250505060405180910390a160006133ca612697848763ffffffff6138a916565b9050600080516020613c858339815191526028604051808060200183815260200182810382526048815260200180613c3d604891396060019250505060405180910390a1600080516020613c1d8339815191526011604051808060200183815260200182810382526048815260200180613c3d604891396060019250505060405180910390a16000613462838363ffffffff61384916565b9050600080516020613c858339815191526029604051808060200183815260200182810382526048815260200180613c3d604891396060019250505060405180910390a1600080516020613c1d8339815191526012604051808060200183815260200182810382526048815260200180613c3d604891396060019250505060405180910390a16127da81613aa9565b6001600160a01b03918216600090815260016020908152604080832093909416825291909152205490565b6001600160a01b03831661356457604051600160e51b62461bcd028152600401808060200182810382526024815260200180613d2c6024913960400191505060405180910390fd5b6001600160a01b0382166135ac57604051600160e51b62461bcd028152600401808060200182810382526022815260200180613baf6022913960400191505060405180910390fd5b6001600160a01b03808416600081815260016020908152604080832094871680845294825291829020859055815185815291517f8c5be1e5ebec7d5bd14f71427d1e84f3dd0314c0f7b2291e5b200ac8c7c3b9259281900390910190a3505050565b6001600160a01b03821661366c5760408051600160e51b62461bcd02815260206004820152601f60248201527f45524332303a206d696e7420746f20746865207a65726f206164647265737300604482015290519081900360640190fd5b60025461367f908263ffffffff6138a916565b6002556001600160a01b0382166000908152602081905260409020546136ab908263ffffffff6138a916565b6001600160a01b0383166000818152602081815260408083209490945583518581529351929391927fddf252ad1be2c89b69c2b068fc378daa952ba7f163c4a11628f55a4df523b3ef9281900390910190a35050565b6001600160a01b03831661374957604051600160e51b62461bcd028152600401808060200182810382526025815260200180613ce76025913960400191505060405180910390fd5b6001600160a01b03821661379157604051600160e51b62461bcd028152600401808060200182810382526023815260200180613b8c6023913960400191505060405180910390fd5b6001600160a01b0383166000908152602081905260409020546137ba908263ffffffff61384916565b6001600160a01b0380851660009081526020819052604080822093909355908416815220546137ef908263ffffffff6138a916565b6001600160a01b038084166000818152602081815260409182902094909455805185815290519193928716927fddf252ad1be2c89b69c2b068fc378daa952ba7f163c4a11628f55a4df523b3ef92918290030190a3505050565b6000828211156138a35760408051600160e51b62461bcd02815260206004820152601e60248201527f536166654d6174683a207375627472616374696f6e206f766572666c6f770000604482015290519081900360640190fd5b50900390565b6000828201838110156139065760408051600160e51b62461bcd02815260206004820152601b60248201527f536166654d6174683a206164646974696f6e206f766572666c6f770000000000604482015290519081900360640190fd5b9392505050565b6001600160a01b03821661395557604051600160e51b62461bcd028152600401808060200182810382526021815260200180613cc66021913960400191505060405180910390fd5b600254613968908263ffffffff61384916565b6002556001600160a01b038216600090815260208190526040902054613994908263ffffffff61384916565b6001600160a01b038316600081815260208181526040808320949094558351858152935191937fddf252ad1be2c89b69c2b068fc378daa952ba7f163c4a11628f55a4df523b3ef929081900390910190a35050565b6000826139f857506000610436565b82820282848281613a0557fe5b041461390657604051600160e51b62461bcd028152600401808060200182810382526021815260200180613ca56021913960400191505060405180910390fd5b6000808211613a9e5760408051600160e51b62461bcd02815260206004820152601a60248201527f536166654d6174683a206469766973696f6e206279207a65726f000000000000604482015290519081900360640190fd5b6000828481611d3057fe5b6000600080516020613d50833981519152600b604051808060200183815260200182810382526048815260200180613c3d604891396060019250505060405180910390a1600080516020613c858339815191526063604051808060200183815260200182810382526048815260200180613c3d604891396060019250505060405180910390a1600080516020613c1d8339815191526033604051808060200183815260200182810382526048815260200180613c3d604891396060019250505060405180910390a161271060035461271003830281613b8457fe5b049291505056fe45524332303a207472616e7366657220746f20746865207a65726f206164647265737345524332303a20617070726f766520746f20746865207a65726f2061646472657373746f6b656e20616d6f756e74206973206c657373207468616e20616c6c6f776564206d696e20616d6f756e74837c55689f24dab8484a895fd818aede5bb7030cec564bb99d261b61b229c1965c9fef4d2df13a2068a6f78c3bd4888ab686998d0b02c8eb2eed86a0bf62486d2f686f6d652f737573727574682f72656e2f72656e766d2d64656d6f2f657468657265756d2d636f6e7472616374732f636f6e7472616374732f444558526573657276652e736f6c7a31235eafa3cb3ba122b86b69cc8ff31ff72c728303695492ac880e6a1b4425536166654d6174683a206d756c7469706c69636174696f6e206f766572666c6f7745524332303a206275726e2066726f6d20746865207a65726f206164647265737345524332303a207472616e736665722066726f6d20746865207a65726f2061646472657373c869cde67cee916dc9684315fb0a5906ab8df7696fbcd36abaf7c5b3db8e71ba45524332303a20617070726f76652066726f6d20746865207a65726f2061646472657373144b5bdb98db37b59090db7fe3492f886416729ae153853bb0ad61080bb49845a165627a7a7230582086d50f0e9ea4c2742a413ab39449776413320b548b09593d2e564c3d17362bdf00295c9fef4d2df13a2068a6f78c3bd4888ab686998d0b02c8eb2eed86a0bf62486d2f686f6d652f737573727574682f72656e2f72656e766d2d64656d6f2f657468657265756d2d636f6e7472616374732f636f6e7472616374732f444558526573657276652e736f6c7a31235eafa3cb3ba122b86b69cc8ff31ff72c728303695492ac880e6a1b4425144b5bdb98db37b59090db7fe3492f886416729ae153853bb0ad61080bb49845",
  "source": "pragma solidity ^0.5.8;\n\nimport \"darknode-sol/contracts/Shifter/Shifter.sol\";\nimport \"openzeppelin-solidity/contracts/token/ERC20/ERC20.sol\";\nimport \"openzeppelin-solidity/contracts/math/SafeMath.sol\";\n\ncontract DEXReserve is ERC20 {event __CoverageDEXReserve(string fileName, uint256 lineNumber);\nevent __FunctionCoverageDEXReserve(string fileName, uint256 fnId);\nevent __StatementCoverageDEXReserve(string fileName, uint256 statementId);\nevent __BranchCoverageDEXReserve(string fileName, uint256 branchId, uint256 locationIdx);\nevent __AssertPreCoverageDEXReserve(string fileName, uint256 branchId);\nevent __AssertPostCoverageDEXReserve(string fileName, uint256 branchId);\n\n    uint256 FeeInBIPS;\n    ERC20 public BaseToken;\n    ERC20 public Token;\n    event LogAddLiquidity(address _liquidityProvider, uint256 _tokenAmount, uint256 _baseTokenAmount);\n    event LogDebug(uint256 _rcvAmount);\n\n    constructor (ERC20 _baseToken, ERC20 _token, uint256 _feeInBIPS) public {emit __FunctionCoverageDEXReserve('/home/susruth/ren/renvm-demo/ethereum-contracts/contracts/DEXReserve.sol',1);\n\nemit __CoverageDEXReserve('/home/susruth/ren/renvm-demo/ethereum-contracts/contracts/DEXReserve.sol',15);\n        emit __StatementCoverageDEXReserve('/home/susruth/ren/renvm-demo/ethereum-contracts/contracts/DEXReserve.sol',1);\nBaseToken = _baseToken;\nemit __CoverageDEXReserve('/home/susruth/ren/renvm-demo/ethereum-contracts/contracts/DEXReserve.sol',16);\n        emit __StatementCoverageDEXReserve('/home/susruth/ren/renvm-demo/ethereum-contracts/contracts/DEXReserve.sol',2);\nToken = _token;\nemit __CoverageDEXReserve('/home/susruth/ren/renvm-demo/ethereum-contracts/contracts/DEXReserve.sol',17);\n        emit __StatementCoverageDEXReserve('/home/susruth/ren/renvm-demo/ethereum-contracts/contracts/DEXReserve.sol',3);\nFeeInBIPS = _feeInBIPS;\n    }\n\n    function buy(address _to, address _from, uint256 _baseTokenAmount) external returns (uint256)  {emit __FunctionCoverageDEXReserve('/home/susruth/ren/renvm-demo/ethereum-contracts/contracts/DEXReserve.sol',2);\n\nemit __CoverageDEXReserve('/home/susruth/ren/renvm-demo/ethereum-contracts/contracts/DEXReserve.sol',21);\n        emit __AssertPreCoverageDEXReserve('/home/susruth/ren/renvm-demo/ethereum-contracts/contracts/DEXReserve.sol',1);\nemit __StatementCoverageDEXReserve('/home/susruth/ren/renvm-demo/ethereum-contracts/contracts/DEXReserve.sol',4);\nrequire(totalSupply() != 0, \"reserve has no funds\");emit __AssertPostCoverageDEXReserve('/home/susruth/ren/renvm-demo/ethereum-contracts/contracts/DEXReserve.sol',1);\n\nemit __CoverageDEXReserve('/home/susruth/ren/renvm-demo/ethereum-contracts/contracts/DEXReserve.sol',22);\n        emit __StatementCoverageDEXReserve('/home/susruth/ren/renvm-demo/ethereum-contracts/contracts/DEXReserve.sol',5);\nuint256 rcvAmount = calculateBuyRcvAmt(_baseTokenAmount);\nemit __CoverageDEXReserve('/home/susruth/ren/renvm-demo/ethereum-contracts/contracts/DEXReserve.sol',23);\n        emit __StatementCoverageDEXReserve('/home/susruth/ren/renvm-demo/ethereum-contracts/contracts/DEXReserve.sol',6);\nBaseToken.transferFrom(_from, address(this), _baseTokenAmount);\nemit __CoverageDEXReserve('/home/susruth/ren/renvm-demo/ethereum-contracts/contracts/DEXReserve.sol',24);\n        emit __AssertPreCoverageDEXReserve('/home/susruth/ren/renvm-demo/ethereum-contracts/contracts/DEXReserve.sol',2);\nemit __StatementCoverageDEXReserve('/home/susruth/ren/renvm-demo/ethereum-contracts/contracts/DEXReserve.sol',7);\nrequire(Token.transfer(_to, rcvAmount), \"failed to transfer quote token\");emit __AssertPostCoverageDEXReserve('/home/susruth/ren/renvm-demo/ethereum-contracts/contracts/DEXReserve.sol',2);\n\nemit __CoverageDEXReserve('/home/susruth/ren/renvm-demo/ethereum-contracts/contracts/DEXReserve.sol',25);\n        emit __StatementCoverageDEXReserve('/home/susruth/ren/renvm-demo/ethereum-contracts/contracts/DEXReserve.sol',8);\nreturn rcvAmount;\n    }\n\n    function sell(address _to, address _from, uint256 _tokenAmount) external returns (uint256) {emit __FunctionCoverageDEXReserve('/home/susruth/ren/renvm-demo/ethereum-contracts/contracts/DEXReserve.sol',3);\n\nemit __CoverageDEXReserve('/home/susruth/ren/renvm-demo/ethereum-contracts/contracts/DEXReserve.sol',29);\n        emit __AssertPreCoverageDEXReserve('/home/susruth/ren/renvm-demo/ethereum-contracts/contracts/DEXReserve.sol',3);\nemit __StatementCoverageDEXReserve('/home/susruth/ren/renvm-demo/ethereum-contracts/contracts/DEXReserve.sol',9);\nrequire(totalSupply() != 0, \"reserve has no funds\");emit __AssertPostCoverageDEXReserve('/home/susruth/ren/renvm-demo/ethereum-contracts/contracts/DEXReserve.sol',3);\n\nemit __CoverageDEXReserve('/home/susruth/ren/renvm-demo/ethereum-contracts/contracts/DEXReserve.sol',30);\n        emit __StatementCoverageDEXReserve('/home/susruth/ren/renvm-demo/ethereum-contracts/contracts/DEXReserve.sol',10);\nuint256 rcvAmount = calculateSellRcvAmt(_tokenAmount);\nemit __CoverageDEXReserve('/home/susruth/ren/renvm-demo/ethereum-contracts/contracts/DEXReserve.sol',31);\n        emit __StatementCoverageDEXReserve('/home/susruth/ren/renvm-demo/ethereum-contracts/contracts/DEXReserve.sol',11);\nToken.transferFrom(_from, address(this), _tokenAmount);\nemit __CoverageDEXReserve('/home/susruth/ren/renvm-demo/ethereum-contracts/contracts/DEXReserve.sol',32);\n        emit __AssertPreCoverageDEXReserve('/home/susruth/ren/renvm-demo/ethereum-contracts/contracts/DEXReserve.sol',4);\nemit __StatementCoverageDEXReserve('/home/susruth/ren/renvm-demo/ethereum-contracts/contracts/DEXReserve.sol',12);\nrequire(BaseToken.transfer(_to, rcvAmount), \"failed to transfer base token\");emit __AssertPostCoverageDEXReserve('/home/susruth/ren/renvm-demo/ethereum-contracts/contracts/DEXReserve.sol',4);\n\nemit __CoverageDEXReserve('/home/susruth/ren/renvm-demo/ethereum-contracts/contracts/DEXReserve.sol',33);\n        emit __StatementCoverageDEXReserve('/home/susruth/ren/renvm-demo/ethereum-contracts/contracts/DEXReserve.sol',13);\nreturn rcvAmount;\n    }\n\n    function calculateBuyRcvAmt(uint256 _sendAmt) public      returns (uint256) {emit __FunctionCoverageDEXReserve('/home/susruth/ren/renvm-demo/ethereum-contracts/contracts/DEXReserve.sol',4);\n\nemit __CoverageDEXReserve('/home/susruth/ren/renvm-demo/ethereum-contracts/contracts/DEXReserve.sol',37);\n        emit __StatementCoverageDEXReserve('/home/susruth/ren/renvm-demo/ethereum-contracts/contracts/DEXReserve.sol',14);\nuint256 daiReserve = BaseToken.balanceOf(address(this));\nemit __CoverageDEXReserve('/home/susruth/ren/renvm-demo/ethereum-contracts/contracts/DEXReserve.sol',38);\n        emit __StatementCoverageDEXReserve('/home/susruth/ren/renvm-demo/ethereum-contracts/contracts/DEXReserve.sol',15);\nuint256 tokenReserve = Token.balanceOf(address(this));\nemit __CoverageDEXReserve('/home/susruth/ren/renvm-demo/ethereum-contracts/contracts/DEXReserve.sol',39);\n        emit __StatementCoverageDEXReserve('/home/susruth/ren/renvm-demo/ethereum-contracts/contracts/DEXReserve.sol',16);\nuint256 finalQuoteTokenAmount = (daiReserve.mul(tokenReserve)).div(daiReserve.add(_sendAmt));\nemit __CoverageDEXReserve('/home/susruth/ren/renvm-demo/ethereum-contracts/contracts/DEXReserve.sol',40);\n        emit __StatementCoverageDEXReserve('/home/susruth/ren/renvm-demo/ethereum-contracts/contracts/DEXReserve.sol',17);\nuint256 rcvAmt = tokenReserve.sub(finalQuoteTokenAmount);\nemit __CoverageDEXReserve('/home/susruth/ren/renvm-demo/ethereum-contracts/contracts/DEXReserve.sol',41);\n        emit __StatementCoverageDEXReserve('/home/susruth/ren/renvm-demo/ethereum-contracts/contracts/DEXReserve.sol',18);\nreturn _removeFees(rcvAmt);\n    }\n\n    function calculateSellRcvAmt(uint256 _sendAmt) public      returns (uint256) {emit __FunctionCoverageDEXReserve('/home/susruth/ren/renvm-demo/ethereum-contracts/contracts/DEXReserve.sol',5);\n\nemit __CoverageDEXReserve('/home/susruth/ren/renvm-demo/ethereum-contracts/contracts/DEXReserve.sol',45);\n        emit __StatementCoverageDEXReserve('/home/susruth/ren/renvm-demo/ethereum-contracts/contracts/DEXReserve.sol',19);\nuint256 daiReserve = BaseToken.balanceOf(address(this));\nemit __CoverageDEXReserve('/home/susruth/ren/renvm-demo/ethereum-contracts/contracts/DEXReserve.sol',46);\n        emit __StatementCoverageDEXReserve('/home/susruth/ren/renvm-demo/ethereum-contracts/contracts/DEXReserve.sol',20);\nuint256 tokenReserve = Token.balanceOf(address(this));\nemit __CoverageDEXReserve('/home/susruth/ren/renvm-demo/ethereum-contracts/contracts/DEXReserve.sol',47);\n        emit __StatementCoverageDEXReserve('/home/susruth/ren/renvm-demo/ethereum-contracts/contracts/DEXReserve.sol',21);\nuint256 finalBaseTokenAmount = (daiReserve.mul(tokenReserve)).div(tokenReserve.add(_sendAmt));\nemit __CoverageDEXReserve('/home/susruth/ren/renvm-demo/ethereum-contracts/contracts/DEXReserve.sol',48);\n        emit __StatementCoverageDEXReserve('/home/susruth/ren/renvm-demo/ethereum-contracts/contracts/DEXReserve.sol',22);\nuint256 rcvAmt = daiReserve.sub(finalBaseTokenAmount);\nemit __CoverageDEXReserve('/home/susruth/ren/renvm-demo/ethereum-contracts/contracts/DEXReserve.sol',49);\n        emit __StatementCoverageDEXReserve('/home/susruth/ren/renvm-demo/ethereum-contracts/contracts/DEXReserve.sol',23);\nreturn _removeFees(rcvAmt);\n    }\n\n    function removeLiquidity(uint256 _liquidity) external returns (uint256, uint256) {emit __FunctionCoverageDEXReserve('/home/susruth/ren/renvm-demo/ethereum-contracts/contracts/DEXReserve.sol',6);\n\nemit __CoverageDEXReserve('/home/susruth/ren/renvm-demo/ethereum-contracts/contracts/DEXReserve.sol',53);\n        emit __AssertPreCoverageDEXReserve('/home/susruth/ren/renvm-demo/ethereum-contracts/contracts/DEXReserve.sol',5);\nemit __StatementCoverageDEXReserve('/home/susruth/ren/renvm-demo/ethereum-contracts/contracts/DEXReserve.sol',24);\nrequire(balanceOf(msg.sender) >= _liquidity, \"insufficient balance\");emit __AssertPostCoverageDEXReserve('/home/susruth/ren/renvm-demo/ethereum-contracts/contracts/DEXReserve.sol',5);\n\nemit __CoverageDEXReserve('/home/susruth/ren/renvm-demo/ethereum-contracts/contracts/DEXReserve.sol',54);\n        emit __StatementCoverageDEXReserve('/home/susruth/ren/renvm-demo/ethereum-contracts/contracts/DEXReserve.sol',25);\nuint256 baseTokenAmount = calculateBaseTokenValue(_liquidity);\nemit __CoverageDEXReserve('/home/susruth/ren/renvm-demo/ethereum-contracts/contracts/DEXReserve.sol',55);\n        emit __StatementCoverageDEXReserve('/home/susruth/ren/renvm-demo/ethereum-contracts/contracts/DEXReserve.sol',26);\nuint256 quoteTokenAmount = calculateQuoteTokenValue(_liquidity);\nemit __CoverageDEXReserve('/home/susruth/ren/renvm-demo/ethereum-contracts/contracts/DEXReserve.sol',56);\n        emit __StatementCoverageDEXReserve('/home/susruth/ren/renvm-demo/ethereum-contracts/contracts/DEXReserve.sol',27);\n_burn(msg.sender, _liquidity);\nemit __CoverageDEXReserve('/home/susruth/ren/renvm-demo/ethereum-contracts/contracts/DEXReserve.sol',57);\n        emit __StatementCoverageDEXReserve('/home/susruth/ren/renvm-demo/ethereum-contracts/contracts/DEXReserve.sol',28);\nBaseToken.transfer(msg.sender, baseTokenAmount);\nemit __CoverageDEXReserve('/home/susruth/ren/renvm-demo/ethereum-contracts/contracts/DEXReserve.sol',58);\n        emit __StatementCoverageDEXReserve('/home/susruth/ren/renvm-demo/ethereum-contracts/contracts/DEXReserve.sol',29);\nToken.transfer(msg.sender, quoteTokenAmount);\nemit __CoverageDEXReserve('/home/susruth/ren/renvm-demo/ethereum-contracts/contracts/DEXReserve.sol',59);\n        emit __StatementCoverageDEXReserve('/home/susruth/ren/renvm-demo/ethereum-contracts/contracts/DEXReserve.sol',30);\nreturn (baseTokenAmount, quoteTokenAmount);\n    }\n\n    function addLiquidity(\n        address _liquidiyProvider, uint256 _maxBaseToken, uint256 _tokenAmount, uint256 _deadline\n        ) external returns (uint256) {emit __FunctionCoverageDEXReserve('/home/susruth/ren/renvm-demo/ethereum-contracts/contracts/DEXReserve.sol',7);\n\nemit __CoverageDEXReserve('/home/susruth/ren/renvm-demo/ethereum-contracts/contracts/DEXReserve.sol',65);\n        emit __AssertPreCoverageDEXReserve('/home/susruth/ren/renvm-demo/ethereum-contracts/contracts/DEXReserve.sol',6);\nemit __StatementCoverageDEXReserve('/home/susruth/ren/renvm-demo/ethereum-contracts/contracts/DEXReserve.sol',31);\nrequire(_deadline > block.number, \"addLiquidity request expired\");emit __AssertPostCoverageDEXReserve('/home/susruth/ren/renvm-demo/ethereum-contracts/contracts/DEXReserve.sol',6);\n\nemit __CoverageDEXReserve('/home/susruth/ren/renvm-demo/ethereum-contracts/contracts/DEXReserve.sol',66);\n        emit __StatementCoverageDEXReserve('/home/susruth/ren/renvm-demo/ethereum-contracts/contracts/DEXReserve.sol',32);\nToken.transferFrom(msg.sender, address(this), _tokenAmount);\nemit __CoverageDEXReserve('/home/susruth/ren/renvm-demo/ethereum-contracts/contracts/DEXReserve.sol',67);\n        emit __StatementCoverageDEXReserve('/home/susruth/ren/renvm-demo/ethereum-contracts/contracts/DEXReserve.sol',33);\nif (totalSupply() > 0) {emit __BranchCoverageDEXReserve('/home/susruth/ren/renvm-demo/ethereum-contracts/contracts/DEXReserve.sol',7,0);\nemit __CoverageDEXReserve('/home/susruth/ren/renvm-demo/ethereum-contracts/contracts/DEXReserve.sol',68);\n            emit __AssertPreCoverageDEXReserve('/home/susruth/ren/renvm-demo/ethereum-contracts/contracts/DEXReserve.sol',8);\nemit __StatementCoverageDEXReserve('/home/susruth/ren/renvm-demo/ethereum-contracts/contracts/DEXReserve.sol',34);\nrequire(_tokenAmount > 0, \"token amount is less than allowed min amount\");emit __AssertPostCoverageDEXReserve('/home/susruth/ren/renvm-demo/ethereum-contracts/contracts/DEXReserve.sol',8);\n\nemit __CoverageDEXReserve('/home/susruth/ren/renvm-demo/ethereum-contracts/contracts/DEXReserve.sol',69);\n            emit __StatementCoverageDEXReserve('/home/susruth/ren/renvm-demo/ethereum-contracts/contracts/DEXReserve.sol',35);\nuint256 daiAmount = expectedBaseTokenAmount(_tokenAmount);\nemit __CoverageDEXReserve('/home/susruth/ren/renvm-demo/ethereum-contracts/contracts/DEXReserve.sol',70);\n            emit __AssertPreCoverageDEXReserve('/home/susruth/ren/renvm-demo/ethereum-contracts/contracts/DEXReserve.sol',9);\nemit __StatementCoverageDEXReserve('/home/susruth/ren/renvm-demo/ethereum-contracts/contracts/DEXReserve.sol',36);\nrequire(daiAmount < _maxBaseToken && BaseToken.transferFrom(_liquidiyProvider, address(this), daiAmount), \"failed to transfer base token\");emit __AssertPostCoverageDEXReserve('/home/susruth/ren/renvm-demo/ethereum-contracts/contracts/DEXReserve.sol',9);\n\nemit __CoverageDEXReserve('/home/susruth/ren/renvm-demo/ethereum-contracts/contracts/DEXReserve.sol',71);\n            emit __StatementCoverageDEXReserve('/home/susruth/ren/renvm-demo/ethereum-contracts/contracts/DEXReserve.sol',37);\nemit LogAddLiquidity(_liquidiyProvider, _tokenAmount, daiAmount);\n        } else {emit __BranchCoverageDEXReserve('/home/susruth/ren/renvm-demo/ethereum-contracts/contracts/DEXReserve.sol',7,1);\nemit __CoverageDEXReserve('/home/susruth/ren/renvm-demo/ethereum-contracts/contracts/DEXReserve.sol',73);\n            emit __AssertPreCoverageDEXReserve('/home/susruth/ren/renvm-demo/ethereum-contracts/contracts/DEXReserve.sol',10);\nemit __StatementCoverageDEXReserve('/home/susruth/ren/renvm-demo/ethereum-contracts/contracts/DEXReserve.sol',38);\nrequire(BaseToken.transferFrom(_liquidiyProvider, address(this), _maxBaseToken), \"failed to transfer base token\");emit __AssertPostCoverageDEXReserve('/home/susruth/ren/renvm-demo/ethereum-contracts/contracts/DEXReserve.sol',10);\n\nemit __CoverageDEXReserve('/home/susruth/ren/renvm-demo/ethereum-contracts/contracts/DEXReserve.sol',74);\n            emit __StatementCoverageDEXReserve('/home/susruth/ren/renvm-demo/ethereum-contracts/contracts/DEXReserve.sol',39);\nemit LogAddLiquidity(_liquidiyProvider, _tokenAmount, _maxBaseToken);\n        }\nemit __CoverageDEXReserve('/home/susruth/ren/renvm-demo/ethereum-contracts/contracts/DEXReserve.sol',76);\n        emit __StatementCoverageDEXReserve('/home/susruth/ren/renvm-demo/ethereum-contracts/contracts/DEXReserve.sol',40);\n_mint(_liquidiyProvider, _tokenAmount*2);\nemit __CoverageDEXReserve('/home/susruth/ren/renvm-demo/ethereum-contracts/contracts/DEXReserve.sol',77);\n        emit __StatementCoverageDEXReserve('/home/susruth/ren/renvm-demo/ethereum-contracts/contracts/DEXReserve.sol',41);\nreturn _tokenAmount*2;\n    }\n\n    function calculateBaseTokenValue(uint256 _liquidity) public      returns (uint256) {emit __FunctionCoverageDEXReserve('/home/susruth/ren/renvm-demo/ethereum-contracts/contracts/DEXReserve.sol',8);\n\nemit __CoverageDEXReserve('/home/susruth/ren/renvm-demo/ethereum-contracts/contracts/DEXReserve.sol',81);\n        emit __AssertPreCoverageDEXReserve('/home/susruth/ren/renvm-demo/ethereum-contracts/contracts/DEXReserve.sol',11);\nemit __StatementCoverageDEXReserve('/home/susruth/ren/renvm-demo/ethereum-contracts/contracts/DEXReserve.sol',42);\nrequire(totalSupply() != 0, \"division by zero\");emit __AssertPostCoverageDEXReserve('/home/susruth/ren/renvm-demo/ethereum-contracts/contracts/DEXReserve.sol',11);\n\nemit __CoverageDEXReserve('/home/susruth/ren/renvm-demo/ethereum-contracts/contracts/DEXReserve.sol',82);\n        emit __StatementCoverageDEXReserve('/home/susruth/ren/renvm-demo/ethereum-contracts/contracts/DEXReserve.sol',43);\nuint256 daiReserve = BaseToken.balanceOf(address(this));\nemit __CoverageDEXReserve('/home/susruth/ren/renvm-demo/ethereum-contracts/contracts/DEXReserve.sol',83);\n        emit __StatementCoverageDEXReserve('/home/susruth/ren/renvm-demo/ethereum-contracts/contracts/DEXReserve.sol',44);\nreturn (_liquidity * daiReserve)/totalSupply();\n    }\n\n    function calculateQuoteTokenValue(uint256 _liquidity) public      returns (uint256) {emit __FunctionCoverageDEXReserve('/home/susruth/ren/renvm-demo/ethereum-contracts/contracts/DEXReserve.sol',9);\n\nemit __CoverageDEXReserve('/home/susruth/ren/renvm-demo/ethereum-contracts/contracts/DEXReserve.sol',87);\n        emit __AssertPreCoverageDEXReserve('/home/susruth/ren/renvm-demo/ethereum-contracts/contracts/DEXReserve.sol',12);\nemit __StatementCoverageDEXReserve('/home/susruth/ren/renvm-demo/ethereum-contracts/contracts/DEXReserve.sol',45);\nrequire(totalSupply() != 0,  \"division by zero\");emit __AssertPostCoverageDEXReserve('/home/susruth/ren/renvm-demo/ethereum-contracts/contracts/DEXReserve.sol',12);\n\nemit __CoverageDEXReserve('/home/susruth/ren/renvm-demo/ethereum-contracts/contracts/DEXReserve.sol',88);\n        emit __StatementCoverageDEXReserve('/home/susruth/ren/renvm-demo/ethereum-contracts/contracts/DEXReserve.sol',46);\nuint256 tokenReserve = Token.balanceOf(address(this));\nemit __CoverageDEXReserve('/home/susruth/ren/renvm-demo/ethereum-contracts/contracts/DEXReserve.sol',89);\n        emit __StatementCoverageDEXReserve('/home/susruth/ren/renvm-demo/ethereum-contracts/contracts/DEXReserve.sol',47);\nreturn (_liquidity * tokenReserve)/totalSupply();\n    }\n\n    function expectedBaseTokenAmount(uint256 _quoteTokenAmount) public      returns (uint256) {emit __FunctionCoverageDEXReserve('/home/susruth/ren/renvm-demo/ethereum-contracts/contracts/DEXReserve.sol',10);\n\nemit __CoverageDEXReserve('/home/susruth/ren/renvm-demo/ethereum-contracts/contracts/DEXReserve.sol',93);\n        emit __StatementCoverageDEXReserve('/home/susruth/ren/renvm-demo/ethereum-contracts/contracts/DEXReserve.sol',48);\nuint256 daiReserve = BaseToken.balanceOf(address(this));\nemit __CoverageDEXReserve('/home/susruth/ren/renvm-demo/ethereum-contracts/contracts/DEXReserve.sol',94);\n        emit __StatementCoverageDEXReserve('/home/susruth/ren/renvm-demo/ethereum-contracts/contracts/DEXReserve.sol',49);\nuint256 tokenReserve = Token.balanceOf(address(this));\nemit __CoverageDEXReserve('/home/susruth/ren/renvm-demo/ethereum-contracts/contracts/DEXReserve.sol',95);\n        emit __StatementCoverageDEXReserve('/home/susruth/ren/renvm-demo/ethereum-contracts/contracts/DEXReserve.sol',50);\nreturn (_quoteTokenAmount * daiReserve)/tokenReserve;\n    }\n\n    function _removeFees(uint256 _amount) internal      returns (uint256) {emit __FunctionCoverageDEXReserve('/home/susruth/ren/renvm-demo/ethereum-contracts/contracts/DEXReserve.sol',11);\n\nemit __CoverageDEXReserve('/home/susruth/ren/renvm-demo/ethereum-contracts/contracts/DEXReserve.sol',99);\n        emit __StatementCoverageDEXReserve('/home/susruth/ren/renvm-demo/ethereum-contracts/contracts/DEXReserve.sol',51);\nreturn (_amount * (10000 - FeeInBIPS))/10000;\n    }\n}\n\n/* solhint-disable-next-line */ /* solium-disable-next-line */\ncontract BTC_DAI_Reserve is DEXReserve {event __CoverageDEXReserve(string fileName, uint256 lineNumber);\nevent __FunctionCoverageDEXReserve(string fileName, uint256 fnId);\nevent __StatementCoverageDEXReserve(string fileName, uint256 statementId);\nevent __BranchCoverageDEXReserve(string fileName, uint256 branchId, uint256 locationIdx);\nevent __AssertPreCoverageDEXReserve(string fileName, uint256 branchId);\nevent __AssertPostCoverageDEXReserve(string fileName, uint256 branchId);\n\n    constructor (ERC20 _baseToken, ERC20 _token, uint256 _feeInBIPS) public DEXReserve(_baseToken, _token, _feeInBIPS) {emit __FunctionCoverageDEXReserve('/home/susruth/ren/renvm-demo/ethereum-contracts/contracts/DEXReserve.sol',12);\n\n    }\n}\n\n/* solhint-disable-next-line */ /* solium-disable-next-line */\ncontract ZEC_DAI_Reserve is DEXReserve {event __CoverageDEXReserve(string fileName, uint256 lineNumber);\nevent __FunctionCoverageDEXReserve(string fileName, uint256 fnId);\nevent __StatementCoverageDEXReserve(string fileName, uint256 statementId);\nevent __BranchCoverageDEXReserve(string fileName, uint256 branchId, uint256 locationIdx);\nevent __AssertPreCoverageDEXReserve(string fileName, uint256 branchId);\nevent __AssertPostCoverageDEXReserve(string fileName, uint256 branchId);\n\n    constructor (ERC20 _baseToken, ERC20 _token, uint256 _feeInBIPS) public DEXReserve(_baseToken, _token, _feeInBIPS) {emit __FunctionCoverageDEXReserve('/home/susruth/ren/renvm-demo/ethereum-contracts/contracts/DEXReserve.sol',13);\n\n    }\n}",
  "sourcePath": "/home/susruth/ren/renvm-demo/ethereum-contracts/coverageEnv/contracts/DEXReserve.sol",
  "compiler": {
    "name": "solc",
    "version": "0.5.8+commit.23d335f2.Emscripten.clang"
  },
  "schemaVersion": "3.0.16",
  "updatedAt": "2019-10-25T05:03:01.671Z",
  "devdoc": {
    "methods": {
      "allowance(address,address)": {
        "details": "See `IERC20.allowance`."
      },
      "approve(address,uint256)": {
        "details": "See `IERC20.approve`.     * Requirements:     * - `spender` cannot be the zero address."
      },
      "balanceOf(address)": {
        "details": "See `IERC20.balanceOf`."
      },
      "decreaseAllowance(address,uint256)": {
        "details": "Atomically decreases the allowance granted to `spender` by the caller.     * This is an alternative to `approve` that can be used as a mitigation for problems described in `IERC20.approve`.     * Emits an `Approval` event indicating the updated allowance.     * Requirements:     * - `spender` cannot be the zero address. - `spender` must have allowance for the caller of at least `subtractedValue`."
      },
      "increaseAllowance(address,uint256)": {
        "details": "Atomically increases the allowance granted to `spender` by the caller.     * This is an alternative to `approve` that can be used as a mitigation for problems described in `IERC20.approve`.     * Emits an `Approval` event indicating the updated allowance.     * Requirements:     * - `spender` cannot be the zero address."
      },
      "totalSupply()": {
        "details": "See `IERC20.totalSupply`."
      },
      "transfer(address,uint256)": {
        "details": "See `IERC20.transfer`.     * Requirements:     * - `recipient` cannot be the zero address. - the caller must have a balance of at least `amount`."
      },
      "transferFrom(address,address,uint256)": {
        "details": "See `IERC20.transferFrom`.     * Emits an `Approval` event indicating the updated allowance. This is not required by the EIP. See the note at the beginning of `ERC20`;     * Requirements: - `sender` and `recipient` cannot be the zero address. - `sender` must have a balance of at least `value`. - the caller must have allowance for `sender`'s tokens of at least `amount`."
      }
    }
  },
  "userdoc": {
    "methods": {}
  }
}