{
  "contractName": "BTC_DAI_Reserve",
  "abi": [
    {
      "constant": false,
      "inputs": [],
      "name": "name",
      "outputs": [
        {
          "name": "",
          "type": "string"
        }
      ],
      "payable": false,
      "stateMutability": "nonpayable",
      "type": "function"
    },
    {
      "constant": false,
      "inputs": [
        {
          "name": "spender",
          "type": "address"
        },
        {
          "name": "value",
          "type": "uint256"
        }
      ],
      "name": "approve",
      "outputs": [
        {
          "name": "",
          "type": "bool"
        }
      ],
      "payable": false,
      "stateMutability": "nonpayable",
      "type": "function"
    },
    {
      "constant": false,
      "inputs": [
        {
          "name": "_to",
          "type": "address"
        },
        {
          "name": "_from",
          "type": "address"
        },
        {
          "name": "_baseTokenAmount",
          "type": "uint256"
        }
      ],
      "name": "buy",
      "outputs": [
        {
          "name": "",
          "type": "uint256"
        }
      ],
      "payable": false,
      "stateMutability": "nonpayable",
      "type": "function"
    },
    {
      "constant": false,
      "inputs": [
        {
          "name": "_token",
          "type": "address"
        }
      ],
      "name": "recoverTokens",
      "outputs": [],
      "payable": false,
      "stateMutability": "nonpayable",
      "type": "function"
    },
    {
      "constant": false,
      "inputs": [],
      "name": "totalSupply",
      "outputs": [
        {
          "name": "",
          "type": "uint256"
        }
      ],
      "payable": false,
      "stateMutability": "nonpayable",
      "type": "function"
    },
    {
      "constant": false,
      "inputs": [
        {
          "name": "_liquidityProvider",
          "type": "address"
        },
        {
          "name": "_maxBaseToken",
          "type": "uint256"
        },
        {
          "name": "_tokenAmount",
          "type": "uint256"
        },
        {
          "name": "_deadline",
          "type": "uint256"
        }
      ],
      "name": "addLiquidity",
      "outputs": [
        {
          "name": "",
          "type": "uint256"
        }
      ],
      "payable": false,
      "stateMutability": "nonpayable",
      "type": "function"
    },
    {
      "constant": false,
      "inputs": [
        {
          "name": "sender",
          "type": "address"
        },
        {
          "name": "recipient",
          "type": "address"
        },
        {
          "name": "amount",
          "type": "uint256"
        }
      ],
      "name": "transferFrom",
      "outputs": [
        {
          "name": "",
          "type": "bool"
        }
      ],
      "payable": false,
      "stateMutability": "nonpayable",
      "type": "function"
    },
    {
      "constant": false,
      "inputs": [],
      "name": "decimals",
      "outputs": [
        {
          "name": "",
          "type": "uint8"
        }
      ],
      "payable": false,
      "stateMutability": "nonpayable",
      "type": "function"
    },
    {
      "constant": false,
      "inputs": [
        {
          "name": "spender",
          "type": "address"
        },
        {
          "name": "addedValue",
          "type": "uint256"
        }
      ],
      "name": "increaseAllowance",
      "outputs": [
        {
          "name": "",
          "type": "bool"
        }
      ],
      "payable": false,
      "stateMutability": "nonpayable",
      "type": "function"
    },
    {
      "constant": false,
      "inputs": [
        {
          "name": "_liquidity",
          "type": "uint256"
        }
      ],
      "name": "calculateQuoteTokenValue",
      "outputs": [
        {
          "name": "",
          "type": "uint256"
        }
      ],
      "payable": false,
      "stateMutability": "nonpayable",
      "type": "function"
    },
    {
      "constant": false,
      "inputs": [
        {
          "name": "_quoteTokenAmount",
          "type": "uint256"
        }
      ],
      "name": "expectedBaseTokenAmount",
      "outputs": [
        {
          "name": "",
          "type": "uint256"
        }
      ],
      "payable": false,
      "stateMutability": "nonpayable",
      "type": "function"
    },
    {
      "constant": true,
      "inputs": [],
      "name": "feeInBIPS",
      "outputs": [
        {
          "name": "",
          "type": "uint256"
        }
      ],
      "payable": false,
      "stateMutability": "view",
      "type": "function"
    },
    {
      "constant": false,
      "inputs": [
        {
          "name": "account",
          "type": "address"
        }
      ],
      "name": "balanceOf",
      "outputs": [
        {
          "name": "",
          "type": "uint256"
        }
      ],
      "payable": false,
      "stateMutability": "nonpayable",
      "type": "function"
    },
    {
      "constant": false,
      "inputs": [],
      "name": "renounceOwnership",
      "outputs": [],
      "payable": false,
      "stateMutability": "nonpayable",
      "type": "function"
    },
    {
      "constant": false,
      "inputs": [],
      "name": "owner",
      "outputs": [
        {
          "name": "",
          "type": "address"
        }
      ],
      "payable": false,
      "stateMutability": "nonpayable",
      "type": "function"
    },
    {
      "constant": false,
      "inputs": [],
      "name": "isOwner",
      "outputs": [
        {
          "name": "",
          "type": "bool"
        }
      ],
      "payable": false,
      "stateMutability": "nonpayable",
      "type": "function"
    },
    {
      "constant": false,
      "inputs": [
        {
          "name": "_pendingFeeInBIPS",
          "type": "uint256"
        }
      ],
      "name": "updateFee",
      "outputs": [],
      "payable": false,
      "stateMutability": "nonpayable",
      "type": "function"
    },
    {
      "constant": false,
      "inputs": [],
      "name": "symbol",
      "outputs": [
        {
          "name": "",
          "type": "string"
        }
      ],
      "payable": false,
      "stateMutability": "nonpayable",
      "type": "function"
    },
    {
      "constant": false,
      "inputs": [
        {
          "name": "_liquidity",
          "type": "uint256"
        }
      ],
      "name": "removeLiquidity",
      "outputs": [
        {
          "name": "",
          "type": "uint256"
        },
        {
          "name": "",
          "type": "uint256"
        }
      ],
      "payable": false,
      "stateMutability": "nonpayable",
      "type": "function"
    },
    {
      "constant": false,
      "inputs": [
        {
          "name": "spender",
          "type": "address"
        },
        {
          "name": "subtractedValue",
          "type": "uint256"
        }
      ],
      "name": "decreaseAllowance",
      "outputs": [
        {
          "name": "",
          "type": "bool"
        }
      ],
      "payable": false,
      "stateMutability": "nonpayable",
      "type": "function"
    },
    {
      "constant": false,
      "inputs": [
        {
          "name": "recipient",
          "type": "address"
        },
        {
          "name": "amount",
          "type": "uint256"
        }
      ],
      "name": "transfer",
      "outputs": [
        {
          "name": "",
          "type": "bool"
        }
      ],
      "payable": false,
      "stateMutability": "nonpayable",
      "type": "function"
    },
    {
      "constant": false,
      "inputs": [
        {
          "name": "_sendAmt",
          "type": "uint256"
        }
      ],
      "name": "calculateSellRcvAmt",
      "outputs": [
        {
          "name": "",
          "type": "uint256"
        }
      ],
      "payable": false,
      "stateMutability": "nonpayable",
      "type": "function"
    },
    {
      "constant": false,
      "inputs": [
        {
          "name": "_liquidity",
          "type": "uint256"
        }
      ],
      "name": "calculateBaseTokenValue",
      "outputs": [
        {
          "name": "",
          "type": "uint256"
        }
      ],
      "payable": false,
      "stateMutability": "nonpayable",
      "type": "function"
    },
    {
      "constant": true,
      "inputs": [],
      "name": "pendingFeeInBIPS",
      "outputs": [
        {
          "name": "",
          "type": "uint256"
        }
      ],
      "payable": false,
      "stateMutability": "view",
      "type": "function"
    },
    {
      "constant": true,
      "inputs": [],
      "name": "feeChangeBlock",
      "outputs": [
        {
          "name": "",
          "type": "uint256"
        }
      ],
      "payable": false,
      "stateMutability": "view",
      "type": "function"
    },
    {
      "constant": true,
      "inputs": [],
      "name": "baseToken",
      "outputs": [
        {
          "name": "",
          "type": "address"
        }
      ],
      "payable": false,
      "stateMutability": "view",
      "type": "function"
    },
    {
      "constant": false,
      "inputs": [
        {
          "name": "_to",
          "type": "address"
        },
        {
          "name": "_from",
          "type": "address"
        },
        {
          "name": "_tokenAmount",
          "type": "uint256"
        }
      ],
      "name": "sell",
      "outputs": [
        {
          "name": "",
          "type": "uint256"
        }
      ],
      "payable": false,
      "stateMutability": "nonpayable",
      "type": "function"
    },
    {
      "constant": false,
      "inputs": [
        {
          "name": "_sendAmt",
          "type": "uint256"
        }
      ],
      "name": "calculateBuyRcvAmt",
      "outputs": [
        {
          "name": "",
          "type": "uint256"
        }
      ],
      "payable": false,
      "stateMutability": "nonpayable",
      "type": "function"
    },
    {
      "constant": false,
      "inputs": [
        {
          "name": "owner",
          "type": "address"
        },
        {
          "name": "spender",
          "type": "address"
        }
      ],
      "name": "allowance",
      "outputs": [
        {
          "name": "",
          "type": "uint256"
        }
      ],
      "payable": false,
      "stateMutability": "nonpayable",
      "type": "function"
    },
    {
      "constant": false,
      "inputs": [
        {
          "name": "_tokenAmount",
          "type": "uint256"
        }
      ],
      "name": "calculateExpectedLiquidity",
      "outputs": [
        {
          "name": "",
          "type": "uint256"
        }
      ],
      "payable": false,
      "stateMutability": "nonpayable",
      "type": "function"
    },
    {
      "constant": false,
      "inputs": [
        {
          "name": "newOwner",
          "type": "address"
        }
      ],
      "name": "transferOwnership",
      "outputs": [],
      "payable": false,
      "stateMutability": "nonpayable",
      "type": "function"
    },
    {
      "constant": true,
      "inputs": [],
      "name": "token",
      "outputs": [
        {
          "name": "",
          "type": "address"
        }
      ],
      "payable": false,
      "stateMutability": "view",
      "type": "function"
    },
    {
      "inputs": [
        {
          "name": "_baseToken",
          "type": "address"
        },
        {
          "name": "_token",
          "type": "address"
        },
        {
          "name": "_feeInBIPS",
          "type": "uint256"
        }
      ],
      "payable": false,
      "stateMutability": "nonpayable",
      "type": "constructor"
    },
    {
      "anonymous": false,
      "inputs": [
        {
          "indexed": false,
          "name": "fileName",
          "type": "string"
        },
        {
          "indexed": false,
          "name": "lineNumber",
          "type": "uint256"
        }
      ],
      "name": "__CoverageDEXReserve",
      "type": "event"
    },
    {
      "anonymous": false,
      "inputs": [
        {
          "indexed": false,
          "name": "fileName",
          "type": "string"
        },
        {
          "indexed": false,
          "name": "fnId",
          "type": "uint256"
        }
      ],
      "name": "__FunctionCoverageDEXReserve",
      "type": "event"
    },
    {
      "anonymous": false,
      "inputs": [
        {
          "indexed": false,
          "name": "fileName",
          "type": "string"
        },
        {
          "indexed": false,
          "name": "statementId",
          "type": "uint256"
        }
      ],
      "name": "__StatementCoverageDEXReserve",
      "type": "event"
    },
    {
      "anonymous": false,
      "inputs": [
        {
          "indexed": false,
          "name": "fileName",
          "type": "string"
        },
        {
          "indexed": false,
          "name": "branchId",
          "type": "uint256"
        },
        {
          "indexed": false,
          "name": "locationIdx",
          "type": "uint256"
        }
      ],
      "name": "__BranchCoverageDEXReserve",
      "type": "event"
    },
    {
      "anonymous": false,
      "inputs": [
        {
          "indexed": false,
          "name": "fileName",
          "type": "string"
        },
        {
          "indexed": false,
          "name": "branchId",
          "type": "uint256"
        }
      ],
      "name": "__AssertPreCoverageDEXReserve",
      "type": "event"
    },
    {
      "anonymous": false,
      "inputs": [
        {
          "indexed": false,
          "name": "fileName",
          "type": "string"
        },
        {
          "indexed": false,
          "name": "branchId",
          "type": "uint256"
        }
      ],
      "name": "__AssertPostCoverageDEXReserve",
      "type": "event"
    },
    {
      "anonymous": false,
      "inputs": [
        {
          "indexed": false,
          "name": "_liquidityProvider",
          "type": "address"
        },
        {
          "indexed": false,
          "name": "_tokenAmount",
          "type": "uint256"
        },
        {
          "indexed": false,
          "name": "_baseTokenAmount",
          "type": "uint256"
        }
      ],
      "name": "LogAddLiquidity",
      "type": "event"
    },
    {
      "anonymous": false,
      "inputs": [
        {
          "indexed": false,
          "name": "_rcvAmount",
          "type": "uint256"
        }
      ],
      "name": "LogDebug",
      "type": "event"
    },
    {
      "anonymous": false,
      "inputs": [
        {
          "indexed": false,
          "name": "_previousFeeInBIPS",
          "type": "uint256"
        },
        {
          "indexed": false,
          "name": "_newFeeInBIPS",
          "type": "uint256"
        }
      ],
      "name": "LogFeesChanged",
      "type": "event"
    },
    {
      "anonymous": false,
      "inputs": [
        {
          "indexed": true,
          "name": "previousOwner",
          "type": "address"
        },
        {
          "indexed": true,
          "name": "newOwner",
          "type": "address"
        }
      ],
      "name": "OwnershipTransferred",
      "type": "event"
    },
    {
      "anonymous": false,
      "inputs": [
        {
          "indexed": true,
          "name": "from",
          "type": "address"
        },
        {
          "indexed": true,
          "name": "to",
          "type": "address"
        },
        {
          "indexed": false,
          "name": "value",
          "type": "uint256"
        }
      ],
      "name": "Transfer",
      "type": "event"
    },
    {
      "anonymous": false,
      "inputs": [
        {
          "indexed": true,
          "name": "owner",
          "type": "address"
        },
        {
          "indexed": true,
          "name": "spender",
          "type": "address"
        },
        {
          "indexed": false,
          "name": "value",
          "type": "uint256"
        }
      ],
      "name": "Approval",
      "type": "event"
    }
  ],
  "bytecode": "0x60806040523480156200001157600080fd5b506040516060806200539c833981018060405260608110156200003357600080fd5b50805160208083015160409384015184518086018652601781527f426974636f696e204c697175696469747920546f6b656e0000000000000000008185019081528651808801909752600587527f4254434c54000000000000000000000000000000000000000000000000000000948701949094528051949592949193909291600891879187918791879187918791620000d1916003919062000451565b508151620000e790600490602085019062000451565b506005805460ff191660ff9290921691909117610100600160a81b03191661010033810291909117918290556040516001600160a01b0391909204169250600091507f8be0079c531659141344cd1fd0a4f28419497f9722a3daafe3b4186f6b6457e0908290a36000805160206200537c833981519152600160405180806020018381526020018281038252604881526020018062005314604891396060019250505060405180910390a16000805160206200535c833981519152601c60405180806020018381526020018281038252604881526020018062005314604891396060019250505060405180910390a1600080516020620052f4833981519152600160405180806020018381526020018281038252604881526020018062005314604891396060019250505060405180910390a1600980546001600160a01b0319166001600160a01b03851617905560408051601d6020820181905282825260489282018390526000805160206200535c83398151915292909190819060608201906200531482396060019250505060405180910390a1600080516020620052f4833981519152600260405180806020018381526020018281038252604881526020018062005314604891396060019250505060405180910390a1600a80546001600160a01b0319166001600160a01b03841617905560408051601e6020820181905282825260489282018390526000805160206200535c83398151915292909190819060608201906200531482396060019250505060405180910390a1600080516020620052f4833981519152600360405180806020018381526020018281038252604881526020018062005314604891396060019250505060405180910390a1806006819055506000805160206200535c833981519152601f60405180806020018381526020018281038252604881526020018062005314604891396060019250505060405180910390a1600080516020620052f4833981519152600460405180806020018381526020018281038252604881526020018062005314604891396060019250505060405180910390a1806007819055505050505050506000805160206200537c833981519152600f60405180806020018381526020018281038252604881526020018062005314604891396060019250505060405180910390a1505050620004f6565b828054600181600116156101000203166002900490600052602060002090601f016020900481019282601f106200049457805160ff1916838001178555620004c4565b82800160010185558215620004c4579182015b82811115620004c4578251825591602001919060010190620004a7565b50620004d2929150620004d6565b5090565b620004f391905b80821115620004d25760008155600101620004dd565b90565b614dee80620005066000396000f3fe608060405234801561001057600080fd5b50600436106101f05760003560e01c80639012c4a81161010f578063c2e679eb116100a2578063dd62ed3e11610071578063dd62ed3e146105d6578063ee1d5a3a14610604578063f2fde38b14610621578063fc0c546a14610647576101f0565b8063c2e679eb14610573578063c55dae631461057b578063cae270b614610583578063d1e88c72146105b9576101f0565b8063a9059cbb116100de578063a9059cbb14610505578063b4d5fa7f14610531578063b93e70a41461054e578063bc9b2f4d1461056b576101f0565b80639012c4a81461047e57806395d89b411461049b5780639c8f9f23146104a3578063a457c2d7146104d9576101f0565b8063395093511161018757806370a082311161015657806370a0823114610424578063715018a61461044a5780638da5cb5b146104525780638f32d59b14610476576101f0565b806339509351146103b65780633d74fc4b146103e25780634b90ad54146103ff5780636b4210a51461041c576101f0565b806318160ddd116101c357806318160ddd146103225780631ece366a1461032a57806323b872dd14610362578063313ce56714610398576101f0565b806306fdde03146101f5578063095ea7b314610272578063153e66e6146102b257806316114acd146102fa575b600080fd5b6101fd61064f565b6040805160208082528351818301528351919283929083019185019080838360005b8381101561023757818101518382015260200161021f565b50505050905090810190601f1680156102645780820380516001836020036101000a031916815260200191505b509250505060405180910390f35b61029e6004803603604081101561028857600080fd5b506001600160a01b0381351690602001356106e5565b604080519115158252519081900360200190f35b6102e8600480360360608110156102c857600080fd5b506001600160a01b038135811691602081013590911690604001356106fc565b60408051918252519081900360200190f35b6103206004803603602081101561031057600080fd5b50356001600160a01b0316610b04565b005b6102e8610e81565b6102e86004803603608081101561034057600080fd5b506001600160a01b038135169060208101359060408101359060600135610e87565b61029e6004803603606081101561037857600080fd5b506001600160a01b038135811691602081013590911690604001356119ad565b6103a0611a04565b6040805160ff9092168252519081900360200190f35b61029e600480360360408110156103cc57600080fd5b506001600160a01b038135169060200135611a0d565b6102e8600480360360208110156103f857600080fd5b5035611a49565b6102e86004803603602081101561041557600080fd5b5035611d8b565b6102e861206f565b6102e86004803603602081101561043a57600080fd5b50356001600160a01b0316612075565b610320612090565b61045a61212a565b604080516001600160a01b039092168252519081900360200190f35b61029e61213e565b6103206004803603602081101561049457600080fd5b5035612154565b6101fd61280c565b6104c0600480360360208110156104b957600080fd5b503561286d565b6040805192835260208301919091528051918290030190f35b61029e600480360360408110156104ef57600080fd5b506001600160a01b038135169060200135612d9a565b61029e6004803603604081101561051b57600080fd5b506001600160a01b038135169060200135612dd6565b6102e86004803603602081101561054757600080fd5b5035612de3565b6102e86004803603602081101561056457600080fd5b5035613215565b6102e8613543565b6102e8613549565b61045a61354f565b6102e86004803603606081101561059957600080fd5b506001600160a01b0381358116916020810135909116906040013561355e565b6102e8600480360360208110156105cf57600080fd5b5035613966565b6102e8600480360360408110156105ec57600080fd5b506001600160a01b0381358116916020013516613d72565b6102e86004803603602081101561061a57600080fd5b5035613d9d565b6103206004803603602081101561063757600080fd5b50356001600160a01b03166140ac565b61045a6140ff565b60038054604080516020601f60026000196101006001881615020190951694909404938401819004810282018101909252828152606093909290918301828280156106db5780601f106106b0576101008083540402835291602001916106db565b820191906000526020600020905b8154815290600101906020018083116106be57829003601f168201915b5050505050905090565b60006106f233848461410e565b5060015b92915050565b6000600080516020614da38339815191526004604051808060200183815260200182810382526048815260200180614bc1604891396060019250505060405180910390a1600080516020614c098339815191526039604051808060200183815260200182810382526048815260200180614bc1604891396060019250505060405180910390a1600080516020614b818339815191526005604051808060200183815260200182810382526048815260200180614bc1604891396060019250505060405180910390a1600080516020614ba1833981519152600e604051808060200183815260200182810382526048815260200180614bc1604891396060019250505060405180910390a161080e610e81565b6108625760408051600160e51b62461bcd02815260206004820152601460248201527f7265736572766520686173206e6f2066756e6473000000000000000000000000604482015290519081900360640190fd5b600080516020614d098339815191526005604051808060200183815260200182810382526048815260200180614bc1604891396060019250505060405180910390a1600080516020614c09833981519152603a604051808060200183815260200182810382526048815260200180614bc1604891396060019250505060405180910390a1600080516020614ba1833981519152600f604051808060200183815260200182810382526048815260200180614bc1604891396060019250505060405180910390a1600061093383613966565b9050600080516020614c09833981519152603b604051808060200183815260200182810382526048815260200180614bc1604891396060019250505060405180910390a1600080516020614ba18339815191526010604051808060200183815260200182810382526048815260200180614bc1604891396060019250505060405180910390a16009546109d7906001600160a01b031685308663ffffffff61420016565b600080516020614c09833981519152603c604051808060200183815260200182810382526048815260200180614bc1604891396060019250505060405180910390a1600080516020614ba18339815191526011604051808060200183815260200182810382526048815260200180614bc1604891396060019250505060405180910390a1600a54610a78906001600160a01b0316868363ffffffff61426316565b600080516020614c09833981519152603d604051808060200183815260200182810382526048815260200180614bc1604891396060019250505060405180910390a1600080516020614ba18339815191526012604051808060200183815260200182810382526048815260200180614bc1604891396060019250505060405180910390a1949350505050565b610b0c61213e565b610b4e5760408051600160e51b62461bcd0281526020600482018190526024820152600080516020614c4a833981519152604482015290519081900360640190fd5b600080516020614da38339815191526002604051808060200183815260200182810382526048815260200180614bc1604891396060019250505060405180910390a1600080516020614c098339815191526024604051808060200183815260200182810382526048815260200180614bc1604891396060019250505060405180910390a1600080516020614b818339815191526001604051808060200183815260200182810382526048815260200180614bc1604891396060019250505060405180910390a1600080516020614ba18339815191526005604051808060200183815260200182810382526048815260200180614bc1604891396060019250505060405180910390a16009546001600160a01b03828116911614801590610c825750600a546001600160a01b03828116911614155b610cc057604051600160e51b62461bcd028152600401808060200182810382526025815260200180614b106025913960400191505060405180910390fd5b600080516020614d098339815191526001604051808060200183815260200182810382526048815260200180614bc1604891396060019250505060405180910390a1600080516020614c098339815191526025604051808060200183815260200182810382526048815260200180614bc1604891396060019250505060405180910390a1600080516020614ba18339815191526006604051808060200183815260200182810382526048815260200180614bc1604891396060019250505060405180910390a160408051600160e01b6370a0823102815230600482015290516001600160a01b0383169163a9059cbb91339184916370a08231916024808201926020929091908290030181600087803b158015610ddc57600080fd5b505af1158015610df0573d6000803e3d6000fd5b505050506040513d6020811015610e0657600080fd5b50516040805163ffffffff851660e01b81526001600160a01b03909316600484015260248301919091525160448083019260209291908290030181600087803b158015610e5257600080fd5b505af1158015610e66573d6000803e3d6000fd5b505050506040513d6020811015610e7c57600080fd5b505050565b60025490565b6000600080516020614da38339815191526009604051808060200183815260200182810382526048815260200180614bc1604891396060019250505060405180910390a1600080516020614c098339815191526065604051808060200183815260200182810382526048815260200180614bc1604891396060019250505060405180910390a1600080516020614b818339815191526008604051808060200183815260200182810382526048815260200180614bc1604891396060019250505060405180910390a1600080516020614ba18339815191526029604051808060200183815260200182810382526048815260200180614bc1604891396060019250505060405180910390a181431115610fe95760408051600160e51b62461bcd02815260206004820152601c60248201527f6164644c69717569646974792072657175657374206578706972656400000000604482015290519081900360640190fd5b600080516020614d098339815191526008604051808060200183815260200182810382526048815260200180614bc1604891396060019250505060405180910390a1600080516020614c098339815191526066604051808060200183815260200182810382526048815260200180614bc1604891396060019250505060405180910390a1600080516020614ba1833981519152602a604051808060200183815260200182810382526048815260200180614bc1604891396060019250505060405180910390a160006110ba84613d9d565b9050600080516020614c098339815191526067604051808060200183815260200182810382526048815260200180614bc1604891396060019250505060405180910390a1600080516020614ba1833981519152602b604051808060200183815260200182810382526048815260200180614bc1604891396060019250505060405180910390a1600061114a610e81565b111561163557600080516020614b3583398151915260096000604051808060200184815260200183815260200182810382526048815260200180614bc160489139606001935050505060405180910390a1600080516020614c098339815191526068604051808060200183815260200182810382526048815260200180614bc1604891396060019250505060405180910390a1600080516020614b81833981519152600a604051808060200183815260200182810382526048815260200180614bc1604891396060019250505060405180910390a1600080516020614ba1833981519152602c604051808060200183815260200182810382526048815260200180614bc1604891396060019250505060405180910390a1600084116112a357604051600160e51b62461bcd02815260040180806020018281038252602c815260200180614b55602c913960400191505060405180910390fd5b600080516020614d09833981519152600a604051808060200183815260200182810382526048815260200180614bc1604891396060019250505060405180910390a1600080516020614c098339815191526069604051808060200183815260200182810382526048815260200180614bc1604891396060019250505060405180910390a1600080516020614ba1833981519152602d604051808060200183815260200182810382526048815260200180614bc1604891396060019250505060405180910390a1600061137485611d8b565b9050600080516020614c09833981519152606a604051808060200183815260200182810382526048815260200180614bc1604891396060019250505060405180910390a1600080516020614b81833981519152600b604051808060200183815260200182810382526048815260200180614bc1604891396060019250505060405180910390a1600080516020614ba1833981519152602e604051808060200183815260200182810382526048815260200180614bc1604891396060019250505060405180910390a18581111561147e57604051600160e51b62461bcd028152600401808060200182810382526035815260200180614caf6035913960400191505060405180910390fd5b600080516020614d09833981519152600b604051808060200183815260200182810382526048815260200180614bc1604891396060019250505060405180910390a1600080516020614c09833981519152606b604051808060200183815260200182810382526048815260200180614bc1604891396060019250505060405180910390a1600080516020614ba1833981519152602f604051808060200183815260200182810382526048815260200180614bc1604891396060019250505060405180910390a1600954611562906001600160a01b031688308463ffffffff61420016565b600080516020614c09833981519152606c604051808060200183815260200182810382526048815260200180614bc1604891396060019250505060405180910390a1600080516020614ba18339815191526030604051808060200183815260200182810382526048815260200180614bc1604891396060019250505060405180910390a1604080516001600160a01b03891681526020810187905280820183905290517f181674bd5cf175c47c164c13df571685a06664e17a0dff9ad3473062a4d95b3a9181900360600190a1506117f0565b600080516020614b3583398151915260096001604051808060200184815260200183815260200182810382526048815260200180614bc160489139606001935050505060405180910390a1600080516020614c09833981519152606e604051808060200183815260200182810382526048815260200180614bc1604891396060019250505060405180910390a1600080516020614ba18339815191526031604051808060200183815260200182810382526048815260200180614bc1604891396060019250505060405180910390a1600954611722906001600160a01b031687308863ffffffff61420016565b600080516020614c09833981519152606f604051808060200183815260200182810382526048815260200180614bc1604891396060019250505060405180910390a1600080516020614ba18339815191526032604051808060200183815260200182810382526048815260200180614bc1604891396060019250505060405180910390a1604080516001600160a01b03881681526020810186905280820187905290517f181674bd5cf175c47c164c13df571685a06664e17a0dff9ad3473062a4d95b3a9181900360600190a15b600080516020614c098339815191526071604051808060200183815260200182810382526048815260200180614bc1604891396060019250505060405180910390a1600080516020614ba18339815191526033604051808060200183815260200182810382526048815260200180614bc1604891396060019250505060405180910390a1600a54611892906001600160a01b031633308763ffffffff61420016565b600080516020614c098339815191526072604051808060200183815260200182810382526048815260200180614bc1604891396060019250505060405180910390a1600080516020614ba18339815191526034604051808060200183815260200182810382526048815260200180614bc1604891396060019250505060405180910390a161192086826142b8565b600080516020614c098339815191526073604051808060200183815260200182810382526048815260200180614bc1604891396060019250505060405180910390a1600080516020614ba18339815191526035604051808060200183815260200182810382526048815260200180614bc1604891396060019250505060405180910390a195945050505050565b60006119ba8484846143ab565b6001600160a01b0384166000908152600160209081526040808320338085529252909120546119fa9186916119f5908663ffffffff6144f316565b61410e565b5060019392505050565b60055460ff1690565b3360008181526001602090815260408083206001600160a01b038716845290915281205490916106f29185906119f5908663ffffffff61455316565b6000600080516020614da3833981519152600b604051808060200183815260200182810382526048815260200180614bc1604891396060019250505060405180910390a1600080516020614c09833981519152607d604051808060200183815260200182810382526048815260200180614bc1604891396060019250505060405180910390a1600080516020614b81833981519152600d604051808060200183815260200182810382526048815260200180614bc1604891396060019250505060405180910390a1600080516020614ba18339815191526039604051808060200183815260200182810382526048815260200180614bc1604891396060019250505060405180910390a1611b5b610e81565b611ba55760408051600160e51b62461bcd0281526020600482015260106024820152600160801b6f6469766973696f6e206279207a65726f02604482015290519081900360640190fd5b600080516020614d09833981519152600d604051808060200183815260200182810382526048815260200180614bc1604891396060019250505060405180910390a1600080516020614c09833981519152607e604051808060200183815260200182810382526048815260200180614bc1604891396060019250505060405180910390a1600080516020614ba1833981519152603a604051808060200183815260200182810382526048815260200180614bc1604891396060019250505060405180910390a1600a5460408051600160e01b6370a0823102815230600482015290516000926001600160a01b0316916370a0823191602480830192602092919082900301818787803b158015611cba57600080fd5b505af1158015611cce573d6000803e3d6000fd5b505050506040513d6020811015611ce457600080fd5b505160408051607f602082018190528282526048928201839052929350600080516020614c09833981519152929181906060820190614bc182396060019250505060405180910390a1600080516020614ba1833981519152603b604051808060200183815260200182810382526048815260200180614bc1604891396060019250505060405180910390a1611d77610e81565b81840281611d8157fe5b049150505b919050565b6000600080516020614da3833981519152600c604051808060200183815260200182810382526048815260200180614bc1604891396060019250505060405180910390a1600080516020614c098339815191526083604051808060200183815260200182810382526048815260200180614bc1604891396060019250505060405180910390a1600080516020614ba1833981519152603c604051808060200183815260200182810382526048815260200180614bc1604891396060019250505060405180910390a160095460408051600160e01b6370a0823102815230600482015290516000926001600160a01b0316916370a0823191602480830192602092919082900301818787803b158015611ea257600080fd5b505af1158015611eb6573d6000803e3d6000fd5b505050506040513d6020811015611ecc57600080fd5b5051604080516084602082018190528282526048928201839052929350600080516020614c09833981519152929181906060820190614bc182396060019250505060405180910390a1600080516020614ba1833981519152603d604051808060200183815260200182810382526048815260200180614bc1604891396060019250505060405180910390a1600a5460408051600160e01b6370a0823102815230600482015290516000926001600160a01b0316916370a0823191602480830192602092919082900301818787803b158015611fa657600080fd5b505af1158015611fba573d6000803e3d6000fd5b505050506040513d6020811015611fd057600080fd5b5051604080516085602082018190528282526048928201839052929350600080516020614c09833981519152929181906060820190614bc182396060019250505060405180910390a1600080516020614ba1833981519152603e604051808060200183815260200182810382526048815260200180614bc1604891396060019250505060405180910390a1808285028161206657fe5b04949350505050565b60065481565b6001600160a01b031660009081526020819052604090205490565b61209861213e565b6120da5760408051600160e51b62461bcd0281526020600482018190526024820152600080516020614c4a833981519152604482015290519081900360640190fd5b60055460405160009161010090046001600160a01b0316907f8be0079c531659141344cd1fd0a4f28419497f9722a3daafe3b4186f6b6457e0908390a360058054610100600160a81b0319169055565b60055461010090046001600160a01b031690565b60055461010090046001600160a01b0316331490565b61215c61213e565b61219e5760408051600160e51b62461bcd0281526020600482018190526024820152600080516020614c4a833981519152604482015290519081900360640190fd5b600080516020614da38339815191526003604051808060200183815260200182810382526048815260200180614bc1604891396060019250505060405180910390a1600080516020614c09833981519152602b604051808060200183815260200182810382526048815260200180614bc1604891396060019250505060405180910390a1600080516020614ba18339815191526007604051808060200183815260200182810382526048815260200180614bc1604891396060019250505060405180910390a160075481141561255b57600080516020614b3583398151915260026000604051808060200184815260200183815260200182810382526048815260200180614bc160489139606001935050505060405180910390a1600080516020614c09833981519152602c604051808060200183815260200182810382526048815260200180614bc1604891396060019250505060405180910390a1600080516020614b818339815191526003604051808060200183815260200182810382526048815260200180614bc1604891396060019250505060405180910390a1600080516020614ba18339815191526008604051808060200183815260200182810382526048815260200180614bc1604891396060019250505060405180910390a16008544310156123c357604051600160e51b62461bcd02815260040180806020018281038252602c815260200180614d4d602c913960400191505060405180910390fd5b600080516020614d098339815191526003604051808060200183815260200182810382526048815260200180614bc1604891396060019250505060405180910390a1600080516020614c09833981519152602d604051808060200183815260200182810382526048815260200180614bc1604891396060019250505060405180910390a1600080516020614ba18339815191526009604051808060200183815260200182810382526048815260200180614bc1604891396060019250505060405180910390a17f924fee72f327d39fcd64493fdf9a6ca8f5e48c48a4ff5e4b5874a64ab3bb1c2d600654600754604051808381526020018281526020019250505060405180910390a1600080516020614c09833981519152602e604051808060200183815260200182810382526048815260200180614bc1604891396060019250505060405180910390a1600080516020614ba1833981519152600a604051808060200183815260200182810382526048815260200180614bc1604891396060019250505060405180910390a1600754600655612809565b600080516020614b3583398151915260026001604051808060200184815260200183815260200182810382526048815260200180614bc160489139606001935050505060405180910390a1600080516020614c098339815191526032604051808060200183815260200182810382526048815260200180614bc1604891396060019250505060405180910390a1600080516020614b818339815191526004604051808060200183815260200182810382526048815260200180614bc1604891396060019250505060405180910390a1600080516020614ba1833981519152600b604051808060200183815260200182810382526048815260200180614bc1604891396060019250505060405180910390a16101f481106126af57604051600160e51b62461bcd028152600401808060200182810382526024815260200180614c6a6024913960400191505060405180910390fd5b600080516020614d098339815191526004604051808060200183815260200182810382526048815260200180614bc1604891396060019250505060405180910390a1600080516020614c098339815191526033604051808060200183815260200182810382526048815260200180614bc1604891396060019250505060405180910390a1600080516020614ba1833981519152600c604051808060200183815260200182810382526048815260200180614bc1604891396060019250505060405180910390a143606401600881905550600080516020614c098339815191526034604051808060200183815260200182810382526048815260200180614bc1604891396060019250505060405180910390a1600080516020614ba1833981519152600d604051808060200183815260200182810382526048815260200180614bc1604891396060019250505060405180910390a160078190555b50565b60048054604080516020601f60026000196101006001881615020190951694909404938401819004810282018101909252828152606093909290918301828280156106db5780601f106106b0576101008083540402835291602001916106db565b600080600080516020614da38339815191526008604051808060200183815260200182810382526048815260200180614bc1604891396060019250505060405180910390a1600080516020614c098339815191526059604051808060200183815260200182810382526048815260200180614bc1604891396060019250505060405180910390a1600080516020614b818339815191526007604051808060200183815260200182810382526048815260200180614bc1604891396060019250505060405180910390a1600080516020614ba18339815191526022604051808060200183815260200182810382526048815260200180614bc1604891396060019250505060405180910390a18261298233612075565b10156129d85760408051600160e51b62461bcd02815260206004820152601460248201527f696e73756666696369656e742062616c616e6365000000000000000000000000604482015290519081900360640190fd5b600080516020614d098339815191526007604051808060200183815260200182810382526048815260200180614bc1604891396060019250505060405180910390a1600080516020614c09833981519152605a604051808060200183815260200182810382526048815260200180614bc1604891396060019250505060405180910390a1600080516020614ba18339815191526023604051808060200183815260200182810382526048815260200180614bc1604891396060019250505060405180910390a16000612aa984613215565b9050600080516020614c09833981519152605b604051808060200183815260200182810382526048815260200180614bc1604891396060019250505060405180910390a1600080516020614ba18339815191526024604051808060200183815260200182810382526048815260200180614bc1604891396060019250505060405180910390a16000612b3a85611a49565b9050600080516020614c09833981519152605c604051808060200183815260200182810382526048815260200180614bc1604891396060019250505060405180910390a1600080516020614ba18339815191526025604051808060200183815260200182810382526048815260200180614bc1604891396060019250505060405180910390a1612bca33866145b7565b600080516020614c09833981519152605d604051808060200183815260200182810382526048815260200180614bc1604891396060019250505060405180910390a1600080516020614ba18339815191526026604051808060200183815260200182810382526048815260200180614bc1604891396060019250505060405180910390a1600954612c6b906001600160a01b0316338463ffffffff61426316565b600080516020614c09833981519152605e604051808060200183815260200182810382526048815260200180614bc1604891396060019250505060405180910390a1600080516020614ba18339815191526027604051808060200183815260200182810382526048815260200180614bc1604891396060019250505060405180910390a1600a54612d0c906001600160a01b0316338363ffffffff61426316565b600080516020614c09833981519152605f604051808060200183815260200182810382526048815260200180614bc1604891396060019250505060405180910390a1600080516020614ba18339815191526028604051808060200183815260200182810382526048815260200180614bc1604891396060019250505060405180910390a19092509050915091565b3360008181526001602090815260408083206001600160a01b038716845290915281205490916106f29185906119f5908663ffffffff6144f316565b60006106f23384846143ab565b6000600080516020614da38339815191526007604051808060200183815260200182810382526048815260200180614bc1604891396060019250505060405180910390a1600080516020614c098339815191526051604051808060200183815260200182810382526048815260200180614bc1604891396060019250505060405180910390a1600080516020614ba1833981519152601d604051808060200183815260200182810382526048815260200180614bc1604891396060019250505060405180910390a160095460408051600160e01b6370a0823102815230600482015290516000926001600160a01b0316916370a0823191602480830192602092919082900301818787803b158015612efa57600080fd5b505af1158015612f0e573d6000803e3d6000fd5b505050506040513d6020811015612f2457600080fd5b5051604080516052602082018190528282526048928201839052929350600080516020614c09833981519152929181906060820190614bc182396060019250505060405180910390a1600080516020614ba1833981519152601e604051808060200183815260200182810382526048815260200180614bc1604891396060019250505060405180910390a1600a5460408051600160e01b6370a0823102815230600482015290516000926001600160a01b0316916370a0823191602480830192602092919082900301818787803b158015612ffe57600080fd5b505af1158015613012573d6000803e3d6000fd5b505050506040513d602081101561302857600080fd5b5051604080516053602082018190528282526048928201839052929350600080516020614c09833981519152929181906060820190614bc182396060019250505060405180910390a1600080516020614ba1833981519152601f604051808060200183815260200182810382526048815260200180614bc1604891396060019250505060405180910390a160006130e46130c8838763ffffffff61455316565b6130d8858563ffffffff61469316565b9063ffffffff6146ef16565b9050600080516020614c098339815191526054604051808060200183815260200182810382526048815260200180614bc1604891396060019250505060405180910390a1600080516020614ba18339815191526020604051808060200183815260200182810382526048815260200180614bc1604891396060019250505060405180910390a1600061317c848363ffffffff6144f316565b9050600080516020614c098339815191526055604051808060200183815260200182810382526048815260200180614bc1604891396060019250505060405180910390a1600080516020614ba18339815191526021604051808060200183815260200182810382526048815260200180614bc1604891396060019250505060405180910390a161320b81614753565b9695505050505050565b6000600080516020614da3833981519152600a604051808060200183815260200182810382526048815260200180614bc1604891396060019250505060405180910390a1600080516020614c098339815191526077604051808060200183815260200182810382526048815260200180614bc1604891396060019250505060405180910390a1600080516020614b81833981519152600c604051808060200183815260200182810382526048815260200180614bc1604891396060019250505060405180910390a1600080516020614ba18339815191526036604051808060200183815260200182810382526048815260200180614bc1604891396060019250505060405180910390a1613327610e81565b6133715760408051600160e51b62461bcd0281526020600482015260106024820152600160801b6f6469766973696f6e206279207a65726f02604482015290519081900360640190fd5b600080516020614d09833981519152600c604051808060200183815260200182810382526048815260200180614bc1604891396060019250505060405180910390a1600080516020614c098339815191526078604051808060200183815260200182810382526048815260200180614bc1604891396060019250505060405180910390a1600080516020614ba18339815191526037604051808060200183815260200182810382526048815260200180614bc1604891396060019250505060405180910390a160095460408051600160e01b6370a0823102815230600482015290516000926001600160a01b0316916370a0823191602480830192602092919082900301818787803b15801561348657600080fd5b505af115801561349a573d6000803e3d6000fd5b505050506040513d60208110156134b057600080fd5b5051604080516079602082018190528282526048928201839052929350600080516020614c09833981519152929181906060820190614bc182396060019250505060405180910390a1600080516020614ba18339815191526038604051808060200183815260200182810382526048815260200180614bc1604891396060019250505060405180910390a1611d77610e81565b60075481565b60085481565b6009546001600160a01b031681565b6000600080516020614da38339815191526005604051808060200183815260200182810382526048815260200180614bc1604891396060019250505060405180910390a1600080516020614c098339815191526041604051808060200183815260200182810382526048815260200180614bc1604891396060019250505060405180910390a1600080516020614b818339815191526006604051808060200183815260200182810382526048815260200180614bc1604891396060019250505060405180910390a1600080516020614ba18339815191526013604051808060200183815260200182810382526048815260200180614bc1604891396060019250505060405180910390a1613670610e81565b6136c45760408051600160e51b62461bcd02815260206004820152601460248201527f7265736572766520686173206e6f2066756e6473000000000000000000000000604482015290519081900360640190fd5b600080516020614d098339815191526006604051808060200183815260200182810382526048815260200180614bc1604891396060019250505060405180910390a1600080516020614c098339815191526042604051808060200183815260200182810382526048815260200180614bc1604891396060019250505060405180910390a1600080516020614ba18339815191526014604051808060200183815260200182810382526048815260200180614bc1604891396060019250505060405180910390a1600061379583612de3565b9050600080516020614c098339815191526043604051808060200183815260200182810382526048815260200180614bc1604891396060019250505060405180910390a1600080516020614ba18339815191526015604051808060200183815260200182810382526048815260200180614bc1604891396060019250505060405180910390a1600a54613839906001600160a01b031685308663ffffffff61420016565b600080516020614c098339815191526044604051808060200183815260200182810382526048815260200180614bc1604891396060019250505060405180910390a1600080516020614ba18339815191526016604051808060200183815260200182810382526048815260200180614bc1604891396060019250505060405180910390a16009546138da906001600160a01b0316868363ffffffff61426316565b600080516020614c098339815191526045604051808060200183815260200182810382526048815260200180614bc1604891396060019250505060405180910390a1600080516020614ba18339815191526017604051808060200183815260200182810382526048815260200180614bc1604891396060019250505060405180910390a1949350505050565b6000600080516020614da38339815191526006604051808060200183815260200182810382526048815260200180614bc1604891396060019250505060405180910390a1600080516020614c098339815191526049604051808060200183815260200182810382526048815260200180614bc1604891396060019250505060405180910390a1600080516020614ba18339815191526018604051808060200183815260200182810382526048815260200180614bc1604891396060019250505060405180910390a160095460408051600160e01b6370a0823102815230600482015290516000926001600160a01b0316916370a0823191602480830192602092919082900301818787803b158015613a7d57600080fd5b505af1158015613a91573d6000803e3d6000fd5b505050506040513d6020811015613aa757600080fd5b505160408051604a602082018190528282526048928201839052929350600080516020614c09833981519152929181906060820190614bc182396060019250505060405180910390a1600080516020614ba18339815191526019604051808060200183815260200182810382526048815260200180614bc1604891396060019250505060405180910390a1600a5460408051600160e01b6370a0823102815230600482015290516000926001600160a01b0316916370a0823191602480830192602092919082900301818787803b158015613b8157600080fd5b505af1158015613b95573d6000803e3d6000fd5b505050506040513d6020811015613bab57600080fd5b505160408051604b602082018190528282526048928201839052929350600080516020614c09833981519152929181906060820190614bc182396060019250505060405180910390a1600080516020614ba1833981519152601a604051808060200183815260200182810382526048815260200180614bc1604891396060019250505060405180910390a16000613c4b6130c8848763ffffffff61455316565b9050600080516020614c09833981519152604c604051808060200183815260200182810382526048815260200180614bc1604891396060019250505060405180910390a1600080516020614ba1833981519152601b604051808060200183815260200182810382526048815260200180614bc1604891396060019250505060405180910390a16000613ce3838363ffffffff6144f316565b9050600080516020614c09833981519152604d604051808060200183815260200182810382526048815260200180614bc1604891396060019250505060405180910390a1600080516020614ba1833981519152601c604051808060200183815260200182810382526048815260200180614bc1604891396060019250505060405180910390a161320b81614753565b6001600160a01b03918216600090815260016020908152604080832093909416825291909152205490565b6000600080516020614da3833981519152600d604051808060200183815260200182810382526048815260200180614bc1604891396060019250505060405180910390a1600080516020614c098339815191526089604051808060200183815260200182810382526048815260200180614bc1604891396060019250505060405180910390a1600080516020614ba1833981519152603f604051808060200183815260200182810382526048815260200180614bc1604891396060019250505060405180910390a1613e6d610e81565b613f4957600080516020614b35833981519152600e6000604051808060200184815260200183815260200182810382526048815260200180614bc160489139606001935050505060405180910390a1600080516020614c09833981519152608a604051808060200183815260200182810382526048815260200180614bc1604891396060019250505060405180910390a1600080516020614ba183398151915260408051808060200183815260200182810382526048815260200180614bc1604891396060019250505060405180910390a15060028102611d86565b600080516020614b35833981519152600e6001604051808060200184815260200183815260200182810382526048815260200180614bc160489139606001935050505060405180910390a1600080516020614c09833981519152608c604051808060200183815260200182810382526048815260200180614bc1604891396060019250505060405180910390a1600080516020614ba18339815191526041604051808060200183815260200182810382526048815260200180614bc1604891396060019250505060405180910390a1600a5460408051600160e01b6370a0823102815230600482015290516001600160a01b03909216916370a08231916024808201926020929091908290030181600087803b15801561406857600080fd5b505af115801561407c573d6000803e3d6000fd5b505050506040513d602081101561409257600080fd5b50518261409d610e81565b02816140a557fe5b0492915050565b6140b461213e565b6140f65760408051600160e51b62461bcd0281526020600482018190526024820152600080516020614c4a833981519152604482015290519081900360640190fd5b6128098161482e565b600a546001600160a01b031681565b6001600160a01b03831661415657604051600160e51b62461bcd028152600401808060200182810382526024815260200180614d296024913960400191505060405180910390fd5b6001600160a01b03821661419e57604051600160e51b62461bcd028152600401808060200182810382526022815260200180614aee6022913960400191505060405180910390fd5b6001600160a01b03808416600081815260016020908152604080832094871680845294825291829020859055815185815291517f8c5be1e5ebec7d5bd14f71427d1e84f3dd0314c0f7b2291e5b200ac8c7c3b9259281900390910190a3505050565b604080516001600160a01b0385811660248301528416604482015260648082018490528251808303909101815260849091019091526020810180516001600160e01b0316600160e01b6323b872dd0217905261425d9085906148dd565b50505050565b604080516001600160a01b038416602482015260448082018490528251808303909101815260649091019091526020810180516001600160e01b0316600160e01b63a9059cbb02179052610e7c9084906148dd565b6001600160a01b0382166143165760408051600160e51b62461bcd02815260206004820152601f60248201527f45524332303a206d696e7420746f20746865207a65726f206164647265737300604482015290519081900360640190fd5b600254614329908263ffffffff61455316565b6002556001600160a01b038216600090815260208190526040902054614355908263ffffffff61455316565b6001600160a01b0383166000818152602081815260408083209490945583518581529351929391927fddf252ad1be2c89b69c2b068fc378daa952ba7f163c4a11628f55a4df523b3ef9281900390910190a35050565b6001600160a01b0383166143f357604051600160e51b62461bcd028152600401808060200182810382526025815260200180614ce46025913960400191505060405180910390fd5b6001600160a01b03821661443b57604051600160e51b62461bcd028152600401808060200182810382526023815260200180614aa56023913960400191505060405180910390fd5b6001600160a01b038316600090815260208190526040902054614464908263ffffffff6144f316565b6001600160a01b038085166000908152602081905260408082209390935590841681522054614499908263ffffffff61455316565b6001600160a01b038084166000818152602081815260409182902094909455805185815290519193928716927fddf252ad1be2c89b69c2b068fc378daa952ba7f163c4a11628f55a4df523b3ef92918290030190a3505050565b60008282111561454d5760408051600160e51b62461bcd02815260206004820152601e60248201527f536166654d6174683a207375627472616374696f6e206f766572666c6f770000604482015290519081900360640190fd5b50900390565b6000828201838110156145b05760408051600160e51b62461bcd02815260206004820152601b60248201527f536166654d6174683a206164646974696f6e206f766572666c6f770000000000604482015290519081900360640190fd5b9392505050565b6001600160a01b0382166145ff57604051600160e51b62461bcd028152600401808060200182810382526021815260200180614c8e6021913960400191505060405180910390fd5b600254614612908263ffffffff6144f316565b6002556001600160a01b03821660009081526020819052604090205461463e908263ffffffff6144f316565b6001600160a01b038316600081815260208181526040808320949094558351858152935191937fddf252ad1be2c89b69c2b068fc378daa952ba7f163c4a11628f55a4df523b3ef929081900390910190a35050565b6000826146a2575060006106f6565b828202828482816146af57fe5b04146145b057604051600160e51b62461bcd028152600401808060200182810382526021815260200180614c296021913960400191505060405180910390fd5b60008082116147485760408051600160e51b62461bcd02815260206004820152601a60248201527f536166654d6174683a206469766973696f6e206279207a65726f000000000000604482015290519081900360640190fd5b600082848161206657fe5b6000600080516020614da3833981519152600e604051808060200183815260200182810382526048815260200180614bc1604891396060019250505060405180910390a1600080516020614c098339815191526090604051808060200183815260200182810382526048815260200180614bc1604891396060019250505060405180910390a1600080516020614ba18339815191526042604051808060200183815260200182810382526048815260200180614bc1604891396060019250505060405180910390a1612710600654612710038302816140a557fe5b6001600160a01b03811661487657604051600160e51b62461bcd028152600401808060200182810382526026815260200180614ac86026913960400191505060405180910390fd5b6005546040516001600160a01b0380841692610100900416907f8be0079c531659141344cd1fd0a4f28419497f9722a3daafe3b4186f6b6457e090600090a3600580546001600160a01b0390921661010002610100600160a81b0319909216919091179055565b6148ef826001600160a01b0316614a9e565b6149435760408051600160e51b62461bcd02815260206004820152601f60248201527f5361666545524332303a2063616c6c20746f206e6f6e2d636f6e747261637400604482015290519081900360640190fd5b60006060836001600160a01b0316836040518082805190602001908083835b602083106149815780518252601f199092019160209182019101614962565b6001836020036101000a0380198251168184511680821785525050505050509050019150506000604051808303816000865af19150503d80600081146149e3576040519150601f19603f3d011682016040523d82523d6000602084013e6149e8565b606091505b509150915081614a425760408051600160e51b62461bcd02815260206004820181905260248201527f5361666545524332303a206c6f772d6c6576656c2063616c6c206661696c6564604482015290519081900360640190fd5b80511561425d57808060200190516020811015614a5e57600080fd5b505161425d57604051600160e51b62461bcd02815260040180806020018281038252602a815260200180614d79602a913960400191505060405180910390fd5b3b15159056fe45524332303a207472616e7366657220746f20746865207a65726f20616464726573734f776e61626c653a206e6577206f776e657220697320746865207a65726f206164647265737345524332303a20617070726f766520746f20746865207a65726f20616464726573736e6f7420616c6c6f77656420746f207265636f766572207265736572766520746f6b656e738a345ede3215f7306f8f5c440eaeb5cd220eebfa1670acf8788c70994dd4437d746f6b656e20616d6f756e74206973206c657373207468616e20616c6c6f776564206d696e20616d6f756e74837c55689f24dab8484a895fd818aede5bb7030cec564bb99d261b61b229c1965c9fef4d2df13a2068a6f78c3bd4888ab686998d0b02c8eb2eed86a0bf62486d2f686f6d652f737573727574682f72656e2f72656e766d2d64656d6f2f657468657265756d2d636f6e7472616374732f636f6e7472616374732f444558526573657276652e736f6c7a31235eafa3cb3ba122b86b69cc8ff31ff72c728303695492ac880e6a1b4425536166654d6174683a206d756c7469706c69636174696f6e206f766572666c6f774f776e61626c653a2063616c6c6572206973206e6f7420746865206f776e6572666565206d757374206e6f742065786365656420686172642d636f646564206c696d697445524332303a206275726e2066726f6d20746865207a65726f206164647265737363616c63756c61746564206261736520616d6f756e74206578636565647320746865206d6178696d756d20616d6f756e742073657445524332303a207472616e736665722066726f6d20746865207a65726f2061646472657373c869cde67cee916dc9684315fb0a5906ab8df7696fbcd36abaf7c5b3db8e71ba45524332303a20617070726f76652066726f6d20746865207a65726f20616464726573736d75737420776169742031303020626c6f636b73206265666f7265207570646174696e6720746865206665655361666545524332303a204552433230206f7065726174696f6e20646964206e6f742073756363656564144b5bdb98db37b59090db7fe3492f886416729ae153853bb0ad61080bb49845a165627a7a723058204dd5a04025b7322ced74044c1162a183e4e4f46153a686eef67b948ccb48320b00295c9fef4d2df13a2068a6f78c3bd4888ab686998d0b02c8eb2eed86a0bf62486d2f686f6d652f737573727574682f72656e2f72656e766d2d64656d6f2f657468657265756d2d636f6e7472616374732f636f6e7472616374732f444558526573657276652e736f6c7a31235eafa3cb3ba122b86b69cc8ff31ff72c728303695492ac880e6a1b4425144b5bdb98db37b59090db7fe3492f886416729ae153853bb0ad61080bb49845",
  "source": "pragma solidity ^0.5.8;\n\nimport \"darknode-sol/contracts/Shifter/Shifter.sol\";\nimport \"openzeppelin-solidity/contracts/token/ERC20/ERC20.sol\";\nimport \"openzeppelin-solidity/contracts/token/ERC20/SafeERC20.sol\";\nimport \"openzeppelin-solidity/contracts/token/ERC20/ERC20Detailed.sol\";\nimport \"openzeppelin-solidity/contracts/math/SafeMath.sol\";\n\n/// @title DEXReserve\n/// @notice The DEX Reserve holds the liquidity for a single token pair for the\n/// DEX. Anyone can add liquidity, receiving in return a token representing\n/// a share in the funds held by the reserve.\ncontract DEXReserve is ERC20, ERC20Detailed, Ownable {event __CoverageDEXReserve(string fileName, uint256 lineNumber);\nevent __FunctionCoverageDEXReserve(string fileName, uint256 fnId);\nevent __StatementCoverageDEXReserve(string fileName, uint256 statementId);\nevent __BranchCoverageDEXReserve(string fileName, uint256 branchId, uint256 locationIdx);\nevent __AssertPreCoverageDEXReserve(string fileName, uint256 branchId);\nevent __AssertPostCoverageDEXReserve(string fileName, uint256 branchId);\n\n    using SafeMath for uint256;\n    using SafeERC20 for ERC20;\n\n    uint256 public feeInBIPS;\n    uint256 public pendingFeeInBIPS;\n    uint256 public feeChangeBlock;\n\n    ERC20 public baseToken;\n    ERC20 public token;\n    event LogAddLiquidity(address _liquidityProvider, uint256 _tokenAmount, uint256 _baseTokenAmount);\n    event LogDebug(uint256 _rcvAmount);\n    event LogFeesChanged(uint256 _previousFeeInBIPS, uint256 _newFeeInBIPS);\n\n    constructor (string memory _name, string memory _symbol, uint8 _decimals, ERC20 _baseToken, ERC20 _token, uint256 _feeInBIPS) public ERC20Detailed(_name, _symbol, _decimals) {emit __FunctionCoverageDEXReserve('/home/susruth/ren/renvm-demo/ethereum-contracts/contracts/DEXReserve.sol',1);\n\nemit __CoverageDEXReserve('/home/susruth/ren/renvm-demo/ethereum-contracts/contracts/DEXReserve.sol',28);\n        emit __StatementCoverageDEXReserve('/home/susruth/ren/renvm-demo/ethereum-contracts/contracts/DEXReserve.sol',1);\nbaseToken = _baseToken;\nemit __CoverageDEXReserve('/home/susruth/ren/renvm-demo/ethereum-contracts/contracts/DEXReserve.sol',29);\n        emit __StatementCoverageDEXReserve('/home/susruth/ren/renvm-demo/ethereum-contracts/contracts/DEXReserve.sol',2);\ntoken = _token;\nemit __CoverageDEXReserve('/home/susruth/ren/renvm-demo/ethereum-contracts/contracts/DEXReserve.sol',30);\n        emit __StatementCoverageDEXReserve('/home/susruth/ren/renvm-demo/ethereum-contracts/contracts/DEXReserve.sol',3);\nfeeInBIPS = _feeInBIPS;\nemit __CoverageDEXReserve('/home/susruth/ren/renvm-demo/ethereum-contracts/contracts/DEXReserve.sol',31);\n        emit __StatementCoverageDEXReserve('/home/susruth/ren/renvm-demo/ethereum-contracts/contracts/DEXReserve.sol',4);\npendingFeeInBIPS = _feeInBIPS;\n    }\n\n    /// @notice Allow anyone to recover funds accidentally sent to the contract.\n    function recoverTokens(address _token) external onlyOwner {emit __FunctionCoverageDEXReserve('/home/susruth/ren/renvm-demo/ethereum-contracts/contracts/DEXReserve.sol',2);\n\nemit __CoverageDEXReserve('/home/susruth/ren/renvm-demo/ethereum-contracts/contracts/DEXReserve.sol',36);\n        emit __AssertPreCoverageDEXReserve('/home/susruth/ren/renvm-demo/ethereum-contracts/contracts/DEXReserve.sol',1);\nemit __StatementCoverageDEXReserve('/home/susruth/ren/renvm-demo/ethereum-contracts/contracts/DEXReserve.sol',5);\nrequire(ERC20(_token) != baseToken && ERC20(_token) != token, \"not allowed to recover reserve tokens\");emit __AssertPostCoverageDEXReserve('/home/susruth/ren/renvm-demo/ethereum-contracts/contracts/DEXReserve.sol',1);\n\nemit __CoverageDEXReserve('/home/susruth/ren/renvm-demo/ethereum-contracts/contracts/DEXReserve.sol',37);\n        emit __StatementCoverageDEXReserve('/home/susruth/ren/renvm-demo/ethereum-contracts/contracts/DEXReserve.sol',6);\nERC20(_token).transfer(msg.sender, ERC20(_token).balanceOf(address(this)));\n    }\n\n    /// @notice Allow the reserve manager too update the contract fees.\n    /// There is a 10 block delay to reduce the chance of front-running trades.\n    function updateFee(uint256 _pendingFeeInBIPS) external onlyOwner {emit __FunctionCoverageDEXReserve('/home/susruth/ren/renvm-demo/ethereum-contracts/contracts/DEXReserve.sol',3);\n\nemit __CoverageDEXReserve('/home/susruth/ren/renvm-demo/ethereum-contracts/contracts/DEXReserve.sol',43);\n        emit __StatementCoverageDEXReserve('/home/susruth/ren/renvm-demo/ethereum-contracts/contracts/DEXReserve.sol',7);\nif (_pendingFeeInBIPS == pendingFeeInBIPS) {emit __BranchCoverageDEXReserve('/home/susruth/ren/renvm-demo/ethereum-contracts/contracts/DEXReserve.sol',2,0);\nemit __CoverageDEXReserve('/home/susruth/ren/renvm-demo/ethereum-contracts/contracts/DEXReserve.sol',44);\n            emit __AssertPreCoverageDEXReserve('/home/susruth/ren/renvm-demo/ethereum-contracts/contracts/DEXReserve.sol',3);\nemit __StatementCoverageDEXReserve('/home/susruth/ren/renvm-demo/ethereum-contracts/contracts/DEXReserve.sol',8);\nrequire(block.number >= feeChangeBlock, \"must wait 100 blocks before updating the fee\");emit __AssertPostCoverageDEXReserve('/home/susruth/ren/renvm-demo/ethereum-contracts/contracts/DEXReserve.sol',3);\n\nemit __CoverageDEXReserve('/home/susruth/ren/renvm-demo/ethereum-contracts/contracts/DEXReserve.sol',45);\n            emit __StatementCoverageDEXReserve('/home/susruth/ren/renvm-demo/ethereum-contracts/contracts/DEXReserve.sol',9);\nemit LogFeesChanged(feeInBIPS, pendingFeeInBIPS);\nemit __CoverageDEXReserve('/home/susruth/ren/renvm-demo/ethereum-contracts/contracts/DEXReserve.sol',46);\n            emit __StatementCoverageDEXReserve('/home/susruth/ren/renvm-demo/ethereum-contracts/contracts/DEXReserve.sol',10);\nfeeInBIPS = pendingFeeInBIPS;\n        } else {emit __BranchCoverageDEXReserve('/home/susruth/ren/renvm-demo/ethereum-contracts/contracts/DEXReserve.sol',2,1);\n            // @dev 500 was chosen as an arbitrary limit - the fee should be\n            // well below that.\nemit __CoverageDEXReserve('/home/susruth/ren/renvm-demo/ethereum-contracts/contracts/DEXReserve.sol',50);\n            emit __AssertPreCoverageDEXReserve('/home/susruth/ren/renvm-demo/ethereum-contracts/contracts/DEXReserve.sol',4);\nemit __StatementCoverageDEXReserve('/home/susruth/ren/renvm-demo/ethereum-contracts/contracts/DEXReserve.sol',11);\nrequire(_pendingFeeInBIPS < 500, \"fee must not exceed hard-coded limit\");emit __AssertPostCoverageDEXReserve('/home/susruth/ren/renvm-demo/ethereum-contracts/contracts/DEXReserve.sol',4);\n\nemit __CoverageDEXReserve('/home/susruth/ren/renvm-demo/ethereum-contracts/contracts/DEXReserve.sol',51);\n            emit __StatementCoverageDEXReserve('/home/susruth/ren/renvm-demo/ethereum-contracts/contracts/DEXReserve.sol',12);\nfeeChangeBlock = block.number + 100;\nemit __CoverageDEXReserve('/home/susruth/ren/renvm-demo/ethereum-contracts/contracts/DEXReserve.sol',52);\n            emit __StatementCoverageDEXReserve('/home/susruth/ren/renvm-demo/ethereum-contracts/contracts/DEXReserve.sol',13);\npendingFeeInBIPS = _pendingFeeInBIPS;\n        }\n    }\n\n    function buy(address _to, address _from, uint256 _baseTokenAmount) external returns (uint256)  {emit __FunctionCoverageDEXReserve('/home/susruth/ren/renvm-demo/ethereum-contracts/contracts/DEXReserve.sol',4);\n\nemit __CoverageDEXReserve('/home/susruth/ren/renvm-demo/ethereum-contracts/contracts/DEXReserve.sol',57);\n        emit __AssertPreCoverageDEXReserve('/home/susruth/ren/renvm-demo/ethereum-contracts/contracts/DEXReserve.sol',5);\nemit __StatementCoverageDEXReserve('/home/susruth/ren/renvm-demo/ethereum-contracts/contracts/DEXReserve.sol',14);\nrequire(totalSupply() != 0, \"reserve has no funds\");emit __AssertPostCoverageDEXReserve('/home/susruth/ren/renvm-demo/ethereum-contracts/contracts/DEXReserve.sol',5);\n\nemit __CoverageDEXReserve('/home/susruth/ren/renvm-demo/ethereum-contracts/contracts/DEXReserve.sol',58);\n        emit __StatementCoverageDEXReserve('/home/susruth/ren/renvm-demo/ethereum-contracts/contracts/DEXReserve.sol',15);\nuint256 rcvAmount = calculateBuyRcvAmt(_baseTokenAmount);\nemit __CoverageDEXReserve('/home/susruth/ren/renvm-demo/ethereum-contracts/contracts/DEXReserve.sol',59);\n        emit __StatementCoverageDEXReserve('/home/susruth/ren/renvm-demo/ethereum-contracts/contracts/DEXReserve.sol',16);\nbaseToken.safeTransferFrom(_from, address(this), _baseTokenAmount);\nemit __CoverageDEXReserve('/home/susruth/ren/renvm-demo/ethereum-contracts/contracts/DEXReserve.sol',60);\n        emit __StatementCoverageDEXReserve('/home/susruth/ren/renvm-demo/ethereum-contracts/contracts/DEXReserve.sol',17);\ntoken.safeTransfer(_to, rcvAmount);\nemit __CoverageDEXReserve('/home/susruth/ren/renvm-demo/ethereum-contracts/contracts/DEXReserve.sol',61);\n        emit __StatementCoverageDEXReserve('/home/susruth/ren/renvm-demo/ethereum-contracts/contracts/DEXReserve.sol',18);\nreturn rcvAmount;\n    }\n\n    function sell(address _to, address _from, uint256 _tokenAmount) external returns (uint256) {emit __FunctionCoverageDEXReserve('/home/susruth/ren/renvm-demo/ethereum-contracts/contracts/DEXReserve.sol',5);\n\nemit __CoverageDEXReserve('/home/susruth/ren/renvm-demo/ethereum-contracts/contracts/DEXReserve.sol',65);\n        emit __AssertPreCoverageDEXReserve('/home/susruth/ren/renvm-demo/ethereum-contracts/contracts/DEXReserve.sol',6);\nemit __StatementCoverageDEXReserve('/home/susruth/ren/renvm-demo/ethereum-contracts/contracts/DEXReserve.sol',19);\nrequire(totalSupply() != 0, \"reserve has no funds\");emit __AssertPostCoverageDEXReserve('/home/susruth/ren/renvm-demo/ethereum-contracts/contracts/DEXReserve.sol',6);\n\nemit __CoverageDEXReserve('/home/susruth/ren/renvm-demo/ethereum-contracts/contracts/DEXReserve.sol',66);\n        emit __StatementCoverageDEXReserve('/home/susruth/ren/renvm-demo/ethereum-contracts/contracts/DEXReserve.sol',20);\nuint256 rcvAmount = calculateSellRcvAmt(_tokenAmount);\nemit __CoverageDEXReserve('/home/susruth/ren/renvm-demo/ethereum-contracts/contracts/DEXReserve.sol',67);\n        emit __StatementCoverageDEXReserve('/home/susruth/ren/renvm-demo/ethereum-contracts/contracts/DEXReserve.sol',21);\ntoken.safeTransferFrom(_from, address(this), _tokenAmount);\nemit __CoverageDEXReserve('/home/susruth/ren/renvm-demo/ethereum-contracts/contracts/DEXReserve.sol',68);\n        emit __StatementCoverageDEXReserve('/home/susruth/ren/renvm-demo/ethereum-contracts/contracts/DEXReserve.sol',22);\nbaseToken.safeTransfer(_to, rcvAmount);\nemit __CoverageDEXReserve('/home/susruth/ren/renvm-demo/ethereum-contracts/contracts/DEXReserve.sol',69);\n        emit __StatementCoverageDEXReserve('/home/susruth/ren/renvm-demo/ethereum-contracts/contracts/DEXReserve.sol',23);\nreturn rcvAmount;\n    }\n\n    function calculateBuyRcvAmt(uint256 _sendAmt) public      returns (uint256) {emit __FunctionCoverageDEXReserve('/home/susruth/ren/renvm-demo/ethereum-contracts/contracts/DEXReserve.sol',6);\n\nemit __CoverageDEXReserve('/home/susruth/ren/renvm-demo/ethereum-contracts/contracts/DEXReserve.sol',73);\n        emit __StatementCoverageDEXReserve('/home/susruth/ren/renvm-demo/ethereum-contracts/contracts/DEXReserve.sol',24);\nuint256 baseReserve = baseToken.balanceOf(address(this));\nemit __CoverageDEXReserve('/home/susruth/ren/renvm-demo/ethereum-contracts/contracts/DEXReserve.sol',74);\n        emit __StatementCoverageDEXReserve('/home/susruth/ren/renvm-demo/ethereum-contracts/contracts/DEXReserve.sol',25);\nuint256 tokenReserve = token.balanceOf(address(this));\nemit __CoverageDEXReserve('/home/susruth/ren/renvm-demo/ethereum-contracts/contracts/DEXReserve.sol',75);\n        emit __StatementCoverageDEXReserve('/home/susruth/ren/renvm-demo/ethereum-contracts/contracts/DEXReserve.sol',26);\nuint256 finalQuoteTokenAmount = (baseReserve.mul(tokenReserve)).div(baseReserve.add(_sendAmt));\nemit __CoverageDEXReserve('/home/susruth/ren/renvm-demo/ethereum-contracts/contracts/DEXReserve.sol',76);\n        emit __StatementCoverageDEXReserve('/home/susruth/ren/renvm-demo/ethereum-contracts/contracts/DEXReserve.sol',27);\nuint256 rcvAmt = tokenReserve.sub(finalQuoteTokenAmount);\nemit __CoverageDEXReserve('/home/susruth/ren/renvm-demo/ethereum-contracts/contracts/DEXReserve.sol',77);\n        emit __StatementCoverageDEXReserve('/home/susruth/ren/renvm-demo/ethereum-contracts/contracts/DEXReserve.sol',28);\nreturn _removeFees(rcvAmt);\n    }\n\n    function calculateSellRcvAmt(uint256 _sendAmt) public      returns (uint256) {emit __FunctionCoverageDEXReserve('/home/susruth/ren/renvm-demo/ethereum-contracts/contracts/DEXReserve.sol',7);\n\nemit __CoverageDEXReserve('/home/susruth/ren/renvm-demo/ethereum-contracts/contracts/DEXReserve.sol',81);\n        emit __StatementCoverageDEXReserve('/home/susruth/ren/renvm-demo/ethereum-contracts/contracts/DEXReserve.sol',29);\nuint256 baseReserve = baseToken.balanceOf(address(this));\nemit __CoverageDEXReserve('/home/susruth/ren/renvm-demo/ethereum-contracts/contracts/DEXReserve.sol',82);\n        emit __StatementCoverageDEXReserve('/home/susruth/ren/renvm-demo/ethereum-contracts/contracts/DEXReserve.sol',30);\nuint256 tokenReserve = token.balanceOf(address(this));\nemit __CoverageDEXReserve('/home/susruth/ren/renvm-demo/ethereum-contracts/contracts/DEXReserve.sol',83);\n        emit __StatementCoverageDEXReserve('/home/susruth/ren/renvm-demo/ethereum-contracts/contracts/DEXReserve.sol',31);\nuint256 finalBaseTokenAmount = (baseReserve.mul(tokenReserve)).div(tokenReserve.add(_sendAmt));\nemit __CoverageDEXReserve('/home/susruth/ren/renvm-demo/ethereum-contracts/contracts/DEXReserve.sol',84);\n        emit __StatementCoverageDEXReserve('/home/susruth/ren/renvm-demo/ethereum-contracts/contracts/DEXReserve.sol',32);\nuint256 rcvAmt = baseReserve.sub(finalBaseTokenAmount);\nemit __CoverageDEXReserve('/home/susruth/ren/renvm-demo/ethereum-contracts/contracts/DEXReserve.sol',85);\n        emit __StatementCoverageDEXReserve('/home/susruth/ren/renvm-demo/ethereum-contracts/contracts/DEXReserve.sol',33);\nreturn _removeFees(rcvAmt);\n    }\n\n    function removeLiquidity(uint256 _liquidity) external returns (uint256, uint256) {emit __FunctionCoverageDEXReserve('/home/susruth/ren/renvm-demo/ethereum-contracts/contracts/DEXReserve.sol',8);\n\nemit __CoverageDEXReserve('/home/susruth/ren/renvm-demo/ethereum-contracts/contracts/DEXReserve.sol',89);\n        emit __AssertPreCoverageDEXReserve('/home/susruth/ren/renvm-demo/ethereum-contracts/contracts/DEXReserve.sol',7);\nemit __StatementCoverageDEXReserve('/home/susruth/ren/renvm-demo/ethereum-contracts/contracts/DEXReserve.sol',34);\nrequire(balanceOf(msg.sender) >= _liquidity, \"insufficient balance\");emit __AssertPostCoverageDEXReserve('/home/susruth/ren/renvm-demo/ethereum-contracts/contracts/DEXReserve.sol',7);\n\nemit __CoverageDEXReserve('/home/susruth/ren/renvm-demo/ethereum-contracts/contracts/DEXReserve.sol',90);\n        emit __StatementCoverageDEXReserve('/home/susruth/ren/renvm-demo/ethereum-contracts/contracts/DEXReserve.sol',35);\nuint256 baseTokenAmount = calculateBaseTokenValue(_liquidity);\nemit __CoverageDEXReserve('/home/susruth/ren/renvm-demo/ethereum-contracts/contracts/DEXReserve.sol',91);\n        emit __StatementCoverageDEXReserve('/home/susruth/ren/renvm-demo/ethereum-contracts/contracts/DEXReserve.sol',36);\nuint256 quoteTokenAmount = calculateQuoteTokenValue(_liquidity);\nemit __CoverageDEXReserve('/home/susruth/ren/renvm-demo/ethereum-contracts/contracts/DEXReserve.sol',92);\n        emit __StatementCoverageDEXReserve('/home/susruth/ren/renvm-demo/ethereum-contracts/contracts/DEXReserve.sol',37);\n_burn(msg.sender, _liquidity);\nemit __CoverageDEXReserve('/home/susruth/ren/renvm-demo/ethereum-contracts/contracts/DEXReserve.sol',93);\n        emit __StatementCoverageDEXReserve('/home/susruth/ren/renvm-demo/ethereum-contracts/contracts/DEXReserve.sol',38);\nbaseToken.safeTransfer(msg.sender, baseTokenAmount);\nemit __CoverageDEXReserve('/home/susruth/ren/renvm-demo/ethereum-contracts/contracts/DEXReserve.sol',94);\n        emit __StatementCoverageDEXReserve('/home/susruth/ren/renvm-demo/ethereum-contracts/contracts/DEXReserve.sol',39);\ntoken.safeTransfer(msg.sender, quoteTokenAmount);\nemit __CoverageDEXReserve('/home/susruth/ren/renvm-demo/ethereum-contracts/contracts/DEXReserve.sol',95);\n        emit __StatementCoverageDEXReserve('/home/susruth/ren/renvm-demo/ethereum-contracts/contracts/DEXReserve.sol',40);\nreturn (baseTokenAmount, quoteTokenAmount);\n    }\n\n    function addLiquidity(\n        address _liquidityProvider, uint256 _maxBaseToken, uint256 _tokenAmount, uint256 _deadline\n        ) external returns (uint256) {emit __FunctionCoverageDEXReserve('/home/susruth/ren/renvm-demo/ethereum-contracts/contracts/DEXReserve.sol',9);\n\nemit __CoverageDEXReserve('/home/susruth/ren/renvm-demo/ethereum-contracts/contracts/DEXReserve.sol',101);\n        emit __AssertPreCoverageDEXReserve('/home/susruth/ren/renvm-demo/ethereum-contracts/contracts/DEXReserve.sol',8);\nemit __StatementCoverageDEXReserve('/home/susruth/ren/renvm-demo/ethereum-contracts/contracts/DEXReserve.sol',41);\nrequire(block.number <= _deadline, \"addLiquidity request expired\");emit __AssertPostCoverageDEXReserve('/home/susruth/ren/renvm-demo/ethereum-contracts/contracts/DEXReserve.sol',8);\n\nemit __CoverageDEXReserve('/home/susruth/ren/renvm-demo/ethereum-contracts/contracts/DEXReserve.sol',102);\n        emit __StatementCoverageDEXReserve('/home/susruth/ren/renvm-demo/ethereum-contracts/contracts/DEXReserve.sol',42);\nuint256 liquidity = calculateExpectedLiquidity(_tokenAmount); \nemit __CoverageDEXReserve('/home/susruth/ren/renvm-demo/ethereum-contracts/contracts/DEXReserve.sol',103);\n        emit __StatementCoverageDEXReserve('/home/susruth/ren/renvm-demo/ethereum-contracts/contracts/DEXReserve.sol',43);\nif (totalSupply() > 0) {emit __BranchCoverageDEXReserve('/home/susruth/ren/renvm-demo/ethereum-contracts/contracts/DEXReserve.sol',9,0);\nemit __CoverageDEXReserve('/home/susruth/ren/renvm-demo/ethereum-contracts/contracts/DEXReserve.sol',104);\n            emit __AssertPreCoverageDEXReserve('/home/susruth/ren/renvm-demo/ethereum-contracts/contracts/DEXReserve.sol',10);\nemit __StatementCoverageDEXReserve('/home/susruth/ren/renvm-demo/ethereum-contracts/contracts/DEXReserve.sol',44);\nrequire(_tokenAmount > 0, \"token amount is less than allowed min amount\");emit __AssertPostCoverageDEXReserve('/home/susruth/ren/renvm-demo/ethereum-contracts/contracts/DEXReserve.sol',10);\n\nemit __CoverageDEXReserve('/home/susruth/ren/renvm-demo/ethereum-contracts/contracts/DEXReserve.sol',105);\n            emit __StatementCoverageDEXReserve('/home/susruth/ren/renvm-demo/ethereum-contracts/contracts/DEXReserve.sol',45);\nuint256 baseAmount = expectedBaseTokenAmount(_tokenAmount);\nemit __CoverageDEXReserve('/home/susruth/ren/renvm-demo/ethereum-contracts/contracts/DEXReserve.sol',106);\n            emit __AssertPreCoverageDEXReserve('/home/susruth/ren/renvm-demo/ethereum-contracts/contracts/DEXReserve.sol',11);\nemit __StatementCoverageDEXReserve('/home/susruth/ren/renvm-demo/ethereum-contracts/contracts/DEXReserve.sol',46);\nrequire(baseAmount <= _maxBaseToken, \"calculated base amount exceeds the maximum amount set\");emit __AssertPostCoverageDEXReserve('/home/susruth/ren/renvm-demo/ethereum-contracts/contracts/DEXReserve.sol',11);\n\nemit __CoverageDEXReserve('/home/susruth/ren/renvm-demo/ethereum-contracts/contracts/DEXReserve.sol',107);\n            emit __StatementCoverageDEXReserve('/home/susruth/ren/renvm-demo/ethereum-contracts/contracts/DEXReserve.sol',47);\nbaseToken.safeTransferFrom(_liquidityProvider, address(this), baseAmount);\nemit __CoverageDEXReserve('/home/susruth/ren/renvm-demo/ethereum-contracts/contracts/DEXReserve.sol',108);\n            emit __StatementCoverageDEXReserve('/home/susruth/ren/renvm-demo/ethereum-contracts/contracts/DEXReserve.sol',48);\nemit LogAddLiquidity(_liquidityProvider, _tokenAmount, baseAmount);\n        } else {emit __BranchCoverageDEXReserve('/home/susruth/ren/renvm-demo/ethereum-contracts/contracts/DEXReserve.sol',9,1);\nemit __CoverageDEXReserve('/home/susruth/ren/renvm-demo/ethereum-contracts/contracts/DEXReserve.sol',110);\n            emit __StatementCoverageDEXReserve('/home/susruth/ren/renvm-demo/ethereum-contracts/contracts/DEXReserve.sol',49);\nbaseToken.safeTransferFrom(_liquidityProvider, address(this), _maxBaseToken);\nemit __CoverageDEXReserve('/home/susruth/ren/renvm-demo/ethereum-contracts/contracts/DEXReserve.sol',111);\n            emit __StatementCoverageDEXReserve('/home/susruth/ren/renvm-demo/ethereum-contracts/contracts/DEXReserve.sol',50);\nemit LogAddLiquidity(_liquidityProvider, _tokenAmount, _maxBaseToken);\n        }\nemit __CoverageDEXReserve('/home/susruth/ren/renvm-demo/ethereum-contracts/contracts/DEXReserve.sol',113);\n        emit __StatementCoverageDEXReserve('/home/susruth/ren/renvm-demo/ethereum-contracts/contracts/DEXReserve.sol',51);\ntoken.safeTransferFrom(msg.sender, address(this), _tokenAmount);\nemit __CoverageDEXReserve('/home/susruth/ren/renvm-demo/ethereum-contracts/contracts/DEXReserve.sol',114);\n        emit __StatementCoverageDEXReserve('/home/susruth/ren/renvm-demo/ethereum-contracts/contracts/DEXReserve.sol',52);\n_mint(_liquidityProvider, liquidity);\nemit __CoverageDEXReserve('/home/susruth/ren/renvm-demo/ethereum-contracts/contracts/DEXReserve.sol',115);\n        emit __StatementCoverageDEXReserve('/home/susruth/ren/renvm-demo/ethereum-contracts/contracts/DEXReserve.sol',53);\nreturn liquidity;\n    }\n\n    function calculateBaseTokenValue(uint256 _liquidity) public      returns (uint256) {emit __FunctionCoverageDEXReserve('/home/susruth/ren/renvm-demo/ethereum-contracts/contracts/DEXReserve.sol',10);\n\nemit __CoverageDEXReserve('/home/susruth/ren/renvm-demo/ethereum-contracts/contracts/DEXReserve.sol',119);\n        emit __AssertPreCoverageDEXReserve('/home/susruth/ren/renvm-demo/ethereum-contracts/contracts/DEXReserve.sol',12);\nemit __StatementCoverageDEXReserve('/home/susruth/ren/renvm-demo/ethereum-contracts/contracts/DEXReserve.sol',54);\nrequire(totalSupply() != 0, \"division by zero\");emit __AssertPostCoverageDEXReserve('/home/susruth/ren/renvm-demo/ethereum-contracts/contracts/DEXReserve.sol',12);\n\nemit __CoverageDEXReserve('/home/susruth/ren/renvm-demo/ethereum-contracts/contracts/DEXReserve.sol',120);\n        emit __StatementCoverageDEXReserve('/home/susruth/ren/renvm-demo/ethereum-contracts/contracts/DEXReserve.sol',55);\nuint256 baseReserve = baseToken.balanceOf(address(this));\nemit __CoverageDEXReserve('/home/susruth/ren/renvm-demo/ethereum-contracts/contracts/DEXReserve.sol',121);\n        emit __StatementCoverageDEXReserve('/home/susruth/ren/renvm-demo/ethereum-contracts/contracts/DEXReserve.sol',56);\nreturn (_liquidity * baseReserve)/totalSupply();\n    }\n\n    function calculateQuoteTokenValue(uint256 _liquidity) public      returns (uint256) {emit __FunctionCoverageDEXReserve('/home/susruth/ren/renvm-demo/ethereum-contracts/contracts/DEXReserve.sol',11);\n\nemit __CoverageDEXReserve('/home/susruth/ren/renvm-demo/ethereum-contracts/contracts/DEXReserve.sol',125);\n        emit __AssertPreCoverageDEXReserve('/home/susruth/ren/renvm-demo/ethereum-contracts/contracts/DEXReserve.sol',13);\nemit __StatementCoverageDEXReserve('/home/susruth/ren/renvm-demo/ethereum-contracts/contracts/DEXReserve.sol',57);\nrequire(totalSupply() != 0,  \"division by zero\");emit __AssertPostCoverageDEXReserve('/home/susruth/ren/renvm-demo/ethereum-contracts/contracts/DEXReserve.sol',13);\n\nemit __CoverageDEXReserve('/home/susruth/ren/renvm-demo/ethereum-contracts/contracts/DEXReserve.sol',126);\n        emit __StatementCoverageDEXReserve('/home/susruth/ren/renvm-demo/ethereum-contracts/contracts/DEXReserve.sol',58);\nuint256 tokenReserve = token.balanceOf(address(this));\nemit __CoverageDEXReserve('/home/susruth/ren/renvm-demo/ethereum-contracts/contracts/DEXReserve.sol',127);\n        emit __StatementCoverageDEXReserve('/home/susruth/ren/renvm-demo/ethereum-contracts/contracts/DEXReserve.sol',59);\nreturn (_liquidity * tokenReserve)/totalSupply();\n    }\n\n    function expectedBaseTokenAmount(uint256 _quoteTokenAmount) public      returns (uint256) {emit __FunctionCoverageDEXReserve('/home/susruth/ren/renvm-demo/ethereum-contracts/contracts/DEXReserve.sol',12);\n\nemit __CoverageDEXReserve('/home/susruth/ren/renvm-demo/ethereum-contracts/contracts/DEXReserve.sol',131);\n        emit __StatementCoverageDEXReserve('/home/susruth/ren/renvm-demo/ethereum-contracts/contracts/DEXReserve.sol',60);\nuint256 baseReserve = baseToken.balanceOf(address(this));\nemit __CoverageDEXReserve('/home/susruth/ren/renvm-demo/ethereum-contracts/contracts/DEXReserve.sol',132);\n        emit __StatementCoverageDEXReserve('/home/susruth/ren/renvm-demo/ethereum-contracts/contracts/DEXReserve.sol',61);\nuint256 tokenReserve = token.balanceOf(address(this));\nemit __CoverageDEXReserve('/home/susruth/ren/renvm-demo/ethereum-contracts/contracts/DEXReserve.sol',133);\n        emit __StatementCoverageDEXReserve('/home/susruth/ren/renvm-demo/ethereum-contracts/contracts/DEXReserve.sol',62);\nreturn (_quoteTokenAmount * baseReserve)/tokenReserve;\n    }\n\n    function calculateExpectedLiquidity(uint256 _tokenAmount) public      returns (uint256) {emit __FunctionCoverageDEXReserve('/home/susruth/ren/renvm-demo/ethereum-contracts/contracts/DEXReserve.sol',13);\n\nemit __CoverageDEXReserve('/home/susruth/ren/renvm-demo/ethereum-contracts/contracts/DEXReserve.sol',137);\n        emit __StatementCoverageDEXReserve('/home/susruth/ren/renvm-demo/ethereum-contracts/contracts/DEXReserve.sol',63);\nif (totalSupply() == 0) {emit __BranchCoverageDEXReserve('/home/susruth/ren/renvm-demo/ethereum-contracts/contracts/DEXReserve.sol',14,0);\nemit __CoverageDEXReserve('/home/susruth/ren/renvm-demo/ethereum-contracts/contracts/DEXReserve.sol',138);\n            emit __StatementCoverageDEXReserve('/home/susruth/ren/renvm-demo/ethereum-contracts/contracts/DEXReserve.sol',64);\nreturn _tokenAmount*2;\n        }else { emit __BranchCoverageDEXReserve('/home/susruth/ren/renvm-demo/ethereum-contracts/contracts/DEXReserve.sol',14,1);}\n\nemit __CoverageDEXReserve('/home/susruth/ren/renvm-demo/ethereum-contracts/contracts/DEXReserve.sol',140);\n        emit __StatementCoverageDEXReserve('/home/susruth/ren/renvm-demo/ethereum-contracts/contracts/DEXReserve.sol',65);\nreturn ((totalSupply()*_tokenAmount)/token.balanceOf(address(this)));\n    }\n\n    function _removeFees(uint256 _amount) internal      returns (uint256) {emit __FunctionCoverageDEXReserve('/home/susruth/ren/renvm-demo/ethereum-contracts/contracts/DEXReserve.sol',14);\n\nemit __CoverageDEXReserve('/home/susruth/ren/renvm-demo/ethereum-contracts/contracts/DEXReserve.sol',144);\n        emit __StatementCoverageDEXReserve('/home/susruth/ren/renvm-demo/ethereum-contracts/contracts/DEXReserve.sol',66);\nreturn (_amount * (10000 - feeInBIPS))/10000;\n    }\n}\n\n/* solhint-disable-next-line */ /* solium-disable-next-line */\ncontract BTC_DAI_Reserve is DEXReserve {event __CoverageDEXReserve(string fileName, uint256 lineNumber);\nevent __FunctionCoverageDEXReserve(string fileName, uint256 fnId);\nevent __StatementCoverageDEXReserve(string fileName, uint256 statementId);\nevent __BranchCoverageDEXReserve(string fileName, uint256 branchId, uint256 locationIdx);\nevent __AssertPreCoverageDEXReserve(string fileName, uint256 branchId);\nevent __AssertPostCoverageDEXReserve(string fileName, uint256 branchId);\n\n    constructor (ERC20 _baseToken, ERC20 _token, uint256 _feeInBIPS) public DEXReserve(\"Bitcoin Liquidity Token\", \"BTCLT\", 8, _baseToken, _token, _feeInBIPS) {emit __FunctionCoverageDEXReserve('/home/susruth/ren/renvm-demo/ethereum-contracts/contracts/DEXReserve.sol',15);\n\n    }\n}\n\n/* solhint-disable-next-line */ /* solium-disable-next-line */\ncontract ZEC_DAI_Reserve is DEXReserve {event __CoverageDEXReserve(string fileName, uint256 lineNumber);\nevent __FunctionCoverageDEXReserve(string fileName, uint256 fnId);\nevent __StatementCoverageDEXReserve(string fileName, uint256 statementId);\nevent __BranchCoverageDEXReserve(string fileName, uint256 branchId, uint256 locationIdx);\nevent __AssertPreCoverageDEXReserve(string fileName, uint256 branchId);\nevent __AssertPostCoverageDEXReserve(string fileName, uint256 branchId);\n\n    constructor (ERC20 _baseToken, ERC20 _token, uint256 _feeInBIPS) public DEXReserve(\"ZCash Liquidity Token\", \"ZECLT\", 8, _baseToken, _token, _feeInBIPS) {emit __FunctionCoverageDEXReserve('/home/susruth/ren/renvm-demo/ethereum-contracts/contracts/DEXReserve.sol',16);\n\n    }\n}\n\n/* solhint-disable-next-line */ /* solium-disable-next-line */\ncontract BCH_DAI_Reserve is DEXReserve {event __CoverageDEXReserve(string fileName, uint256 lineNumber);\nevent __FunctionCoverageDEXReserve(string fileName, uint256 fnId);\nevent __StatementCoverageDEXReserve(string fileName, uint256 statementId);\nevent __BranchCoverageDEXReserve(string fileName, uint256 branchId, uint256 locationIdx);\nevent __AssertPreCoverageDEXReserve(string fileName, uint256 branchId);\nevent __AssertPostCoverageDEXReserve(string fileName, uint256 branchId);\n\n    constructor (ERC20 _baseToken, ERC20 _token, uint256 _feeInBIPS) public DEXReserve(\"BitcoinCash Liquidity Token\", \"BCHLT\", 8, _baseToken, _token, _feeInBIPS) {emit __FunctionCoverageDEXReserve('/home/susruth/ren/renvm-demo/ethereum-contracts/contracts/DEXReserve.sol',17);\n\n    }\n}",
  "sourcePath": "/home/susruth/ren/renvm-demo/ethereum-contracts/coverageEnv/contracts/DEXReserve.sol",
  "compiler": {
    "name": "solc",
    "version": "0.5.8+commit.23d335f2.Emscripten.clang"
  },
  "schemaVersion": "3.0.16",
  "updatedAt": "2019-10-30T02:49:28.927Z",
  "devdoc": {
    "methods": {
      "allowance(address,address)": {
        "details": "See `IERC20.allowance`."
      },
      "approve(address,uint256)": {
        "details": "See `IERC20.approve`.     * Requirements:     * - `spender` cannot be the zero address."
      },
      "balanceOf(address)": {
        "details": "See `IERC20.balanceOf`."
      },
      "decimals()": {
        "details": "Returns the number of decimals used to get its user representation. For example, if `decimals` equals `2`, a balance of `505` tokens should be displayed to a user as `5,05` (`505 / 10 ** 2`).     * Tokens usually opt for a value of 18, imitating the relationship between Ether and Wei.     * > Note that this information is only used for _display_ purposes: it in no way affects any of the arithmetic of the contract, including `IERC20.balanceOf` and `IERC20.transfer`."
      },
      "decreaseAllowance(address,uint256)": {
        "details": "Atomically decreases the allowance granted to `spender` by the caller.     * This is an alternative to `approve` that can be used as a mitigation for problems described in `IERC20.approve`.     * Emits an `Approval` event indicating the updated allowance.     * Requirements:     * - `spender` cannot be the zero address. - `spender` must have allowance for the caller of at least `subtractedValue`."
      },
      "increaseAllowance(address,uint256)": {
        "details": "Atomically increases the allowance granted to `spender` by the caller.     * This is an alternative to `approve` that can be used as a mitigation for problems described in `IERC20.approve`.     * Emits an `Approval` event indicating the updated allowance.     * Requirements:     * - `spender` cannot be the zero address."
      },
      "isOwner()": {
        "details": "Returns true if the caller is the current owner."
      },
      "name()": {
        "details": "Returns the name of the token."
      },
      "owner()": {
        "details": "Returns the address of the current owner."
      },
      "renounceOwnership()": {
        "details": "Leaves the contract without owner. It will not be possible to call `onlyOwner` functions anymore. Can only be called by the current owner.     * > Note: Renouncing ownership will leave the contract without an owner, thereby removing any functionality that is only available to the owner."
      },
      "symbol()": {
        "details": "Returns the symbol of the token, usually a shorter version of the name."
      },
      "totalSupply()": {
        "details": "See `IERC20.totalSupply`."
      },
      "transfer(address,uint256)": {
        "details": "See `IERC20.transfer`.     * Requirements:     * - `recipient` cannot be the zero address. - the caller must have a balance of at least `amount`."
      },
      "transferFrom(address,address,uint256)": {
        "details": "See `IERC20.transferFrom`.     * Emits an `Approval` event indicating the updated allowance. This is not required by the EIP. See the note at the beginning of `ERC20`;     * Requirements: - `sender` and `recipient` cannot be the zero address. - `sender` must have a balance of at least `value`. - the caller must have allowance for `sender`'s tokens of at least `amount`."
      },
      "transferOwnership(address)": {
        "details": "Transfers ownership of the contract to a new account (`newOwner`). Can only be called by the current owner."
      }
    }
  },
  "userdoc": {
    "methods": {
      "recoverTokens(address)": {
        "notice": "Allow anyone to recover funds accidentally sent to the contract."
      },
      "updateFee(uint256)": {
        "notice": "Allow the reserve manager too update the contract fees. There is a 10 block delay to reduce the chance of front-running trades."
      }
    }
  }
}