{
  "contractName": "BTCShifter",
  "abi": [
    {
      "constant": false,
      "inputs": [
        {
          "name": "_nextMintAuthority",
          "type": "address"
        }
      ],
      "name": "updateMintAuthority",
      "outputs": [],
      "payable": false,
      "stateMutability": "nonpayable",
      "type": "function"
    },
    {
      "constant": false,
      "inputs": [],
      "name": "claimTokenOwnership",
      "outputs": [],
      "payable": false,
      "stateMutability": "nonpayable",
      "type": "function"
    },
    {
      "constant": false,
      "inputs": [
        {
          "name": "_nextTokenOwner",
          "type": "address"
        }
      ],
      "name": "transferTokenOwnership",
      "outputs": [],
      "payable": false,
      "stateMutability": "nonpayable",
      "type": "function"
    },
    {
      "constant": false,
      "inputs": [
        {
          "name": "_nextFee",
          "type": "uint16"
        }
      ],
      "name": "updateShiftInFee",
      "outputs": [],
      "payable": false,
      "stateMutability": "nonpayable",
      "type": "function"
    },
    {
      "constant": true,
      "inputs": [],
      "name": "feeRecipient",
      "outputs": [
        {
          "name": "",
          "type": "address"
        }
      ],
      "payable": false,
      "stateMutability": "view",
      "type": "function"
    },
    {
      "constant": false,
      "inputs": [
        {
          "name": "_pHash",
          "type": "bytes32"
        },
        {
          "name": "_amount",
          "type": "uint256"
        },
        {
          "name": "_to",
          "type": "address"
        },
        {
          "name": "_nHash",
          "type": "bytes32"
        }
      ],
      "name": "hashForSignature",
      "outputs": [
        {
          "name": "",
          "type": "bytes32"
        }
      ],
      "payable": false,
      "stateMutability": "nonpayable",
      "type": "function"
    },
    {
      "constant": true,
      "inputs": [
        {
          "name": "",
          "type": "bytes32"
        }
      ],
      "name": "status",
      "outputs": [
        {
          "name": "",
          "type": "bool"
        }
      ],
      "payable": false,
      "stateMutability": "view",
      "type": "function"
    },
    {
      "constant": true,
      "inputs": [],
      "name": "version",
      "outputs": [
        {
          "name": "",
          "type": "uint8"
        }
      ],
      "payable": false,
      "stateMutability": "view",
      "type": "function"
    },
    {
      "constant": false,
      "inputs": [],
      "name": "renounceOwnership",
      "outputs": [],
      "payable": false,
      "stateMutability": "nonpayable",
      "type": "function"
    },
    {
      "constant": false,
      "inputs": [
        {
          "name": "_to",
          "type": "bytes"
        },
        {
          "name": "_amount",
          "type": "uint256"
        }
      ],
      "name": "shiftOut",
      "outputs": [
        {
          "name": "",
          "type": "uint256"
        }
      ],
      "payable": false,
      "stateMutability": "nonpayable",
      "type": "function"
    },
    {
      "constant": true,
      "inputs": [],
      "name": "minShiftAmount",
      "outputs": [
        {
          "name": "",
          "type": "uint256"
        }
      ],
      "payable": false,
      "stateMutability": "view",
      "type": "function"
    },
    {
      "constant": false,
      "inputs": [],
      "name": "owner",
      "outputs": [
        {
          "name": "",
          "type": "address"
        }
      ],
      "payable": false,
      "stateMutability": "nonpayable",
      "type": "function"
    },
    {
      "constant": false,
      "inputs": [],
      "name": "isOwner",
      "outputs": [
        {
          "name": "",
          "type": "bool"
        }
      ],
      "payable": false,
      "stateMutability": "nonpayable",
      "type": "function"
    },
    {
      "constant": true,
      "inputs": [],
      "name": "mintAuthority",
      "outputs": [
        {
          "name": "",
          "type": "address"
        }
      ],
      "payable": false,
      "stateMutability": "view",
      "type": "function"
    },
    {
      "constant": true,
      "inputs": [],
      "name": "shiftOutFee",
      "outputs": [
        {
          "name": "",
          "type": "uint16"
        }
      ],
      "payable": false,
      "stateMutability": "view",
      "type": "function"
    },
    {
      "constant": false,
      "inputs": [
        {
          "name": "_nextFee",
          "type": "uint16"
        }
      ],
      "name": "updateShiftOutFee",
      "outputs": [],
      "payable": false,
      "stateMutability": "nonpayable",
      "type": "function"
    },
    {
      "constant": true,
      "inputs": [],
      "name": "nextShiftID",
      "outputs": [
        {
          "name": "",
          "type": "uint256"
        }
      ],
      "payable": false,
      "stateMutability": "view",
      "type": "function"
    },
    {
      "constant": false,
      "inputs": [
        {
          "name": "_pHash",
          "type": "bytes32"
        },
        {
          "name": "_amount",
          "type": "uint256"
        },
        {
          "name": "_nHash",
          "type": "bytes32"
        },
        {
          "name": "_sig",
          "type": "bytes"
        }
      ],
      "name": "shiftIn",
      "outputs": [
        {
          "name": "",
          "type": "uint256"
        }
      ],
      "payable": false,
      "stateMutability": "nonpayable",
      "type": "function"
    },
    {
      "constant": false,
      "inputs": [
        {
          "name": "_signedMessageHash",
          "type": "bytes32"
        },
        {
          "name": "_sig",
          "type": "bytes"
        }
      ],
      "name": "verifySignature",
      "outputs": [
        {
          "name": "",
          "type": "bool"
        }
      ],
      "payable": false,
      "stateMutability": "nonpayable",
      "type": "function"
    },
    {
      "constant": true,
      "inputs": [],
      "name": "shiftInFee",
      "outputs": [
        {
          "name": "",
          "type": "uint16"
        }
      ],
      "payable": false,
      "stateMutability": "view",
      "type": "function"
    },
    {
      "constant": false,
      "inputs": [
        {
          "name": "_minShiftOutAmount",
          "type": "uint256"
        }
      ],
      "name": "updateMinimumShiftOutAmount",
      "outputs": [],
      "payable": false,
      "stateMutability": "nonpayable",
      "type": "function"
    },
    {
      "constant": false,
      "inputs": [
        {
          "name": "_nextFeeRecipient",
          "type": "address"
        }
      ],
      "name": "updateFeeRecipient",
      "outputs": [],
      "payable": false,
      "stateMutability": "nonpayable",
      "type": "function"
    },
    {
      "constant": false,
      "inputs": [
        {
          "name": "newOwner",
          "type": "address"
        }
      ],
      "name": "transferOwnership",
      "outputs": [],
      "payable": false,
      "stateMutability": "nonpayable",
      "type": "function"
    },
    {
      "constant": true,
      "inputs": [],
      "name": "token",
      "outputs": [
        {
          "name": "",
          "type": "address"
        }
      ],
      "payable": false,
      "stateMutability": "view",
      "type": "function"
    },
    {
      "inputs": [
        {
          "name": "_token",
          "type": "address"
        },
        {
          "name": "_feeRecipient",
          "type": "address"
        },
        {
          "name": "_mintAuthority",
          "type": "address"
        },
        {
          "name": "_shiftInFee",
          "type": "uint16"
        },
        {
          "name": "_shiftOutFee",
          "type": "uint16"
        },
        {
          "name": "_minShiftOutAmount",
          "type": "uint256"
        }
      ],
      "payable": false,
      "stateMutability": "nonpayable",
      "type": "constructor"
    },
    {
      "anonymous": false,
      "inputs": [
        {
          "indexed": true,
          "name": "_to",
          "type": "address"
        },
        {
          "indexed": false,
          "name": "_amount",
          "type": "uint256"
        },
        {
          "indexed": true,
          "name": "_shiftID",
          "type": "uint256"
        },
        {
          "indexed": true,
          "name": "_signedMessageHash",
          "type": "bytes32"
        }
      ],
      "name": "LogShiftIn",
      "type": "event"
    },
    {
      "anonymous": false,
      "inputs": [
        {
          "indexed": false,
          "name": "_to",
          "type": "bytes"
        },
        {
          "indexed": false,
          "name": "_amount",
          "type": "uint256"
        },
        {
          "indexed": true,
          "name": "_shiftID",
          "type": "uint256"
        },
        {
          "indexed": true,
          "name": "_indexedTo",
          "type": "bytes"
        }
      ],
      "name": "LogShiftOut",
      "type": "event"
    },
    {
      "anonymous": false,
      "inputs": [
        {
          "indexed": true,
          "name": "previousOwner",
          "type": "address"
        },
        {
          "indexed": true,
          "name": "newOwner",
          "type": "address"
        }
      ],
      "name": "OwnershipTransferred",
      "type": "event"
    }
  ],
  "bytecode": "0x608060405260008054600160a01b60ff0219167402000000000000000000000000000000000000000017815560065534801561003a57600080fd5b5060405160c08062001cdd833981018060405260c081101561005b57600080fd5b50805160208201516040808401516060850151608086015160a090960151600080546001600160a01b031916331780825594519697959693959294929391928892889288928892889288926001600160a01b0316917f8be0079c531659141344cd1fd0a4f28419497f9722a3daafe3b4186f6b6457e0908290a36001819055600280546001600160a01b038089166001600160a01b03199283161790925560038054928716929091169190911790556004805461ffff84811676010000000000000000000000000000000000000000000002600160b01b61ffff02199187167401000000000000000000000000000000000000000002600160a01b61ffff0219909316929092171617905561017685610187602090811b901c565b5050505050505050505050506102a8565b61019561029760201b60201c565b61020057604080517f08c379a000000000000000000000000000000000000000000000000000000000815260206004820181905260248201527f4f776e61626c653a2063616c6c6572206973206e6f7420746865206f776e6572604482015290519081900360640190fd5b6001600160a01b03811661027557604080517f08c379a000000000000000000000000000000000000000000000000000000000815260206004820152601b60248201527f66656520726563697069656e742063616e6e6f74206265203078300000000000604482015290519081900360640190fd5b600480546001600160a01b0319166001600160a01b0392909216919091179055565b6000546001600160a01b0316331490565b611a2580620002b86000396000f3fe608060405234801561001057600080fd5b50600436106101585760003560e01c80638f32d59b116100c3578063daca6f781161007c578063daca6f7814610462578063dfe03d321461050f578063e58732a714610517578063f160d36914610534578063f2fde38b1461055a578063fc0c546a1461058057610158565b80638f32d59b146103515780639340b21e146103595780639d5d4cd814610361578063a2f6ed8c14610380578063ab595e0c146103a1578063bb4a1d8c146103a957610158565b806352ad0d5e1161011557806352ad0d5e1461024257806354fd4d5014610273578063715018a6146102915780638723c3771461029957806387c0b881146103415780638da5cb5b1461034957610158565b80630130a33b1461015d57806310731a651461018557806321e6b53d1461018d57806324a5309e146101b357806346904840146101d45780635219a566146101f8575b600080fd5b6101836004803603602081101561017357600080fd5b50356001600160a01b0316610588565b005b6101836105f4565b610183600480360360208110156101a357600080fd5b50356001600160a01b031661065e565b610183600480360360208110156101c957600080fd5b503561ffff16610767565b6101dc6107e4565b604080516001600160a01b039092168252519081900360200190f35b6102306004803603608081101561020e57600080fd5b508035906020810135906001600160a01b0360408201351690606001356107f3565b60408051918252519081900360200190f35b61025f6004803603602081101561025857600080fd5b5035610843565b604080519115158252519081900360200190f35b61027b610858565b6040805160ff9092168252519081900360200190f35b610183610868565b610230600480360360408110156102af57600080fd5b8101906020810181356401000000008111156102ca57600080fd5b8201836020820111156102dc57600080fd5b803590602001918460018302840111640100000000831117156102fe57600080fd5b91908080601f01602080910402602001604051908101604052809392919081815260200183838082843760009201919091525092955050913592506108fc915050565b610230610bdc565b6101dc610be2565b61025f610bf1565b6101dc610c02565b610369610c11565b6040805161ffff9092168252519081900360200190f35b6101836004803603602081101561039657600080fd5b503561ffff16610c22565b610230610c91565b610230600480360360808110156103bf57600080fd5b813591602081013591604082013591908101906080810160608201356401000000008111156103ed57600080fd5b8201836020820111156103ff57600080fd5b8035906020019184600183028401116401000000008311171561042157600080fd5b91908080601f016020809104026020016040519081016040528093929190818152602001838380828437600092019190915250929550610c97945050505050565b61025f6004803603604081101561047857600080fd5b8135919081019060408101602082013564010000000081111561049a57600080fd5b8201836020820111156104ac57600080fd5b803590602001918460018302840111640100000000831117156104ce57600080fd5b91908080601f016020809104026020016040519081016040528093929190818152602001838380828437600092019190915250929550610fae945050505050565b610369610fd2565b6101836004803603602081101561052d57600080fd5b5035610fe3565b6101836004803603602081101561054a57600080fd5b50356001600160a01b0316611032565b6101836004803603602081101561057057600080fd5b50356001600160a01b03166110fc565b6101dc611152565b610590610bf1565b6105d25760408051600160e51b62461bcd0281526020600482018190526024820152600080516020611994833981519152604482015290519081900360640190fd5b600380546001600160a01b0319166001600160a01b0392909216919091179055565b600260009054906101000a90046001600160a01b03166001600160a01b0316634e71e0c86040518163ffffffff1660e01b8152600401600060405180830381600087803b15801561064457600080fd5b505af1158015610658573d6000803e3d6000fd5b50505050565b610666610bf1565b6106a85760408051600160e51b62461bcd0281526020600482018190526024820152600080516020611994833981519152604482015290519081900360640190fd5b60025460408051600160e01b63f2fde38b0281526001600160a01b0384811660048301529151919092169163f2fde38b91602480830192600092919082900301818387803b1580156106f957600080fd5b505af115801561070d573d6000803e3d6000fd5b50505050806001600160a01b03166310731a656040518163ffffffff1660e01b8152600401600060405180830381600087803b15801561074c57600080fd5b505af1158015610760573d6000803e3d6000fd5b5050505050565b61076f610bf1565b6107b15760408051600160e51b62461bcd0281526020600482018190526024820152600080516020611994833981519152604482015290519081900360640190fd5b6004805461ffff909216600160a01b0275ffff000000000000000000000000000000000000000019909216919091179055565b6004546001600160a01b031681565b60025460408051602080820197909752808201959095526001600160a01b0391821660608601529216608084015260a0808401919091528151808403909101815260c09092019052805191012090565b60056020526000908152604090205460ff1681565b600054600160a01b900460ff1681565b610870610bf1565b6108b25760408051600160e51b62461bcd0281526020600482018190526024820152600080516020611994833981519152604482015290519081900360640190fd5b600080546040516001600160a01b03909116907f8be0079c531659141344cd1fd0a4f28419497f9722a3daafe3b4186f6b6457e0908390a3600080546001600160a01b0319169055565b60008251600014156109585760408051600160e51b62461bcd02815260206004820152601360248201527f746f206164647265737320697320656d70747900000000000000000000000000604482015290519081900360640190fd5b60015482101561099c57604051600160e51b62461bcd02815260040180806020018281038252602f815260200180611944602f913960400191505060405180910390fd5b6004546000906109cc90612710906109c0908690600160b01b900461ffff16611161565b9063ffffffff6111c416565b60025460408051600160e21b632770a7eb0281523360048201526024810187905290519293506001600160a01b0390911691639dc29fac9160448082019260009290919082900301818387803b158015610a2557600080fd5b505af1158015610a39573d6000803e3d6000fd5b50506002546004805460408051600160e01b6340c10f190281526001600160a01b03928316938101939093526024830187905251921693506340c10f19925060448082019260009290919082900301818387803b158015610a9957600080fd5b505af1158015610aad573d6000803e3d6000fd5b505050506000610ac6828561123190919063ffffffff16565b9050846040518082805190602001908083835b60208310610af85780518252601f199092019160209182019101610ad9565b6001836020036101000a03801982511681845116808217855250505050505090500191505060405180910390206006547f2275318eaeb892d338c6737eebf5f31747c1eab22b63ccbc00cd93d4e785c11687846040518080602001838152602001828103825284818151815260200191508051906020019080838360005b83811015610b8e578181015183820152602001610b76565b50505050905090810190601f168015610bbb5780820380516001836020036101000a031916815260200191505b50935050505060405180910390a36006805460010190559150505b92915050565b60015481565b6000546001600160a01b031690565b6000546001600160a01b0316331490565b6003546001600160a01b031681565b600454600160b01b900461ffff1681565b610c2a610bf1565b610c6c5760408051600160e51b62461bcd0281526020600482018190526024820152600080516020611994833981519152604482015290519081900360640190fd5b6004805461ffff909216600160b01b02600160b01b61ffff0219909216919091179055565b60065481565b600080610ca6868633876107f3565b60008181526005602052604090205490915060ff1615610d105760408051600160e51b62461bcd02815260206004820152601860248201527f6e6f6e6365206861736820616c7265616479207370656e740000000000000000604482015290519081900360640190fd5b610d1a8184610fae565b610e2457610d9d6040518060400160405280601a81526020017f696e76616c6964207369676e6174757265202d20686173683a20000000000000815250610d6083611291565b6040518060400160405280600a8152602001600160b51b690161039b4b3b732b91d102815250610d98610d938689611412565b6115a4565b611729565b604051600160e51b62461bcd0281526004018080602001828103825283818151815260200191508051906020019080838360005b83811015610de9578181015183820152602001610dd1565b50505050905090810190601f168015610e165780820380516001836020036101000a031916815260200191505b509250505060405180910390fd5b6000818152600560205260408120805460ff19166001179055600454610e6590612710906109c090899061ffff600160a01b9091041663ffffffff61116116565b90506000610e79878363ffffffff61123116565b60025460408051600160e01b6340c10f190281523360048201526024810184905290519293506001600160a01b03909116916340c10f199160448082019260009290919082900301818387803b158015610ed257600080fd5b505af1158015610ee6573d6000803e3d6000fd5b50506002546004805460408051600160e01b6340c10f190281526001600160a01b03928316938101939093526024830188905251921693506340c10f19925060448082019260009290919082900301818387803b158015610f4657600080fd5b505af1158015610f5a573d6000803e3d6000fd5b505060065460408051858152905187945091925033917f66519073cf8fb3a91e4ee5a511c26928b523e9641f0aed760af126159fb375029181900360200190a4600680546001019055979650505050505050565b6000610fba8383611412565b6003546001600160a01b039182169116149392505050565b600454600160a01b900461ffff1681565b610feb610bf1565b61102d5760408051600160e51b62461bcd0281526020600482018190526024820152600080516020611994833981519152604482015290519081900360640190fd5b600155565b61103a610bf1565b61107c5760408051600160e51b62461bcd0281526020600482018190526024820152600080516020611994833981519152604482015290519081900360640190fd5b6001600160a01b0381166110da5760408051600160e51b62461bcd02815260206004820152601b60248201527f66656520726563697069656e742063616e6e6f74206265203078300000000000604482015290519081900360640190fd5b600480546001600160a01b0319166001600160a01b0392909216919091179055565b611104610bf1565b6111465760408051600160e51b62461bcd0281526020600482018190526024820152600080516020611994833981519152604482015290519081900360640190fd5b61114f8161187a565b50565b6002546001600160a01b031681565b60008261117057506000610bd6565b8282028284828161117d57fe5b04146111bd57604051600160e51b62461bcd0281526004018080602001828103825260218152602001806119736021913960400191505060405180910390fd5b9392505050565b600080821161121d5760408051600160e51b62461bcd02815260206004820152601a60248201527f536166654d6174683a206469766973696f6e206279207a65726f000000000000604482015290519081900360640190fd5b600082848161122857fe5b04949350505050565b60008282111561128b5760408051600160e51b62461bcd02815260206004820152601e60248201527f536166654d6174683a207375627472616374696f6e206f766572666c6f770000604482015290519081900360640190fd5b50900390565b60408051808201825260108152600160811b6f181899199a1a9b1b9c1cb0b131b232b302602082015281516042808252608082019093526060928492918491602082018180388339019050509050600160fc1b600302816000815181106112f457fe5b60200101906001600160f81b031916908160001a905350600160fb1b600f028160018151811061132057fe5b60200101906001600160f81b031916908160001a90535060005b60208110156114095782600485836020811061135257fe5b1a60f81b6001600160f81b031916901c60f81c60ff168151811061137257fe5b602001015160f81c60f81b82826002026002018151811061138f57fe5b60200101906001600160f81b031916908160001a905350828482602081106113b357fe5b1a60f81b600f60f81b1660f81c60ff16815181106113cd57fe5b602001015160f81c60f81b8282600202600301815181106113ea57fe5b60200101906001600160f81b031916908160001a90535060010161133a565b50949350505050565b6000815160411461146d5760408051600160e51b62461bcd02815260206004820152601d60248201527f7369676e61747572652773206c656e67746820697320696e76616c6964000000604482015290519081900360640190fd5b60208201516040830151606084015160001a7f7fffffffffffffffffffffffffffffff5d576e7357a4501ddfe92f46681b20a08211156114e157604051600160e51b62461bcd0281526004018080602001828103825260238152602001806119b46023913960400191505060405180910390fd5b8060ff16601b141580156114f957508060ff16601c14155b1561153857604051600160e51b62461bcd0281526004018080602001828103825260238152602001806119d76023913960400191505060405180910390fd5b6040805160008152602080820180845289905260ff8416828401526060820186905260808201859052915160019260a0808401939192601f1981019281900390910190855afa15801561158f573d6000803e3d6000fd5b5050604051601f190151979650505050505050565b60408051808201825260108152600160811b6f181899199a1a9b1b9c1cb0b131b232b30260208201528151602a80825260608281019094526001600160a01b03851692918491602082018180388339019050509050600160fc1b6003028160008151811061160e57fe5b60200101906001600160f81b031916908160001a905350600160fb1b600f028160018151811061163a57fe5b60200101906001600160f81b031916908160001a90535060005b6014811015611409578260048583600c016020811061166f57fe5b1a60f81b6001600160f81b031916901c60f81c60ff168151811061168f57fe5b602001015160f81c60f81b8282600202600201815181106116ac57fe5b60200101906001600160f81b031916908160001a905350828482600c01602081106116d357fe5b1a60f81b600f60f81b1660f81c60ff16815181106116ed57fe5b602001015160f81c60f81b82826002026003018151811061170a57fe5b60200101906001600160f81b031916908160001a905350600101611654565b6060848484846040516020018085805190602001908083835b602083106117615780518252601f199092019160209182019101611742565b51815160209384036101000a600019018019909216911617905287519190930192870191508083835b602083106117a95780518252601f19909201916020918201910161178a565b51815160209384036101000a600019018019909216911617905286519190930192860191508083835b602083106117f15780518252601f1990920191602091820191016117d2565b51815160209384036101000a600019018019909216911617905285519190930192850191508083835b602083106118395780518252601f19909201916020918201910161181a565b6001836020036101000a0380198251168184511680821785525050505050509050019450505050506040516020818303038152906040529050949350505050565b6001600160a01b0381166118c257604051600160e51b62461bcd02815260040180806020018281038252602681526020018061191e6026913960400191505060405180910390fd5b600080546040516001600160a01b03808516939216917f8be0079c531659141344cd1fd0a4f28419497f9722a3daafe3b4186f6b6457e091a3600080546001600160a01b0319166001600160a01b039290921691909117905556fe4f776e61626c653a206e6577206f776e657220697320746865207a65726f2061646472657373616d6f756e74206973206c657373207468616e20746865206d696e696d756d2073686966744f757420616d6f756e74536166654d6174683a206d756c7469706c69636174696f6e206f766572666c6f774f776e61626c653a2063616c6c6572206973206e6f7420746865206f776e65727369676e61747572652773207320697320696e207468652077726f6e672072616e67657369676e61747572652773207620697320696e207468652077726f6e672072616e6765a165627a7a723058207c7afe5496619fc690af03b0c33aa55a238eec4b87f6613da0ff1cc53df494390029",
  "source": "pragma solidity ^0.5.8;\n\nimport \"openzeppelin-solidity/contracts/math/SafeMath.sol\";\nimport \"openzeppelin-solidity/contracts/ownership/Ownable.sol\";\nimport \"openzeppelin-solidity/contracts/cryptography/ECDSA.sol\";\n\nimport \"../libraries/String.sol\";\nimport \"./ERC20Shifted.sol\";\n\n/// @notice Shifter handles verifying mint and burn requests. A mintAuthority\n/// approves new assets to be minted by providing a digital signature. An owner\n/// of an asset can request for it to be burnt.\ncontract Shifter is Ownable {\n    using SafeMath for uint256;\n\n    uint8 public version = 2;\n\n    uint256 constant BIPS_DENOMINATOR = 10000;\n    uint256 public minShiftAmount;\n\n    /// @notice Each Shifter token is tied to a specific shifted token.\n    ERC20Shifted public token;\n\n    /// @notice The mintAuthority is an address that can sign mint requests.\n    address public mintAuthority;\n\n    /// @dev feeRecipient is assumed to be an address (or a contract) that can\n    /// accept erc20 payments it cannot be 0x0.\n    /// @notice When tokens are mint or burnt, a portion of the tokens are\n    /// forwarded to a fee recipient.\n    address public feeRecipient;\n\n    /// @notice The shiftIn fee in bips.\n    uint16 public shiftInFee;\n\n    /// @notice The shiftOut fee in bips.\n    uint16 public shiftOutFee;\n\n    /// @notice Each nHash can only be seen once.\n    mapping (bytes32=>bool) public status;\n\n    // LogShiftIn and LogShiftOut contain a unique `shiftID` that identifies\n    // the mint or burn event.\n    uint256 public nextShiftID = 0;\n\n    event LogShiftIn(\n        address indexed _to,\n        uint256 _amount,\n        uint256 indexed _shiftID,\n        bytes32 indexed _signedMessageHash\n    );\n    event LogShiftOut(\n        bytes _to,\n        uint256 _amount,\n        uint256 indexed _shiftID,\n        bytes indexed _indexedTo\n    );\n\n    /// @param _token The ERC20Shifted this Shifter is responsible for.\n    /// @param _feeRecipient The recipient of burning and minting fees.\n    /// @param _mintAuthority The address of the key that can sign mint\n    ///        requests.\n    /// @param _shiftInFee The amount subtracted each shiftIn request and\n    ///        forwarded to the feeRecipient. In BIPS.\n    /// @param _shiftOutFee The amount subtracted each shiftOut request and\n    ///        forwarded to the feeRecipient. In BIPS.\n    constructor(ERC20Shifted _token, address _feeRecipient, address _mintAuthority, uint16 _shiftInFee, uint16 _shiftOutFee, uint256 _minShiftOutAmount) public {\n        minShiftAmount = _minShiftOutAmount;\n        token = _token;\n        mintAuthority = _mintAuthority;\n        shiftInFee = _shiftInFee;\n        shiftOutFee = _shiftOutFee;\n        updateFeeRecipient(_feeRecipient);\n    }\n\n    // Public functions ////////////////////////////////////////////////////////\n\n    /// @notice Claims ownership of the token passed in to the constructor.\n    /// `transferStoreOwnership` must have previously been called.\n    /// Anyone can call this function.\n    function claimTokenOwnership() public {\n        token.claimOwnership();\n    }\n\n    /// @notice Allow the owner to update the owner of the ERC20Shifted token.\n    function transferTokenOwnership(Shifter _nextTokenOwner) public onlyOwner {\n        token.transferOwnership(address(_nextTokenOwner));\n        _nextTokenOwner.claimTokenOwnership();\n    }\n\n    /// @notice Allow the owner to update the fee recipient.\n    ///\n    /// @param _nextMintAuthority The address to start paying fees to.\n    function updateMintAuthority(address _nextMintAuthority) public onlyOwner {\n        mintAuthority = _nextMintAuthority;\n    }\n\n    /// @notice Allow the owner to update the minimum shiftOut amount.\n    ///\n    /// @param _minShiftOutAmount The new min shiftOut amount.\n    function updateMinimumShiftOutAmount(uint256 _minShiftOutAmount) public onlyOwner {\n        minShiftAmount = _minShiftOutAmount;\n    }\n\n    /// @notice Allow the owner to update the fee recipient.\n    ///\n    /// @param _nextFeeRecipient The address to start paying fees to.\n    function updateFeeRecipient(address _nextFeeRecipient) public onlyOwner {\n        // ShiftIn and ShiftOut will fail if the feeRecipient is 0x0\n        require(_nextFeeRecipient != address(0x0), \"fee recipient cannot be 0x0\");\n\n        feeRecipient = _nextFeeRecipient;\n    }\n\n    /// @notice Allow the owner to update the shiftIn fee.\n    ///\n    /// @param _nextFee The new fee for minting and burning.\n    function updateShiftInFee(uint16 _nextFee) public onlyOwner {\n        shiftInFee = _nextFee;\n    }\n\n    /// @notice Allow the owner to update the shiftOut fee.\n    ///\n    /// @param _nextFee The new fee for minting and burning.\n    function updateShiftOutFee(uint16 _nextFee) public onlyOwner {\n        shiftOutFee = _nextFee;\n    }\n\n    /// @notice shiftIn mints tokens after taking a fee for the `_feeRecipient`.\n    ///\n    /// @param _pHash (payload hash) The hash of the payload associated with the\n    ///        shift.\n    /// @param _amount The amount of the token being shifted int, in its\n    ///        smallest value. (e.g. satoshis for BTC)\n    /// @param _nHash (nonce hash) The hash of the nonce, amount and pHash.\n    /// @param _sig The signature of the hash of the following values:\n    ///        (pHash, amount, msg.sender, nHash), signed by the mintAuthority.\n    function shiftIn(bytes32 _pHash, uint256 _amount, bytes32 _nHash, bytes memory _sig) public returns (uint256) {\n        // Verify signature\n        bytes32 signedMessageHash = hashForSignature(_pHash, _amount, msg.sender, _nHash);\n        require(status[signedMessageHash] == false, \"nonce hash already spent\");\n        if (!verifySignature(signedMessageHash, _sig)) {\n            // Return a detailed string containing the hash and recovered\n            // signer. This is a costly operation but is only run in the revert\n            // branch.\n            revert(\n                String.add4(\n                    \"invalid signature - hash: \",\n                    String.fromBytes32(signedMessageHash),\n                    \", signer: \",\n                    String.fromAddress(ECDSA.recover(signedMessageHash, _sig))\n                )\n            );\n        }\n        status[signedMessageHash] = true;\n\n        // Mint `amount - fee` for the recipient and mint `fee` for the minter\n        uint256 absoluteFee = (_amount.mul(shiftInFee)).div(BIPS_DENOMINATOR);\n        uint256 receivedAmount = _amount.sub(absoluteFee);\n        token.mint(msg.sender, receivedAmount);\n        token.mint(feeRecipient, absoluteFee);\n\n        // Emit a log with a unique shift ID\n        emit LogShiftIn(msg.sender, receivedAmount, nextShiftID, signedMessageHash);\n        nextShiftID += 1;\n\n        return receivedAmount;\n    }\n\n    /// @notice shiftOut burns tokens after taking a fee for the `_feeRecipient`.\n    ///\n    /// @param _to The address to receive the unshifted digital asset. The\n    ///        format of this address should be of the destination chain.\n    ///        For example, when shifting out to Bitcoin, _to should be a\n    ///        Bitcoin address.\n    /// @param _amount The amount of the token being shifted out, in its\n    ///        smallest value. (e.g. satoshis for BTC)\n    function shiftOut(bytes memory _to, uint256 _amount) public returns (uint256) {\n        // The recipient must not be empty. Better validation is possible,\n        // but would need to be customized for each destination ledger.\n        require(_to.length != 0, \"to address is empty\");\n        require(_amount >= minShiftAmount, \"amount is less than the minimum shiftOut amount\");\n\n        // Burn full amount and mint fee\n        uint256 absoluteFee = (_amount.mul(shiftOutFee)).div(BIPS_DENOMINATOR);\n        token.burn(msg.sender, _amount);\n        token.mint(feeRecipient, absoluteFee);\n\n        // Emit a log with a unique shift ID\n        uint256 receivedValue = _amount.sub(absoluteFee);\n        emit LogShiftOut(_to, receivedValue, nextShiftID, _to);\n        nextShiftID += 1;\n\n        return receivedValue;\n    }\n\n    /// @notice verifySignature checks the the provided signature matches the provided\n    /// parameters.\n    function verifySignature(bytes32 _signedMessageHash, bytes memory _sig) public      returns (bool) {\n        return mintAuthority == ECDSA.recover(_signedMessageHash, _sig);\n    }\n\n    /// @notice hashForSignature hashes the parameters so that they can be signed.\n    function hashForSignature(bytes32 _pHash, uint256 _amount, address _to, bytes32 _nHash) public      returns (bytes32) {\n        return keccak256(abi.encode(_pHash, _amount, address(token), _to, _nHash));\n    }\n}\n\n/// @dev The following are not necessary for deploying BTCShifter or ZECShifter\n/// contracts, but are used to track deployments.\ncontract BTCShifter is Shifter {\n    constructor(ERC20Shifted _token, address _feeRecipient, address _mintAuthority, uint16 _shiftInFee, uint16 _shiftOutFee, uint256 _minShiftOutAmount)\n        Shifter(_token, _feeRecipient, _mintAuthority, _shiftInFee, _shiftOutFee, _minShiftOutAmount) public {\n        }\n}\n\ncontract ZECShifter is Shifter {\n    constructor(ERC20Shifted _token, address _feeRecipient, address _mintAuthority, uint16 _shiftInFee, uint16 _shiftOutFee, uint256 _minShiftOutAmount)\n        Shifter(_token, _feeRecipient, _mintAuthority, _shiftInFee, _shiftOutFee, _minShiftOutAmount) public {\n        }\n}\n\ncontract BCHShifter is Shifter {\n    constructor(ERC20Shifted _token, address _feeRecipient, address _mintAuthority, uint16 _shiftInFee, uint16 _shiftOutFee, uint256 _minShiftOutAmount)\n        Shifter(_token, _feeRecipient, _mintAuthority, _shiftInFee, _shiftOutFee, _minShiftOutAmount) public {\n        }\n}",
  "sourcePath": "darknode-sol/contracts/Shifter/Shifter.sol",
  "compiler": {
    "name": "solc",
    "version": "0.5.8+commit.23d335f2.Emscripten.clang"
  },
  "schemaVersion": "3.0.16",
  "updatedAt": "2019-10-30T02:49:29.021Z",
  "devdoc": {
    "details": "The following are not necessary for deploying BTCShifter or ZECShifter contracts, but are used to track deployments.",
    "methods": {
      "isOwner()": {
        "details": "Returns true if the caller is the current owner."
      },
      "owner()": {
        "details": "Returns the address of the current owner."
      },
      "renounceOwnership()": {
        "details": "Leaves the contract without owner. It will not be possible to call `onlyOwner` functions anymore. Can only be called by the current owner.     * > Note: Renouncing ownership will leave the contract without an owner, thereby removing any functionality that is only available to the owner."
      },
      "shiftIn(bytes32,uint256,bytes32,bytes)": {
        "params": {
          "_amount": "The amount of the token being shifted int, in its        smallest value. (e.g. satoshis for BTC)",
          "_nHash": "(nonce hash) The hash of the nonce, amount and pHash.",
          "_pHash": "(payload hash) The hash of the payload associated with the        shift.",
          "_sig": "The signature of the hash of the following values:        (pHash, amount, msg.sender, nHash), signed by the mintAuthority."
        }
      },
      "shiftOut(bytes,uint256)": {
        "params": {
          "_amount": "The amount of the token being shifted out, in its        smallest value. (e.g. satoshis for BTC)",
          "_to": "The address to receive the unshifted digital asset. The        format of this address should be of the destination chain.        For example, when shifting out to Bitcoin, _to should be a        Bitcoin address."
        }
      },
      "transferOwnership(address)": {
        "details": "Transfers ownership of the contract to a new account (`newOwner`). Can only be called by the current owner."
      },
      "updateFeeRecipient(address)": {
        "params": {
          "_nextFeeRecipient": "The address to start paying fees to."
        }
      },
      "updateMinimumShiftOutAmount(uint256)": {
        "params": {
          "_minShiftOutAmount": "The new min shiftOut amount."
        }
      },
      "updateMintAuthority(address)": {
        "params": {
          "_nextMintAuthority": "The address to start paying fees to."
        }
      },
      "updateShiftInFee(uint16)": {
        "params": {
          "_nextFee": "The new fee for minting and burning."
        }
      },
      "updateShiftOutFee(uint16)": {
        "params": {
          "_nextFee": "The new fee for minting and burning."
        }
      }
    }
  },
  "userdoc": {
    "methods": {
      "claimTokenOwnership()": {
        "notice": "Claims ownership of the token passed in to the constructor. `transferStoreOwnership` must have previously been called. Anyone can call this function."
      },
      "hashForSignature(bytes32,uint256,address,bytes32)": {
        "notice": "hashForSignature hashes the parameters so that they can be signed."
      },
      "shiftIn(bytes32,uint256,bytes32,bytes)": {
        "notice": "shiftIn mints tokens after taking a fee for the `_feeRecipient`. "
      },
      "shiftOut(bytes,uint256)": {
        "notice": "shiftOut burns tokens after taking a fee for the `_feeRecipient`. "
      },
      "transferTokenOwnership(address)": {
        "notice": "Allow the owner to update the owner of the ERC20Shifted token."
      },
      "updateFeeRecipient(address)": {
        "notice": "Allow the owner to update the fee recipient. "
      },
      "updateMinimumShiftOutAmount(uint256)": {
        "notice": "Allow the owner to update the minimum shiftOut amount. "
      },
      "updateMintAuthority(address)": {
        "notice": "Allow the owner to update the fee recipient. "
      },
      "updateShiftInFee(uint16)": {
        "notice": "Allow the owner to update the shiftIn fee. "
      },
      "updateShiftOutFee(uint16)": {
        "notice": "Allow the owner to update the shiftOut fee. "
      },
      "verifySignature(bytes32,bytes)": {
        "notice": "verifySignature checks the the provided signature matches the provided parameters."
      }
    }
  }
}