{
  "contractName": "DEX",
  "abi": [
    {
      "constant": true,
      "inputs": [],
      "name": "BaseToken",
      "outputs": [
        {
          "name": "",
          "type": "address"
        }
      ],
      "payable": false,
      "stateMutability": "view",
      "type": "function"
    },
    {
      "constant": true,
      "inputs": [
        {
          "name": "",
          "type": "address"
        }
      ],
      "name": "reserves",
      "outputs": [
        {
          "name": "",
          "type": "address"
        }
      ],
      "payable": false,
      "stateMutability": "view",
      "type": "function"
    },
    {
      "inputs": [
        {
          "name": "_baseToken",
          "type": "address"
        }
      ],
      "payable": false,
      "stateMutability": "nonpayable",
      "type": "constructor"
    },
    {
      "anonymous": false,
      "inputs": [
        {
          "indexed": false,
          "name": "fileName",
          "type": "string"
        },
        {
          "indexed": false,
          "name": "lineNumber",
          "type": "uint256"
        }
      ],
      "name": "__CoverageDEX",
      "type": "event"
    },
    {
      "anonymous": false,
      "inputs": [
        {
          "indexed": false,
          "name": "fileName",
          "type": "string"
        },
        {
          "indexed": false,
          "name": "fnId",
          "type": "uint256"
        }
      ],
      "name": "__FunctionCoverageDEX",
      "type": "event"
    },
    {
      "anonymous": false,
      "inputs": [
        {
          "indexed": false,
          "name": "fileName",
          "type": "string"
        },
        {
          "indexed": false,
          "name": "statementId",
          "type": "uint256"
        }
      ],
      "name": "__StatementCoverageDEX",
      "type": "event"
    },
    {
      "anonymous": false,
      "inputs": [
        {
          "indexed": false,
          "name": "fileName",
          "type": "string"
        },
        {
          "indexed": false,
          "name": "branchId",
          "type": "uint256"
        },
        {
          "indexed": false,
          "name": "locationIdx",
          "type": "uint256"
        }
      ],
      "name": "__BranchCoverageDEX",
      "type": "event"
    },
    {
      "anonymous": false,
      "inputs": [
        {
          "indexed": false,
          "name": "fileName",
          "type": "string"
        },
        {
          "indexed": false,
          "name": "branchId",
          "type": "uint256"
        }
      ],
      "name": "__AssertPreCoverageDEX",
      "type": "event"
    },
    {
      "anonymous": false,
      "inputs": [
        {
          "indexed": false,
          "name": "fileName",
          "type": "string"
        },
        {
          "indexed": false,
          "name": "branchId",
          "type": "uint256"
        }
      ],
      "name": "__AssertPostCoverageDEX",
      "type": "event"
    },
    {
      "anonymous": false,
      "inputs": [
        {
          "indexed": false,
          "name": "_src",
          "type": "address"
        },
        {
          "indexed": false,
          "name": "_dst",
          "type": "address"
        },
        {
          "indexed": false,
          "name": "_sendAmount",
          "type": "uint256"
        },
        {
          "indexed": false,
          "name": "_recvAmount",
          "type": "uint256"
        }
      ],
      "name": "LogTrade",
      "type": "event"
    },
    {
      "constant": false,
      "inputs": [
        {
          "name": "_token",
          "type": "address"
        }
      ],
      "name": "recoverTokens",
      "outputs": [],
      "payable": false,
      "stateMutability": "nonpayable",
      "type": "function"
    },
    {
      "constant": false,
      "inputs": [
        {
          "name": "_erc20",
          "type": "address"
        },
        {
          "name": "_reserve",
          "type": "address"
        }
      ],
      "name": "registerReserve",
      "outputs": [],
      "payable": false,
      "stateMutability": "nonpayable",
      "type": "function"
    },
    {
      "constant": false,
      "inputs": [
        {
          "name": "_to",
          "type": "address"
        },
        {
          "name": "_src",
          "type": "address"
        },
        {
          "name": "_dst",
          "type": "address"
        },
        {
          "name": "_sendAmount",
          "type": "uint256"
        }
      ],
      "name": "trade",
      "outputs": [
        {
          "name": "",
          "type": "uint256"
        }
      ],
      "payable": false,
      "stateMutability": "nonpayable",
      "type": "function"
    },
    {
      "constant": false,
      "inputs": [
        {
          "name": "_src",
          "type": "address"
        },
        {
          "name": "_dst",
          "type": "address"
        },
        {
          "name": "_sendAmount",
          "type": "uint256"
        }
      ],
      "name": "calculateReceiveAmount",
      "outputs": [
        {
          "name": "",
          "type": "uint256"
        }
      ],
      "payable": false,
      "stateMutability": "nonpayable",
      "type": "function"
    }
  ],
  "bytecode": "0x608060405234801561001057600080fd5b50604051602080611ce68339810180604052602081101561003057600080fd5b50516040805160016020820181905282825260419282018390527f739ed23961132b21445750de118fd4ffe99226b2b2a21a505f4398292f57103f9290919081906060820190611ca582396060019250505060405180910390a17f6e76c92f87d17fa5d508f43d80aeab6606881ef905c159fe56e03e5522bb7856600d604051808060200183815260200182810382526041815260200180611ca5604191396060019250505060405180910390a17fcd1934130f0876cb30c6084f9ec653e4e74ed595f956dc2692d28103690ad9aa6001604051808060200183815260200182810382526041815260200180611ca5604191396060019250505060405180910390a1600180546001600160a01b0319166001600160a01b0392909216919091179055611b44806101616000396000f3fe608060405234801561001057600080fd5b50600436106100625760003560e01c806316114acd146100675780635fb31d771461008f57806390f81702146100d7578063d4eec729146100fb578063d66bd52414610129578063dca751a61461014f575b600080fd5b61008d6004803603602081101561007d57600080fd5b50356001600160a01b031661018b565b005b6100c5600480360360608110156100a557600080fd5b506001600160a01b0381358116916020810135909116906040013561034c565b60408051918252519081900360200190f35b6100df61096b565b604080516001600160a01b039092168252519081900360200190f35b61008d6004803603604081101561011157600080fd5b506001600160a01b038135811691602001351661097a565b6100df6004803603602081101561013f57600080fd5b50356001600160a01b0316610be6565b6100c56004803603608081101561016557600080fd5b506001600160a01b03813581169160208101358216916040820135169060600135610c01565b600080516020611ab98339815191526002604051808060200183815260200182810382526041815260200180611a38604191396060019250505060405180910390a1600080516020611af98339815191526012604051808060200183815260200182810382526041815260200180611a38604191396060019250505060405180910390a1600080516020611ad98339815191526002604051808060200183815260200182810382526041815260200180611a38604191396060019250505060405180910390a160408051600160e01b6370a0823102815230600482015290516001600160a01b0383169163a9059cbb91339184916370a08231916024808201926020929091908290030181600087803b1580156102a757600080fd5b505af11580156102bb573d6000803e3d6000fd5b505050506040513d60208110156102d157600080fd5b50516040805163ffffffff851660e01b81526001600160a01b03909316600484015260248301919091525160448083019260209291908290030181600087803b15801561031d57600080fd5b505af1158015610331573d6000803e3d6000fd5b505050506040513d602081101561034757600080fd5b505050565b6000600080516020611ab98339815191526005604051808060200183815260200182810382526041815260200180611a38604191396060019250505060405180910390a1600080516020611af9833981519152602d604051808060200183815260200182810382526041815260200180611a38604191396060019250505060405180910390a1600080516020611ad98339815191526012604051808060200183815260200182810382526041815260200180611a38604191396060019250505060405180910390a16001546001600160a01b038581169116141561058557600080516020611a1883398151915260076000604051808060200184815260200183815260200182810382526041815260200180611a3860419139606001935050505060405180910390a1600080516020611af9833981519152602e604051808060200183815260200182810382526041815260200180611a38604191396060019250505060405180910390a1600080516020611ad98339815191526013604051808060200183815260200182810382526041815260200180611a38604191396060019250505060405180910390a16001600160a01b03808416600090815260208181526040808320548151600160e11b6368f4463902815260048101889052915194169363d1e88c7293602480840194938390030190829087803b15801561055257600080fd5b505af1158015610566573d6000803e3d6000fd5b505050506040513d602081101561057c57600080fd5b50519050610964565b600080516020611a1883398151915260076001604051808060200184815260200183815260200182810382526041815260200180611a3860419139606001935050505060405180910390a1600080516020611af98339815191526030604051808060200183815260200182810382526041815260200180611a38604191396060019250505060405180910390a1600080516020611ad98339815191526014604051808060200183815260200182810382526041815260200180611a38604191396060019250505060405180910390a16001546001600160a01b038481169116141561079257600080516020611a1883398151915260086000604051808060200184815260200183815260200182810382526041815260200180611a3860419139606001935050505060405180910390a1600080516020611af98339815191526031604051808060200183815260200182810382526041815260200180611a38604191396060019250505060405180910390a1600080516020611ad98339815191526015604051808060200183815260200182810382526041815260200180611a38604191396060019250505060405180910390a16001600160a01b03808516600090815260208181526040808320548151600160e01b63b4d5fa7f02815260048101889052915194169363b4d5fa7f93602480840194938390030190829087803b15801561055257600080fd5b600080516020611a1883398151915260086001604051808060200184815260200183815260200182810382526041815260200180611a3860419139606001935050505060405180910390a1600080516020611af98339815191526033604051808060200183815260200182810382526041815260200180611a38604191396060019250505060405180910390a1600080516020611ad98339815191526016604051808060200183815260200182810382526041815260200180611a38604191396060019250505060405180910390a16001600160a01b03808416600090815260208181526040808320548885168452818420548251600160e01b63b4d5fa7f0281526004810189905292519186169563d1e88c729591169363b4d5fa7f936024808201949293918390030190829087803b1580156108cf57600080fd5b505af11580156108e3573d6000803e3d6000fd5b505050506040513d60208110156108f957600080fd5b50516040805163ffffffff841660e01b815260048101929092525160248083019260209291908290030181600087803b15801561093557600080fd5b505af1158015610949573d6000803e3d6000fd5b505050506040513d602081101561095f57600080fd5b505190505b9392505050565b6001546001600160a01b031681565b600080516020611ab98339815191526003604051808060200183815260200182810382526041815260200180611a38604191396060019250505060405180910390a1600080516020611af98339815191526016604051808060200183815260200182810382526041815260200180611a38604191396060019250505060405180910390a1600080516020611a998339815191526001604051808060200183815260200182810382526041815260200180611a38604191396060019250505060405180910390a1600080516020611ad98339815191526003604051808060200183815260200182810382526041815260200180611a38604191396060019250505060405180910390a16001600160a01b038281166000908152602081905260409020541615610af25760408051600160e51b62461bcd02815260206004820181905260248201527f746f6b656e207265736572766520616c72656164792072656769737465726564604482015290519081900360640190fd5b600080516020611a798339815191526001604051808060200183815260200182810382526041815260200180611a38604191396060019250505060405180910390a1600080516020611af98339815191526017604051808060200183815260200182810382526041815260200180611a38604191396060019250505060405180910390a1600080516020611ad98339815191526004604051808060200183815260200182810382526041815260200180611a38604191396060019250505060405180910390a16001600160a01b03918216600090815260208190526040902080546001600160a01b03191691909216179055565b6000602081905290815260409020546001600160a01b031681565b6000600080516020611ab98339815191526004604051808060200183815260200182810382526041815260200180611a38604191396060019250505060405180910390a1600080516020611af9833981519152601b604051808060200183815260200182810382526041815260200180611a38604191396060019250505060405180910390a1600080516020611ad98339815191526005604051808060200183815260200182810382526041815260200180611a38604191396060019250505060405180910390a16000600080516020611af9833981519152601c604051808060200183815260200182810382526041815260200180611a38604191396060019250505060405180910390a1600080516020611ad98339815191526006604051808060200183815260200182810382526041815260200180611a38604191396060019250505060405180910390a16001546001600160a01b038681169116141561103c57600080516020611a1883398151915260026000604051808060200184815260200183815260200182810382526041815260200180611a3860419139606001935050505060405180910390a1600080516020611af9833981519152601d604051808060200183815260200182810382526041815260200180611a38604191396060019250505060405180910390a1600080516020611a998339815191526003604051808060200183815260200182810382526041815260200180611a38604191396060019250505060405180910390a1600080516020611ad98339815191526007604051808060200183815260200182810382526041815260200180611a38604191396060019250505060405180910390a16001600160a01b0384811660009081526020819052604090205416610edc5760408051600160e51b62461bcd0281526020600482015260116024820152600160791b703ab739bab83837b93a32b2103a37b5b2b702604482015290519081900360640190fd5b600080516020611a798339815191526003604051808060200183815260200182810382526041815260200180611a38604191396060019250505060405180910390a1600080516020611af9833981519152601e604051808060200183815260200182810382526041815260200180611a38604191396060019250505060405180910390a1600080516020611ad98339815191526008604051808060200183815260200182810382526041815260200180611a38604191396060019250505060405180910390a16001600160a01b03808516600090815260208181526040808320548151600160e11b630a9f33730281528b8616600482015233602482015260448101899052915194169363153e66e693606480840194938390030190829087803b15801561100957600080fd5b505af115801561101d573d6000803e3d6000fd5b505050506040513d602081101561103357600080fd5b505190506118b5565b600080516020611ad98339815191526009604051808060200183815260200182810382526041815260200180611a38604191396060019250505060405180910390a1600080516020611a1883398151915260026001604051808060200184815260200183815260200182810382526041815260200180611a3860419139606001935050505060405180910390a16001546001600160a01b038581169116141561138357600080516020611a1883398151915260046000604051808060200184815260200183815260200182810382526041815260200180611a3860419139606001935050505060405180910390a1600080516020611af98339815191526020604051808060200183815260200182810382526041815260200180611a38604191396060019250505060405180910390a1600080516020611a998339815191526005604051808060200183815260200182810382526041815260200180611a38604191396060019250505060405180910390a1600080516020611ad9833981519152600a604051808060200183815260200182810382526041815260200180611a38604191396060019250505060405180910390a16001600160a01b03858116600090815260208190526040902054166112565760408051600160e51b62461bcd0281526020600482015260116024820152600160791b703ab739bab83837b93a32b2103a37b5b2b702604482015290519081900360640190fd5b600080516020611a798339815191526005604051808060200183815260200182810382526041815260200180611a38604191396060019250505060405180910390a1600080516020611af98339815191526021604051808060200183815260200182810382526041815260200180611a38604191396060019250505060405180910390a1600080516020611ad9833981519152600b604051808060200183815260200182810382526041815260200180611a38604191396060019250505060405180910390a16001600160a01b03808616600090815260208181526040808320548151600160e11b636571385b0281528b8616600482015233602482015260448101899052915194169363cae270b693606480840194938390030190829087803b15801561100957600080fd5b600080516020611a1883398151915260046001604051808060200184815260200183815260200182810382526041815260200180611a3860419139606001935050505060405180910390a1600080516020611af98339815191526023604051808060200183815260200182810382526041815260200180611a38604191396060019250505060405180910390a1600080516020611a998339815191526006604051808060200183815260200182810382526041815260200180611a38604191396060019250505060405180910390a1600080516020611ad9833981519152600c604051808060200183815260200182810382526041815260200180611a38604191396060019250505060405180910390a16001600160a01b0385811660009081526020819052604090205416158015906114d657506001600160a01b038481166000908152602081905260409020541615155b6115215760408051600160e51b62461bcd0281526020600482015260116024820152600160791b703ab739bab83837b93a32b2103a37b5b2b702604482015290519081900360640190fd5b600080516020611a798339815191526006604051808060200183815260200182810382526041815260200180611a38604191396060019250505060405180910390a1600080516020611af98339815191526024604051808060200183815260200182810382526041815260200180611a38604191396060019250505060405180910390a1600080516020611ad9833981519152600d604051808060200183815260200182810382526041815260200180611a38604191396060019250505060405180910390a16001600160a01b03808616600090815260208181526040808320548151600160e11b636571385b0281523060048201523360248201526044810189905291519394169263cae270b69260648084019391929182900301818787803b15801561164e57600080fd5b505af1158015611662573d6000803e3d6000fd5b505050506040513d602081101561167857600080fd5b5051604080516025602082018190528282526041928201839052929350600080516020611af9833981519152929181906060820190611a3882396060019250505060405180910390a1600080516020611ad9833981519152600e604051808060200183815260200182810382526041815260200180611a38604191396060019250505060405180910390a16001546001600160a01b03868116600090815260208181526040808320548151600160e01b63095ea7b30281529085166004820152602481018790529051939094169363095ea7b39360448083019491928390030190829087803b15801561176a57600080fd5b505af115801561177e573d6000803e3d6000fd5b505050506040513d602081101561179457600080fd5b5050604080516026602082018190528282526041928201839052600080516020611af98339815191529290919081906060820190611a3882396060019250505060405180910390a1600080516020611ad9833981519152600f604051808060200183815260200182810382526041815260200180611a38604191396060019250505060405180910390a16001600160a01b03808616600090815260208181526040808320548151600160e11b630a9f33730281528c8616600482015230602482015260448101879052915194169363153e66e693606480840194938390030190829087803b15801561188557600080fd5b505af1158015611899573d6000803e3d6000fd5b505050506040513d60208110156118af57600080fd5b50519150505b600080516020611af98339815191526028604051808060200183815260200182810382526041815260200180611a38604191396060019250505060405180910390a1600080516020611ad98339815191526010604051808060200183815260200182810382526041815260200180611a38604191396060019250505060405180910390a1604080516001600160a01b038088168252861660208201528082018590526060810183905290517f8d10c7a140b316d7362354a44023c657a9c436616f21481cac1cb594aa3054589181900360800190a1600080516020611af98339815191526029604051808060200183815260200182810382526041815260200180611a38604191396060019250505060405180910390a1600080516020611ad98339815191526011604051808060200183815260200182810382526041815260200180611a38604191396060019250505060405180910390a19594505050505056fe9649b0a72f6e24be0492015177025b6980d3aed337bca9c3bb7e3528251429302f686f6d652f737573727574682f72656e2f72656e766d2d64656d6f2f657468657265756d2d636f6e7472616374732f636f6e7472616374732f4445582e736f6c5c02bbc1317b27114cf57053e9a0e64bedf5d078c8babf8c8c2a098fd8678c7ca437145d941660b44140ceb5a2cd9aebafa6a811a3e41bbcb42e8a5d953f89e3739ed23961132b21445750de118fd4ffe99226b2b2a21a505f4398292f57103fcd1934130f0876cb30c6084f9ec653e4e74ed595f956dc2692d28103690ad9aa6e76c92f87d17fa5d508f43d80aeab6606881ef905c159fe56e03e5522bb7856a165627a7a72305820fa406646bb132211c42f92b21c90f1745e35dcc4b6a4f484d16b063e18b2271900292f686f6d652f737573727574682f72656e2f72656e766d2d64656d6f2f657468657265756d2d636f6e7472616374732f636f6e7472616374732f4445582e736f6c",
  "source": "pragma solidity ^0.5.0;\n\nimport \"./DEXReserve.sol\";\nimport \"openzeppelin-solidity/contracts/token/ERC20/ERC20.sol\";\n\ncontract DEX {event __CoverageDEX(string fileName, uint256 lineNumber);\nevent __FunctionCoverageDEX(string fileName, uint256 fnId);\nevent __StatementCoverageDEX(string fileName, uint256 statementId);\nevent __BranchCoverageDEX(string fileName, uint256 branchId, uint256 locationIdx);\nevent __AssertPreCoverageDEX(string fileName, uint256 branchId);\nevent __AssertPostCoverageDEX(string fileName, uint256 branchId);\n\n    mapping (address=>DEXReserve) public reserves;\n    address public BaseToken;\n\n    event LogTrade(address _src, address _dst, uint256 _sendAmount, uint256 _recvAmount);\n\n    constructor(address _baseToken) public {emit __FunctionCoverageDEX('/home/susruth/ren/renvm-demo/ethereum-contracts/contracts/DEX.sol',1);\n\nemit __CoverageDEX('/home/susruth/ren/renvm-demo/ethereum-contracts/contracts/DEX.sol',13);\n        emit __StatementCoverageDEX('/home/susruth/ren/renvm-demo/ethereum-contracts/contracts/DEX.sol',1);\nBaseToken = _baseToken;\n    }\n\n    /// @notice Allow anyone to recover funds accidentally sent to the contract.\n    function recoverTokens(address _token) external {emit __FunctionCoverageDEX('/home/susruth/ren/renvm-demo/ethereum-contracts/contracts/DEX.sol',2);\n\nemit __CoverageDEX('/home/susruth/ren/renvm-demo/ethereum-contracts/contracts/DEX.sol',18);\n        emit __StatementCoverageDEX('/home/susruth/ren/renvm-demo/ethereum-contracts/contracts/DEX.sol',2);\nERC20(_token).transfer(msg.sender, ERC20(_token).balanceOf(address(this)));\n    }\n\n    function registerReserve(address _erc20, DEXReserve _reserve) external {emit __FunctionCoverageDEX('/home/susruth/ren/renvm-demo/ethereum-contracts/contracts/DEX.sol',3);\n\nemit __CoverageDEX('/home/susruth/ren/renvm-demo/ethereum-contracts/contracts/DEX.sol',22);\n        emit __AssertPreCoverageDEX('/home/susruth/ren/renvm-demo/ethereum-contracts/contracts/DEX.sol',1);\nemit __StatementCoverageDEX('/home/susruth/ren/renvm-demo/ethereum-contracts/contracts/DEX.sol',3);\nrequire(reserves[_erc20] == DEXReserve(0x0), \"token reserve already registered\");emit __AssertPostCoverageDEX('/home/susruth/ren/renvm-demo/ethereum-contracts/contracts/DEX.sol',1);\n\nemit __CoverageDEX('/home/susruth/ren/renvm-demo/ethereum-contracts/contracts/DEX.sol',23);\n        emit __StatementCoverageDEX('/home/susruth/ren/renvm-demo/ethereum-contracts/contracts/DEX.sol',4);\nreserves[_erc20] = _reserve;\n    }\n\n    function trade(address _to, address _src, address _dst, uint256 _sendAmount) public returns (uint256) {emit __FunctionCoverageDEX('/home/susruth/ren/renvm-demo/ethereum-contracts/contracts/DEX.sol',4);\n\nemit __CoverageDEX('/home/susruth/ren/renvm-demo/ethereum-contracts/contracts/DEX.sol',27);\n        emit __StatementCoverageDEX('/home/susruth/ren/renvm-demo/ethereum-contracts/contracts/DEX.sol',5);\nuint256 recvAmount;\nemit __CoverageDEX('/home/susruth/ren/renvm-demo/ethereum-contracts/contracts/DEX.sol',28);\n        emit __StatementCoverageDEX('/home/susruth/ren/renvm-demo/ethereum-contracts/contracts/DEX.sol',6);\nif (_src == BaseToken) {emit __BranchCoverageDEX('/home/susruth/ren/renvm-demo/ethereum-contracts/contracts/DEX.sol',2,0);\nemit __CoverageDEX('/home/susruth/ren/renvm-demo/ethereum-contracts/contracts/DEX.sol',29);\n            emit __AssertPreCoverageDEX('/home/susruth/ren/renvm-demo/ethereum-contracts/contracts/DEX.sol',3);\nemit __StatementCoverageDEX('/home/susruth/ren/renvm-demo/ethereum-contracts/contracts/DEX.sol',7);\nrequire(reserves[_dst] != DEXReserve(0x0), \"unsupported token\");emit __AssertPostCoverageDEX('/home/susruth/ren/renvm-demo/ethereum-contracts/contracts/DEX.sol',3);\n\nemit __CoverageDEX('/home/susruth/ren/renvm-demo/ethereum-contracts/contracts/DEX.sol',30);\n            emit __StatementCoverageDEX('/home/susruth/ren/renvm-demo/ethereum-contracts/contracts/DEX.sol',8);\nrecvAmount = reserves[_dst].buy(_to, msg.sender, _sendAmount);\n        } else {emit __StatementCoverageDEX('/home/susruth/ren/renvm-demo/ethereum-contracts/contracts/DEX.sol',9);\nemit __BranchCoverageDEX('/home/susruth/ren/renvm-demo/ethereum-contracts/contracts/DEX.sol',2,1);if (_dst == BaseToken) {emit __BranchCoverageDEX('/home/susruth/ren/renvm-demo/ethereum-contracts/contracts/DEX.sol',4,0);\nemit __CoverageDEX('/home/susruth/ren/renvm-demo/ethereum-contracts/contracts/DEX.sol',32);\n            emit __AssertPreCoverageDEX('/home/susruth/ren/renvm-demo/ethereum-contracts/contracts/DEX.sol',5);\nemit __StatementCoverageDEX('/home/susruth/ren/renvm-demo/ethereum-contracts/contracts/DEX.sol',10);\nrequire(reserves[_src] != DEXReserve(0x0), \"unsupported token\");emit __AssertPostCoverageDEX('/home/susruth/ren/renvm-demo/ethereum-contracts/contracts/DEX.sol',5);\n\nemit __CoverageDEX('/home/susruth/ren/renvm-demo/ethereum-contracts/contracts/DEX.sol',33);\n            emit __StatementCoverageDEX('/home/susruth/ren/renvm-demo/ethereum-contracts/contracts/DEX.sol',11);\nrecvAmount = reserves[_src].sell(_to, msg.sender, _sendAmount);\n        } else {emit __BranchCoverageDEX('/home/susruth/ren/renvm-demo/ethereum-contracts/contracts/DEX.sol',4,1);\nemit __CoverageDEX('/home/susruth/ren/renvm-demo/ethereum-contracts/contracts/DEX.sol',35);\n            emit __AssertPreCoverageDEX('/home/susruth/ren/renvm-demo/ethereum-contracts/contracts/DEX.sol',6);\nemit __StatementCoverageDEX('/home/susruth/ren/renvm-demo/ethereum-contracts/contracts/DEX.sol',12);\nrequire(reserves[_src] != DEXReserve(0x0) && reserves[_dst] != DEXReserve(0x0), \"unsupported token\");emit __AssertPostCoverageDEX('/home/susruth/ren/renvm-demo/ethereum-contracts/contracts/DEX.sol',6);\n\nemit __CoverageDEX('/home/susruth/ren/renvm-demo/ethereum-contracts/contracts/DEX.sol',36);\n            emit __StatementCoverageDEX('/home/susruth/ren/renvm-demo/ethereum-contracts/contracts/DEX.sol',13);\nuint256 intermediteAmount = reserves[_src].sell(address(this), msg.sender, _sendAmount);\nemit __CoverageDEX('/home/susruth/ren/renvm-demo/ethereum-contracts/contracts/DEX.sol',37);\n            emit __StatementCoverageDEX('/home/susruth/ren/renvm-demo/ethereum-contracts/contracts/DEX.sol',14);\nERC20(BaseToken).approve(address(reserves[_dst]), intermediteAmount);\nemit __CoverageDEX('/home/susruth/ren/renvm-demo/ethereum-contracts/contracts/DEX.sol',38);\n            emit __StatementCoverageDEX('/home/susruth/ren/renvm-demo/ethereum-contracts/contracts/DEX.sol',15);\nrecvAmount = reserves[_dst].buy(_to, address(this), intermediteAmount);\n        }}\nemit __CoverageDEX('/home/susruth/ren/renvm-demo/ethereum-contracts/contracts/DEX.sol',40);\n        emit __StatementCoverageDEX('/home/susruth/ren/renvm-demo/ethereum-contracts/contracts/DEX.sol',16);\nemit LogTrade(_src, _dst, _sendAmount, recvAmount);\nemit __CoverageDEX('/home/susruth/ren/renvm-demo/ethereum-contracts/contracts/DEX.sol',41);\n        emit __StatementCoverageDEX('/home/susruth/ren/renvm-demo/ethereum-contracts/contracts/DEX.sol',17);\nreturn recvAmount;\n    }\n\n    function calculateReceiveAmount(address _src, address _dst, uint256 _sendAmount) public      returns (uint256) {emit __FunctionCoverageDEX('/home/susruth/ren/renvm-demo/ethereum-contracts/contracts/DEX.sol',5);\n\nemit __CoverageDEX('/home/susruth/ren/renvm-demo/ethereum-contracts/contracts/DEX.sol',45);\n        emit __StatementCoverageDEX('/home/susruth/ren/renvm-demo/ethereum-contracts/contracts/DEX.sol',18);\nif (_src == BaseToken) {emit __BranchCoverageDEX('/home/susruth/ren/renvm-demo/ethereum-contracts/contracts/DEX.sol',7,0);\nemit __CoverageDEX('/home/susruth/ren/renvm-demo/ethereum-contracts/contracts/DEX.sol',46);\n            emit __StatementCoverageDEX('/home/susruth/ren/renvm-demo/ethereum-contracts/contracts/DEX.sol',19);\nreturn reserves[_dst].calculateBuyRcvAmt(_sendAmount);\n        }else { emit __BranchCoverageDEX('/home/susruth/ren/renvm-demo/ethereum-contracts/contracts/DEX.sol',7,1);}\n\nemit __CoverageDEX('/home/susruth/ren/renvm-demo/ethereum-contracts/contracts/DEX.sol',48);\n        emit __StatementCoverageDEX('/home/susruth/ren/renvm-demo/ethereum-contracts/contracts/DEX.sol',20);\nif (_dst == BaseToken) {emit __BranchCoverageDEX('/home/susruth/ren/renvm-demo/ethereum-contracts/contracts/DEX.sol',8,0);\nemit __CoverageDEX('/home/susruth/ren/renvm-demo/ethereum-contracts/contracts/DEX.sol',49);\n            emit __StatementCoverageDEX('/home/susruth/ren/renvm-demo/ethereum-contracts/contracts/DEX.sol',21);\nreturn reserves[_src].calculateSellRcvAmt(_sendAmount);\n        }else { emit __BranchCoverageDEX('/home/susruth/ren/renvm-demo/ethereum-contracts/contracts/DEX.sol',8,1);}\n\nemit __CoverageDEX('/home/susruth/ren/renvm-demo/ethereum-contracts/contracts/DEX.sol',51);\n        emit __StatementCoverageDEX('/home/susruth/ren/renvm-demo/ethereum-contracts/contracts/DEX.sol',22);\nreturn reserves[_dst].calculateBuyRcvAmt(reserves[_src].calculateSellRcvAmt(_sendAmount));\n    }\n}",
  "sourcePath": "/home/susruth/ren/renvm-demo/ethereum-contracts/coverageEnv/contracts/DEX.sol",
  "compiler": {
    "name": "solc",
    "version": "0.5.8+commit.23d335f2.Emscripten.clang"
  },
  "schemaVersion": "3.0.16",
  "updatedAt": "2019-10-25T05:03:01.635Z",
  "devdoc": {
    "methods": {}
  },
  "userdoc": {
    "methods": {
      "recoverTokens(address)": {
        "notice": "Allow anyone to recover funds accidentally sent to the contract."
      }
    }
  }
}