{
  "contractName": "DEX",
  "abi": [
    {
      "constant": false,
      "inputs": [],
      "name": "renounceOwnership",
      "outputs": [],
      "payable": false,
      "stateMutability": "nonpayable",
      "type": "function"
    },
    {
      "constant": false,
      "inputs": [],
      "name": "owner",
      "outputs": [
        {
          "name": "",
          "type": "address"
        }
      ],
      "payable": false,
      "stateMutability": "nonpayable",
      "type": "function"
    },
    {
      "constant": false,
      "inputs": [],
      "name": "isOwner",
      "outputs": [
        {
          "name": "",
          "type": "bool"
        }
      ],
      "payable": false,
      "stateMutability": "nonpayable",
      "type": "function"
    },
    {
      "constant": true,
      "inputs": [],
      "name": "baseToken",
      "outputs": [
        {
          "name": "",
          "type": "address"
        }
      ],
      "payable": false,
      "stateMutability": "view",
      "type": "function"
    },
    {
      "constant": true,
      "inputs": [
        {
          "name": "",
          "type": "address"
        }
      ],
      "name": "reserves",
      "outputs": [
        {
          "name": "",
          "type": "address"
        }
      ],
      "payable": false,
      "stateMutability": "view",
      "type": "function"
    },
    {
      "constant": false,
      "inputs": [
        {
          "name": "newOwner",
          "type": "address"
        }
      ],
      "name": "transferOwnership",
      "outputs": [],
      "payable": false,
      "stateMutability": "nonpayable",
      "type": "function"
    },
    {
      "inputs": [
        {
          "name": "_baseToken",
          "type": "address"
        }
      ],
      "payable": false,
      "stateMutability": "nonpayable",
      "type": "constructor"
    },
    {
      "anonymous": false,
      "inputs": [
        {
          "indexed": false,
          "name": "fileName",
          "type": "string"
        },
        {
          "indexed": false,
          "name": "lineNumber",
          "type": "uint256"
        }
      ],
      "name": "__CoverageDEX",
      "type": "event"
    },
    {
      "anonymous": false,
      "inputs": [
        {
          "indexed": false,
          "name": "fileName",
          "type": "string"
        },
        {
          "indexed": false,
          "name": "fnId",
          "type": "uint256"
        }
      ],
      "name": "__FunctionCoverageDEX",
      "type": "event"
    },
    {
      "anonymous": false,
      "inputs": [
        {
          "indexed": false,
          "name": "fileName",
          "type": "string"
        },
        {
          "indexed": false,
          "name": "statementId",
          "type": "uint256"
        }
      ],
      "name": "__StatementCoverageDEX",
      "type": "event"
    },
    {
      "anonymous": false,
      "inputs": [
        {
          "indexed": false,
          "name": "fileName",
          "type": "string"
        },
        {
          "indexed": false,
          "name": "branchId",
          "type": "uint256"
        },
        {
          "indexed": false,
          "name": "locationIdx",
          "type": "uint256"
        }
      ],
      "name": "__BranchCoverageDEX",
      "type": "event"
    },
    {
      "anonymous": false,
      "inputs": [
        {
          "indexed": false,
          "name": "fileName",
          "type": "string"
        },
        {
          "indexed": false,
          "name": "branchId",
          "type": "uint256"
        }
      ],
      "name": "__AssertPreCoverageDEX",
      "type": "event"
    },
    {
      "anonymous": false,
      "inputs": [
        {
          "indexed": false,
          "name": "fileName",
          "type": "string"
        },
        {
          "indexed": false,
          "name": "branchId",
          "type": "uint256"
        }
      ],
      "name": "__AssertPostCoverageDEX",
      "type": "event"
    },
    {
      "anonymous": false,
      "inputs": [
        {
          "indexed": false,
          "name": "_src",
          "type": "address"
        },
        {
          "indexed": false,
          "name": "_dst",
          "type": "address"
        },
        {
          "indexed": false,
          "name": "_sendAmount",
          "type": "uint256"
        },
        {
          "indexed": false,
          "name": "_recvAmount",
          "type": "uint256"
        }
      ],
      "name": "LogTrade",
      "type": "event"
    },
    {
      "anonymous": false,
      "inputs": [
        {
          "indexed": true,
          "name": "previousOwner",
          "type": "address"
        },
        {
          "indexed": true,
          "name": "newOwner",
          "type": "address"
        }
      ],
      "name": "OwnershipTransferred",
      "type": "event"
    },
    {
      "constant": false,
      "inputs": [
        {
          "name": "_token",
          "type": "address"
        }
      ],
      "name": "recoverTokens",
      "outputs": [],
      "payable": false,
      "stateMutability": "nonpayable",
      "type": "function"
    },
    {
      "constant": false,
      "inputs": [
        {
          "name": "_erc20",
          "type": "address"
        },
        {
          "name": "_reserve",
          "type": "address"
        }
      ],
      "name": "registerReserve",
      "outputs": [],
      "payable": false,
      "stateMutability": "nonpayable",
      "type": "function"
    },
    {
      "constant": false,
      "inputs": [
        {
          "name": "_to",
          "type": "address"
        },
        {
          "name": "_src",
          "type": "address"
        },
        {
          "name": "_dst",
          "type": "address"
        },
        {
          "name": "_sendAmount",
          "type": "uint256"
        }
      ],
      "name": "trade",
      "outputs": [
        {
          "name": "",
          "type": "uint256"
        }
      ],
      "payable": false,
      "stateMutability": "nonpayable",
      "type": "function"
    },
    {
      "constant": false,
      "inputs": [
        {
          "name": "_src",
          "type": "address"
        },
        {
          "name": "_dst",
          "type": "address"
        },
        {
          "name": "_sendAmount",
          "type": "uint256"
        }
      ],
      "name": "calculateReceiveAmount",
      "outputs": [
        {
          "name": "",
          "type": "uint256"
        }
      ],
      "payable": false,
      "stateMutability": "nonpayable",
      "type": "function"
    }
  ],
  "bytecode": "0x608060405234801561001057600080fd5b506040516020806120508339810180604052602081101561003057600080fd5b5051600080546001600160a01b03191633178082556040516001600160a01b039190911691907f8be0079c531659141344cd1fd0a4f28419497f9722a3daafe3b4186f6b6457e0908290a37f739ed23961132b21445750de118fd4ffe99226b2b2a21a505f4398292f57103f600160405180806020018381526020018281038252604181526020018061200f604191396060019250505060405180910390a17f6e76c92f87d17fa5d508f43d80aeab6606881ef905c159fe56e03e5522bb7856601a60405180806020018381526020018281038252604181526020018061200f604191396060019250505060405180910390a17fcd1934130f0876cb30c6084f9ec653e4e74ed595f956dc2692d28103690ad9aa600160405180806020018381526020018281038252604181526020018061200f604191396060019250505060405180910390a1600280546001600160a01b0319166001600160a01b0392909216919091179055611e69806101a66000396000f3fe608060405234801561001057600080fd5b506004361061009e5760003560e01c8063c55dae6311610066578063c55dae631461015b578063d4eec72914610163578063d66bd52414610191578063dca751a6146101b7578063f2fde38b146101f35761009e565b806316114acd146100a35780635fb31d77146100cb578063715018a6146101135780638da5cb5b1461011b5780638f32d59b1461013f575b600080fd5b6100c9600480360360208110156100b957600080fd5b50356001600160a01b0316610219565b005b610101600480360360608110156100e157600080fd5b506001600160a01b03813581169160208101359091169060400135610424565b60408051918252519081900360200190f35b6100c9610a49565b610123610add565b604080516001600160a01b039092168252519081900360200190f35b610147610aec565b604080519115158252519081900360200190f35b610123610afd565b6100c96004803603604081101561017957600080fd5b506001600160a01b0381358116916020013516610b0c565b610123600480360360208110156101a757600080fd5b50356001600160a01b0316610dc2565b610101600480360360808110156101cd57600080fd5b506001600160a01b03813581169160208101358216916040820135169060600135610ddd565b6100c96004803603602081101561020957600080fd5b50356001600160a01b0316611bfd565b610221610aec565b6102635760408051600160e51b62461bcd0281526020600482018190526024820152600080516020611dde833981519152604482015290519081900360640190fd5b600080516020611dbe8339815191526002604051808060200183815260200182810382526041815260200180611d17604191396060019250505060405180910390a1600080516020611e1e833981519152601f604051808060200183815260200182810382526041815260200180611d17604191396060019250505060405180910390a1600080516020611dfe8339815191526002604051808060200183815260200182810382526041815260200180611d17604191396060019250505060405180910390a160408051600160e01b6370a0823102815230600482015290516001600160a01b0383169163a9059cbb91339184916370a08231916024808201926020929091908290030181600087803b15801561037f57600080fd5b505af1158015610393573d6000803e3d6000fd5b505050506040513d60208110156103a957600080fd5b50516040805163ffffffff851660e01b81526001600160a01b03909316600484015260248301919091525160448083019260209291908290030181600087803b1580156103f557600080fd5b505af1158015610409573d6000803e3d6000fd5b505050506040513d602081101561041f57600080fd5b505050565b6000600080516020611dbe8339815191526005604051808060200183815260200182810382526041815260200180611d17604191396060019250505060405180910390a1600080516020611e1e8339815191526048604051808060200183815260200182810382526041815260200180611d17604191396060019250505060405180910390a1600080516020611dfe8339815191526012604051808060200183815260200182810382526041815260200180611d17604191396060019250505060405180910390a16002546001600160a01b038581169116141561065f57600080516020611cf783398151915260076000604051808060200184815260200183815260200182810382526041815260200180611d1760419139606001935050505060405180910390a1600080516020611e1e8339815191526049604051808060200183815260200182810382526041815260200180611d17604191396060019250505060405180910390a1600080516020611dfe8339815191526013604051808060200183815260200182810382526041815260200180611d17604191396060019250505060405180910390a16001600160a01b038084166000908152600160209081526040808320548151600160e11b6368f4463902815260048101889052915194169363d1e88c7293602480840194938390030190829087803b15801561062c57600080fd5b505af1158015610640573d6000803e3d6000fd5b505050506040513d602081101561065657600080fd5b50519050610a42565b600080516020611cf783398151915260076001604051808060200184815260200183815260200182810382526041815260200180611d1760419139606001935050505060405180910390a1600080516020611e1e833981519152604b604051808060200183815260200182810382526041815260200180611d17604191396060019250505060405180910390a1600080516020611dfe8339815191526014604051808060200183815260200182810382526041815260200180611d17604191396060019250505060405180910390a16002546001600160a01b038481169116141561086e57600080516020611cf783398151915260086000604051808060200184815260200183815260200182810382526041815260200180611d1760419139606001935050505060405180910390a1600080516020611e1e833981519152604c604051808060200183815260200182810382526041815260200180611d17604191396060019250505060405180910390a1600080516020611dfe8339815191526015604051808060200183815260200182810382526041815260200180611d17604191396060019250505060405180910390a16001600160a01b038085166000908152600160209081526040808320548151600160e01b63b4d5fa7f02815260048101889052915194169363b4d5fa7f93602480840194938390030190829087803b15801561062c57600080fd5b600080516020611cf783398151915260086001604051808060200184815260200183815260200182810382526041815260200180611d1760419139606001935050505060405180910390a1600080516020611e1e833981519152604e604051808060200183815260200182810382526041815260200180611d17604191396060019250505060405180910390a1600080516020611dfe8339815191526016604051808060200183815260200182810382526041815260200180611d17604191396060019250505060405180910390a16001600160a01b038084166000908152600160209081526040808320548885168452818420548251600160e01b63b4d5fa7f0281526004810189905292519186169563d1e88c729591169363b4d5fa7f936024808201949293918390030190829087803b1580156109ad57600080fd5b505af11580156109c1573d6000803e3d6000fd5b505050506040513d60208110156109d757600080fd5b50516040805163ffffffff841660e01b815260048101929092525160248083019260209291908290030181600087803b158015610a1357600080fd5b505af1158015610a27573d6000803e3d6000fd5b505050506040513d6020811015610a3d57600080fd5b505190505b9392505050565b610a51610aec565b610a935760408051600160e51b62461bcd0281526020600482018190526024820152600080516020611dde833981519152604482015290519081900360640190fd5b600080546040516001600160a01b03909116907f8be0079c531659141344cd1fd0a4f28419497f9722a3daafe3b4186f6b6457e0908390a3600080546001600160a01b0319169055565b6000546001600160a01b031690565b6000546001600160a01b0316331490565b6002546001600160a01b031681565b610b14610aec565b610b565760408051600160e51b62461bcd0281526020600482018190526024820152600080516020611dde833981519152604482015290519081900360640190fd5b600080516020611dbe8339815191526003604051808060200183815260200182810382526041815260200180611d17604191396060019250505060405180910390a1600080516020611e1e8339815191526027604051808060200183815260200182810382526041815260200180611d17604191396060019250505060405180910390a1600080516020611d9e8339815191526001604051808060200183815260200182810382526041815260200180611d17604191396060019250505060405180910390a1600080516020611dfe8339815191526003604051808060200183815260200182810382526041815260200180611d17604191396060019250505060405180910390a16001600160a01b038281166000908152600160205260409020541615610cce5760408051600160e51b62461bcd02815260206004820181905260248201527f746f6b656e207265736572766520616c72656164792072656769737465726564604482015290519081900360640190fd5b600080516020611d7e8339815191526001604051808060200183815260200182810382526041815260200180611d17604191396060019250505060405180910390a1600080516020611e1e8339815191526028604051808060200183815260200182810382526041815260200180611d17604191396060019250505060405180910390a1600080516020611dfe8339815191526004604051808060200183815260200182810382526041815260200180611d17604191396060019250505060405180910390a16001600160a01b03918216600090815260016020526040902080546001600160a01b03191691909216179055565b6001602052600090815260409020546001600160a01b031681565b6000600080516020611dbe8339815191526004604051808060200183815260200182810382526041815260200180611d17604191396060019250505060405180910390a1600080516020611e1e8339815191526031604051808060200183815260200182810382526041815260200180611d17604191396060019250505060405180910390a1600080516020611dfe8339815191526005604051808060200183815260200182810382526041815260200180611d17604191396060019250505060405180910390a16000600080516020611e1e8339815191526032604051808060200183815260200182810382526041815260200180611d17604191396060019250505060405180910390a1600080516020611dfe8339815191526006604051808060200183815260200182810382526041815260200180611d17604191396060019250505060405180910390a16002546001600160a01b038681169116141561121a57600080516020611cf783398151915260026000604051808060200184815260200183815260200182810382526041815260200180611d1760419139606001935050505060405180910390a1600080516020611e1e8339815191526033604051808060200183815260200182810382526041815260200180611d17604191396060019250505060405180910390a1600080516020611d9e8339815191526003604051808060200183815260200182810382526041815260200180611d17604191396060019250505060405180910390a1600080516020611dfe8339815191526007604051808060200183815260200182810382526041815260200180611d17604191396060019250505060405180910390a16001600160a01b03848116600090815260016020526040902054166110b85760408051600160e51b62461bcd0281526020600482015260116024820152600160791b703ab739bab83837b93a32b2103a37b5b2b702604482015290519081900360640190fd5b600080516020611d7e8339815191526003604051808060200183815260200182810382526041815260200180611d17604191396060019250505060405180910390a1600080516020611e1e8339815191526034604051808060200183815260200182810382526041815260200180611d17604191396060019250505060405180910390a1600080516020611dfe8339815191526008604051808060200183815260200182810382526041815260200180611d17604191396060019250505060405180910390a16001600160a01b038085166000908152600160209081526040808320548151600160e11b630a9f33730281528b8616600482015233602482015260448101899052915194169363153e66e693606480840194938390030190829087803b1580156111e757600080fd5b505af11580156111fb573d6000803e3d6000fd5b505050506040513d602081101561121157600080fd5b50519050611a9b565b600080516020611dfe8339815191526009604051808060200183815260200182810382526041815260200180611d17604191396060019250505060405180910390a1600080516020611cf783398151915260026001604051808060200184815260200183815260200182810382526041815260200180611d1760419139606001935050505060405180910390a16002546001600160a01b038581169116141561156357600080516020611cf783398151915260046000604051808060200184815260200183815260200182810382526041815260200180611d1760419139606001935050505060405180910390a1600080516020611e1e8339815191526036604051808060200183815260200182810382526041815260200180611d17604191396060019250505060405180910390a1600080516020611d9e8339815191526005604051808060200183815260200182810382526041815260200180611d17604191396060019250505060405180910390a1600080516020611dfe833981519152600a604051808060200183815260200182810382526041815260200180611d17604191396060019250505060405180910390a16001600160a01b03858116600090815260016020526040902054166114345760408051600160e51b62461bcd0281526020600482015260116024820152600160791b703ab739bab83837b93a32b2103a37b5b2b702604482015290519081900360640190fd5b600080516020611d7e8339815191526005604051808060200183815260200182810382526041815260200180611d17604191396060019250505060405180910390a1600080516020611e1e8339815191526037604051808060200183815260200182810382526041815260200180611d17604191396060019250505060405180910390a1600080516020611dfe833981519152600b604051808060200183815260200182810382526041815260200180611d17604191396060019250505060405180910390a16001600160a01b038086166000908152600160209081526040808320548151600160e11b636571385b0281528b8616600482015233602482015260448101899052915194169363cae270b693606480840194938390030190829087803b1580156111e757600080fd5b600080516020611cf783398151915260046001604051808060200184815260200183815260200182810382526041815260200180611d1760419139606001935050505060405180910390a1600080516020611e1e8339815191526039604051808060200183815260200182810382526041815260200180611d17604191396060019250505060405180910390a1600080516020611d9e8339815191526006604051808060200183815260200182810382526041815260200180611d17604191396060019250505060405180910390a1600080516020611dfe833981519152600c604051808060200183815260200182810382526041815260200180611d17604191396060019250505060405180910390a16001600160a01b0385811660009081526001602052604090205416158015906116b657506001600160a01b038481166000908152600160205260409020541615155b6117015760408051600160e51b62461bcd0281526020600482015260116024820152600160791b703ab739bab83837b93a32b2103a37b5b2b702604482015290519081900360640190fd5b600080516020611d7e8339815191526006604051808060200183815260200182810382526041815260200180611d17604191396060019250505060405180910390a1600080516020611e1e833981519152603a604051808060200183815260200182810382526041815260200180611d17604191396060019250505060405180910390a1600080516020611dfe833981519152600d604051808060200183815260200182810382526041815260200180611d17604191396060019250505060405180910390a16001600160a01b038086166000908152600160209081526040808320548151600160e11b636571385b0281523060048201523360248201526044810189905291519394169263cae270b69260648084019391929182900301818787803b15801561183057600080fd5b505af1158015611844573d6000803e3d6000fd5b505050506040513d602081101561185a57600080fd5b505160408051603b602082018190528282526041928201839052929350600080516020611e1e833981519152929181906060820190611d1782396060019250505060405180910390a1600080516020611dfe833981519152600e604051808060200183815260200182810382526041815260200180611d17604191396060019250505060405180910390a16002546001600160a01b038681166000908152600160209081526040808320548151600160e01b63095ea7b30281529085166004820152602481018790529051939094169363095ea7b39360448083019491928390030190829087803b15801561194e57600080fd5b505af1158015611962573d6000803e3d6000fd5b505050506040513d602081101561197857600080fd5b505060408051603c602082018190528282526041928201839052600080516020611e1e8339815191529290919081906060820190611d1782396060019250505060405180910390a1600080516020611dfe833981519152600f604051808060200183815260200182810382526041815260200180611d17604191396060019250505060405180910390a16001600160a01b038086166000908152600160209081526040808320548151600160e11b630a9f33730281528c8616600482015230602482015260448101879052915194169363153e66e693606480840194938390030190829087803b158015611a6b57600080fd5b505af1158015611a7f573d6000803e3d6000fd5b505050506040513d6020811015611a9557600080fd5b50519150505b600080516020611e1e833981519152603e604051808060200183815260200182810382526041815260200180611d17604191396060019250505060405180910390a1600080516020611dfe8339815191526010604051808060200183815260200182810382526041815260200180611d17604191396060019250505060405180910390a1604080516001600160a01b038088168252861660208201528082018590526060810183905290517f8d10c7a140b316d7362354a44023c657a9c436616f21481cac1cb594aa3054589181900360800190a1600080516020611e1e833981519152603f604051808060200183815260200182810382526041815260200180611d17604191396060019250505060405180910390a1600080516020611dfe8339815191526011604051808060200183815260200182810382526041815260200180611d17604191396060019250505060405180910390a195945050505050565b611c05610aec565b611c475760408051600160e51b62461bcd0281526020600482018190526024820152600080516020611dde833981519152604482015290519081900360640190fd5b611c5081611c53565b50565b6001600160a01b038116611c9b57604051600160e51b62461bcd028152600401808060200182810382526026815260200180611d586026913960400191505060405180910390fd5b600080546040516001600160a01b03808516939216917f8be0079c531659141344cd1fd0a4f28419497f9722a3daafe3b4186f6b6457e091a3600080546001600160a01b0319166001600160a01b039290921691909117905556fe9649b0a72f6e24be0492015177025b6980d3aed337bca9c3bb7e3528251429302f686f6d652f737573727574682f72656e2f72656e766d2d64656d6f2f657468657265756d2d636f6e7472616374732f636f6e7472616374732f4445582e736f6c4f776e61626c653a206e6577206f776e657220697320746865207a65726f20616464726573735c02bbc1317b27114cf57053e9a0e64bedf5d078c8babf8c8c2a098fd8678c7ca437145d941660b44140ceb5a2cd9aebafa6a811a3e41bbcb42e8a5d953f89e3739ed23961132b21445750de118fd4ffe99226b2b2a21a505f4398292f57103f4f776e61626c653a2063616c6c6572206973206e6f7420746865206f776e6572cd1934130f0876cb30c6084f9ec653e4e74ed595f956dc2692d28103690ad9aa6e76c92f87d17fa5d508f43d80aeab6606881ef905c159fe56e03e5522bb7856a165627a7a7230582044f6fe312f7b874ef2bfd7a6ab70046222c80a3e83673aef2c2571f2637bc84700292f686f6d652f737573727574682f72656e2f72656e766d2d64656d6f2f657468657265756d2d636f6e7472616374732f636f6e7472616374732f4445582e736f6c",
  "source": "pragma solidity ^0.5.0;\n\nimport \"./DEXReserve.sol\";\nimport \"openzeppelin-solidity/contracts/token/ERC20/ERC20.sol\";\nimport \"openzeppelin-solidity/contracts/ownership/Ownable.sol\";\n\n/// @title DEX\n/// @notice The DEX contract stores the reserves for each token pair and\n/// provides functions for interacting with them:\n///   1) the view-function `calculateReceiveAmount` for calculating how much\n///      the user will receive in exchange for their tokens\n///   2) the function `trade` for executing a swap. If one of the tokens is the\n///      base token, this will only talk to one reserve. If neither of the\n///      tokens are, then the trade will settle across two reserves.\n///\n/// The DEX is ownable, allowing a DEX operator to register new reserves.\n/// Once a reserve has been registered, it can't be updated.\ncontract DEX is Ownable {event __CoverageDEX(string fileName, uint256 lineNumber);\nevent __FunctionCoverageDEX(string fileName, uint256 fnId);\nevent __StatementCoverageDEX(string fileName, uint256 statementId);\nevent __BranchCoverageDEX(string fileName, uint256 branchId, uint256 locationIdx);\nevent __AssertPreCoverageDEX(string fileName, uint256 branchId);\nevent __AssertPostCoverageDEX(string fileName, uint256 branchId);\n\n    mapping (address=>DEXReserve) public reserves;\n    address public baseToken;\n\n    event LogTrade(address _src, address _dst, uint256 _sendAmount, uint256 _recvAmount);\n\n    /// @param _baseToken The reserves must all have a common base token.\n    constructor(address _baseToken) public {emit __FunctionCoverageDEX('/home/susruth/ren/renvm-demo/ethereum-contracts/contracts/DEX.sol',1);\n\nemit __CoverageDEX('/home/susruth/ren/renvm-demo/ethereum-contracts/contracts/DEX.sol',26);\n        emit __StatementCoverageDEX('/home/susruth/ren/renvm-demo/ethereum-contracts/contracts/DEX.sol',1);\nbaseToken = _baseToken;\n    }\n\n    /// @notice Allow anyone to recover funds accidentally sent to the contract.\n    function recoverTokens(address _token) external onlyOwner {emit __FunctionCoverageDEX('/home/susruth/ren/renvm-demo/ethereum-contracts/contracts/DEX.sol',2);\n\nemit __CoverageDEX('/home/susruth/ren/renvm-demo/ethereum-contracts/contracts/DEX.sol',31);\n        emit __StatementCoverageDEX('/home/susruth/ren/renvm-demo/ethereum-contracts/contracts/DEX.sol',2);\nERC20(_token).transfer(msg.sender, ERC20(_token).balanceOf(address(this)));\n    }\n\n    /// @notice The DEX operator is able to register new reserves.\n    /// @param _erc20 The token that can be traded against the base token.\n    /// @param _reserve The address of the reserve contract. It must follow the\n    ///        DEXReserve interface.\n    function registerReserve(address _erc20, DEXReserve _reserve) external onlyOwner {emit __FunctionCoverageDEX('/home/susruth/ren/renvm-demo/ethereum-contracts/contracts/DEX.sol',3);\n\nemit __CoverageDEX('/home/susruth/ren/renvm-demo/ethereum-contracts/contracts/DEX.sol',39);\n        emit __AssertPreCoverageDEX('/home/susruth/ren/renvm-demo/ethereum-contracts/contracts/DEX.sol',1);\nemit __StatementCoverageDEX('/home/susruth/ren/renvm-demo/ethereum-contracts/contracts/DEX.sol',3);\nrequire(reserves[_erc20] == DEXReserve(0x0), \"token reserve already registered\");emit __AssertPostCoverageDEX('/home/susruth/ren/renvm-demo/ethereum-contracts/contracts/DEX.sol',1);\n\nemit __CoverageDEX('/home/susruth/ren/renvm-demo/ethereum-contracts/contracts/DEX.sol',40);\n        emit __StatementCoverageDEX('/home/susruth/ren/renvm-demo/ethereum-contracts/contracts/DEX.sol',4);\nreserves[_erc20] = _reserve;\n    }\n\n    /// @notice The main trade function to execute swaps.\n    /// @param _to The address at which the DST tokens should be sent to.\n    /// @param _src The address of the token being spent.\n    /// @param _dst The address of the token being received.\n    /// @param _sendAmount The amount of the source token being traded.\n    function trade(address _to, address _src, address _dst, uint256 _sendAmount) public returns (uint256) {emit __FunctionCoverageDEX('/home/susruth/ren/renvm-demo/ethereum-contracts/contracts/DEX.sol',4);\n\nemit __CoverageDEX('/home/susruth/ren/renvm-demo/ethereum-contracts/contracts/DEX.sol',49);\n        emit __StatementCoverageDEX('/home/susruth/ren/renvm-demo/ethereum-contracts/contracts/DEX.sol',5);\nuint256 recvAmount;\nemit __CoverageDEX('/home/susruth/ren/renvm-demo/ethereum-contracts/contracts/DEX.sol',50);\n        emit __StatementCoverageDEX('/home/susruth/ren/renvm-demo/ethereum-contracts/contracts/DEX.sol',6);\nif (_src == baseToken) {emit __BranchCoverageDEX('/home/susruth/ren/renvm-demo/ethereum-contracts/contracts/DEX.sol',2,0);\nemit __CoverageDEX('/home/susruth/ren/renvm-demo/ethereum-contracts/contracts/DEX.sol',51);\n            emit __AssertPreCoverageDEX('/home/susruth/ren/renvm-demo/ethereum-contracts/contracts/DEX.sol',3);\nemit __StatementCoverageDEX('/home/susruth/ren/renvm-demo/ethereum-contracts/contracts/DEX.sol',7);\nrequire(reserves[_dst] != DEXReserve(0x0), \"unsupported token\");emit __AssertPostCoverageDEX('/home/susruth/ren/renvm-demo/ethereum-contracts/contracts/DEX.sol',3);\n\nemit __CoverageDEX('/home/susruth/ren/renvm-demo/ethereum-contracts/contracts/DEX.sol',52);\n            emit __StatementCoverageDEX('/home/susruth/ren/renvm-demo/ethereum-contracts/contracts/DEX.sol',8);\nrecvAmount = reserves[_dst].buy(_to, msg.sender, _sendAmount);\n        } else {emit __StatementCoverageDEX('/home/susruth/ren/renvm-demo/ethereum-contracts/contracts/DEX.sol',9);\nemit __BranchCoverageDEX('/home/susruth/ren/renvm-demo/ethereum-contracts/contracts/DEX.sol',2,1);if (_dst == baseToken) {emit __BranchCoverageDEX('/home/susruth/ren/renvm-demo/ethereum-contracts/contracts/DEX.sol',4,0);\nemit __CoverageDEX('/home/susruth/ren/renvm-demo/ethereum-contracts/contracts/DEX.sol',54);\n            emit __AssertPreCoverageDEX('/home/susruth/ren/renvm-demo/ethereum-contracts/contracts/DEX.sol',5);\nemit __StatementCoverageDEX('/home/susruth/ren/renvm-demo/ethereum-contracts/contracts/DEX.sol',10);\nrequire(reserves[_src] != DEXReserve(0x0), \"unsupported token\");emit __AssertPostCoverageDEX('/home/susruth/ren/renvm-demo/ethereum-contracts/contracts/DEX.sol',5);\n\nemit __CoverageDEX('/home/susruth/ren/renvm-demo/ethereum-contracts/contracts/DEX.sol',55);\n            emit __StatementCoverageDEX('/home/susruth/ren/renvm-demo/ethereum-contracts/contracts/DEX.sol',11);\nrecvAmount = reserves[_src].sell(_to, msg.sender, _sendAmount);\n        } else {emit __BranchCoverageDEX('/home/susruth/ren/renvm-demo/ethereum-contracts/contracts/DEX.sol',4,1);\nemit __CoverageDEX('/home/susruth/ren/renvm-demo/ethereum-contracts/contracts/DEX.sol',57);\n            emit __AssertPreCoverageDEX('/home/susruth/ren/renvm-demo/ethereum-contracts/contracts/DEX.sol',6);\nemit __StatementCoverageDEX('/home/susruth/ren/renvm-demo/ethereum-contracts/contracts/DEX.sol',12);\nrequire(reserves[_src] != DEXReserve(0x0) && reserves[_dst] != DEXReserve(0x0), \"unsupported token\");emit __AssertPostCoverageDEX('/home/susruth/ren/renvm-demo/ethereum-contracts/contracts/DEX.sol',6);\n\nemit __CoverageDEX('/home/susruth/ren/renvm-demo/ethereum-contracts/contracts/DEX.sol',58);\n            emit __StatementCoverageDEX('/home/susruth/ren/renvm-demo/ethereum-contracts/contracts/DEX.sol',13);\nuint256 intermediteAmount = reserves[_src].sell(address(this), msg.sender, _sendAmount);\nemit __CoverageDEX('/home/susruth/ren/renvm-demo/ethereum-contracts/contracts/DEX.sol',59);\n            emit __StatementCoverageDEX('/home/susruth/ren/renvm-demo/ethereum-contracts/contracts/DEX.sol',14);\nERC20(baseToken).approve(address(reserves[_dst]), intermediteAmount);\nemit __CoverageDEX('/home/susruth/ren/renvm-demo/ethereum-contracts/contracts/DEX.sol',60);\n            emit __StatementCoverageDEX('/home/susruth/ren/renvm-demo/ethereum-contracts/contracts/DEX.sol',15);\nrecvAmount = reserves[_dst].buy(_to, address(this), intermediteAmount);\n        }}\nemit __CoverageDEX('/home/susruth/ren/renvm-demo/ethereum-contracts/contracts/DEX.sol',62);\n        emit __StatementCoverageDEX('/home/susruth/ren/renvm-demo/ethereum-contracts/contracts/DEX.sol',16);\nemit LogTrade(_src, _dst, _sendAmount, recvAmount);\nemit __CoverageDEX('/home/susruth/ren/renvm-demo/ethereum-contracts/contracts/DEX.sol',63);\n        emit __StatementCoverageDEX('/home/susruth/ren/renvm-demo/ethereum-contracts/contracts/DEX.sol',17);\nreturn recvAmount;\n    }\n\n    /// @notice A read-only function to estimate the amount of DST tokens the\n    /// trader would receive for the send amount.\n    /// @param _src The address of the token being spent.\n    /// @param _dst The address of the token being received.\n    /// @param _sendAmount The amount of the source token being traded.\n    function calculateReceiveAmount(address _src, address _dst, uint256 _sendAmount) public      returns (uint256) {emit __FunctionCoverageDEX('/home/susruth/ren/renvm-demo/ethereum-contracts/contracts/DEX.sol',5);\n\nemit __CoverageDEX('/home/susruth/ren/renvm-demo/ethereum-contracts/contracts/DEX.sol',72);\n        emit __StatementCoverageDEX('/home/susruth/ren/renvm-demo/ethereum-contracts/contracts/DEX.sol',18);\nif (_src == baseToken) {emit __BranchCoverageDEX('/home/susruth/ren/renvm-demo/ethereum-contracts/contracts/DEX.sol',7,0);\nemit __CoverageDEX('/home/susruth/ren/renvm-demo/ethereum-contracts/contracts/DEX.sol',73);\n            emit __StatementCoverageDEX('/home/susruth/ren/renvm-demo/ethereum-contracts/contracts/DEX.sol',19);\nreturn reserves[_dst].calculateBuyRcvAmt(_sendAmount);\n        }else { emit __BranchCoverageDEX('/home/susruth/ren/renvm-demo/ethereum-contracts/contracts/DEX.sol',7,1);}\n\nemit __CoverageDEX('/home/susruth/ren/renvm-demo/ethereum-contracts/contracts/DEX.sol',75);\n        emit __StatementCoverageDEX('/home/susruth/ren/renvm-demo/ethereum-contracts/contracts/DEX.sol',20);\nif (_dst == baseToken) {emit __BranchCoverageDEX('/home/susruth/ren/renvm-demo/ethereum-contracts/contracts/DEX.sol',8,0);\nemit __CoverageDEX('/home/susruth/ren/renvm-demo/ethereum-contracts/contracts/DEX.sol',76);\n            emit __StatementCoverageDEX('/home/susruth/ren/renvm-demo/ethereum-contracts/contracts/DEX.sol',21);\nreturn reserves[_src].calculateSellRcvAmt(_sendAmount);\n        }else { emit __BranchCoverageDEX('/home/susruth/ren/renvm-demo/ethereum-contracts/contracts/DEX.sol',8,1);}\n\nemit __CoverageDEX('/home/susruth/ren/renvm-demo/ethereum-contracts/contracts/DEX.sol',78);\n        emit __StatementCoverageDEX('/home/susruth/ren/renvm-demo/ethereum-contracts/contracts/DEX.sol',22);\nreturn reserves[_dst].calculateBuyRcvAmt(reserves[_src].calculateSellRcvAmt(_sendAmount));\n    }\n}",
  "sourcePath": "/home/susruth/ren/renvm-demo/ethereum-contracts/coverageEnv/contracts/DEX.sol",
  "compiler": {
    "name": "solc",
    "version": "0.5.8+commit.23d335f2.Emscripten.clang"
  },
  "schemaVersion": "3.0.16",
  "updatedAt": "2019-10-29T06:31:53.955Z",
  "devdoc": {
    "methods": {
      "calculateReceiveAmount(address,address,uint256)": {
        "params": {
          "_dst": "The address of the token being received.",
          "_sendAmount": "The amount of the source token being traded.",
          "_src": "The address of the token being spent."
        }
      },
      "constructor": {
        "params": {
          "_baseToken": "The reserves must all have a common base token."
        }
      },
      "isOwner()": {
        "details": "Returns true if the caller is the current owner."
      },
      "owner()": {
        "details": "Returns the address of the current owner."
      },
      "registerReserve(address,address)": {
        "params": {
          "_erc20": "The token that can be traded against the base token.",
          "_reserve": "The address of the reserve contract. It must follow the        DEXReserve interface."
        }
      },
      "renounceOwnership()": {
        "details": "Leaves the contract without owner. It will not be possible to call `onlyOwner` functions anymore. Can only be called by the current owner.     * > Note: Renouncing ownership will leave the contract without an owner, thereby removing any functionality that is only available to the owner."
      },
      "trade(address,address,address,uint256)": {
        "params": {
          "_dst": "The address of the token being received.",
          "_sendAmount": "The amount of the source token being traded.",
          "_src": "The address of the token being spent.",
          "_to": "The address at which the DST tokens should be sent to."
        }
      },
      "transferOwnership(address)": {
        "details": "Transfers ownership of the contract to a new account (`newOwner`). Can only be called by the current owner."
      }
    },
    "title": "DEX"
  },
  "userdoc": {
    "methods": {
      "calculateReceiveAmount(address,address,uint256)": {
        "notice": "A read-only function to estimate the amount of DST tokens the trader would receive for the send amount."
      },
      "recoverTokens(address)": {
        "notice": "Allow anyone to recover funds accidentally sent to the contract."
      },
      "registerReserve(address,address)": {
        "notice": "The DEX operator is able to register new reserves."
      },
      "trade(address,address,address,uint256)": {
        "notice": "The main trade function to execute swaps."
      }
    },
    "notice": "The DEX contract stores the reserves for each token pair and provides functions for interacting with them:   1) the view-function `calculateReceiveAmount` for calculating how much      the user will receive in exchange for their tokens   2) the function `trade` for executing a swap. If one of the tokens is the      base token, this will only talk to one reserve. If neither of the      tokens are, then the trade will settle across two reserves.  /// The DEX is ownable, allowing a DEX operator to register new reserves. Once a reserve has been registered, it can't be updated."
  }
}