{
  "contractName": "DEXAdapter",
  "abi": [
    {
      "constant": true,
      "inputs": [],
      "name": "dex",
      "outputs": [
        {
          "name": "",
          "type": "address"
        }
      ],
      "payable": false,
      "stateMutability": "view",
      "type": "function"
    },
    {
      "constant": true,
      "inputs": [],
      "name": "shifterRegistry",
      "outputs": [
        {
          "name": "",
          "type": "address"
        }
      ],
      "payable": false,
      "stateMutability": "view",
      "type": "function"
    },
    {
      "inputs": [
        {
          "name": "_dex",
          "type": "address"
        },
        {
          "name": "_shifterRegistry",
          "type": "address"
        }
      ],
      "payable": false,
      "stateMutability": "nonpayable",
      "type": "constructor"
    },
    {
      "anonymous": false,
      "inputs": [
        {
          "indexed": false,
          "name": "fileName",
          "type": "string"
        },
        {
          "indexed": false,
          "name": "lineNumber",
          "type": "uint256"
        }
      ],
      "name": "__CoverageDEXAdapter",
      "type": "event"
    },
    {
      "anonymous": false,
      "inputs": [
        {
          "indexed": false,
          "name": "fileName",
          "type": "string"
        },
        {
          "indexed": false,
          "name": "fnId",
          "type": "uint256"
        }
      ],
      "name": "__FunctionCoverageDEXAdapter",
      "type": "event"
    },
    {
      "anonymous": false,
      "inputs": [
        {
          "indexed": false,
          "name": "fileName",
          "type": "string"
        },
        {
          "indexed": false,
          "name": "statementId",
          "type": "uint256"
        }
      ],
      "name": "__StatementCoverageDEXAdapter",
      "type": "event"
    },
    {
      "anonymous": false,
      "inputs": [
        {
          "indexed": false,
          "name": "fileName",
          "type": "string"
        },
        {
          "indexed": false,
          "name": "branchId",
          "type": "uint256"
        },
        {
          "indexed": false,
          "name": "locationIdx",
          "type": "uint256"
        }
      ],
      "name": "__BranchCoverageDEXAdapter",
      "type": "event"
    },
    {
      "anonymous": false,
      "inputs": [
        {
          "indexed": false,
          "name": "fileName",
          "type": "string"
        },
        {
          "indexed": false,
          "name": "branchId",
          "type": "uint256"
        }
      ],
      "name": "__AssertPreCoverageDEXAdapter",
      "type": "event"
    },
    {
      "anonymous": false,
      "inputs": [
        {
          "indexed": false,
          "name": "fileName",
          "type": "string"
        },
        {
          "indexed": false,
          "name": "branchId",
          "type": "uint256"
        }
      ],
      "name": "__AssertPostCoverageDEXAdapter",
      "type": "event"
    },
    {
      "anonymous": false,
      "inputs": [
        {
          "indexed": false,
          "name": "src",
          "type": "address"
        },
        {
          "indexed": false,
          "name": "amount",
          "type": "uint256"
        }
      ],
      "name": "LogTransferIn",
      "type": "event"
    },
    {
      "anonymous": false,
      "inputs": [
        {
          "indexed": false,
          "name": "dst",
          "type": "address"
        },
        {
          "indexed": false,
          "name": "amount",
          "type": "uint256"
        }
      ],
      "name": "LogTransferOut",
      "type": "event"
    },
    {
      "constant": false,
      "inputs": [
        {
          "name": "_token",
          "type": "address"
        }
      ],
      "name": "recoverTokens",
      "outputs": [],
      "payable": false,
      "stateMutability": "nonpayable",
      "type": "function"
    },
    {
      "constant": false,
      "inputs": [
        {
          "name": "_src",
          "type": "address"
        },
        {
          "name": "_dst",
          "type": "address"
        },
        {
          "name": "_minDstAmt",
          "type": "uint256"
        },
        {
          "name": "_to",
          "type": "bytes"
        },
        {
          "name": "_refundBN",
          "type": "uint256"
        },
        {
          "name": "_refundAddress",
          "type": "bytes"
        },
        {
          "name": "_amount",
          "type": "uint256"
        },
        {
          "name": "_nHash",
          "type": "bytes32"
        },
        {
          "name": "_sig",
          "type": "bytes"
        }
      ],
      "name": "trade",
      "outputs": [],
      "payable": false,
      "stateMutability": "nonpayable",
      "type": "function"
    },
    {
      "constant": false,
      "inputs": [
        {
          "name": "_src",
          "type": "address"
        },
        {
          "name": "_dst",
          "type": "address"
        },
        {
          "name": "_minDstAmt",
          "type": "uint256"
        },
        {
          "name": "_to",
          "type": "bytes"
        },
        {
          "name": "_refundBN",
          "type": "uint256"
        },
        {
          "name": "_refundAddress",
          "type": "bytes"
        }
      ],
      "name": "hashTradePayload",
      "outputs": [
        {
          "name": "",
          "type": "bytes32"
        }
      ],
      "payable": false,
      "stateMutability": "nonpayable",
      "type": "function"
    },
    {
      "constant": false,
      "inputs": [
        {
          "name": "_liquidityProvider",
          "type": "address"
        },
        {
          "name": "_maxBaseToken",
          "type": "uint256"
        },
        {
          "name": "_token",
          "type": "address"
        },
        {
          "name": "_refundBN",
          "type": "uint256"
        },
        {
          "name": "_refundAddress",
          "type": "bytes"
        }
      ],
      "name": "hashLiquidityPayload",
      "outputs": [
        {
          "name": "",
          "type": "bytes32"
        }
      ],
      "payable": false,
      "stateMutability": "nonpayable",
      "type": "function"
    },
    {
      "constant": false,
      "inputs": [
        {
          "name": "_liquidityProvider",
          "type": "address"
        },
        {
          "name": "_maxBaseToken",
          "type": "uint256"
        },
        {
          "name": "_token",
          "type": "address"
        },
        {
          "name": "_deadline",
          "type": "uint256"
        },
        {
          "name": "_refundAddress",
          "type": "bytes"
        },
        {
          "name": "_amount",
          "type": "uint256"
        },
        {
          "name": "_nHash",
          "type": "bytes32"
        },
        {
          "name": "_sig",
          "type": "bytes"
        }
      ],
      "name": "addLiquidity",
      "outputs": [
        {
          "name": "",
          "type": "uint256"
        }
      ],
      "payable": false,
      "stateMutability": "nonpayable",
      "type": "function"
    },
    {
      "constant": false,
      "inputs": [
        {
          "name": "_token",
          "type": "address"
        },
        {
          "name": "_liquidity",
          "type": "uint256"
        },
        {
          "name": "_tokenAddress",
          "type": "bytes"
        }
      ],
      "name": "removeLiquidity",
      "outputs": [],
      "payable": false,
      "stateMutability": "nonpayable",
      "type": "function"
    },
    {
      "constant": false,
      "inputs": [
        {
          "name": "_src",
          "type": "address"
        },
        {
          "name": "_dst",
          "type": "address"
        },
        {
          "name": "_sendAmount",
          "type": "uint256"
        }
      ],
      "name": "calculateReceiveAmount",
      "outputs": [
        {
          "name": "",
          "type": "uint256"
        }
      ],
      "payable": false,
      "stateMutability": "nonpayable",
      "type": "function"
    }
  ],
  "bytecode": "0x60806040523480156200001157600080fd5b5060405160408062004e0e833981018060405260408110156200003357600080fd5b5080516020918201516040805160019481018590528181526048918101829052929391927f8c5cff5df2277f15d7a6f3a05c683bc9fb78c8a913cc263800bfd54d28ffd51592918190606082019062004dc682396060019250505060405180910390a160008051602062004d86833981519152601460405180806020018381526020018281038252604881526020018062004dc6604891396060019250505060405180910390a160008051602062004da6833981519152600160405180806020018381526020018281038252604881526020018062004dc6604891396060019250505060405180910390a1600180546001600160a01b0319166001600160a01b03831617905560408051601560208201819052828252604892820183905260008051602062004d86833981519152929091908190606082019062004dc682396060019250505060405180910390a160008051602062004da6833981519152600260405180806020018381526020018281038252604881526020018062004dc6604891396060019250505060405180910390a150600080546001600160a01b039092166001600160a01b0319909216919091179055614b8f80620001f76000396000f3fe608060405234801561001057600080fd5b50600436106100935760003560e01c8063692058c211610066578063692058c2146103385780637813e50a1461035c578063863cb94e14610426578063a1f419c9146104a9578063e6a12ca9146105fa57610093565b806316114acd1461009857806333da59af146100c0578063590ba492146101c35780635fb31d7714610302575b600080fd5b6100be600480360360208110156100ae57600080fd5b50356001600160a01b0316610602565b005b6101b160048036036101008110156100d757600080fd5b6001600160a01b0382358116926020810135926040820135909216916060820135919081019060a081016080820135600160201b81111561011757600080fd5b82018360208201111561012957600080fd5b803590602001918460018302840111600160201b8311171561014a57600080fd5b919390928235926020810135929190606081019060400135600160201b81111561017357600080fd5b82018360208201111561018557600080fd5b803590602001918460018302840111600160201b831117156101a657600080fd5b5090925090506107c3565b60408051918252519081900360200190f35b6100be60048036036101208110156101da57600080fd5b6001600160a01b03823581169260208101359091169160408201359190810190608081016060820135600160201b81111561021457600080fd5b82018360208201111561022657600080fd5b803590602001918460018302840111600160201b8311171561024757600080fd5b91939092823592604081019060200135600160201b81111561026857600080fd5b82018360208201111561027a57600080fd5b803590602001918460018302840111600160201b8311171561029b57600080fd5b919390928235926020810135929190606081019060400135600160201b8111156102c457600080fd5b8201836020820111156102d657600080fd5b803590602001918460018302840111600160201b831117156102f757600080fd5b5090925090506115de565b6101b16004803603606081101561031857600080fd5b506001600160a01b0381358116916020810135909116906040013561205c565b610340612519565b604080516001600160a01b039092168252519081900360200190f35b6101b1600480360360a081101561037257600080fd5b6001600160a01b0382358116926020810135926040820135909216916060820135919081019060a081016080820135600160201b8111156103b257600080fd5b8201836020820111156103c457600080fd5b803590602001918460018302840111600160201b831117156103e557600080fd5b91908080601f016020809104026020016040519081016040528093929190818152602001838380828437600092019190915250929550612528945050505050565b6100be6004803603606081101561043c57600080fd5b6001600160a01b0382351691602081013591810190606081016040820135600160201b81111561046b57600080fd5b82018360208201111561047d57600080fd5b803590602001918460018302840111600160201b8311171561049e57600080fd5b5090925090506126c9565b6101b1600480360360c08110156104bf57600080fd5b6001600160a01b03823581169260208101359091169160408201359190810190608081016060820135600160201b8111156104f957600080fd5b82018360208201111561050b57600080fd5b803590602001918460018302840111600160201b8311171561052c57600080fd5b91908080601f01602080910402602001604051908101604052809392919081815260200183838082843760009201919091525092958435959094909350604081019250602001359050600160201b81111561058657600080fd5b82018360208201111561059857600080fd5b803590602001918460018302840111600160201b831117156105b957600080fd5b91908080601f016020809104026020016040519081016040528093929190818152602001838380828437600092019190915250929550612e48945050505050565b610340613050565b600080516020614a718339815191526002604051808060200183815260200182810382526048815260200180614b1c604891396060019250505060405180910390a1600080516020614a11833981519152601a604051808060200183815260200182810382526048815260200180614b1c604891396060019250505060405180910390a1600080516020614a518339815191526003604051808060200183815260200182810382526048815260200180614b1c604891396060019250505060405180910390a160408051600160e01b6370a0823102815230600482015290516001600160a01b0383169163a9059cbb91339184916370a08231916024808201926020929091908290030181600087803b15801561071e57600080fd5b505af1158015610732573d6000803e3d6000fd5b505050506040513d602081101561074857600080fd5b50516040805163ffffffff851660e01b81526001600160a01b03909316600484015260248301919091525160448083019260209291908290030181600087803b15801561079457600080fd5b505af11580156107a8573d6000803e3d6000fd5b505050506040513d60208110156107be57600080fd5b505050565b6000600080516020614a718339815191526006604051808060200183815260200182810382526048815260200180614b1c604891396060019250505060405180910390a1600080516020614a11833981519152604a604051808060200183815260200182810382526048815260200180614b1c604891396060019250505060405180910390a1600080516020614a518339815191526010604051808060200183815260200182810382526048815260200180614b1c604891396060019250505060405180910390a16000805460408051600160e21b63359af5490281526001600160a01b038d811660048301529151919092169163d66bd524916024808301926020929190829003018186803b1580156108dc57600080fd5b505afa1580156108f0573d6000803e3d6000fd5b505050506040513d602081101561090657600080fd5b505160408051604b602082018190528282526048928201839052929350600080516020614a11833981519152929181906060820190614b1c82396060019250505060405180910390a1600080516020614adc8339815191526003604051808060200183815260200182810382526048815260200180614b1c604891396060019250505060405180910390a1600080516020614a518339815191526011604051808060200183815260200182810382526048815260200180614b1c604891396060019250505060405180910390a16001600160a01b038116610a285760408051600160e51b62461bcd0281526020600482015260116024820152600160791b703ab739bab83837b93a32b2103a37b5b2b702604482015290519081900360640190fd5b600080516020614afc8339815191526003604051808060200183815260200182810382526048815260200180614b1c604891396060019250505060405180910390a1600080516020614a11833981519152604c604051808060200183815260200182810382526048815260200180614b1c604891396060019250505060405180910390a1600080516020614a518339815191526012604051808060200183815260200182810382526048815260200180614b1c604891396060019250505060405180910390a16000610b338d8d8d8d8d8d8080601f01602080910402602001604051908101604052809392919081815260200183838082843760009201919091525061252892505050565b9050600080516020614a11833981519152604d604051808060200183815260200182810382526048815260200180614b1c604891396060019250505060405180910390a1600080516020614a518339815191526013604051808060200183815260200182810382526048815260200180614b1c604891396060019250505060405180910390a18943111561101957600080516020614a3183398151915260046000604051808060200184815260200183815260200182810382526048815260200180614b1c60489139606001935050505060405180910390a1600080516020614a11833981519152604e604051808060200183815260200182810382526048815260200180614b1c604891396060019250505060405180910390a1600080516020614a518339815191526014604051808060200183815260200182810382526048815260200180614b1c604891396060019250505060405180910390a160015460408051600160e41b63028c4f410281526001600160a01b038e81166004830152915160009392909216916328c4f4109160248082019260209290919082900301818787803b158015610ce557600080fd5b505af1158015610cf9573d6000803e3d6000fd5b505050506040513d6020811015610d0f57600080fd5b5051604051600160e21b632ed2876302815260048101848152602482018b9052604482018a9052608060648301908152608483018990526001600160a01b039093169263bb4a1d8c9286928d928d928d928d92909160a401848480828437600081840152601f19601f8201169050808301925050509650505050505050602060405180830381600087803b158015610da657600080fd5b505af1158015610dba573d6000803e3d6000fd5b505050506040513d6020811015610dd057600080fd5b505160408051604f602082018190528282526048928201839052929350600080516020614a11833981519152929181906060820190614b1c82396060019250505060405180910390a1600080516020614a518339815191526015604051808060200183815260200182810382526048815260200180614b1c604891396060019250505060405180910390a160015460408051600160e41b63028c4f410281526001600160a01b038f81166004830152915191909216916328c4f4109160248083019260209291908290030181600087803b158015610ead57600080fd5b505af1158015610ec1573d6000803e3d6000fd5b505050506040513d6020811015610ed757600080fd5b505160408051600160e01b638723c3770281526024810184905260048101918252604481018c90526001600160a01b0390921691638723c377918d918d9186918190606401858580828437600081840152601f19601f820116905080830192505050945050505050602060405180830381600087803b158015610f5957600080fd5b505af1158015610f6d573d6000803e3d6000fd5b505050506040513d6020811015610f8357600080fd5b5050604080516050602082018190528282526048928201839052600080516020614a118339815191529290919081906060820190614b1c82396060019250505060405180910390a1600080516020614a518339815191526016604051808060200183815260200182810382526048815260200180614b1c604891396060019250505060405180910390a1600093505050506115d0565b600080516020614a3183398151915260046001604051808060200184815260200183815260200182810382526048815260200180614b1c60489139606001935050505060405180910390a1600080516020614a118339815191526052604051808060200183815260200182810382526048815260200180614b1c604891396060019250505060405180910390a1600080516020614adc8339815191526005604051808060200183815260200182810382526048815260200180614b1c604891396060019250505060405180910390a1600080516020614a518339815191526017604051808060200183815260200182810382526048815260200180614b1c604891396060019250505060405180910390a160005460408051600160e01b63c55dae6302815290518e926001600160a01b03169163c55dae63916004808301926020929190829003018186803b15801561117157600080fd5b505afa158015611185573d6000803e3d6000fd5b505050506040513d602081101561119b57600080fd5b81019080805190602001909291905050506001600160a01b031663dd62ed3e8f856040518363ffffffff1660e01b815260040180836001600160a01b03166001600160a01b03168152602001826001600160a01b03166001600160a01b0316815260200192505050602060405180830381600087803b15801561121d57600080fd5b505af1158015611231573d6000803e3d6000fd5b505050506040513d602081101561124757600080fd5b5051101561128957604051600160e51b62461bcd028152600401808060200182810382526021815260200180614a916021913960400191505060405180910390fd5b600080516020614afc8339815191526005604051808060200183815260200182810382526048815260200180614b1c604891396060019250505060405180910390a1600080516020614a118339815191526054604051808060200183815260200182810382526048815260200180614b1c604891396060019250505060405180910390a1600080516020614a518339815191526018604051808060200183815260200182810382526048815260200180614b1c604891396060019250505060405180910390a160006113948c8989858a8a8080601f01602080910402602001604051908101604052809392919081815260200183838082843760009201919091525061305f92505050565b9050600080516020614a118339815191526055604051808060200183815260200182810382526048815260200180614b1c604891396060019250505060405180910390a1600080516020614a518339815191526019604051808060200183815260200182810382526048815260200180614b1c604891396060019250505060405180910390a18b6001600160a01b031663095ea7b384836040518363ffffffff1660e01b815260040180836001600160a01b03166001600160a01b0316815260200182815260200192505050602060405180830381600087803b15801561147a57600080fd5b505af115801561148e573d6000803e3d6000fd5b505050506040513d60208110156114a457600080fd5b5050604080516056602082018190528282526048928201839052600080516020614a118339815191529290919081906060820190614b1c82396060019250505060405180910390a1600080516020614a51833981519152601a604051808060200183815260200182810382526048815260200180614b1c604891396060019250505060405180910390a1826001600160a01b0316631ece366a8f8f848f6040518563ffffffff1660e01b815260040180856001600160a01b03166001600160a01b03168152602001848152602001838152602001828152602001945050505050602060405180830381600087803b15801561159e57600080fd5b505af11580156115b2573d6000803e3d6000fd5b505050506040513d60208110156115c857600080fd5b505193505050505b9a9950505050505050505050565b600080516020614a718339815191526003604051808060200183815260200182810382526048815260200180614b1c604891396060019250505060405180910390a1600080516020614a118339815191526027604051808060200183815260200182810382526048815260200180614b1c604891396060019250505060405180910390a1600080516020614a118339815191526028604051808060200183815260200182810382526048815260200180614b1c604891396060019250505060405180910390a1600080516020614a518339815191526004604051808060200183815260200182810382526048815260200180614b1c604891396060019250505060405180910390a160006117708d8d8d8d8d8080601f016020809104026020016040519081016040528093929190818152602001838380828437600081840152601f19601f820116905080830192505050505050508c8c8c8080601f016020809104026020016040519081016040528093929190818152602001838380828437600092019190915250612e4892505050565b9050600080516020614a11833981519152602a604051808060200183815260200182810382526048815260200180614b1c604891396060019250505060405180910390a1600080516020614a518339815191526005604051808060200183815260200182810382526048815260200180614b1c604891396060019250505060405180910390a1874310611d9457600080516020614a3183398151915260016000604051808060200184815260200183815260200182810382526048815260200180614b1c60489139606001935050505060405180910390a1600080516020614a11833981519152602b604051808060200183815260200182810382526048815260200180614b1c604891396060019250505060405180910390a1600080516020614a518339815191526006604051808060200183815260200182810382526048815260200180614b1c604891396060019250505060405180910390a16000600160009054906101000a90046001600160a01b03166001600160a01b03166328c4f4108f6040518263ffffffff1660e01b815260040180826001600160a01b03166001600160a01b03168152602001915050602060405180830381600087803b15801561193b57600080fd5b505af115801561194f573d6000803e3d6000fd5b505050506040513d602081101561196557600080fd5b505160408051602c602082018190528282526048928201839052929350600080516020614a11833981519152929181906060820190614b1c82396060019250505060405180910390a1600080516020614a518339815191526007604051808060200183815260200182810382526048815260200180614b1c604891396060019250505060405180910390a16001600160a01b03811615611cbd57600080516020614a3183398151915260026000604051808060200184815260200183815260200182810382526048815260200180614b1c60489139606001935050505060405180910390a1600080516020614a11833981519152602d604051808060200183815260200182810382526048815260200180614b1c604891396060019250505060405180910390a1600080516020614a518339815191526008604051808060200183815260200182810382526048815260200180614b1c604891396060019250505060405180910390a1806001600160a01b031663bb4a1d8c83888888886040518663ffffffff1660e01b815260040180868152602001858152602001848152602001806020018281038252848482818152602001925080828437600081840152601f19601f8201169050808301925050509650505050505050602060405180830381600087803b158015611b5857600080fd5b505af1158015611b6c573d6000803e3d6000fd5b505050506040513d6020811015611b8257600080fd5b505160025560408051602e602082018190528282526048928201839052600080516020614a118339815191529290919081906060820190614b1c82396060019250505060405180910390a1600080516020614a518339815191526009604051808060200183815260200182810382526048815260200180614b1c604891396060019250505060405180910390a1806001600160a01b0316638723c37789896002546040518463ffffffff1660e01b815260040180806020018381526020018281038252858582818152602001925080828437600081840152601f19601f820116905080830192505050945050505050602060405180830381600087803b158015611c8b57600080fd5b505af1158015611c9f573d6000803e3d6000fd5b505050506040513d6020811015611cb557600080fd5b50611d099050565b600080516020614a3183398151915260026001604051808060200184815260200183815260200182810382526048815260200180614b1c60489139606001935050505060405180910390a15b600080516020614a118339815191526030604051808060200183815260200182810382526048815260200180614b1c604891396060019250505060405180910390a1600080516020614a51833981519152600a604051808060200183815260200182810382526048815260200180614b1c604891396060019250505060405180910390a1505061204e565b600080516020614a31833981519152600180604051808060200184815260200183815260200182810382526048815260200180614b1c60489139606001935050505060405180910390a1600080516020614a118339815191526033604051808060200183815260200182810382526048815260200180614b1c604891396060019250505060405180910390a1600080516020614a51833981519152600b604051808060200183815260200182810382526048815260200180614b1c604891396060019250505060405180910390a1611ea58d86868487878080601f01602080910402602001604051908101604052809392919081815260200183838082843760009201919091525061305f92505050565b600281905550600080516020614a118339815191526034604051808060200183815260200182810382526048815260200180614b1c604891396060019250505060405180910390a1600080516020614a51833981519152600c604051808060200183815260200182810382526048815260200180614b1c604891396060019250505060405180910390a17ff9a8a6f3535e914cfd5fef422f9f604a324554db59d703e57cf12e77139140e38d60025460405180836001600160a01b03166001600160a01b031681526020018281526020019250505060405180910390a1600080516020614a118339815191526035604051808060200183815260200182810382526048815260200180614b1c604891396060019250505060405180910390a1600080516020614a51833981519152600d604051808060200183815260200182810382526048815260200180614b1c604891396060019250505060405180910390a161204c8d8d8d8d8d8080601f01602080910402602001604051908101604052809392919081815260200183838082843760009201919091525050600254915061357b9050565b505b505050505050505050505050565b6000600080516020614a71833981519152600b604051808060200183815260200182810382526048815260200180614b1c604891396060019250505060405180910390a1600080516020614a118339815191526094604051808060200183815260200182810382526048815260200180614b1c604891396060019250505060405180910390a1600080516020614a518339815191526036604051808060200183815260200182810382526048815260200180614b1c604891396060019250505060405180910390a160015460408051600160e41b63028c4f410281526001600160a01b038681166004830152915160009392909216916328c4f4109160248082019260209290919082900301818787803b15801561217957600080fd5b505af115801561218d573d6000803e3d6000fd5b505050506040513d60208110156121a357600080fd5b5051604080516095602082018190528282526048928201839052929350600080516020614a11833981519152929181906060820190614b1c82396060019250505060405180910390a1600080516020614a518339815191526037604051808060200183815260200182810382526048815260200180614b1c604891396060019250505060405180910390a16001600160a01b038116156123af57600080516020614a31833981519152600c6000604051808060200184815260200183815260200182810382526048815260200180614b1c60489139606001935050505060405180910390a1600080516020614a118339815191526096604051808060200183815260200182810382526048815260200180614b1c604891396060019250505060405180910390a1600080516020614a518339815191526038604051808060200183815260200182810382526048815260200180614b1c604891396060019250505060405180910390a16000805460408051600160e01b635fb31d770281526001600160a01b03898116600483015288811660248301526044820188905291516123a79486949390931692635fb31d7792606480820193602093909283900390910190829087803b15801561237657600080fd5b505af115801561238a573d6000803e3d6000fd5b505050506040513d60208110156123a057600080fd5b50516144ad565b915050612512565b600080516020614a31833981519152600c6001604051808060200184815260200183815260200182810382526048815260200180614b1c60489139606001935050505060405180910390a1600080516020614a118339815191526098604051808060200183815260200182810382526048815260200180614b1c604891396060019250505060405180910390a1600080516020614a518339815191526039604051808060200183815260200182810382526048815260200180614b1c604891396060019250505060405180910390a16000805460408051600160e01b635fb31d770281526001600160a01b03898116600483015288811660248301526044820188905291519190921692635fb31d7792606480820193602093909283900390910190829087803b1580156124e257600080fd5b505af11580156124f6573d6000803e3d6000fd5b505050506040513d602081101561250c57600080fd5b50519150505b9392505050565b6000546001600160a01b031681565b6000600080516020614a718339815191526005604051808060200183815260200182810382526048815260200180614b1c604891396060019250505060405180910390a1600080516020614a118339815191526043604051808060200183815260200182810382526048815260200180614b1c604891396060019250505060405180910390a1600080516020614a51833981519152600f604051808060200183815260200182810382526048815260200180614b1c604891396060019250505060405180910390a1858585858560405160200180866001600160a01b03166001600160a01b03168152602001858152602001846001600160a01b03166001600160a01b0316815260200183815260200180602001828103825283818151815260200191508051906020019080838360005b83811015612671578181015183820152602001612659565b50505050905090810190601f16801561269e5780820380516001836020036101000a031916815260200191505b5096505050505050506040516020818303038152906040528051906020012090505b95945050505050565b600080516020614a718339815191526007604051808060200183815260200182810382526048815260200180614b1c604891396060019250505060405180910390a1600080516020614a11833981519152605a604051808060200183815260200182810382526048815260200180614b1c604891396060019250505060405180910390a1600080516020614a51833981519152601b604051808060200183815260200182810382526048815260200180614b1c604891396060019250505060405180910390a16000805460408051600160e21b63359af5490281526001600160a01b0388811660048301529151919092169163d66bd524916024808301926020929190829003018186803b1580156127e057600080fd5b505afa1580156127f4573d6000803e3d6000fd5b505050506040513d602081101561280a57600080fd5b505160408051605b602082018190528282526048928201839052929350600080516020614a11833981519152929181906060820190614b1c82396060019250505060405180910390a1600080516020614adc8339815191526006604051808060200183815260200182810382526048815260200180614b1c604891396060019250505060405180910390a1600080516020614a51833981519152601c604051808060200183815260200182810382526048815260200180614b1c604891396060019250505060405180910390a16001600160a01b03811661292c5760408051600160e51b62461bcd0281526020600482015260116024820152600160791b703ab739bab83837b93a32b2103a37b5b2b702604482015290519081900360640190fd5b600080516020614afc8339815191526006604051808060200183815260200182810382526048815260200180614b1c604891396060019250505060405180910390a1600080516020614a11833981519152605c604051808060200183815260200182810382526048815260200180614b1c604891396060019250505060405180910390a1600080516020614a51833981519152601d604051808060200183815260200182810382526048815260200180614b1c604891396060019250505060405180910390a1612a0d6001600160a01b03821633308763ffffffff6145f416565b600080516020614a11833981519152605d604051808060200183815260200182810382526048815260200180614b1c604891396060019250505060405180910390a1600080516020614a51833981519152601e604051808060200183815260200182810382526048815260200180614b1c604891396060019250505060405180910390a1600080826001600160a01b0316639c8f9f23876040518263ffffffff1660e01b8152600401808281526020019150506040805180830381600087803b158015612ad957600080fd5b505af1158015612aed573d6000803e3d6000fd5b505050506040513d6040811015612b0357600080fd5b50805160209182015160408051605e9481018590528181526048918101829052929550909350600080516020614a1183398151915292919081906060820190614b1c82396060019250505060405180910390a1600080516020614a51833981519152601f604051808060200183815260200182810382526048815260200180614b1c604891396060019250505060405180910390a1612c183383856001600160a01b031663c55dae636040518163ffffffff1660e01b815260040160206040518083038186803b158015612bd657600080fd5b505afa158015612bea573d6000803e3d6000fd5b505050506040513d6020811015612c0057600080fd5b50516001600160a01b0316919063ffffffff61465716565b600080516020614a11833981519152605f604051808060200183815260200182810382526048815260200180614b1c604891396060019250505060405180910390a1600080516020614a518339815191526020604051808060200183815260200182810382526048815260200180614b1c604891396060019250505060405180910390a1600160009054906101000a90046001600160a01b03166001600160a01b03166328c4f410846001600160a01b031663fc0c546a6040518163ffffffff1660e01b815260040160206040518083038186803b158015612cf957600080fd5b505afa158015612d0d573d6000803e3d6000fd5b505050506040513d6020811015612d2357600080fd5b50516040805163ffffffff841660e01b81526001600160a01b0390921660048301525160248083019260209291908290030181600087803b158015612d6757600080fd5b505af1158015612d7b573d6000803e3d6000fd5b505050506040513d6020811015612d9157600080fd5b505160408051600160e01b638723c3770281526024810184905260048101918252604481018790526001600160a01b0390921691638723c377918891889186918190606401858580828437600081840152601f19601f820116905080830192505050945050505050602060405180830381600087803b158015612e1357600080fd5b505af1158015612e27573d6000803e3d6000fd5b505050506040513d6020811015612e3d57600080fd5b505050505050505050565b6000600080516020614a718339815191526004604051808060200183815260200182810382526048815260200180614b1c604891396060019250505060405180910390a1600080516020614a11833981519152603c604051808060200183815260200182810382526048815260200180614b1c604891396060019250505060405180910390a1600080516020614a51833981519152600e604051808060200183815260200182810382526048815260200180614b1c604891396060019250505060405180910390a186868686868660405160200180876001600160a01b03166001600160a01b03168152602001866001600160a01b03166001600160a01b031681526020018581526020018060200184815260200180602001838103835286818151815260200191508051906020019080838360005b83811015612f96578181015183820152602001612f7e565b50505050905090810190601f168015612fc35780820380516001836020036101000a031916815260200191505b50838103825284518152845160209182019186019080838360005b83811015612ff6578181015183820152602001612fde565b50505050905090810190601f1680156130235780820380516001836020036101000a031916815260200191505b50985050505050505050506040516020818303038152906040528051906020012090509695505050505050565b6001546001600160a01b031681565b6000600080516020614a718339815191526009604051808060200183815260200182810382526048815260200180614b1c604891396060019250505060405180910390a1600080516020614a118339815191526081604051808060200183815260200182810382526048815260200180614b1c604891396060019250505060405180910390a1600080516020614a51833981519152602f604051808060200183815260200182810382526048815260200180614b1c604891396060019250505060405180910390a160015460408051600160e41b63028c4f410281526001600160a01b038981166004830152915160009392909216916328c4f4109160248082019260209290919082900301818787803b15801561317c57600080fd5b505af1158015613190573d6000803e3d6000fd5b505050506040513d60208110156131a657600080fd5b5051604080516082602082018190528282526048928201839052929350600080516020614a11833981519152929181906060820190614b1c82396060019250505060405180910390a1600080516020614a518339815191526030604051808060200183815260200182810382526048815260200180614b1c604891396060019250505060405180910390a16001600160a01b0381161561340457600080516020614a31833981519152600b6000604051808060200184815260200183815260200182810382526048815260200180614b1c60489139606001935050505060405180910390a1600080516020614a118339815191526083604051808060200183815260200182810382526048815260200180614b1c604891396060019250505060405180910390a1600080516020614a518339815191526031604051808060200183815260200182810382526048815260200180614b1c604891396060019250505060405180910390a1806001600160a01b031663bb4a1d8c858888876040518563ffffffff1660e01b81526004018085815260200184815260200183815260200180602001828103825283818151815260200191508051906020019080838360005b83811015613380578181015183820152602001613368565b50505050905090810190601f1680156133ad5780820380516001836020036101000a031916815260200191505b5095505050505050602060405180830381600087803b1580156133cf57600080fd5b505af11580156133e3573d6000803e3d6000fd5b505050506040513d60208110156133f957600080fd5b505191506126c09050565b600080516020614a31833981519152600b6001604051808060200184815260200183815260200182810382526048815260200180614b1c60489139606001935050505060405180910390a1600080516020614a118339815191526085604051808060200183815260200182810382526048815260200180614b1c604891396060019250505060405180910390a1600080516020614a518339815191526032604051808060200183815260200182810382526048815260200180614b1c604891396060019250505060405180910390a16134ee6001600160a01b03881633308963ffffffff6145f416565b600080516020614a118339815191526086604051808060200183815260200182810382526048815260200180614b1c604891396060019250505060405180910390a1600080516020614a518339815191526033604051808060200183815260200182810382526048815260200180614b1c604891396060019250505060405180910390a1859150506126c0565b600080516020614a718339815191526008604051808060200183815260200182810382526048815260200180614b1c604891396060019250505060405180910390a1600080516020614a118339815191526065604051808060200183815260200182810382526048815260200180614b1c604891396060019250505060405180910390a1600080516020614a518339815191526021604051808060200183815260200182810382526048815260200180614b1c604891396060019250505060405180910390a16000600080516020614a118339815191526066604051808060200183815260200182810382526048815260200180614b1c604891396060019250505060405180910390a1600080516020614a518339815191526022604051808060200183815260200182810382526048815260200180614b1c604891396060019250505060405180910390a16000600080516020614a118339815191526067604051808060200183815260200182810382526048815260200180614b1c604891396060019250505060405180910390a1600080516020614a518339815191526023604051808060200183815260200182810382526048815260200180614b1c604891396060019250505060405180910390a160015460408051600160e41b63028c4f410281526001600160a01b038981166004830152915160009392909216916328c4f4109160248082019260209290919082900301818787803b1580156137a257600080fd5b505af11580156137b6573d6000803e3d6000fd5b505050506040513d60208110156137cc57600080fd5b5051604080516069602082018190528282526048928201839052929350600080516020614a11833981519152929181906060820190614b1c82396060019250505060405180910390a1600080516020614a518339815191526024604051808060200183815260200182810382526048815260200180614b1c604891396060019250505060405180910390a16001600160a01b0381161561393d57600080516020614a3183398151915260076000604051808060200184815260200183815260200182810382526048815260200180614b1c60489139606001935050505060405180910390a1600080516020614a11833981519152606a604051808060200183815260200182810382526048815260200180614b1c604891396060019250505060405180910390a1600080516020614a518339815191526025604051808060200183815260200182810382526048815260200180614b1c604891396060019250505060405180910390a1309150613a18565b600080516020614a3183398151915260076001604051808060200184815260200183815260200182810382526048815260200180614b1c60489139606001935050505060405180910390a1600080516020614a11833981519152606c604051808060200183815260200182810382526048815260200180614b1c604891396060019250505060405180910390a1600080516020614a518339815191526026604051808060200183815260200182810382526048815260200180614b1c604891396060019250505060405180910390a1613a15856146ac565b91505b600080516020614a11833981519152606f604051808060200183815260200182810382526048815260200180614b1c604891396060019250505060405180910390a1600080516020614a518339815191526027604051808060200183815260200182810382526048815260200180614b1c604891396060019250505060405180910390a16000809054906101000a90046001600160a01b03166001600160a01b031663c55dae636040518163ffffffff1660e01b815260040160206040518083038186803b158015613ae957600080fd5b505afa158015613afd573d6000803e3d6000fd5b505050506040513d6020811015613b1357600080fd5b50516001600160a01b0389811691161415613cf557600080516020614a3183398151915260086000604051808060200184815260200183815260200182810382526048815260200180614b1c60489139606001935050505060405180910390a1600080516020614a118339815191526070604051808060200183815260200182810382526048815260200180614b1c604891396060019250505060405180910390a1600080516020614a518339815191526028604051808060200183815260200182810382526048815260200180614b1c604891396060019250505060405180910390a160005460408051600160e21b63359af5490281526001600160a01b038a811660048301529151828c169363095ea7b393169163d66bd524916024808301926020929190829003018186803b158015613c4e57600080fd5b505afa158015613c62573d6000803e3d6000fd5b505050506040513d6020811015613c7857600080fd5b50516040805163ffffffff841660e01b81526001600160a01b039092166004830152602482018890525160448083019260209291908290030181600087803b158015613cc357600080fd5b505af1158015613cd7573d6000803e3d6000fd5b505050506040513d6020811015613ced57600080fd5b50613ebe9050565b600080516020614a3183398151915260086001604051808060200184815260200183815260200182810382526048815260200180614b1c60489139606001935050505060405180910390a1600080516020614a118339815191526072604051808060200183815260200182810382526048815260200180614b1c604891396060019250505060405180910390a1600080516020614a518339815191526029604051808060200183815260200182810382526048815260200180614b1c604891396060019250505060405180910390a160005460408051600160e21b63359af5490281526001600160a01b03808c16600483018190529251929363095ea7b39391169163d66bd524916024808301926020929190829003018186803b158015613e1c57600080fd5b505afa158015613e30573d6000803e3d6000fd5b505050506040513d6020811015613e4657600080fd5b50516040805163ffffffff841660e01b81526001600160a01b039092166004830152602482018890525160448083019260209291908290030181600087803b158015613e9157600080fd5b505af1158015613ea5573d6000803e3d6000fd5b505050506040513d6020811015613ebb57600080fd5b50505b600080516020614a118339815191526074604051808060200183815260200182810382526048815260200180614b1c604891396060019250505060405180910390a1600080516020614a51833981519152602a604051808060200183815260200182810382526048815260200180614b1c604891396060019250505060405180910390a16000805460408051600160e11b636e53a8d30281526001600160a01b0386811660048301528c811660248301528b81166044830152606482018990529151919092169263dca751a692608480820193602093909283900390910190829087803b158015613fae57600080fd5b505af1158015613fc2573d6000803e3d6000fd5b505050506040513d6020811015613fd857600080fd5b5051604080516076602082018190528282526048928201839052929550600080516020614a11833981519152929181906060820190614b1c82396060019250505060405180910390a1600080516020614adc8339815191526009604051808060200183815260200182810382526048815260200180614b1c604891396060019250505060405180910390a1600080516020614a51833981519152602b604051808060200183815260200182810382526048815260200180614b1c604891396060019250505060405180910390a16000831180156140b55750858310155b6141095760408051600160e51b62461bcd02815260206004820152601660248201527f696e76616c6964207265636569766520616d6f756e7400000000000000000000604482015290519081900360640190fd5b600080516020614afc8339815191526009604051808060200183815260200182810382526048815260200180614b1c604891396060019250505060405180910390a1600080516020614a118339815191526077604051808060200183815260200182810382526048815260200180614b1c604891396060019250505060405180910390a1600080516020614a51833981519152602c604051808060200183815260200182810382526048815260200180614b1c604891396060019250505060405180910390a16001600160a01b0381161561438f57600080516020614a31833981519152600a6000604051808060200184815260200183815260200182810382526048815260200180614b1c60489139606001935050505060405180910390a1600080516020614a118339815191526078604051808060200183815260200182810382526048815260200180614b1c604891396060019250505060405180910390a1600080516020614a51833981519152602d604051808060200183815260200182810382526048815260200180614b1c604891396060019250505060405180910390a1806001600160a01b0316638723c37786856040518363ffffffff1660e01b81526004018080602001838152602001828103825284818151815260200191508051906020019080838360005b838110156143105781810151838201526020016142f8565b50505050905090810190601f16801561433d5780820380516001836020036101000a031916815260200191505b509350505050602060405180830381600087803b15801561435d57600080fd5b505af1158015614371573d6000803e3d6000fd5b505050506040513d602081101561438757600080fd5b506143db9050565b600080516020614a31833981519152600a6001604051808060200184815260200183815260200182810382526048815260200180614b1c60489139606001935050505060405180910390a15b600080516020614a11833981519152607a604051808060200183815260200182810382526048815260200180614b1c604891396060019250505060405180910390a1600080516020614a51833981519152602e604051808060200183815260200182810382526048815260200180614b1c604891396060019250505060405180910390a1604080516001600160a01b03891681526020810185905281517f44e2ab5a6cfe856e15b49f53aec49ff1d9d164735554befaac76ac4dec58af93929181900390910190a15050505050505050565b6000600080516020614a71833981519152600c604051808060200183815260200182810382526048815260200180614b1c604891396060019250505060405180910390a1600080516020614a11833981519152609c604051808060200183815260200182810382526048815260200180614b1c604891396060019250505060405180910390a1600080516020614a51833981519152603a604051808060200183815260200182810382526048815260200180614b1c604891396060019250505060405180910390a16103e8836001600160a01b0316639d5d4cd86040518163ffffffff1660e01b8152600401602060405180830381600087803b1580156145b357600080fd5b505af11580156145c7573d6000803e3d6000fd5b505050506040513d60208110156145dd57600080fd5b5051612710038302816145ec57fe5b049392505050565b604080516001600160a01b0385811660248301528416604482015260648082018490528251808303909101815260849091019091526020810180516001600160e01b0316600160e01b6323b872dd02179052614651908590614849565b50505050565b604080516001600160a01b038416602482015260448082018490528251808303909101815260649091019091526020810180516001600160e01b0316600160e01b63a9059cbb021790526107be908490614849565b6000600080516020614a71833981519152600a604051808060200183815260200182810382526048815260200180614b1c604891396060019250505060405180910390a1600080516020614a11833981519152608b604051808060200183815260200182810382526048815260200180614b1c604891396060019250505060405180910390a1600080516020614a518339815191526034604051808060200183815260200182810382526048815260200180614b1c604891396060019250505060405180910390a16000600080516020614a11833981519152608d604051808060200183815260200182810382526048815260200180614b1c604891396060019250505060405180910390a160148301519050600080516020614a118339815191526090604051808060200183815260200182810382526048815260200180614b1c604891396060019250505060405180910390a1600080516020614a518339815191526035604051808060200183815260200182810382526048815260200180614b1c604891396060019250505060405180910390a192915050565b61485b826001600160a01b0316614a0a565b6148af5760408051600160e51b62461bcd02815260206004820152601f60248201527f5361666545524332303a2063616c6c20746f206e6f6e2d636f6e747261637400604482015290519081900360640190fd5b60006060836001600160a01b0316836040518082805190602001908083835b602083106148ed5780518252601f1990920191602091820191016148ce565b6001836020036101000a0380198251168184511680821785525050505050509050019150506000604051808303816000865af19150503d806000811461494f576040519150601f19603f3d011682016040523d82523d6000602084013e614954565b606091505b5091509150816149ae5760408051600160e51b62461bcd02815260206004820181905260248201527f5361666545524332303a206c6f772d6c6576656c2063616c6c206661696c6564604482015290519081900360640190fd5b805115614651578080602001905160208110156149ca57600080fd5b505161465157604051600160e51b62461bcd02815260040180806020018281038252602a815260200180614ab2602a913960400191505060405180910390fd5b3b15159056fe9ec842dcb67074f0f13a5c44e7120e6abac487aea3961e212cea4ced714a2cd1376de2bd479c846cea059ba825ca036d1c5e46b55818b73b9fb0f176b3587d9e97e73c63249899fc447863d3eb13f489154f1c5c7e2f66b49f1e08362ef21a448c5cff5df2277f15d7a6f3a05c683bc9fb78c8a913cc263800bfd54d28ffd515696e73756666696369656e74206261736520746f6b656e20616c6c6f77616e63655361666545524332303a204552433230206f7065726174696f6e20646964206e6f742073756363656564ae5361c99257d963e682a4e168ef7c8a7921a68e8fe94b73ba779fddbc599f64d21fa8a36dd30d2c18178ea9dcf3f79101b712d8a34603c29f3c3d1dd660e6622f686f6d652f737573727574682f72656e2f72656e766d2d64656d6f2f657468657265756d2d636f6e7472616374732f636f6e7472616374732f444558416461707465722e736f6ca165627a7a72305820ce1e25e94e4b083540e027c086e18cecf8cff5ca8e8fdc36efd4ec6f9ed80b6700299ec842dcb67074f0f13a5c44e7120e6abac487aea3961e212cea4ced714a2cd197e73c63249899fc447863d3eb13f489154f1c5c7e2f66b49f1e08362ef21a442f686f6d652f737573727574682f72656e2f72656e766d2d64656d6f2f657468657265756d2d636f6e7472616374732f636f6e7472616374732f444558416461707465722e736f6c",
  "source": "pragma solidity ^0.5.8;\n\nimport \"./DEX.sol\";\nimport \"./DEXReserve.sol\";\nimport \"darknode-sol/contracts/Shifter/ShifterRegistry.sol\";\nimport \"darknode-sol/contracts/Shifter/IShifter.sol\";\nimport \"openzeppelin-solidity/contracts/token/ERC20/SafeERC20.sol\";\nimport \"openzeppelin-solidity/contracts/token/ERC20/ERC20.sol\";\n\ncontract DEXAdapter {event __CoverageDEXAdapter(string fileName, uint256 lineNumber);\nevent __FunctionCoverageDEXAdapter(string fileName, uint256 fnId);\nevent __StatementCoverageDEXAdapter(string fileName, uint256 statementId);\nevent __BranchCoverageDEXAdapter(string fileName, uint256 branchId, uint256 locationIdx);\nevent __AssertPreCoverageDEXAdapter(string fileName, uint256 branchId);\nevent __AssertPostCoverageDEXAdapter(string fileName, uint256 branchId);\n\n    using SafeERC20 for ERC20;\n\n    DEX public dex;\n    ShifterRegistry public shifterRegistry;\n\n    event LogTransferIn(address src, uint256 amount);\n    event LogTransferOut(address dst, uint256 amount);\n\n    constructor(DEX _dex, ShifterRegistry _shifterRegistry) public {emit __FunctionCoverageDEXAdapter('/home/susruth/ren/renvm-demo/ethereum-contracts/contracts/DEXAdapter.sol',1);\n\nemit __CoverageDEXAdapter('/home/susruth/ren/renvm-demo/ethereum-contracts/contracts/DEXAdapter.sol',20);\n        emit __StatementCoverageDEXAdapter('/home/susruth/ren/renvm-demo/ethereum-contracts/contracts/DEXAdapter.sol',1);\nshifterRegistry = _shifterRegistry;\nemit __CoverageDEXAdapter('/home/susruth/ren/renvm-demo/ethereum-contracts/contracts/DEXAdapter.sol',21);\n        emit __StatementCoverageDEXAdapter('/home/susruth/ren/renvm-demo/ethereum-contracts/contracts/DEXAdapter.sol',2);\ndex = _dex;\n    }\n\n    /// @notice Allow anyone to recover funds accidentally sent to the contract.\n    function recoverTokens(address _token) external {emit __FunctionCoverageDEXAdapter('/home/susruth/ren/renvm-demo/ethereum-contracts/contracts/DEXAdapter.sol',2);\n\nemit __CoverageDEXAdapter('/home/susruth/ren/renvm-demo/ethereum-contracts/contracts/DEXAdapter.sol',26);\n        emit __StatementCoverageDEXAdapter('/home/susruth/ren/renvm-demo/ethereum-contracts/contracts/DEXAdapter.sol',3);\nERC20(_token).transfer(msg.sender, ERC20(_token).balanceOf(address(this)));\n    }\n\n    // TODO: Fix \"Stack too deep\" error!\n    uint256 transferredAmt;\n\n    function trade(\n        // Payload\n        /*uint256 _relayerFee,*/ address _src, address _dst, uint256 _minDstAmt, bytes calldata _to,\n        uint256 _refundBN, bytes calldata _refundAddress,\n        // Required\n        uint256 _amount, bytes32 _nHash, bytes calldata _sig\n    ) external {emit __FunctionCoverageDEXAdapter('/home/susruth/ren/renvm-demo/ethereum-contracts/contracts/DEXAdapter.sol',3);\n\nemit __CoverageDEXAdapter('/home/susruth/ren/renvm-demo/ethereum-contracts/contracts/DEXAdapter.sol',39);\n        transferredAmt;\nemit __CoverageDEXAdapter('/home/susruth/ren/renvm-demo/ethereum-contracts/contracts/DEXAdapter.sol',40);\n        emit __StatementCoverageDEXAdapter('/home/susruth/ren/renvm-demo/ethereum-contracts/contracts/DEXAdapter.sol',4);\nbytes32 pHash = hashTradePayload(_src, _dst, _minDstAmt, _to, _refundBN, _refundAddress);\n        // Handle refunds if the refund block number has passed\nemit __CoverageDEXAdapter('/home/susruth/ren/renvm-demo/ethereum-contracts/contracts/DEXAdapter.sol',42);\n        emit __StatementCoverageDEXAdapter('/home/susruth/ren/renvm-demo/ethereum-contracts/contracts/DEXAdapter.sol',5);\nif (block.number >= _refundBN) {emit __BranchCoverageDEXAdapter('/home/susruth/ren/renvm-demo/ethereum-contracts/contracts/DEXAdapter.sol',1,0);\nemit __CoverageDEXAdapter('/home/susruth/ren/renvm-demo/ethereum-contracts/contracts/DEXAdapter.sol',43);\n            emit __StatementCoverageDEXAdapter('/home/susruth/ren/renvm-demo/ethereum-contracts/contracts/DEXAdapter.sol',6);\nIShifter shifter = shifterRegistry.getShifterByToken(address(_src));\nemit __CoverageDEXAdapter('/home/susruth/ren/renvm-demo/ethereum-contracts/contracts/DEXAdapter.sol',44);\n            emit __StatementCoverageDEXAdapter('/home/susruth/ren/renvm-demo/ethereum-contracts/contracts/DEXAdapter.sol',7);\nif (shifter != IShifter(0x0)) {emit __BranchCoverageDEXAdapter('/home/susruth/ren/renvm-demo/ethereum-contracts/contracts/DEXAdapter.sol',2,0);\nemit __CoverageDEXAdapter('/home/susruth/ren/renvm-demo/ethereum-contracts/contracts/DEXAdapter.sol',45);\n                emit __StatementCoverageDEXAdapter('/home/susruth/ren/renvm-demo/ethereum-contracts/contracts/DEXAdapter.sol',8);\ntransferredAmt = shifter.shiftIn(pHash, _amount, _nHash, _sig);\nemit __CoverageDEXAdapter('/home/susruth/ren/renvm-demo/ethereum-contracts/contracts/DEXAdapter.sol',46);\n                emit __StatementCoverageDEXAdapter('/home/susruth/ren/renvm-demo/ethereum-contracts/contracts/DEXAdapter.sol',9);\nshifter.shiftOut(_refundAddress, transferredAmt);\n            }else { emit __BranchCoverageDEXAdapter('/home/susruth/ren/renvm-demo/ethereum-contracts/contracts/DEXAdapter.sol',2,1);}\n\nemit __CoverageDEXAdapter('/home/susruth/ren/renvm-demo/ethereum-contracts/contracts/DEXAdapter.sol',48);\n            emit __StatementCoverageDEXAdapter('/home/susruth/ren/renvm-demo/ethereum-contracts/contracts/DEXAdapter.sol',10);\nreturn;\n        }else { emit __BranchCoverageDEXAdapter('/home/susruth/ren/renvm-demo/ethereum-contracts/contracts/DEXAdapter.sol',1,1);}\n\n\nemit __CoverageDEXAdapter('/home/susruth/ren/renvm-demo/ethereum-contracts/contracts/DEXAdapter.sol',51);\n        emit __StatementCoverageDEXAdapter('/home/susruth/ren/renvm-demo/ethereum-contracts/contracts/DEXAdapter.sol',11);\ntransferredAmt = _transferIn(_src, _amount, _nHash, pHash, _sig);\nemit __CoverageDEXAdapter('/home/susruth/ren/renvm-demo/ethereum-contracts/contracts/DEXAdapter.sol',52);\n        emit __StatementCoverageDEXAdapter('/home/susruth/ren/renvm-demo/ethereum-contracts/contracts/DEXAdapter.sol',12);\nemit LogTransferIn(_src, transferredAmt);\nemit __CoverageDEXAdapter('/home/susruth/ren/renvm-demo/ethereum-contracts/contracts/DEXAdapter.sol',53);\n        emit __StatementCoverageDEXAdapter('/home/susruth/ren/renvm-demo/ethereum-contracts/contracts/DEXAdapter.sol',13);\n_doTrade(_src, _dst, _minDstAmt, _to, transferredAmt);\n    }\n\n    function hashTradePayload(\n        /*uint256 _relayerFee,*/ address _src, address _dst, uint256 _minDstAmt, bytes memory _to,\n        uint256 _refundBN, bytes memory _refundAddress\n    ) public      returns (bytes32) {emit __FunctionCoverageDEXAdapter('/home/susruth/ren/renvm-demo/ethereum-contracts/contracts/DEXAdapter.sol',4);\n\nemit __CoverageDEXAdapter('/home/susruth/ren/renvm-demo/ethereum-contracts/contracts/DEXAdapter.sol',60);\n        emit __StatementCoverageDEXAdapter('/home/susruth/ren/renvm-demo/ethereum-contracts/contracts/DEXAdapter.sol',14);\nreturn keccak256(abi.encode(_src, _dst, _minDstAmt, _to, _refundBN, _refundAddress));\n    }\n\n    function hashLiquidityPayload(\n        address _liquidityProvider,  uint256 _maxBaseToken, address _token,\n        uint256 _refundBN, bytes memory _refundAddress\n    ) public      returns (bytes32) {emit __FunctionCoverageDEXAdapter('/home/susruth/ren/renvm-demo/ethereum-contracts/contracts/DEXAdapter.sol',5);\n\nemit __CoverageDEXAdapter('/home/susruth/ren/renvm-demo/ethereum-contracts/contracts/DEXAdapter.sol',67);\n        emit __StatementCoverageDEXAdapter('/home/susruth/ren/renvm-demo/ethereum-contracts/contracts/DEXAdapter.sol',15);\nreturn keccak256(abi.encode(_liquidityProvider, _maxBaseToken, _token, _refundBN, _refundAddress));\n    }\n\n    function addLiquidity(\n        address _liquidityProvider,  uint256 _maxBaseToken, address _token, uint256 _deadline, bytes calldata _refundAddress,\n        uint256 _amount, bytes32 _nHash, bytes calldata _sig\n        ) external returns (uint256) {emit __FunctionCoverageDEXAdapter('/home/susruth/ren/renvm-demo/ethereum-contracts/contracts/DEXAdapter.sol',6);\n\nemit __CoverageDEXAdapter('/home/susruth/ren/renvm-demo/ethereum-contracts/contracts/DEXAdapter.sol',74);\n            emit __StatementCoverageDEXAdapter('/home/susruth/ren/renvm-demo/ethereum-contracts/contracts/DEXAdapter.sol',16);\nDEXReserve reserve = dex.reserves(_token);\nemit __CoverageDEXAdapter('/home/susruth/ren/renvm-demo/ethereum-contracts/contracts/DEXAdapter.sol',75);\n            emit __AssertPreCoverageDEXAdapter('/home/susruth/ren/renvm-demo/ethereum-contracts/contracts/DEXAdapter.sol',3);\nemit __StatementCoverageDEXAdapter('/home/susruth/ren/renvm-demo/ethereum-contracts/contracts/DEXAdapter.sol',17);\nrequire(reserve != DEXReserve(0x0), \"unsupported token\");emit __AssertPostCoverageDEXAdapter('/home/susruth/ren/renvm-demo/ethereum-contracts/contracts/DEXAdapter.sol',3);\n\nemit __CoverageDEXAdapter('/home/susruth/ren/renvm-demo/ethereum-contracts/contracts/DEXAdapter.sol',76);\n            emit __StatementCoverageDEXAdapter('/home/susruth/ren/renvm-demo/ethereum-contracts/contracts/DEXAdapter.sol',18);\nbytes32 lpHash = hashLiquidityPayload(_liquidityProvider, _maxBaseToken, _token, _deadline, _refundAddress);\nemit __CoverageDEXAdapter('/home/susruth/ren/renvm-demo/ethereum-contracts/contracts/DEXAdapter.sol',77);\n            emit __StatementCoverageDEXAdapter('/home/susruth/ren/renvm-demo/ethereum-contracts/contracts/DEXAdapter.sol',19);\nif (block.number > _deadline) {emit __BranchCoverageDEXAdapter('/home/susruth/ren/renvm-demo/ethereum-contracts/contracts/DEXAdapter.sol',4,0);\nemit __CoverageDEXAdapter('/home/susruth/ren/renvm-demo/ethereum-contracts/contracts/DEXAdapter.sol',78);\n                emit __StatementCoverageDEXAdapter('/home/susruth/ren/renvm-demo/ethereum-contracts/contracts/DEXAdapter.sol',20);\nuint256 shiftedAmount = shifterRegistry.getShifterByToken(_token).shiftIn(lpHash, _amount, _nHash, _sig);\nemit __CoverageDEXAdapter('/home/susruth/ren/renvm-demo/ethereum-contracts/contracts/DEXAdapter.sol',79);\n                emit __StatementCoverageDEXAdapter('/home/susruth/ren/renvm-demo/ethereum-contracts/contracts/DEXAdapter.sol',21);\nshifterRegistry.getShifterByToken(_token).shiftOut(_refundAddress, shiftedAmount);\nemit __CoverageDEXAdapter('/home/susruth/ren/renvm-demo/ethereum-contracts/contracts/DEXAdapter.sol',80);\n                emit __StatementCoverageDEXAdapter('/home/susruth/ren/renvm-demo/ethereum-contracts/contracts/DEXAdapter.sol',22);\nreturn 0;\n            }else { emit __BranchCoverageDEXAdapter('/home/susruth/ren/renvm-demo/ethereum-contracts/contracts/DEXAdapter.sol',4,1);}\n\nemit __CoverageDEXAdapter('/home/susruth/ren/renvm-demo/ethereum-contracts/contracts/DEXAdapter.sol',82);\n            emit __AssertPreCoverageDEXAdapter('/home/susruth/ren/renvm-demo/ethereum-contracts/contracts/DEXAdapter.sol',5);\nemit __StatementCoverageDEXAdapter('/home/susruth/ren/renvm-demo/ethereum-contracts/contracts/DEXAdapter.sol',23);\nrequire(ERC20(dex.baseToken()).allowance(_liquidityProvider, address(reserve)) >= _maxBaseToken,\n                \"insufficient base token allowance\");emit __AssertPostCoverageDEXAdapter('/home/susruth/ren/renvm-demo/ethereum-contracts/contracts/DEXAdapter.sol',5);\n\nemit __CoverageDEXAdapter('/home/susruth/ren/renvm-demo/ethereum-contracts/contracts/DEXAdapter.sol',84);\n            emit __StatementCoverageDEXAdapter('/home/susruth/ren/renvm-demo/ethereum-contracts/contracts/DEXAdapter.sol',24);\nuint256 transferredAmount = _transferIn(_token, _amount, _nHash, lpHash, _sig);\nemit __CoverageDEXAdapter('/home/susruth/ren/renvm-demo/ethereum-contracts/contracts/DEXAdapter.sol',85);\n            emit __StatementCoverageDEXAdapter('/home/susruth/ren/renvm-demo/ethereum-contracts/contracts/DEXAdapter.sol',25);\nERC20(_token).approve(address(reserve), transferredAmount);\nemit __CoverageDEXAdapter('/home/susruth/ren/renvm-demo/ethereum-contracts/contracts/DEXAdapter.sol',86);\n            emit __StatementCoverageDEXAdapter('/home/susruth/ren/renvm-demo/ethereum-contracts/contracts/DEXAdapter.sol',26);\nreturn reserve.addLiquidity(_liquidityProvider, _maxBaseToken, transferredAmount, _deadline);\n    }\n\n    function removeLiquidity(address _token, uint256 _liquidity, bytes calldata _tokenAddress) external {emit __FunctionCoverageDEXAdapter('/home/susruth/ren/renvm-demo/ethereum-contracts/contracts/DEXAdapter.sol',7);\n\nemit __CoverageDEXAdapter('/home/susruth/ren/renvm-demo/ethereum-contracts/contracts/DEXAdapter.sol',90);\n        emit __StatementCoverageDEXAdapter('/home/susruth/ren/renvm-demo/ethereum-contracts/contracts/DEXAdapter.sol',27);\nDEXReserve reserve = dex.reserves(_token);\nemit __CoverageDEXAdapter('/home/susruth/ren/renvm-demo/ethereum-contracts/contracts/DEXAdapter.sol',91);\n        emit __AssertPreCoverageDEXAdapter('/home/susruth/ren/renvm-demo/ethereum-contracts/contracts/DEXAdapter.sol',6);\nemit __StatementCoverageDEXAdapter('/home/susruth/ren/renvm-demo/ethereum-contracts/contracts/DEXAdapter.sol',28);\nrequire(reserve != DEXReserve(0x0), \"unsupported token\");emit __AssertPostCoverageDEXAdapter('/home/susruth/ren/renvm-demo/ethereum-contracts/contracts/DEXAdapter.sol',6);\n\nemit __CoverageDEXAdapter('/home/susruth/ren/renvm-demo/ethereum-contracts/contracts/DEXAdapter.sol',92);\n        emit __StatementCoverageDEXAdapter('/home/susruth/ren/renvm-demo/ethereum-contracts/contracts/DEXAdapter.sol',29);\nERC20(reserve).safeTransferFrom(msg.sender, address(this), _liquidity);\nemit __CoverageDEXAdapter('/home/susruth/ren/renvm-demo/ethereum-contracts/contracts/DEXAdapter.sol',93);\n        emit __StatementCoverageDEXAdapter('/home/susruth/ren/renvm-demo/ethereum-contracts/contracts/DEXAdapter.sol',30);\n(uint256 baseTokenAmount, uint256 quoteTokenAmount) = reserve.removeLiquidity(_liquidity);\nemit __CoverageDEXAdapter('/home/susruth/ren/renvm-demo/ethereum-contracts/contracts/DEXAdapter.sol',94);\n        emit __StatementCoverageDEXAdapter('/home/susruth/ren/renvm-demo/ethereum-contracts/contracts/DEXAdapter.sol',31);\nreserve.baseToken().safeTransfer(msg.sender, baseTokenAmount);\nemit __CoverageDEXAdapter('/home/susruth/ren/renvm-demo/ethereum-contracts/contracts/DEXAdapter.sol',95);\n        emit __StatementCoverageDEXAdapter('/home/susruth/ren/renvm-demo/ethereum-contracts/contracts/DEXAdapter.sol',32);\nshifterRegistry.getShifterByToken(address(reserve.token())).shiftOut(_tokenAddress, quoteTokenAmount);\n    }\n\n    function _doTrade(\n        address _src, address _dst, uint256 _minDstAmt, bytes memory _to, uint256 _amount\n    ) internal {emit __FunctionCoverageDEXAdapter('/home/susruth/ren/renvm-demo/ethereum-contracts/contracts/DEXAdapter.sol',8);\n\nemit __CoverageDEXAdapter('/home/susruth/ren/renvm-demo/ethereum-contracts/contracts/DEXAdapter.sol',101);\n        emit __StatementCoverageDEXAdapter('/home/susruth/ren/renvm-demo/ethereum-contracts/contracts/DEXAdapter.sol',33);\nuint256 recvAmt;\nemit __CoverageDEXAdapter('/home/susruth/ren/renvm-demo/ethereum-contracts/contracts/DEXAdapter.sol',102);\n        emit __StatementCoverageDEXAdapter('/home/susruth/ren/renvm-demo/ethereum-contracts/contracts/DEXAdapter.sol',34);\naddress to;\nemit __CoverageDEXAdapter('/home/susruth/ren/renvm-demo/ethereum-contracts/contracts/DEXAdapter.sol',103);\n        emit __StatementCoverageDEXAdapter('/home/susruth/ren/renvm-demo/ethereum-contracts/contracts/DEXAdapter.sol',35);\nIShifter shifter = shifterRegistry.getShifterByToken(address(_dst));\n\nemit __CoverageDEXAdapter('/home/susruth/ren/renvm-demo/ethereum-contracts/contracts/DEXAdapter.sol',105);\n        emit __StatementCoverageDEXAdapter('/home/susruth/ren/renvm-demo/ethereum-contracts/contracts/DEXAdapter.sol',36);\nif (shifter != IShifter(0x0)) {emit __BranchCoverageDEXAdapter('/home/susruth/ren/renvm-demo/ethereum-contracts/contracts/DEXAdapter.sol',7,0);\nemit __CoverageDEXAdapter('/home/susruth/ren/renvm-demo/ethereum-contracts/contracts/DEXAdapter.sol',106);\n            emit __StatementCoverageDEXAdapter('/home/susruth/ren/renvm-demo/ethereum-contracts/contracts/DEXAdapter.sol',37);\nto = address(this);\n        } else {emit __BranchCoverageDEXAdapter('/home/susruth/ren/renvm-demo/ethereum-contracts/contracts/DEXAdapter.sol',7,1);\nemit __CoverageDEXAdapter('/home/susruth/ren/renvm-demo/ethereum-contracts/contracts/DEXAdapter.sol',108);\n            emit __StatementCoverageDEXAdapter('/home/susruth/ren/renvm-demo/ethereum-contracts/contracts/DEXAdapter.sol',38);\nto = _bytesToAddress(_to);\n        }\n\nemit __CoverageDEXAdapter('/home/susruth/ren/renvm-demo/ethereum-contracts/contracts/DEXAdapter.sol',111);\n        emit __StatementCoverageDEXAdapter('/home/susruth/ren/renvm-demo/ethereum-contracts/contracts/DEXAdapter.sol',39);\nif (_src == dex.baseToken()) {emit __BranchCoverageDEXAdapter('/home/susruth/ren/renvm-demo/ethereum-contracts/contracts/DEXAdapter.sol',8,0);\nemit __CoverageDEXAdapter('/home/susruth/ren/renvm-demo/ethereum-contracts/contracts/DEXAdapter.sol',112);\n            emit __StatementCoverageDEXAdapter('/home/susruth/ren/renvm-demo/ethereum-contracts/contracts/DEXAdapter.sol',40);\nERC20(_src).approve(address(dex.reserves(_dst)), _amount);\n        } else {emit __BranchCoverageDEXAdapter('/home/susruth/ren/renvm-demo/ethereum-contracts/contracts/DEXAdapter.sol',8,1);\nemit __CoverageDEXAdapter('/home/susruth/ren/renvm-demo/ethereum-contracts/contracts/DEXAdapter.sol',114);\n            emit __StatementCoverageDEXAdapter('/home/susruth/ren/renvm-demo/ethereum-contracts/contracts/DEXAdapter.sol',41);\nERC20(_src).approve(address(dex.reserves(_src)), _amount);\n        }\nemit __CoverageDEXAdapter('/home/susruth/ren/renvm-demo/ethereum-contracts/contracts/DEXAdapter.sol',116);\n        emit __StatementCoverageDEXAdapter('/home/susruth/ren/renvm-demo/ethereum-contracts/contracts/DEXAdapter.sol',42);\nrecvAmt = dex.trade(to, _src, _dst, _amount);\n\nemit __CoverageDEXAdapter('/home/susruth/ren/renvm-demo/ethereum-contracts/contracts/DEXAdapter.sol',118);\n        emit __AssertPreCoverageDEXAdapter('/home/susruth/ren/renvm-demo/ethereum-contracts/contracts/DEXAdapter.sol',9);\nemit __StatementCoverageDEXAdapter('/home/susruth/ren/renvm-demo/ethereum-contracts/contracts/DEXAdapter.sol',43);\nrequire(recvAmt > 0 && recvAmt >= _minDstAmt, \"invalid receive amount\");emit __AssertPostCoverageDEXAdapter('/home/susruth/ren/renvm-demo/ethereum-contracts/contracts/DEXAdapter.sol',9);\n\nemit __CoverageDEXAdapter('/home/susruth/ren/renvm-demo/ethereum-contracts/contracts/DEXAdapter.sol',119);\n        emit __StatementCoverageDEXAdapter('/home/susruth/ren/renvm-demo/ethereum-contracts/contracts/DEXAdapter.sol',44);\nif (shifter != IShifter(0x0)) {emit __BranchCoverageDEXAdapter('/home/susruth/ren/renvm-demo/ethereum-contracts/contracts/DEXAdapter.sol',10,0);\nemit __CoverageDEXAdapter('/home/susruth/ren/renvm-demo/ethereum-contracts/contracts/DEXAdapter.sol',120);\n            emit __StatementCoverageDEXAdapter('/home/susruth/ren/renvm-demo/ethereum-contracts/contracts/DEXAdapter.sol',45);\nshifter.shiftOut(_to, recvAmt);\n        }else { emit __BranchCoverageDEXAdapter('/home/susruth/ren/renvm-demo/ethereum-contracts/contracts/DEXAdapter.sol',10,1);}\n\nemit __CoverageDEXAdapter('/home/susruth/ren/renvm-demo/ethereum-contracts/contracts/DEXAdapter.sol',122);\n        emit __StatementCoverageDEXAdapter('/home/susruth/ren/renvm-demo/ethereum-contracts/contracts/DEXAdapter.sol',46);\nemit LogTransferOut(_dst, recvAmt);\n    }\n\n    function _transferIn(\n        /*uint256 _relayerFee,*/ address _src, uint256 _amount,\n        bytes32 _nHash, bytes32 _pHash, bytes memory _sig\n    ) internal returns (uint256) {emit __FunctionCoverageDEXAdapter('/home/susruth/ren/renvm-demo/ethereum-contracts/contracts/DEXAdapter.sol',9);\n\nemit __CoverageDEXAdapter('/home/susruth/ren/renvm-demo/ethereum-contracts/contracts/DEXAdapter.sol',129);\n        emit __StatementCoverageDEXAdapter('/home/susruth/ren/renvm-demo/ethereum-contracts/contracts/DEXAdapter.sol',47);\nIShifter shifter = shifterRegistry.getShifterByToken(address(_src));\nemit __CoverageDEXAdapter('/home/susruth/ren/renvm-demo/ethereum-contracts/contracts/DEXAdapter.sol',130);\n        emit __StatementCoverageDEXAdapter('/home/susruth/ren/renvm-demo/ethereum-contracts/contracts/DEXAdapter.sol',48);\nif (shifter != IShifter(0x0)) {emit __BranchCoverageDEXAdapter('/home/susruth/ren/renvm-demo/ethereum-contracts/contracts/DEXAdapter.sol',11,0);\nemit __CoverageDEXAdapter('/home/susruth/ren/renvm-demo/ethereum-contracts/contracts/DEXAdapter.sol',131);\n            emit __StatementCoverageDEXAdapter('/home/susruth/ren/renvm-demo/ethereum-contracts/contracts/DEXAdapter.sol',49);\nreturn shifter.shiftIn(_pHash, _amount, _nHash, _sig);\n        } else {emit __BranchCoverageDEXAdapter('/home/susruth/ren/renvm-demo/ethereum-contracts/contracts/DEXAdapter.sol',11,1);\nemit __CoverageDEXAdapter('/home/susruth/ren/renvm-demo/ethereum-contracts/contracts/DEXAdapter.sol',133);\n            emit __StatementCoverageDEXAdapter('/home/susruth/ren/renvm-demo/ethereum-contracts/contracts/DEXAdapter.sol',50);\nERC20(_src).safeTransferFrom(msg.sender, address(this), _amount);\nemit __CoverageDEXAdapter('/home/susruth/ren/renvm-demo/ethereum-contracts/contracts/DEXAdapter.sol',134);\n            emit __StatementCoverageDEXAdapter('/home/susruth/ren/renvm-demo/ethereum-contracts/contracts/DEXAdapter.sol',51);\nreturn _amount;\n        }\n    }\n\n    function _bytesToAddress(bytes memory _addr) internal      returns (address) {emit __FunctionCoverageDEXAdapter('/home/susruth/ren/renvm-demo/ethereum-contracts/contracts/DEXAdapter.sol',10);\n\nemit __CoverageDEXAdapter('/home/susruth/ren/renvm-demo/ethereum-contracts/contracts/DEXAdapter.sol',139);\n        emit __StatementCoverageDEXAdapter('/home/susruth/ren/renvm-demo/ethereum-contracts/contracts/DEXAdapter.sol',52);\naddress addr;\n        /* solhint-disable-next-line */ /* solium-disable-next-line */\nemit __CoverageDEXAdapter('/home/susruth/ren/renvm-demo/ethereum-contracts/contracts/DEXAdapter.sol',141);\n        assembly {\n            addr := mload(add(_addr, 20))\n        }\nemit __CoverageDEXAdapter('/home/susruth/ren/renvm-demo/ethereum-contracts/contracts/DEXAdapter.sol',144);\n        emit __StatementCoverageDEXAdapter('/home/susruth/ren/renvm-demo/ethereum-contracts/contracts/DEXAdapter.sol',53);\nreturn addr;\n    }\n\n    function calculateReceiveAmount(address _src, address _dst, uint256 _sendAmount) public      returns (uint256) {emit __FunctionCoverageDEXAdapter('/home/susruth/ren/renvm-demo/ethereum-contracts/contracts/DEXAdapter.sol',11);\n\nemit __CoverageDEXAdapter('/home/susruth/ren/renvm-demo/ethereum-contracts/contracts/DEXAdapter.sol',148);\n        emit __StatementCoverageDEXAdapter('/home/susruth/ren/renvm-demo/ethereum-contracts/contracts/DEXAdapter.sol',54);\nIShifter shifter = shifterRegistry.getShifterByToken(_dst);\nemit __CoverageDEXAdapter('/home/susruth/ren/renvm-demo/ethereum-contracts/contracts/DEXAdapter.sol',149);\n        emit __StatementCoverageDEXAdapter('/home/susruth/ren/renvm-demo/ethereum-contracts/contracts/DEXAdapter.sol',55);\nif (shifter != IShifter(0x0)) {emit __BranchCoverageDEXAdapter('/home/susruth/ren/renvm-demo/ethereum-contracts/contracts/DEXAdapter.sol',12,0);\nemit __CoverageDEXAdapter('/home/susruth/ren/renvm-demo/ethereum-contracts/contracts/DEXAdapter.sol',150);\n            emit __StatementCoverageDEXAdapter('/home/susruth/ren/renvm-demo/ethereum-contracts/contracts/DEXAdapter.sol',56);\nreturn removeShifterFee(shifter, dex.calculateReceiveAmount(_src, _dst, _sendAmount));\n        }else { emit __BranchCoverageDEXAdapter('/home/susruth/ren/renvm-demo/ethereum-contracts/contracts/DEXAdapter.sol',12,1);}\n \nemit __CoverageDEXAdapter('/home/susruth/ren/renvm-demo/ethereum-contracts/contracts/DEXAdapter.sol',152);\n        emit __StatementCoverageDEXAdapter('/home/susruth/ren/renvm-demo/ethereum-contracts/contracts/DEXAdapter.sol',57);\nreturn dex.calculateReceiveAmount(_src, _dst, _sendAmount);\n    }\n\n    function removeShifterFee(IShifter _shifter, uint256 _amount) private      returns (uint256) {emit __FunctionCoverageDEXAdapter('/home/susruth/ren/renvm-demo/ethereum-contracts/contracts/DEXAdapter.sol',12);\n\nemit __CoverageDEXAdapter('/home/susruth/ren/renvm-demo/ethereum-contracts/contracts/DEXAdapter.sol',156);\n        emit __StatementCoverageDEXAdapter('/home/susruth/ren/renvm-demo/ethereum-contracts/contracts/DEXAdapter.sol',58);\nreturn (_amount * (10000 - _shifter.shiftOutFee()))/1000;\n    }\n}",
  "sourcePath": "/home/susruth/ren/renvm-demo/ethereum-contracts/coverageEnv/contracts/DEXAdapter.sol",
  "compiler": {
    "name": "solc",
    "version": "0.5.8+commit.23d335f2.Emscripten.clang"
  },
  "schemaVersion": "3.0.16",
  "updatedAt": "2019-10-29T06:31:53.970Z",
  "devdoc": {
    "methods": {}
  },
  "userdoc": {
    "methods": {
      "recoverTokens(address)": {
        "notice": "Allow anyone to recover funds accidentally sent to the contract."
      }
    }
  }
}