{
  "contractName": "DEXAdapter",
  "abi": [
    {
      "constant": true,
      "inputs": [],
      "name": "dex",
      "outputs": [
        {
          "name": "",
          "type": "address"
        }
      ],
      "payable": false,
      "stateMutability": "view",
      "type": "function"
    },
    {
      "constant": true,
      "inputs": [],
      "name": "shifterRegistry",
      "outputs": [
        {
          "name": "",
          "type": "address"
        }
      ],
      "payable": false,
      "stateMutability": "view",
      "type": "function"
    },
    {
      "inputs": [
        {
          "name": "_dex",
          "type": "address"
        },
        {
          "name": "_shifterRegistry",
          "type": "address"
        }
      ],
      "payable": false,
      "stateMutability": "nonpayable",
      "type": "constructor"
    },
    {
      "anonymous": false,
      "inputs": [
        {
          "indexed": false,
          "name": "fileName",
          "type": "string"
        },
        {
          "indexed": false,
          "name": "lineNumber",
          "type": "uint256"
        }
      ],
      "name": "__CoverageDEXAdapter",
      "type": "event"
    },
    {
      "anonymous": false,
      "inputs": [
        {
          "indexed": false,
          "name": "fileName",
          "type": "string"
        },
        {
          "indexed": false,
          "name": "fnId",
          "type": "uint256"
        }
      ],
      "name": "__FunctionCoverageDEXAdapter",
      "type": "event"
    },
    {
      "anonymous": false,
      "inputs": [
        {
          "indexed": false,
          "name": "fileName",
          "type": "string"
        },
        {
          "indexed": false,
          "name": "statementId",
          "type": "uint256"
        }
      ],
      "name": "__StatementCoverageDEXAdapter",
      "type": "event"
    },
    {
      "anonymous": false,
      "inputs": [
        {
          "indexed": false,
          "name": "fileName",
          "type": "string"
        },
        {
          "indexed": false,
          "name": "branchId",
          "type": "uint256"
        },
        {
          "indexed": false,
          "name": "locationIdx",
          "type": "uint256"
        }
      ],
      "name": "__BranchCoverageDEXAdapter",
      "type": "event"
    },
    {
      "anonymous": false,
      "inputs": [
        {
          "indexed": false,
          "name": "fileName",
          "type": "string"
        },
        {
          "indexed": false,
          "name": "branchId",
          "type": "uint256"
        }
      ],
      "name": "__AssertPreCoverageDEXAdapter",
      "type": "event"
    },
    {
      "anonymous": false,
      "inputs": [
        {
          "indexed": false,
          "name": "fileName",
          "type": "string"
        },
        {
          "indexed": false,
          "name": "branchId",
          "type": "uint256"
        }
      ],
      "name": "__AssertPostCoverageDEXAdapter",
      "type": "event"
    },
    {
      "anonymous": false,
      "inputs": [
        {
          "indexed": false,
          "name": "src",
          "type": "address"
        },
        {
          "indexed": false,
          "name": "amount",
          "type": "uint256"
        }
      ],
      "name": "LogTransferIn",
      "type": "event"
    },
    {
      "anonymous": false,
      "inputs": [
        {
          "indexed": false,
          "name": "dst",
          "type": "address"
        },
        {
          "indexed": false,
          "name": "amount",
          "type": "uint256"
        }
      ],
      "name": "LogTransferOut",
      "type": "event"
    },
    {
      "constant": false,
      "inputs": [
        {
          "name": "_token",
          "type": "address"
        }
      ],
      "name": "recoverTokens",
      "outputs": [],
      "payable": false,
      "stateMutability": "nonpayable",
      "type": "function"
    },
    {
      "constant": false,
      "inputs": [
        {
          "name": "_src",
          "type": "address"
        },
        {
          "name": "_dst",
          "type": "address"
        },
        {
          "name": "_minDstAmt",
          "type": "uint256"
        },
        {
          "name": "_to",
          "type": "bytes"
        },
        {
          "name": "_refundBN",
          "type": "uint256"
        },
        {
          "name": "_refundAddress",
          "type": "bytes"
        },
        {
          "name": "_amount",
          "type": "uint256"
        },
        {
          "name": "_nHash",
          "type": "bytes32"
        },
        {
          "name": "_sig",
          "type": "bytes"
        }
      ],
      "name": "trade",
      "outputs": [],
      "payable": false,
      "stateMutability": "nonpayable",
      "type": "function"
    },
    {
      "constant": false,
      "inputs": [
        {
          "name": "_src",
          "type": "address"
        },
        {
          "name": "_dst",
          "type": "address"
        },
        {
          "name": "_minDstAmt",
          "type": "uint256"
        },
        {
          "name": "_to",
          "type": "bytes"
        },
        {
          "name": "_refundBN",
          "type": "uint256"
        },
        {
          "name": "_refundAddress",
          "type": "bytes"
        }
      ],
      "name": "hashTradePayload",
      "outputs": [
        {
          "name": "",
          "type": "bytes32"
        }
      ],
      "payable": false,
      "stateMutability": "nonpayable",
      "type": "function"
    },
    {
      "constant": false,
      "inputs": [
        {
          "name": "_liquidityProvider",
          "type": "address"
        },
        {
          "name": "_maxBaseToken",
          "type": "uint256"
        },
        {
          "name": "_token",
          "type": "address"
        },
        {
          "name": "_refundBN",
          "type": "uint256"
        },
        {
          "name": "_refundAddress",
          "type": "bytes"
        }
      ],
      "name": "hashLiquidityPayload",
      "outputs": [
        {
          "name": "",
          "type": "bytes32"
        }
      ],
      "payable": false,
      "stateMutability": "nonpayable",
      "type": "function"
    },
    {
      "constant": false,
      "inputs": [
        {
          "name": "_liquidityProvider",
          "type": "address"
        },
        {
          "name": "_maxBaseToken",
          "type": "uint256"
        },
        {
          "name": "_token",
          "type": "address"
        },
        {
          "name": "_deadline",
          "type": "uint256"
        },
        {
          "name": "_refundAddress",
          "type": "bytes"
        },
        {
          "name": "_amount",
          "type": "uint256"
        },
        {
          "name": "_nHash",
          "type": "bytes32"
        },
        {
          "name": "_sig",
          "type": "bytes"
        }
      ],
      "name": "addLiquidity",
      "outputs": [
        {
          "name": "",
          "type": "uint256"
        }
      ],
      "payable": false,
      "stateMutability": "nonpayable",
      "type": "function"
    },
    {
      "constant": false,
      "inputs": [
        {
          "name": "_token",
          "type": "address"
        },
        {
          "name": "_liquidity",
          "type": "uint256"
        },
        {
          "name": "_tokenAddress",
          "type": "bytes"
        }
      ],
      "name": "removeLiquidity",
      "outputs": [],
      "payable": false,
      "stateMutability": "nonpayable",
      "type": "function"
    },
    {
      "constant": false,
      "inputs": [
        {
          "name": "_src",
          "type": "address"
        },
        {
          "name": "_dst",
          "type": "address"
        },
        {
          "name": "_sendAmount",
          "type": "uint256"
        }
      ],
      "name": "calculateReceiveAmount",
      "outputs": [
        {
          "name": "",
          "type": "uint256"
        }
      ],
      "payable": false,
      "stateMutability": "nonpayable",
      "type": "function"
    }
  ],
  "bytecode": "0x60806040523480156200001157600080fd5b50604051604080620047ff833981018060405260408110156200003357600080fd5b5080516020918201516040805160019481018590528181526048918101829052929391927f8c5cff5df2277f15d7a6f3a05c683bc9fb78c8a913cc263800bfd54d28ffd515929181906060820190620047b782396060019250505060405180910390a1600080516020620047778339815191526011604051808060200183815260200182810382526048815260200180620047b7604891396060019250505060405180910390a1600080516020620047978339815191526001604051808060200183815260200182810382526048815260200180620047b7604891396060019250505060405180910390a1600180546001600160a01b0319166001600160a01b038316179055604080516012602082018190528282526048928201839052600080516020620047778339815191529290919081906060820190620047b782396060019250505060405180910390a1600080516020620047978339815191526002604051808060200183815260200182810382526048815260200180620047b7604891396060019250505060405180910390a150600080546001600160a01b039092166001600160a01b031990921691909117905561458080620001f76000396000f3fe608060405234801561001057600080fd5b50600436106100935760003560e01c8063692058c211610066578063692058c2146103385780637813e50a1461035c578063863cb94e14610426578063a1f419c9146104a9578063e6a12ca9146105fa57610093565b806316114acd1461009857806333da59af146100c0578063590ba492146101c35780635fb31d7714610302575b600080fd5b6100be600480360360208110156100ae57600080fd5b50356001600160a01b0316610602565b005b6101b160048036036101008110156100d757600080fd5b6001600160a01b0382358116926020810135926040820135909216916060820135919081019060a081016080820135600160201b81111561011757600080fd5b82018360208201111561012957600080fd5b803590602001918460018302840111600160201b8311171561014a57600080fd5b919390928235926020810135929190606081019060400135600160201b81111561017357600080fd5b82018360208201111561018557600080fd5b803590602001918460018302840111600160201b831117156101a657600080fd5b5090925090506107c3565b60408051918252519081900360200190f35b6100be60048036036101208110156101da57600080fd5b6001600160a01b03823581169260208101359091169160408201359190810190608081016060820135600160201b81111561021457600080fd5b82018360208201111561022657600080fd5b803590602001918460018302840111600160201b8311171561024757600080fd5b91939092823592604081019060200135600160201b81111561026857600080fd5b82018360208201111561027a57600080fd5b803590602001918460018302840111600160201b8311171561029b57600080fd5b919390928235926020810135929190606081019060400135600160201b8111156102c457600080fd5b8201836020820111156102d657600080fd5b803590602001918460018302840111600160201b831117156102f757600080fd5b5090925090506115da565b6101b16004803603606081101561031857600080fd5b506001600160a01b03813581169160208101359091169060400135612058565b6103406121b8565b604080516001600160a01b039092168252519081900360200190f35b6101b1600480360360a081101561037257600080fd5b6001600160a01b0382358116926020810135926040820135909216916060820135919081019060a081016080820135600160201b8111156103b257600080fd5b8201836020820111156103c457600080fd5b803590602001918460018302840111600160201b831117156103e557600080fd5b91908080601f0160208091040260200160405190810160405280939291908181526020018383808284376000920191909152509295506121c7945050505050565b6100be6004803603606081101561043c57600080fd5b6001600160a01b0382351691602081013591810190606081016040820135600160201b81111561046b57600080fd5b82018360208201111561047d57600080fd5b803590602001918460018302840111600160201b8311171561049e57600080fd5b509092509050612367565b6101b1600480360360c08110156104bf57600080fd5b6001600160a01b03823581169260208101359091169160408201359190810190608081016060820135600160201b8111156104f957600080fd5b82018360208201111561050b57600080fd5b803590602001918460018302840111600160201b8311171561052c57600080fd5b91908080601f01602080910402602001604051908101604052809392919081815260200183838082843760009201919091525092958435959094909350604081019250602001359050600160201b81111561058657600080fd5b82018360208201111561059857600080fd5b803590602001918460018302840111600160201b831117156105b957600080fd5b91908080601f016020809104026020016040519081016040528093929190818152602001838380828437600092019190915250929550612bbc945050505050565b610340612dc4565b60008051602061448c833981519152600260405180806020018381526020018281038252604881526020018061450d604891396060019250505060405180910390a160008051602061442c833981519152601760405180806020018381526020018281038252604881526020018061450d604891396060019250505060405180910390a160008051602061446c833981519152600360405180806020018381526020018281038252604881526020018061450d604891396060019250505060405180910390a160408051600160e01b6370a0823102815230600482015290516001600160a01b0383169163a9059cbb91339184916370a08231916024808201926020929091908290030181600087803b15801561071e57600080fd5b505af1158015610732573d6000803e3d6000fd5b505050506040513d602081101561074857600080fd5b50516040805163ffffffff851660e01b81526001600160a01b03909316600484015260248301919091525160448083019260209291908290030181600087803b15801561079457600080fd5b505af11580156107a8573d6000803e3d6000fd5b505050506040513d60208110156107be57600080fd5b505050565b600060008051602061448c833981519152600660405180806020018381526020018281038252604881526020018061450d604891396060019250505060405180910390a160008051602061442c833981519152604760405180806020018381526020018281038252604881526020018061450d604891396060019250505060405180910390a160008051602061446c833981519152601060405180806020018381526020018281038252604881526020018061450d604891396060019250505060405180910390a16000805460408051600160e21b63359af5490281526001600160a01b038d811660048301529151919092169163d66bd524916024808301926020929190829003018186803b1580156108dc57600080fd5b505afa1580156108f0573d6000803e3d6000fd5b505050506040513d602081101561090657600080fd5b50516040805160486020820181905282825291810182905291925060008051602061442c8339815191529180606081018361450d82396060019250505060405180910390a16000805160206144cd833981519152600360405180806020018381526020018281038252604881526020018061450d604891396060019250505060405180910390a160008051602061446c833981519152601160405180806020018381526020018281038252604881526020018061450d604891396060019250505060405180910390a16001600160a01b038116610a245760408051600160e51b62461bcd0281526020600482015260116024820152600160791b703ab739bab83837b93a32b2103a37b5b2b702604482015290519081900360640190fd5b6000805160206144ed833981519152600360405180806020018381526020018281038252604881526020018061450d604891396060019250505060405180910390a160008051602061442c833981519152604960405180806020018381526020018281038252604881526020018061450d604891396060019250505060405180910390a160008051602061446c833981519152601260405180806020018381526020018281038252604881526020018061450d604891396060019250505060405180910390a16000610b2f8d8d8d8d8d8d8080601f0160208091040260200160405190810160405280939291908181526020018383808284376000920191909152506121c792505050565b905060008051602061442c833981519152604a60405180806020018381526020018281038252604881526020018061450d604891396060019250505060405180910390a160008051602061446c833981519152601360405180806020018381526020018281038252604881526020018061450d604891396060019250505060405180910390a1894311156110155760008051602061444c8339815191526004600060405180806020018481526020018381526020018281038252604881526020018061450d60489139606001935050505060405180910390a160008051602061442c833981519152604b60405180806020018381526020018281038252604881526020018061450d604891396060019250505060405180910390a160008051602061446c833981519152601460405180806020018381526020018281038252604881526020018061450d604891396060019250505060405180910390a160015460408051600160e41b63028c4f410281526001600160a01b038e81166004830152915160009392909216916328c4f4109160248082019260209290919082900301818787803b158015610ce157600080fd5b505af1158015610cf5573d6000803e3d6000fd5b505050506040513d6020811015610d0b57600080fd5b5051604051600160e21b632ed2876302815260048101848152602482018b9052604482018a9052608060648301908152608483018990526001600160a01b039093169263bb4a1d8c9286928d928d928d928d92909160a401848480828437600081840152601f19601f8201169050808301925050509650505050505050602060405180830381600087803b158015610da257600080fd5b505af1158015610db6573d6000803e3d6000fd5b505050506040513d6020811015610dcc57600080fd5b505160408051604c60208201819052828252604892820183905292935060008051602061442c83398151915292918190606082019061450d82396060019250505060405180910390a160008051602061446c833981519152601560405180806020018381526020018281038252604881526020018061450d604891396060019250505060405180910390a160015460408051600160e41b63028c4f410281526001600160a01b038f81166004830152915191909216916328c4f4109160248083019260209291908290030181600087803b158015610ea957600080fd5b505af1158015610ebd573d6000803e3d6000fd5b505050506040513d6020811015610ed357600080fd5b505160408051600160e01b638723c3770281526024810184905260048101918252604481018c90526001600160a01b0390921691638723c377918d918d9186918190606401858580828437600081840152601f19601f820116905080830192505050945050505050602060405180830381600087803b158015610f5557600080fd5b505af1158015610f69573d6000803e3d6000fd5b505050506040513d6020811015610f7f57600080fd5b505060408051604d60208201819052828252604892820183905260008051602061442c833981519152929091908190606082019061450d82396060019250505060405180910390a160008051602061446c833981519152601660405180806020018381526020018281038252604881526020018061450d604891396060019250505060405180910390a1600093505050506115cc565b60008051602061444c8339815191526004600160405180806020018481526020018381526020018281038252604881526020018061450d60489139606001935050505060405180910390a160008051602061442c833981519152604f60405180806020018381526020018281038252604881526020018061450d604891396060019250505060405180910390a16000805160206144cd833981519152600560405180806020018381526020018281038252604881526020018061450d604891396060019250505060405180910390a160008051602061446c833981519152601760405180806020018381526020018281038252604881526020018061450d604891396060019250505060405180910390a160005460408051600160e11b63487c0b8102815290518e926001600160a01b0316916390f81702916004808301926020929190829003018186803b15801561116d57600080fd5b505afa158015611181573d6000803e3d6000fd5b505050506040513d602081101561119757600080fd5b81019080805190602001909291905050506001600160a01b031663dd62ed3e8f856040518363ffffffff1660e01b815260040180836001600160a01b03166001600160a01b03168152602001826001600160a01b03166001600160a01b0316815260200192505050602060405180830381600087803b15801561121957600080fd5b505af115801561122d573d6000803e3d6000fd5b505050506040513d602081101561124357600080fd5b5051101561128557604051600160e51b62461bcd0281526004018080602001828103825260218152602001806144ac6021913960400191505060405180910390fd5b6000805160206144ed833981519152600560405180806020018381526020018281038252604881526020018061450d604891396060019250505060405180910390a160008051602061442c833981519152605160405180806020018381526020018281038252604881526020018061450d604891396060019250505060405180910390a160008051602061446c833981519152601860405180806020018381526020018281038252604881526020018061450d604891396060019250505060405180910390a160006113908c8989858a8a8080601f016020809104026020016040519081016040528093929190818152602001838380828437600092019190915250612dd392505050565b905060008051602061442c833981519152605260405180806020018381526020018281038252604881526020018061450d604891396060019250505060405180910390a160008051602061446c833981519152601960405180806020018381526020018281038252604881526020018061450d604891396060019250505060405180910390a18b6001600160a01b031663095ea7b384836040518363ffffffff1660e01b815260040180836001600160a01b03166001600160a01b0316815260200182815260200192505050602060405180830381600087803b15801561147657600080fd5b505af115801561148a573d6000803e3d6000fd5b505050506040513d60208110156114a057600080fd5b505060408051605360208201819052828252604892820183905260008051602061442c833981519152929091908190606082019061450d82396060019250505060405180910390a160008051602061446c833981519152601a60405180806020018381526020018281038252604881526020018061450d604891396060019250505060405180910390a1826001600160a01b0316631ece366a8f8f848f6040518563ffffffff1660e01b815260040180856001600160a01b03166001600160a01b03168152602001848152602001838152602001828152602001945050505050602060405180830381600087803b15801561159a57600080fd5b505af11580156115ae573d6000803e3d6000fd5b505050506040513d60208110156115c457600080fd5b505193505050505b9a9950505050505050505050565b60008051602061448c833981519152600360405180806020018381526020018281038252604881526020018061450d604891396060019250505060405180910390a160008051602061442c833981519152602460405180806020018381526020018281038252604881526020018061450d604891396060019250505060405180910390a160008051602061442c833981519152602560405180806020018381526020018281038252604881526020018061450d604891396060019250505060405180910390a160008051602061446c833981519152600460405180806020018381526020018281038252604881526020018061450d604891396060019250505060405180910390a1600061176c8d8d8d8d8d8080601f016020809104026020016040519081016040528093929190818152602001838380828437600081840152601f19601f820116905080830192505050505050508c8c8c8080601f016020809104026020016040519081016040528093929190818152602001838380828437600092019190915250612bbc92505050565b905060008051602061442c833981519152602760405180806020018381526020018281038252604881526020018061450d604891396060019250505060405180910390a160008051602061446c833981519152600560405180806020018381526020018281038252604881526020018061450d604891396060019250505060405180910390a1874310611d905760008051602061444c8339815191526001600060405180806020018481526020018381526020018281038252604881526020018061450d60489139606001935050505060405180910390a160008051602061442c833981519152602860405180806020018381526020018281038252604881526020018061450d604891396060019250505060405180910390a160008051602061446c833981519152600660405180806020018381526020018281038252604881526020018061450d604891396060019250505060405180910390a16000600160009054906101000a90046001600160a01b03166001600160a01b03166328c4f4108f6040518263ffffffff1660e01b815260040180826001600160a01b03166001600160a01b03168152602001915050602060405180830381600087803b15801561193757600080fd5b505af115801561194b573d6000803e3d6000fd5b505050506040513d602081101561196157600080fd5b505160408051602960208201819052828252604892820183905292935060008051602061442c83398151915292918190606082019061450d82396060019250505060405180910390a160008051602061446c833981519152600760405180806020018381526020018281038252604881526020018061450d604891396060019250505060405180910390a16001600160a01b03811615611cb95760008051602061444c8339815191526002600060405180806020018481526020018381526020018281038252604881526020018061450d60489139606001935050505060405180910390a160008051602061442c833981519152602a60405180806020018381526020018281038252604881526020018061450d604891396060019250505060405180910390a160008051602061446c833981519152600860405180806020018381526020018281038252604881526020018061450d604891396060019250505060405180910390a1806001600160a01b031663bb4a1d8c83888888886040518663ffffffff1660e01b815260040180868152602001858152602001848152602001806020018281038252848482818152602001925080828437600081840152601f19601f8201169050808301925050509650505050505050602060405180830381600087803b158015611b5457600080fd5b505af1158015611b68573d6000803e3d6000fd5b505050506040513d6020811015611b7e57600080fd5b505160025560408051602b60208201819052828252604892820183905260008051602061442c833981519152929091908190606082019061450d82396060019250505060405180910390a160008051602061446c833981519152600960405180806020018381526020018281038252604881526020018061450d604891396060019250505060405180910390a1806001600160a01b0316638723c37789896002546040518463ffffffff1660e01b815260040180806020018381526020018281038252858582818152602001925080828437600081840152601f19601f820116905080830192505050945050505050602060405180830381600087803b158015611c8757600080fd5b505af1158015611c9b573d6000803e3d6000fd5b505050506040513d6020811015611cb157600080fd5b50611d059050565b60008051602061444c8339815191526002600160405180806020018481526020018381526020018281038252604881526020018061450d60489139606001935050505060405180910390a15b60008051602061442c833981519152602d60405180806020018381526020018281038252604881526020018061450d604891396060019250505060405180910390a160008051602061446c833981519152600a60405180806020018381526020018281038252604881526020018061450d604891396060019250505060405180910390a1505061204a565b60008051602061444c83398151915260018060405180806020018481526020018381526020018281038252604881526020018061450d60489139606001935050505060405180910390a160008051602061442c833981519152603060405180806020018381526020018281038252604881526020018061450d604891396060019250505060405180910390a160008051602061446c833981519152600b60405180806020018381526020018281038252604881526020018061450d604891396060019250505060405180910390a1611ea18d86868487878080601f016020809104026020016040519081016040528093929190818152602001838380828437600092019190915250612dd392505050565b60028190555060008051602061442c833981519152603160405180806020018381526020018281038252604881526020018061450d604891396060019250505060405180910390a160008051602061446c833981519152600c60405180806020018381526020018281038252604881526020018061450d604891396060019250505060405180910390a17ff9a8a6f3535e914cfd5fef422f9f604a324554db59d703e57cf12e77139140e38d60025460405180836001600160a01b03166001600160a01b031681526020018281526020019250505060405180910390a160008051602061442c833981519152603260405180806020018381526020018281038252604881526020018061450d604891396060019250505060405180910390a160008051602061446c833981519152600d60405180806020018381526020018281038252604881526020018061450d604891396060019250505060405180910390a16120488d8d8d8d8d8080601f01602080910402602001604051908101604052809392919081815260200183838082843760009201919091525050600254915061335c9050565b505b505050505050505050505050565b600060008051602061448c833981519152600b60405180806020018381526020018281038252604881526020018061450d604891396060019250505060405180910390a160008051602061442c833981519152609160405180806020018381526020018281038252604881526020018061450d604891396060019250505060405180910390a160008051602061446c833981519152603660405180806020018381526020018281038252604881526020018061450d604891396060019250505060405180910390a16000805460408051600160e01b635fb31d770281526001600160a01b03888116600483015287811660248301526044820187905291519190921692635fb31d7792606480820193602093909283900390910190829087803b15801561218457600080fd5b505af1158015612198573d6000803e3d6000fd5b505050506040513d60208110156121ae57600080fd5b5051949350505050565b6000546001600160a01b031681565b600060008051602061448c833981519152600560405180806020018381526020018281038252604881526020018061450d604891396060019250505060405180910390a160008051602061442c8339815191526040805180806020018381526020018281038252604881526020018061450d604891396060019250505060405180910390a160008051602061446c833981519152600f60405180806020018381526020018281038252604881526020018061450d604891396060019250505060405180910390a1858585858560405160200180866001600160a01b03166001600160a01b03168152602001858152602001846001600160a01b03166001600160a01b0316815260200183815260200180602001828103825283818151815260200191508051906020019080838360005b8381101561230f5781810151838201526020016122f7565b50505050905090810190601f16801561233c5780820380516001836020036101000a031916815260200191505b5096505050505050506040516020818303038152906040528051906020012090505b95945050505050565b60008051602061448c833981519152600760405180806020018381526020018281038252604881526020018061450d604891396060019250505060405180910390a160008051602061442c833981519152605760405180806020018381526020018281038252604881526020018061450d604891396060019250505060405180910390a160008051602061446c833981519152601b60405180806020018381526020018281038252604881526020018061450d604891396060019250505060405180910390a16000805460408051600160e21b63359af5490281526001600160a01b0388811660048301529151919092169163d66bd524916024808301926020929190829003018186803b15801561247e57600080fd5b505afa158015612492573d6000803e3d6000fd5b505050506040513d60208110156124a857600080fd5b505160408051605860208201819052828252604892820183905292935060008051602061442c83398151915292918190606082019061450d82396060019250505060405180910390a16000805160206144cd833981519152600660405180806020018381526020018281038252604881526020018061450d604891396060019250505060405180910390a160008051602061446c833981519152601c60405180806020018381526020018281038252604881526020018061450d604891396060019250505060405180910390a16001600160a01b0381166125ca5760408051600160e51b62461bcd0281526020600482015260116024820152600160791b703ab739bab83837b93a32b2103a37b5b2b702604482015290519081900360640190fd5b6000805160206144ed833981519152600660405180806020018381526020018281038252604881526020018061450d604891396060019250505060405180910390a160008051602061442c833981519152605960405180806020018381526020018281038252604881526020018061450d604891396060019250505060405180910390a160008051602061446c833981519152601d60405180806020018381526020018281038252604881526020018061450d604891396060019250505060405180910390a160408051600160e01b6323b872dd0281523360048201523060248201526044810186905290516001600160a01b038316916323b872dd9160648083019260209291908290030181600087803b1580156126e857600080fd5b505af11580156126fc573d6000803e3d6000fd5b505050506040513d602081101561271257600080fd5b505060408051605a60208201819052828252604892820183905260008051602061442c833981519152929091908190606082019061450d82396060019250505060405180910390a160008051602061446c833981519152601e60405180806020018381526020018281038252604881526020018061450d604891396060019250505060405180910390a1600080826001600160a01b0316639c8f9f23876040518263ffffffff1660e01b8152600401808281526020019150506040805180830381600087803b1580156127e457600080fd5b505af11580156127f8573d6000803e3d6000fd5b505050506040513d604081101561280e57600080fd5b50805160209182015160408051605b948101859052818152604891810182905292955090935060008051602061442c8339815191529291908190606082019061450d82396060019250505060405180910390a160008051602061446c833981519152601f60405180806020018381526020018281038252604881526020018061450d604891396060019250505060405180910390a1826001600160a01b03166390f817026040518163ffffffff1660e01b815260040160206040518083038186803b1580156128dc57600080fd5b505afa1580156128f0573d6000803e3d6000fd5b505050506040513d602081101561290657600080fd5b505160408051600160e01b63a9059cbb0281523360048201526024810185905290516001600160a01b039092169163a9059cbb916044808201926020929091908290030181600087803b15801561295c57600080fd5b505af1158015612970573d6000803e3d6000fd5b505050506040513d602081101561298657600080fd5b505060408051605c60208201819052828252604892820183905260008051602061442c833981519152929091908190606082019061450d82396060019250505060405180910390a160008051602061446c833981519152602060405180806020018381526020018281038252604881526020018061450d604891396060019250505060405180910390a1600160009054906101000a90046001600160a01b03166001600160a01b03166328c4f410846001600160a01b031663c24126766040518163ffffffff1660e01b815260040160206040518083038186803b158015612a6d57600080fd5b505afa158015612a81573d6000803e3d6000fd5b505050506040513d6020811015612a9757600080fd5b50516040805163ffffffff841660e01b81526001600160a01b0390921660048301525160248083019260209291908290030181600087803b158015612adb57600080fd5b505af1158015612aef573d6000803e3d6000fd5b505050506040513d6020811015612b0557600080fd5b505160408051600160e01b638723c3770281526024810184905260048101918252604481018790526001600160a01b0390921691638723c377918891889186918190606401858580828437600081840152601f19601f820116905080830192505050945050505050602060405180830381600087803b158015612b8757600080fd5b505af1158015612b9b573d6000803e3d6000fd5b505050506040513d6020811015612bb157600080fd5b505050505050505050565b600060008051602061448c833981519152600460405180806020018381526020018281038252604881526020018061450d604891396060019250505060405180910390a160008051602061442c833981519152603960405180806020018381526020018281038252604881526020018061450d604891396060019250505060405180910390a160008051602061446c833981519152600e60405180806020018381526020018281038252604881526020018061450d604891396060019250505060405180910390a186868686868660405160200180876001600160a01b03166001600160a01b03168152602001866001600160a01b03166001600160a01b031681526020018581526020018060200184815260200180602001838103835286818151815260200191508051906020019080838360005b83811015612d0a578181015183820152602001612cf2565b50505050905090810190601f168015612d375780820380516001836020036101000a031916815260200191505b50838103825284518152845160209182019186019080838360005b83811015612d6a578181015183820152602001612d52565b50505050905090810190601f168015612d975780820380516001836020036101000a031916815260200191505b50985050505050505050506040516020818303038152906040528051906020012090509695505050505050565b6001546001600160a01b031681565b600060008051602061448c833981519152600960405180806020018381526020018281038252604881526020018061450d604891396060019250505060405180910390a160008051602061442c833981519152607e60405180806020018381526020018281038252604881526020018061450d604891396060019250505060405180910390a160008051602061446c833981519152602f60405180806020018381526020018281038252604881526020018061450d604891396060019250505060405180910390a160015460408051600160e41b63028c4f410281526001600160a01b038981166004830152915160009392909216916328c4f4109160248082019260209290919082900301818787803b158015612ef057600080fd5b505af1158015612f04573d6000803e3d6000fd5b505050506040513d6020811015612f1a57600080fd5b505160408051607f60208201819052828252604892820183905292935060008051602061442c83398151915292918190606082019061450d82396060019250505060405180910390a160008051602061446c833981519152603060405180806020018381526020018281038252604881526020018061450d604891396060019250505060405180910390a16001600160a01b038116156131785760008051602061444c833981519152600b600060405180806020018481526020018381526020018281038252604881526020018061450d60489139606001935050505060405180910390a160008051602061442c833981519152608060405180806020018381526020018281038252604881526020018061450d604891396060019250505060405180910390a160008051602061446c833981519152603160405180806020018381526020018281038252604881526020018061450d604891396060019250505060405180910390a1806001600160a01b031663bb4a1d8c858888876040518563ffffffff1660e01b81526004018085815260200184815260200183815260200180602001828103825283818151815260200191508051906020019080838360005b838110156130f45781810151838201526020016130dc565b50505050905090810190601f1680156131215780820380516001836020036101000a031916815260200191505b5095505050505050602060405180830381600087803b15801561314357600080fd5b505af1158015613157573d6000803e3d6000fd5b505050506040513d602081101561316d57600080fd5b5051915061235e9050565b60008051602061444c833981519152600b600160405180806020018481526020018381526020018281038252604881526020018061450d60489139606001935050505060405180910390a160008051602061442c833981519152608260405180806020018381526020018281038252604881526020018061450d604891396060019250505060405180910390a160008051602061446c833981519152603260405180806020018381526020018281038252604881526020018061450d604891396060019250505060405180910390a160408051600160e01b6323b872dd0281523360048201523060248201526044810188905290516001600160a01b038916916323b872dd9160648083019260209291908290030181600087803b15801561329f57600080fd5b505af11580156132b3573d6000803e3d6000fd5b505050506040513d60208110156132c957600080fd5b505060408051608360208201819052828252604892820183905260008051602061442c833981519152929091908190606082019061450d82396060019250505060405180910390a160008051602061446c833981519152603360405180806020018381526020018281038252604881526020018061450d604891396060019250505060405180910390a18591505061235e565b60008051602061448c833981519152600860405180806020018381526020018281038252604881526020018061450d604891396060019250505060405180910390a160008051602061442c833981519152606260405180806020018381526020018281038252604881526020018061450d604891396060019250505060405180910390a160008051602061446c833981519152602160405180806020018381526020018281038252604881526020018061450d604891396060019250505060405180910390a1600060008051602061442c833981519152606360405180806020018381526020018281038252604881526020018061450d604891396060019250505060405180910390a160008051602061446c833981519152602260405180806020018381526020018281038252604881526020018061450d604891396060019250505060405180910390a1600060008051602061442c833981519152606460405180806020018381526020018281038252604881526020018061450d604891396060019250505060405180910390a160008051602061446c833981519152602360405180806020018381526020018281038252604881526020018061450d604891396060019250505060405180910390a160015460408051600160e41b63028c4f410281526001600160a01b038981166004830152915160009392909216916328c4f4109160248082019260209290919082900301818787803b15801561358357600080fd5b505af1158015613597573d6000803e3d6000fd5b505050506040513d60208110156135ad57600080fd5b505160408051606660208201819052828252604892820183905292935060008051602061442c83398151915292918190606082019061450d82396060019250505060405180910390a160008051602061446c833981519152602460405180806020018381526020018281038252604881526020018061450d604891396060019250505060405180910390a16001600160a01b0381161561371e5760008051602061444c8339815191526007600060405180806020018481526020018381526020018281038252604881526020018061450d60489139606001935050505060405180910390a160008051602061442c833981519152606760405180806020018381526020018281038252604881526020018061450d604891396060019250505060405180910390a160008051602061446c833981519152602560405180806020018381526020018281038252604881526020018061450d604891396060019250505060405180910390a13091506137f9565b60008051602061444c8339815191526007600160405180806020018481526020018381526020018281038252604881526020018061450d60489139606001935050505060405180910390a160008051602061442c833981519152606960405180806020018381526020018281038252604881526020018061450d604891396060019250505060405180910390a160008051602061446c833981519152602660405180806020018381526020018281038252604881526020018061450d604891396060019250505060405180910390a16137f68561428e565b91505b60008051602061442c833981519152606c60405180806020018381526020018281038252604881526020018061450d604891396060019250505060405180910390a160008051602061446c833981519152602760405180806020018381526020018281038252604881526020018061450d604891396060019250505060405180910390a16000809054906101000a90046001600160a01b03166001600160a01b03166390f817026040518163ffffffff1660e01b815260040160206040518083038186803b1580156138ca57600080fd5b505afa1580156138de573d6000803e3d6000fd5b505050506040513d60208110156138f457600080fd5b50516001600160a01b0389811691161415613ad65760008051602061444c8339815191526008600060405180806020018481526020018381526020018281038252604881526020018061450d60489139606001935050505060405180910390a160008051602061442c833981519152606d60405180806020018381526020018281038252604881526020018061450d604891396060019250505060405180910390a160008051602061446c833981519152602860405180806020018381526020018281038252604881526020018061450d604891396060019250505060405180910390a160005460408051600160e21b63359af5490281526001600160a01b038a811660048301529151828c169363095ea7b393169163d66bd524916024808301926020929190829003018186803b158015613a2f57600080fd5b505afa158015613a43573d6000803e3d6000fd5b505050506040513d6020811015613a5957600080fd5b50516040805163ffffffff841660e01b81526001600160a01b039092166004830152602482018890525160448083019260209291908290030181600087803b158015613aa457600080fd5b505af1158015613ab8573d6000803e3d6000fd5b505050506040513d6020811015613ace57600080fd5b50613c9f9050565b60008051602061444c8339815191526008600160405180806020018481526020018381526020018281038252604881526020018061450d60489139606001935050505060405180910390a160008051602061442c833981519152606f60405180806020018381526020018281038252604881526020018061450d604891396060019250505060405180910390a160008051602061446c833981519152602960405180806020018381526020018281038252604881526020018061450d604891396060019250505060405180910390a160005460408051600160e21b63359af5490281526001600160a01b03808c16600483018190529251929363095ea7b39391169163d66bd524916024808301926020929190829003018186803b158015613bfd57600080fd5b505afa158015613c11573d6000803e3d6000fd5b505050506040513d6020811015613c2757600080fd5b50516040805163ffffffff841660e01b81526001600160a01b039092166004830152602482018890525160448083019260209291908290030181600087803b158015613c7257600080fd5b505af1158015613c86573d6000803e3d6000fd5b505050506040513d6020811015613c9c57600080fd5b50505b60008051602061442c833981519152607160405180806020018381526020018281038252604881526020018061450d604891396060019250505060405180910390a160008051602061446c833981519152602a60405180806020018381526020018281038252604881526020018061450d604891396060019250505060405180910390a16000805460408051600160e11b636e53a8d30281526001600160a01b0386811660048301528c811660248301528b81166044830152606482018990529151919092169263dca751a692608480820193602093909283900390910190829087803b158015613d8f57600080fd5b505af1158015613da3573d6000803e3d6000fd5b505050506040513d6020811015613db957600080fd5b505160408051607360208201819052828252604892820183905292955060008051602061442c83398151915292918190606082019061450d82396060019250505060405180910390a16000805160206144cd833981519152600960405180806020018381526020018281038252604881526020018061450d604891396060019250505060405180910390a160008051602061446c833981519152602b60405180806020018381526020018281038252604881526020018061450d604891396060019250505060405180910390a1600083118015613e965750858310155b613eea5760408051600160e51b62461bcd02815260206004820152601660248201527f696e76616c6964207265636569766520616d6f756e7400000000000000000000604482015290519081900360640190fd5b6000805160206144ed833981519152600960405180806020018381526020018281038252604881526020018061450d604891396060019250505060405180910390a160008051602061442c833981519152607460405180806020018381526020018281038252604881526020018061450d604891396060019250505060405180910390a160008051602061446c833981519152602c60405180806020018381526020018281038252604881526020018061450d604891396060019250505060405180910390a16001600160a01b038116156141705760008051602061444c833981519152600a600060405180806020018481526020018381526020018281038252604881526020018061450d60489139606001935050505060405180910390a160008051602061442c833981519152607560405180806020018381526020018281038252604881526020018061450d604891396060019250505060405180910390a160008051602061446c833981519152602d60405180806020018381526020018281038252604881526020018061450d604891396060019250505060405180910390a1806001600160a01b0316638723c37786856040518363ffffffff1660e01b81526004018080602001838152602001828103825284818151815260200191508051906020019080838360005b838110156140f15781810151838201526020016140d9565b50505050905090810190601f16801561411e5780820380516001836020036101000a031916815260200191505b509350505050602060405180830381600087803b15801561413e57600080fd5b505af1158015614152573d6000803e3d6000fd5b505050506040513d602081101561416857600080fd5b506141bc9050565b60008051602061444c833981519152600a600160405180806020018481526020018381526020018281038252604881526020018061450d60489139606001935050505060405180910390a15b60008051602061442c833981519152607760405180806020018381526020018281038252604881526020018061450d604891396060019250505060405180910390a160008051602061446c833981519152602e60405180806020018381526020018281038252604881526020018061450d604891396060019250505060405180910390a1604080516001600160a01b03891681526020810185905281517f44e2ab5a6cfe856e15b49f53aec49ff1d9d164735554befaac76ac4dec58af93929181900390910190a15050505050505050565b600060008051602061448c833981519152600a60405180806020018381526020018281038252604881526020018061450d604891396060019250505060405180910390a160008051602061442c833981519152608860405180806020018381526020018281038252604881526020018061450d604891396060019250505060405180910390a160008051602061446c833981519152603460405180806020018381526020018281038252604881526020018061450d604891396060019250505060405180910390a1600060008051602061442c833981519152608a60405180806020018381526020018281038252604881526020018061450d604891396060019250505060405180910390a16014830151905060008051602061442c833981519152608d60405180806020018381526020018281038252604881526020018061450d604891396060019250505060405180910390a160008051602061446c833981519152603560405180806020018381526020018281038252604881526020018061450d604891396060019250505060405180910390a19291505056fe9ec842dcb67074f0f13a5c44e7120e6abac487aea3961e212cea4ced714a2cd1376de2bd479c846cea059ba825ca036d1c5e46b55818b73b9fb0f176b3587d9e97e73c63249899fc447863d3eb13f489154f1c5c7e2f66b49f1e08362ef21a448c5cff5df2277f15d7a6f3a05c683bc9fb78c8a913cc263800bfd54d28ffd515696e73756666696369656e74206261736520746f6b656e20616c6c6f77616e6365ae5361c99257d963e682a4e168ef7c8a7921a68e8fe94b73ba779fddbc599f64d21fa8a36dd30d2c18178ea9dcf3f79101b712d8a34603c29f3c3d1dd660e6622f686f6d652f737573727574682f72656e2f72656e766d2d64656d6f2f657468657265756d2d636f6e7472616374732f636f6e7472616374732f444558416461707465722e736f6ca165627a7a723058201d5bf2b0946cbff5823880acb713448491af22eac0d61ab5be5ee4751b71399200299ec842dcb67074f0f13a5c44e7120e6abac487aea3961e212cea4ced714a2cd197e73c63249899fc447863d3eb13f489154f1c5c7e2f66b49f1e08362ef21a442f686f6d652f737573727574682f72656e2f72656e766d2d64656d6f2f657468657265756d2d636f6e7472616374732f636f6e7472616374732f444558416461707465722e736f6c",
  "source": "pragma solidity ^0.5.8;\n\nimport \"./DEX.sol\";\nimport \"./DEXReserve.sol\";\nimport \"darknode-sol/contracts/Shifter/ShifterRegistry.sol\";\nimport \"darknode-sol/contracts/Shifter/IShifter.sol\";\nimport \"openzeppelin-solidity/contracts/token/ERC20/ERC20.sol\";\n\ncontract DEXAdapter {event __CoverageDEXAdapter(string fileName, uint256 lineNumber);\nevent __FunctionCoverageDEXAdapter(string fileName, uint256 fnId);\nevent __StatementCoverageDEXAdapter(string fileName, uint256 statementId);\nevent __BranchCoverageDEXAdapter(string fileName, uint256 branchId, uint256 locationIdx);\nevent __AssertPreCoverageDEXAdapter(string fileName, uint256 branchId);\nevent __AssertPostCoverageDEXAdapter(string fileName, uint256 branchId);\n\n    DEX public dex;\n    ShifterRegistry public shifterRegistry;\n\n    event LogTransferIn(address src, uint256 amount);\n    event LogTransferOut(address dst, uint256 amount);\n\n    constructor(DEX _dex, ShifterRegistry _shifterRegistry) public {emit __FunctionCoverageDEXAdapter('/home/susruth/ren/renvm-demo/ethereum-contracts/contracts/DEXAdapter.sol',1);\n\nemit __CoverageDEXAdapter('/home/susruth/ren/renvm-demo/ethereum-contracts/contracts/DEXAdapter.sol',17);\n        emit __StatementCoverageDEXAdapter('/home/susruth/ren/renvm-demo/ethereum-contracts/contracts/DEXAdapter.sol',1);\nshifterRegistry = _shifterRegistry;\nemit __CoverageDEXAdapter('/home/susruth/ren/renvm-demo/ethereum-contracts/contracts/DEXAdapter.sol',18);\n        emit __StatementCoverageDEXAdapter('/home/susruth/ren/renvm-demo/ethereum-contracts/contracts/DEXAdapter.sol',2);\ndex = _dex;\n    }\n\n    /// @notice Allow anyone to recover funds accidentally sent to the contract.\n    function recoverTokens(address _token) external {emit __FunctionCoverageDEXAdapter('/home/susruth/ren/renvm-demo/ethereum-contracts/contracts/DEXAdapter.sol',2);\n\nemit __CoverageDEXAdapter('/home/susruth/ren/renvm-demo/ethereum-contracts/contracts/DEXAdapter.sol',23);\n        emit __StatementCoverageDEXAdapter('/home/susruth/ren/renvm-demo/ethereum-contracts/contracts/DEXAdapter.sol',3);\nERC20(_token).transfer(msg.sender, ERC20(_token).balanceOf(address(this)));\n    }\n\n    // TODO: Fix \"Stack too deep\" error!\n    uint256 transferredAmt;\n\n    function trade(\n        // Payload\n        /*uint256 _relayerFee,*/ address _src, address _dst, uint256 _minDstAmt, bytes calldata _to,\n        uint256 _refundBN, bytes calldata _refundAddress,\n        // Required\n        uint256 _amount, bytes32 _nHash, bytes calldata _sig\n    ) external {emit __FunctionCoverageDEXAdapter('/home/susruth/ren/renvm-demo/ethereum-contracts/contracts/DEXAdapter.sol',3);\n\nemit __CoverageDEXAdapter('/home/susruth/ren/renvm-demo/ethereum-contracts/contracts/DEXAdapter.sol',36);\n        transferredAmt;\nemit __CoverageDEXAdapter('/home/susruth/ren/renvm-demo/ethereum-contracts/contracts/DEXAdapter.sol',37);\n        emit __StatementCoverageDEXAdapter('/home/susruth/ren/renvm-demo/ethereum-contracts/contracts/DEXAdapter.sol',4);\nbytes32 pHash = hashTradePayload(_src, _dst, _minDstAmt, _to, _refundBN, _refundAddress);\n        // Handle refunds if the refund block number has passed\nemit __CoverageDEXAdapter('/home/susruth/ren/renvm-demo/ethereum-contracts/contracts/DEXAdapter.sol',39);\n        emit __StatementCoverageDEXAdapter('/home/susruth/ren/renvm-demo/ethereum-contracts/contracts/DEXAdapter.sol',5);\nif (block.number >= _refundBN) {emit __BranchCoverageDEXAdapter('/home/susruth/ren/renvm-demo/ethereum-contracts/contracts/DEXAdapter.sol',1,0);\nemit __CoverageDEXAdapter('/home/susruth/ren/renvm-demo/ethereum-contracts/contracts/DEXAdapter.sol',40);\n            emit __StatementCoverageDEXAdapter('/home/susruth/ren/renvm-demo/ethereum-contracts/contracts/DEXAdapter.sol',6);\nIShifter shifter = shifterRegistry.getShifterByToken(address(_src));\nemit __CoverageDEXAdapter('/home/susruth/ren/renvm-demo/ethereum-contracts/contracts/DEXAdapter.sol',41);\n            emit __StatementCoverageDEXAdapter('/home/susruth/ren/renvm-demo/ethereum-contracts/contracts/DEXAdapter.sol',7);\nif (shifter != IShifter(0x0)) {emit __BranchCoverageDEXAdapter('/home/susruth/ren/renvm-demo/ethereum-contracts/contracts/DEXAdapter.sol',2,0);\nemit __CoverageDEXAdapter('/home/susruth/ren/renvm-demo/ethereum-contracts/contracts/DEXAdapter.sol',42);\n                emit __StatementCoverageDEXAdapter('/home/susruth/ren/renvm-demo/ethereum-contracts/contracts/DEXAdapter.sol',8);\ntransferredAmt = shifter.shiftIn(pHash, _amount, _nHash, _sig);\nemit __CoverageDEXAdapter('/home/susruth/ren/renvm-demo/ethereum-contracts/contracts/DEXAdapter.sol',43);\n                emit __StatementCoverageDEXAdapter('/home/susruth/ren/renvm-demo/ethereum-contracts/contracts/DEXAdapter.sol',9);\nshifter.shiftOut(_refundAddress, transferredAmt);\n            }else { emit __BranchCoverageDEXAdapter('/home/susruth/ren/renvm-demo/ethereum-contracts/contracts/DEXAdapter.sol',2,1);}\n\nemit __CoverageDEXAdapter('/home/susruth/ren/renvm-demo/ethereum-contracts/contracts/DEXAdapter.sol',45);\n            emit __StatementCoverageDEXAdapter('/home/susruth/ren/renvm-demo/ethereum-contracts/contracts/DEXAdapter.sol',10);\nreturn;\n        }else { emit __BranchCoverageDEXAdapter('/home/susruth/ren/renvm-demo/ethereum-contracts/contracts/DEXAdapter.sol',1,1);}\n\n\nemit __CoverageDEXAdapter('/home/susruth/ren/renvm-demo/ethereum-contracts/contracts/DEXAdapter.sol',48);\n        emit __StatementCoverageDEXAdapter('/home/susruth/ren/renvm-demo/ethereum-contracts/contracts/DEXAdapter.sol',11);\ntransferredAmt = _transferIn(_src, _amount, _nHash, pHash, _sig);\nemit __CoverageDEXAdapter('/home/susruth/ren/renvm-demo/ethereum-contracts/contracts/DEXAdapter.sol',49);\n        emit __StatementCoverageDEXAdapter('/home/susruth/ren/renvm-demo/ethereum-contracts/contracts/DEXAdapter.sol',12);\nemit LogTransferIn(_src, transferredAmt);\nemit __CoverageDEXAdapter('/home/susruth/ren/renvm-demo/ethereum-contracts/contracts/DEXAdapter.sol',50);\n        emit __StatementCoverageDEXAdapter('/home/susruth/ren/renvm-demo/ethereum-contracts/contracts/DEXAdapter.sol',13);\n_doTrade(_src, _dst, _minDstAmt, _to, transferredAmt);\n    }\n\n    function hashTradePayload(\n        /*uint256 _relayerFee,*/ address _src, address _dst, uint256 _minDstAmt, bytes memory _to,\n        uint256 _refundBN, bytes memory _refundAddress\n    ) public      returns (bytes32) {emit __FunctionCoverageDEXAdapter('/home/susruth/ren/renvm-demo/ethereum-contracts/contracts/DEXAdapter.sol',4);\n\nemit __CoverageDEXAdapter('/home/susruth/ren/renvm-demo/ethereum-contracts/contracts/DEXAdapter.sol',57);\n        emit __StatementCoverageDEXAdapter('/home/susruth/ren/renvm-demo/ethereum-contracts/contracts/DEXAdapter.sol',14);\nreturn keccak256(abi.encode(_src, _dst, _minDstAmt, _to, _refundBN, _refundAddress));\n    }\n\n    function hashLiquidityPayload(\n        address _liquidityProvider,  uint256 _maxBaseToken, address _token,\n        uint256 _refundBN, bytes memory _refundAddress\n    ) public      returns (bytes32) {emit __FunctionCoverageDEXAdapter('/home/susruth/ren/renvm-demo/ethereum-contracts/contracts/DEXAdapter.sol',5);\n\nemit __CoverageDEXAdapter('/home/susruth/ren/renvm-demo/ethereum-contracts/contracts/DEXAdapter.sol',64);\n        emit __StatementCoverageDEXAdapter('/home/susruth/ren/renvm-demo/ethereum-contracts/contracts/DEXAdapter.sol',15);\nreturn keccak256(abi.encode(_liquidityProvider, _maxBaseToken, _token, _refundBN, _refundAddress));\n    }\n\n    function addLiquidity(\n        address _liquidityProvider,  uint256 _maxBaseToken, address _token, uint256 _deadline, bytes calldata _refundAddress,\n        uint256 _amount, bytes32 _nHash, bytes calldata _sig\n        ) external returns (uint256) {emit __FunctionCoverageDEXAdapter('/home/susruth/ren/renvm-demo/ethereum-contracts/contracts/DEXAdapter.sol',6);\n\nemit __CoverageDEXAdapter('/home/susruth/ren/renvm-demo/ethereum-contracts/contracts/DEXAdapter.sol',71);\n            emit __StatementCoverageDEXAdapter('/home/susruth/ren/renvm-demo/ethereum-contracts/contracts/DEXAdapter.sol',16);\nDEXReserve reserve = dex.reserves(_token);\nemit __CoverageDEXAdapter('/home/susruth/ren/renvm-demo/ethereum-contracts/contracts/DEXAdapter.sol',72);\n            emit __AssertPreCoverageDEXAdapter('/home/susruth/ren/renvm-demo/ethereum-contracts/contracts/DEXAdapter.sol',3);\nemit __StatementCoverageDEXAdapter('/home/susruth/ren/renvm-demo/ethereum-contracts/contracts/DEXAdapter.sol',17);\nrequire(reserve != DEXReserve(0x0), \"unsupported token\");emit __AssertPostCoverageDEXAdapter('/home/susruth/ren/renvm-demo/ethereum-contracts/contracts/DEXAdapter.sol',3);\n\nemit __CoverageDEXAdapter('/home/susruth/ren/renvm-demo/ethereum-contracts/contracts/DEXAdapter.sol',73);\n            emit __StatementCoverageDEXAdapter('/home/susruth/ren/renvm-demo/ethereum-contracts/contracts/DEXAdapter.sol',18);\nbytes32 lpHash = hashLiquidityPayload(_liquidityProvider, _maxBaseToken, _token, _deadline, _refundAddress);\nemit __CoverageDEXAdapter('/home/susruth/ren/renvm-demo/ethereum-contracts/contracts/DEXAdapter.sol',74);\n            emit __StatementCoverageDEXAdapter('/home/susruth/ren/renvm-demo/ethereum-contracts/contracts/DEXAdapter.sol',19);\nif (block.number > _deadline) {emit __BranchCoverageDEXAdapter('/home/susruth/ren/renvm-demo/ethereum-contracts/contracts/DEXAdapter.sol',4,0);\nemit __CoverageDEXAdapter('/home/susruth/ren/renvm-demo/ethereum-contracts/contracts/DEXAdapter.sol',75);\n                emit __StatementCoverageDEXAdapter('/home/susruth/ren/renvm-demo/ethereum-contracts/contracts/DEXAdapter.sol',20);\nuint256 shiftedAmount = shifterRegistry.getShifterByToken(_token).shiftIn(lpHash, _amount, _nHash, _sig);\nemit __CoverageDEXAdapter('/home/susruth/ren/renvm-demo/ethereum-contracts/contracts/DEXAdapter.sol',76);\n                emit __StatementCoverageDEXAdapter('/home/susruth/ren/renvm-demo/ethereum-contracts/contracts/DEXAdapter.sol',21);\nshifterRegistry.getShifterByToken(_token).shiftOut(_refundAddress, shiftedAmount);\nemit __CoverageDEXAdapter('/home/susruth/ren/renvm-demo/ethereum-contracts/contracts/DEXAdapter.sol',77);\n                emit __StatementCoverageDEXAdapter('/home/susruth/ren/renvm-demo/ethereum-contracts/contracts/DEXAdapter.sol',22);\nreturn 0;\n            }else { emit __BranchCoverageDEXAdapter('/home/susruth/ren/renvm-demo/ethereum-contracts/contracts/DEXAdapter.sol',4,1);}\n\nemit __CoverageDEXAdapter('/home/susruth/ren/renvm-demo/ethereum-contracts/contracts/DEXAdapter.sol',79);\n            emit __AssertPreCoverageDEXAdapter('/home/susruth/ren/renvm-demo/ethereum-contracts/contracts/DEXAdapter.sol',5);\nemit __StatementCoverageDEXAdapter('/home/susruth/ren/renvm-demo/ethereum-contracts/contracts/DEXAdapter.sol',23);\nrequire(ERC20(dex.BaseToken()).allowance(_liquidityProvider, address(reserve)) >= _maxBaseToken,\n                \"insufficient base token allowance\");emit __AssertPostCoverageDEXAdapter('/home/susruth/ren/renvm-demo/ethereum-contracts/contracts/DEXAdapter.sol',5);\n\nemit __CoverageDEXAdapter('/home/susruth/ren/renvm-demo/ethereum-contracts/contracts/DEXAdapter.sol',81);\n            emit __StatementCoverageDEXAdapter('/home/susruth/ren/renvm-demo/ethereum-contracts/contracts/DEXAdapter.sol',24);\nuint256 transferredAmount = _transferIn(_token, _amount, _nHash, lpHash, _sig);\nemit __CoverageDEXAdapter('/home/susruth/ren/renvm-demo/ethereum-contracts/contracts/DEXAdapter.sol',82);\n            emit __StatementCoverageDEXAdapter('/home/susruth/ren/renvm-demo/ethereum-contracts/contracts/DEXAdapter.sol',25);\nERC20(_token).approve(address(reserve), transferredAmount);\nemit __CoverageDEXAdapter('/home/susruth/ren/renvm-demo/ethereum-contracts/contracts/DEXAdapter.sol',83);\n            emit __StatementCoverageDEXAdapter('/home/susruth/ren/renvm-demo/ethereum-contracts/contracts/DEXAdapter.sol',26);\nreturn reserve.addLiquidity(_liquidityProvider, _maxBaseToken, transferredAmount, _deadline);\n    }\n\n    function removeLiquidity(address _token, uint256 _liquidity, bytes calldata _tokenAddress) external {emit __FunctionCoverageDEXAdapter('/home/susruth/ren/renvm-demo/ethereum-contracts/contracts/DEXAdapter.sol',7);\n\nemit __CoverageDEXAdapter('/home/susruth/ren/renvm-demo/ethereum-contracts/contracts/DEXAdapter.sol',87);\n        emit __StatementCoverageDEXAdapter('/home/susruth/ren/renvm-demo/ethereum-contracts/contracts/DEXAdapter.sol',27);\nDEXReserve reserve = dex.reserves(_token);\nemit __CoverageDEXAdapter('/home/susruth/ren/renvm-demo/ethereum-contracts/contracts/DEXAdapter.sol',88);\n        emit __AssertPreCoverageDEXAdapter('/home/susruth/ren/renvm-demo/ethereum-contracts/contracts/DEXAdapter.sol',6);\nemit __StatementCoverageDEXAdapter('/home/susruth/ren/renvm-demo/ethereum-contracts/contracts/DEXAdapter.sol',28);\nrequire(reserve != DEXReserve(0x0), \"unsupported token\");emit __AssertPostCoverageDEXAdapter('/home/susruth/ren/renvm-demo/ethereum-contracts/contracts/DEXAdapter.sol',6);\n\nemit __CoverageDEXAdapter('/home/susruth/ren/renvm-demo/ethereum-contracts/contracts/DEXAdapter.sol',89);\n        emit __StatementCoverageDEXAdapter('/home/susruth/ren/renvm-demo/ethereum-contracts/contracts/DEXAdapter.sol',29);\nreserve.transferFrom(msg.sender, address(this), _liquidity);\nemit __CoverageDEXAdapter('/home/susruth/ren/renvm-demo/ethereum-contracts/contracts/DEXAdapter.sol',90);\n        emit __StatementCoverageDEXAdapter('/home/susruth/ren/renvm-demo/ethereum-contracts/contracts/DEXAdapter.sol',30);\n(uint256 baseTokenAmount, uint256 quoteTokenAmount) = reserve.removeLiquidity(_liquidity);\nemit __CoverageDEXAdapter('/home/susruth/ren/renvm-demo/ethereum-contracts/contracts/DEXAdapter.sol',91);\n        emit __StatementCoverageDEXAdapter('/home/susruth/ren/renvm-demo/ethereum-contracts/contracts/DEXAdapter.sol',31);\nreserve.BaseToken().transfer(msg.sender, baseTokenAmount);\nemit __CoverageDEXAdapter('/home/susruth/ren/renvm-demo/ethereum-contracts/contracts/DEXAdapter.sol',92);\n        emit __StatementCoverageDEXAdapter('/home/susruth/ren/renvm-demo/ethereum-contracts/contracts/DEXAdapter.sol',32);\nshifterRegistry.getShifterByToken(address(reserve.Token())).shiftOut(_tokenAddress, quoteTokenAmount);\n    }\n\n    function _doTrade(\n        address _src, address _dst, uint256 _minDstAmt, bytes memory _to, uint256 _amount\n    ) internal {emit __FunctionCoverageDEXAdapter('/home/susruth/ren/renvm-demo/ethereum-contracts/contracts/DEXAdapter.sol',8);\n\nemit __CoverageDEXAdapter('/home/susruth/ren/renvm-demo/ethereum-contracts/contracts/DEXAdapter.sol',98);\n        emit __StatementCoverageDEXAdapter('/home/susruth/ren/renvm-demo/ethereum-contracts/contracts/DEXAdapter.sol',33);\nuint256 recvAmt;\nemit __CoverageDEXAdapter('/home/susruth/ren/renvm-demo/ethereum-contracts/contracts/DEXAdapter.sol',99);\n        emit __StatementCoverageDEXAdapter('/home/susruth/ren/renvm-demo/ethereum-contracts/contracts/DEXAdapter.sol',34);\naddress to;\nemit __CoverageDEXAdapter('/home/susruth/ren/renvm-demo/ethereum-contracts/contracts/DEXAdapter.sol',100);\n        emit __StatementCoverageDEXAdapter('/home/susruth/ren/renvm-demo/ethereum-contracts/contracts/DEXAdapter.sol',35);\nIShifter shifter = shifterRegistry.getShifterByToken(address(_dst));\n\nemit __CoverageDEXAdapter('/home/susruth/ren/renvm-demo/ethereum-contracts/contracts/DEXAdapter.sol',102);\n        emit __StatementCoverageDEXAdapter('/home/susruth/ren/renvm-demo/ethereum-contracts/contracts/DEXAdapter.sol',36);\nif (shifter != IShifter(0x0)) {emit __BranchCoverageDEXAdapter('/home/susruth/ren/renvm-demo/ethereum-contracts/contracts/DEXAdapter.sol',7,0);\nemit __CoverageDEXAdapter('/home/susruth/ren/renvm-demo/ethereum-contracts/contracts/DEXAdapter.sol',103);\n            emit __StatementCoverageDEXAdapter('/home/susruth/ren/renvm-demo/ethereum-contracts/contracts/DEXAdapter.sol',37);\nto = address(this);\n        } else {emit __BranchCoverageDEXAdapter('/home/susruth/ren/renvm-demo/ethereum-contracts/contracts/DEXAdapter.sol',7,1);\nemit __CoverageDEXAdapter('/home/susruth/ren/renvm-demo/ethereum-contracts/contracts/DEXAdapter.sol',105);\n            emit __StatementCoverageDEXAdapter('/home/susruth/ren/renvm-demo/ethereum-contracts/contracts/DEXAdapter.sol',38);\nto = _bytesToAddress(_to);\n        }\n\nemit __CoverageDEXAdapter('/home/susruth/ren/renvm-demo/ethereum-contracts/contracts/DEXAdapter.sol',108);\n        emit __StatementCoverageDEXAdapter('/home/susruth/ren/renvm-demo/ethereum-contracts/contracts/DEXAdapter.sol',39);\nif (_src == dex.BaseToken()) {emit __BranchCoverageDEXAdapter('/home/susruth/ren/renvm-demo/ethereum-contracts/contracts/DEXAdapter.sol',8,0);\nemit __CoverageDEXAdapter('/home/susruth/ren/renvm-demo/ethereum-contracts/contracts/DEXAdapter.sol',109);\n            emit __StatementCoverageDEXAdapter('/home/susruth/ren/renvm-demo/ethereum-contracts/contracts/DEXAdapter.sol',40);\nERC20(_src).approve(address(dex.reserves(_dst)), _amount);\n        } else {emit __BranchCoverageDEXAdapter('/home/susruth/ren/renvm-demo/ethereum-contracts/contracts/DEXAdapter.sol',8,1);\nemit __CoverageDEXAdapter('/home/susruth/ren/renvm-demo/ethereum-contracts/contracts/DEXAdapter.sol',111);\n            emit __StatementCoverageDEXAdapter('/home/susruth/ren/renvm-demo/ethereum-contracts/contracts/DEXAdapter.sol',41);\nERC20(_src).approve(address(dex.reserves(_src)), _amount);\n        }\nemit __CoverageDEXAdapter('/home/susruth/ren/renvm-demo/ethereum-contracts/contracts/DEXAdapter.sol',113);\n        emit __StatementCoverageDEXAdapter('/home/susruth/ren/renvm-demo/ethereum-contracts/contracts/DEXAdapter.sol',42);\nrecvAmt = dex.trade(to, _src, _dst, _amount);\n\nemit __CoverageDEXAdapter('/home/susruth/ren/renvm-demo/ethereum-contracts/contracts/DEXAdapter.sol',115);\n        emit __AssertPreCoverageDEXAdapter('/home/susruth/ren/renvm-demo/ethereum-contracts/contracts/DEXAdapter.sol',9);\nemit __StatementCoverageDEXAdapter('/home/susruth/ren/renvm-demo/ethereum-contracts/contracts/DEXAdapter.sol',43);\nrequire(recvAmt > 0 && recvAmt >= _minDstAmt, \"invalid receive amount\");emit __AssertPostCoverageDEXAdapter('/home/susruth/ren/renvm-demo/ethereum-contracts/contracts/DEXAdapter.sol',9);\n\nemit __CoverageDEXAdapter('/home/susruth/ren/renvm-demo/ethereum-contracts/contracts/DEXAdapter.sol',116);\n        emit __StatementCoverageDEXAdapter('/home/susruth/ren/renvm-demo/ethereum-contracts/contracts/DEXAdapter.sol',44);\nif (shifter != IShifter(0x0)) {emit __BranchCoverageDEXAdapter('/home/susruth/ren/renvm-demo/ethereum-contracts/contracts/DEXAdapter.sol',10,0);\nemit __CoverageDEXAdapter('/home/susruth/ren/renvm-demo/ethereum-contracts/contracts/DEXAdapter.sol',117);\n            emit __StatementCoverageDEXAdapter('/home/susruth/ren/renvm-demo/ethereum-contracts/contracts/DEXAdapter.sol',45);\nshifter.shiftOut(_to, recvAmt);\n        }else { emit __BranchCoverageDEXAdapter('/home/susruth/ren/renvm-demo/ethereum-contracts/contracts/DEXAdapter.sol',10,1);}\n\nemit __CoverageDEXAdapter('/home/susruth/ren/renvm-demo/ethereum-contracts/contracts/DEXAdapter.sol',119);\n        emit __StatementCoverageDEXAdapter('/home/susruth/ren/renvm-demo/ethereum-contracts/contracts/DEXAdapter.sol',46);\nemit LogTransferOut(_dst, recvAmt);\n    }\n\n    function _transferIn(\n        /*uint256 _relayerFee,*/ address _src, uint256 _amount,\n        bytes32 _nHash, bytes32 _pHash, bytes memory _sig\n    ) internal returns (uint256) {emit __FunctionCoverageDEXAdapter('/home/susruth/ren/renvm-demo/ethereum-contracts/contracts/DEXAdapter.sol',9);\n\nemit __CoverageDEXAdapter('/home/susruth/ren/renvm-demo/ethereum-contracts/contracts/DEXAdapter.sol',126);\n        emit __StatementCoverageDEXAdapter('/home/susruth/ren/renvm-demo/ethereum-contracts/contracts/DEXAdapter.sol',47);\nIShifter shifter = shifterRegistry.getShifterByToken(address(_src));\nemit __CoverageDEXAdapter('/home/susruth/ren/renvm-demo/ethereum-contracts/contracts/DEXAdapter.sol',127);\n        emit __StatementCoverageDEXAdapter('/home/susruth/ren/renvm-demo/ethereum-contracts/contracts/DEXAdapter.sol',48);\nif (shifter != IShifter(0x0)) {emit __BranchCoverageDEXAdapter('/home/susruth/ren/renvm-demo/ethereum-contracts/contracts/DEXAdapter.sol',11,0);\nemit __CoverageDEXAdapter('/home/susruth/ren/renvm-demo/ethereum-contracts/contracts/DEXAdapter.sol',128);\n            emit __StatementCoverageDEXAdapter('/home/susruth/ren/renvm-demo/ethereum-contracts/contracts/DEXAdapter.sol',49);\nreturn shifter.shiftIn(_pHash, _amount, _nHash, _sig);\n        } else {emit __BranchCoverageDEXAdapter('/home/susruth/ren/renvm-demo/ethereum-contracts/contracts/DEXAdapter.sol',11,1);\nemit __CoverageDEXAdapter('/home/susruth/ren/renvm-demo/ethereum-contracts/contracts/DEXAdapter.sol',130);\n            emit __StatementCoverageDEXAdapter('/home/susruth/ren/renvm-demo/ethereum-contracts/contracts/DEXAdapter.sol',50);\nERC20(_src).transferFrom(msg.sender, address(this), _amount);\nemit __CoverageDEXAdapter('/home/susruth/ren/renvm-demo/ethereum-contracts/contracts/DEXAdapter.sol',131);\n            emit __StatementCoverageDEXAdapter('/home/susruth/ren/renvm-demo/ethereum-contracts/contracts/DEXAdapter.sol',51);\nreturn _amount;\n        }\n    }\n\n    function _bytesToAddress(bytes memory _addr) internal      returns (address) {emit __FunctionCoverageDEXAdapter('/home/susruth/ren/renvm-demo/ethereum-contracts/contracts/DEXAdapter.sol',10);\n\nemit __CoverageDEXAdapter('/home/susruth/ren/renvm-demo/ethereum-contracts/contracts/DEXAdapter.sol',136);\n        emit __StatementCoverageDEXAdapter('/home/susruth/ren/renvm-demo/ethereum-contracts/contracts/DEXAdapter.sol',52);\naddress addr;\n        /* solhint-disable-next-line */ /* solium-disable-next-line */\nemit __CoverageDEXAdapter('/home/susruth/ren/renvm-demo/ethereum-contracts/contracts/DEXAdapter.sol',138);\n        assembly {\n            addr := mload(add(_addr, 20))\n        }\nemit __CoverageDEXAdapter('/home/susruth/ren/renvm-demo/ethereum-contracts/contracts/DEXAdapter.sol',141);\n        emit __StatementCoverageDEXAdapter('/home/susruth/ren/renvm-demo/ethereum-contracts/contracts/DEXAdapter.sol',53);\nreturn addr;\n    }\n\n    function calculateReceiveAmount(address _src, address _dst, uint256 _sendAmount) public      returns (uint256) {emit __FunctionCoverageDEXAdapter('/home/susruth/ren/renvm-demo/ethereum-contracts/contracts/DEXAdapter.sol',11);\n\nemit __CoverageDEXAdapter('/home/susruth/ren/renvm-demo/ethereum-contracts/contracts/DEXAdapter.sol',145);\n        emit __StatementCoverageDEXAdapter('/home/susruth/ren/renvm-demo/ethereum-contracts/contracts/DEXAdapter.sol',54);\nreturn dex.calculateReceiveAmount(_src, _dst, _sendAmount);\n    }\n}",
  "sourcePath": "/home/susruth/ren/renvm-demo/ethereum-contracts/coverageEnv/contracts/DEXAdapter.sol",
  "compiler": {
    "name": "solc",
    "version": "0.5.8+commit.23d335f2.Emscripten.clang"
  },
  "schemaVersion": "3.0.16",
  "updatedAt": "2019-10-25T05:03:01.651Z",
  "devdoc": {
    "methods": {}
  },
  "userdoc": {
    "methods": {
      "recoverTokens(address)": {
        "notice": "Allow anyone to recover funds accidentally sent to the contract."
      }
    }
  }
}