{
  "contractName": "BTC_DAI_Reserve",
  "abi": [
    {
      "constant": false,
      "inputs": [
        {
          "name": "spender",
          "type": "address"
        },
        {
          "name": "value",
          "type": "uint256"
        }
      ],
      "name": "approve",
      "outputs": [
        {
          "name": "",
          "type": "bool"
        }
      ],
      "payable": false,
      "stateMutability": "nonpayable",
      "type": "function"
    },
    {
      "constant": false,
      "inputs": [
        {
          "name": "_to",
          "type": "address"
        },
        {
          "name": "_from",
          "type": "address"
        },
        {
          "name": "_baseTokenAmount",
          "type": "uint256"
        }
      ],
      "name": "buy",
      "outputs": [
        {
          "name": "",
          "type": "uint256"
        }
      ],
      "payable": false,
      "stateMutability": "nonpayable",
      "type": "function"
    },
    {
      "constant": true,
      "inputs": [],
      "name": "totalSupply",
      "outputs": [
        {
          "name": "",
          "type": "uint256"
        }
      ],
      "payable": false,
      "stateMutability": "view",
      "type": "function"
    },
    {
      "constant": false,
      "inputs": [
        {
          "name": "_liquidiyProvider",
          "type": "address"
        },
        {
          "name": "_maxBaseToken",
          "type": "uint256"
        },
        {
          "name": "_tokenAmount",
          "type": "uint256"
        },
        {
          "name": "_deadline",
          "type": "uint256"
        }
      ],
      "name": "addLiquidity",
      "outputs": [
        {
          "name": "",
          "type": "uint256"
        }
      ],
      "payable": false,
      "stateMutability": "nonpayable",
      "type": "function"
    },
    {
      "constant": false,
      "inputs": [
        {
          "name": "sender",
          "type": "address"
        },
        {
          "name": "recipient",
          "type": "address"
        },
        {
          "name": "amount",
          "type": "uint256"
        }
      ],
      "name": "transferFrom",
      "outputs": [
        {
          "name": "",
          "type": "bool"
        }
      ],
      "payable": false,
      "stateMutability": "nonpayable",
      "type": "function"
    },
    {
      "constant": false,
      "inputs": [
        {
          "name": "spender",
          "type": "address"
        },
        {
          "name": "addedValue",
          "type": "uint256"
        }
      ],
      "name": "increaseAllowance",
      "outputs": [
        {
          "name": "",
          "type": "bool"
        }
      ],
      "payable": false,
      "stateMutability": "nonpayable",
      "type": "function"
    },
    {
      "constant": true,
      "inputs": [
        {
          "name": "_liquidity",
          "type": "uint256"
        }
      ],
      "name": "calculateQuoteTokenValue",
      "outputs": [
        {
          "name": "",
          "type": "uint256"
        }
      ],
      "payable": false,
      "stateMutability": "view",
      "type": "function"
    },
    {
      "constant": true,
      "inputs": [
        {
          "name": "_quoteTokenAmount",
          "type": "uint256"
        }
      ],
      "name": "expectedBaseTokenAmount",
      "outputs": [
        {
          "name": "",
          "type": "uint256"
        }
      ],
      "payable": false,
      "stateMutability": "view",
      "type": "function"
    },
    {
      "constant": true,
      "inputs": [
        {
          "name": "account",
          "type": "address"
        }
      ],
      "name": "balanceOf",
      "outputs": [
        {
          "name": "",
          "type": "uint256"
        }
      ],
      "payable": false,
      "stateMutability": "view",
      "type": "function"
    },
    {
      "constant": true,
      "inputs": [],
      "name": "BaseToken",
      "outputs": [
        {
          "name": "",
          "type": "address"
        }
      ],
      "payable": false,
      "stateMutability": "view",
      "type": "function"
    },
    {
      "constant": false,
      "inputs": [
        {
          "name": "_liquidity",
          "type": "uint256"
        }
      ],
      "name": "removeLiquidity",
      "outputs": [
        {
          "name": "",
          "type": "uint256"
        },
        {
          "name": "",
          "type": "uint256"
        }
      ],
      "payable": false,
      "stateMutability": "nonpayable",
      "type": "function"
    },
    {
      "constant": false,
      "inputs": [
        {
          "name": "spender",
          "type": "address"
        },
        {
          "name": "subtractedValue",
          "type": "uint256"
        }
      ],
      "name": "decreaseAllowance",
      "outputs": [
        {
          "name": "",
          "type": "bool"
        }
      ],
      "payable": false,
      "stateMutability": "nonpayable",
      "type": "function"
    },
    {
      "constant": false,
      "inputs": [
        {
          "name": "recipient",
          "type": "address"
        },
        {
          "name": "amount",
          "type": "uint256"
        }
      ],
      "name": "transfer",
      "outputs": [
        {
          "name": "",
          "type": "bool"
        }
      ],
      "payable": false,
      "stateMutability": "nonpayable",
      "type": "function"
    },
    {
      "constant": true,
      "inputs": [
        {
          "name": "_sendAmt",
          "type": "uint256"
        }
      ],
      "name": "calculateSellRcvAmt",
      "outputs": [
        {
          "name": "",
          "type": "uint256"
        }
      ],
      "payable": false,
      "stateMutability": "view",
      "type": "function"
    },
    {
      "constant": true,
      "inputs": [
        {
          "name": "_liquidity",
          "type": "uint256"
        }
      ],
      "name": "calculateBaseTokenValue",
      "outputs": [
        {
          "name": "",
          "type": "uint256"
        }
      ],
      "payable": false,
      "stateMutability": "view",
      "type": "function"
    },
    {
      "constant": true,
      "inputs": [],
      "name": "Token",
      "outputs": [
        {
          "name": "",
          "type": "address"
        }
      ],
      "payable": false,
      "stateMutability": "view",
      "type": "function"
    },
    {
      "constant": false,
      "inputs": [
        {
          "name": "_to",
          "type": "address"
        },
        {
          "name": "_from",
          "type": "address"
        },
        {
          "name": "_tokenAmount",
          "type": "uint256"
        }
      ],
      "name": "sell",
      "outputs": [
        {
          "name": "",
          "type": "uint256"
        }
      ],
      "payable": false,
      "stateMutability": "nonpayable",
      "type": "function"
    },
    {
      "constant": true,
      "inputs": [
        {
          "name": "_sendAmt",
          "type": "uint256"
        }
      ],
      "name": "calculateBuyRcvAmt",
      "outputs": [
        {
          "name": "",
          "type": "uint256"
        }
      ],
      "payable": false,
      "stateMutability": "view",
      "type": "function"
    },
    {
      "constant": true,
      "inputs": [
        {
          "name": "owner",
          "type": "address"
        },
        {
          "name": "spender",
          "type": "address"
        }
      ],
      "name": "allowance",
      "outputs": [
        {
          "name": "",
          "type": "uint256"
        }
      ],
      "payable": false,
      "stateMutability": "view",
      "type": "function"
    },
    {
      "inputs": [
        {
          "name": "_baseToken",
          "type": "address"
        },
        {
          "name": "_token",
          "type": "address"
        },
        {
          "name": "_feeInBIPS",
          "type": "uint256"
        }
      ],
      "payable": false,
      "stateMutability": "nonpayable",
      "type": "constructor"
    },
    {
      "anonymous": false,
      "inputs": [
        {
          "indexed": false,
          "name": "_liquidityProvider",
          "type": "address"
        },
        {
          "indexed": false,
          "name": "_tokenAmount",
          "type": "uint256"
        },
        {
          "indexed": false,
          "name": "_baseTokenAmount",
          "type": "uint256"
        }
      ],
      "name": "LogAddLiquidity",
      "type": "event"
    },
    {
      "anonymous": false,
      "inputs": [
        {
          "indexed": false,
          "name": "_rcvAmount",
          "type": "uint256"
        }
      ],
      "name": "LogDebug",
      "type": "event"
    },
    {
      "anonymous": false,
      "inputs": [
        {
          "indexed": true,
          "name": "from",
          "type": "address"
        },
        {
          "indexed": true,
          "name": "to",
          "type": "address"
        },
        {
          "indexed": false,
          "name": "value",
          "type": "uint256"
        }
      ],
      "name": "Transfer",
      "type": "event"
    },
    {
      "anonymous": false,
      "inputs": [
        {
          "indexed": true,
          "name": "owner",
          "type": "address"
        },
        {
          "indexed": true,
          "name": "spender",
          "type": "address"
        },
        {
          "indexed": false,
          "name": "value",
          "type": "uint256"
        }
      ],
      "name": "Approval",
      "type": "event"
    }
  ],
  "bytecode": "0x608060405234801561001057600080fd5b50604051606080611bd68339810180604052606081101561003057600080fd5b5080516020820151604090920151600480546001600160a01b039384166001600160a01b0319918216179091556005805493909416921691909117909155600355611b56806100806000396000f3fe608060405234801561001057600080fd5b50600436106101215760003560e01c806390f81702116100ad578063b93e70a411610071578063b93e70a41461037f578063c24126761461039c578063cae270b6146103a4578063d1e88c72146103da578063dd62ed3e146103f757610121565b806390f81702146102b05780639c8f9f23146102d4578063a457c2d71461030a578063a9059cbb14610336578063b4d5fa7f1461036257610121565b806323b872dd116100f457806323b872dd146101ee57806339509351146102245780633d74fc4b146102505780634b90ad541461026d57806370a082311461028a57610121565b8063095ea7b314610126578063153e66e61461016657806318160ddd146101ae5780631ece366a146101b6575b600080fd5b6101526004803603604081101561013c57600080fd5b506001600160a01b038135169060200135610425565b604080519115158252519081900360200190f35b61019c6004803603606081101561017c57600080fd5b506001600160a01b0381358116916020810135909116906040013561043c565b60408051918252519081900360200190f35b61019c6106e6565b61019c600480360360808110156101cc57600080fd5b506001600160a01b0381351690602081013590604081013590606001356106ec565b6101526004803603606081101561020457600080fd5b506001600160a01b03813581169160208101359091169060400135610ab0565b6101526004803603604081101561023a57600080fd5b506001600160a01b038135169060200135610b07565b61019c6004803603602081101561026657600080fd5b5035610b43565b61019c6004803603602081101561028357600080fd5b5035610c2d565b61019c600480360360208110156102a057600080fd5b50356001600160a01b0316610d42565b6102b8610d5d565b604080516001600160a01b039092168252519081900360200190f35b6102f1600480360360208110156102ea57600080fd5b5035610d6c565b6040805192835260208301919091528051918290030190f35b6101526004803603604081101561032057600080fd5b506001600160a01b038135169060200135610f04565b6101526004803603604081101561034c57600080fd5b506001600160a01b038135169060200135610f40565b61019c6004803603602081101561037857600080fd5b5035610f4d565b61019c6004803603602081101561039557600080fd5b50356110a8565b6102b861114e565b61019c600480360360608110156103ba57600080fd5b506001600160a01b0381358116916020810135909116906040013561115d565b61019c600480360360208110156103f057600080fd5b5035611330565b61019c6004803603604081101561040d57600080fd5b506001600160a01b038135811691602001351661145a565b6000610432338484611485565b5060015b92915050565b60006104466106e6565b61049a5760408051600160e51b62461bcd02815260206004820152601460248201527f7265736572766520686173206e6f2066756e6473000000000000000000000000604482015290519081900360640190fd5b60006104a583611330565b6004805460408051600160e01b6323b872dd0281526001600160a01b03898116948201949094523060248201526044810188905290519394509116916323b872dd916064808201926020929091908290030181600087803b15801561050957600080fd5b505af115801561051d573d6000803e3d6000fd5b505050506040513d602081101561053357600080fd5b505060055460408051600160e01b6370a0823102815230600482015290516001600160a01b03909216916370a0823191602480820192602092909190829003018186803b15801561058357600080fd5b505afa158015610597573d6000803e3d6000fd5b505050506040513d60208110156105ad57600080fd5b505181106106055760408051600160e51b62461bcd02815260206004820152601460248201527f696e73756666696369656e742062616c616e6365000000000000000000000000604482015290519081900360640190fd5b60055460408051600160e01b63a9059cbb0281526001600160a01b038881166004830152602482018590529151919092169163a9059cbb9160448083019260209291908290030181600087803b15801561065e57600080fd5b505af1158015610672573d6000803e3d6000fd5b505050506040513d602081101561068857600080fd5b50516106de5760408051600160e51b62461bcd02815260206004820152601e60248201527f6661696c656420746f207472616e736665722071756f746520746f6b656e0000604482015290519081900360640190fd5b949350505050565b60025490565b60004382116107455760408051600160e51b62461bcd02815260206004820152601c60248201527f6164644c69717569646974792072657175657374206578706972656400000000604482015290519081900360640190fd5b60055460408051600160e01b6323b872dd0281523360048201523060248201526044810186905290516001600160a01b03909216916323b872dd916064808201926020929091908290030181600087803b1580156107a257600080fd5b505af11580156107b6573d6000803e3d6000fd5b505050506040513d60208110156107cc57600080fd5b50600090506107d96106e6565b111561096b576000831161082157604051600160e51b62461bcd02815260040180806020018281038252602c815260200180611a74602c913960400191505060405180910390fd5b600061082c84610c2d565b905084811080156108c857506004805460408051600160e01b6323b872dd0281526001600160a01b038a81169482019490945230602482015260448101859052905192909116916323b872dd916064808201926020929091908290030181600087803b15801561089b57600080fd5b505af11580156108af573d6000803e3d6000fd5b505050506040513d60208110156108c557600080fd5b50515b61091c5760408051600160e51b62461bcd02815260206004820152601d60248201527f6661696c656420746f207472616e73666572206261736520746f6b656e000000604482015290519081900360640190fd5b604080516001600160a01b03881681526020810186905280820183905290517f181674bd5cf175c47c164c13df571685a06664e17a0dff9ad3473062a4d95b3a9181900360600190a150610a98565b6004805460408051600160e01b6323b872dd0281526001600160a01b038981169482019490945230602482015260448101889052905192909116916323b872dd916064808201926020929091908290030181600087803b1580156109ce57600080fd5b505af11580156109e2573d6000803e3d6000fd5b505050506040513d60208110156109f857600080fd5b5051610a4e5760408051600160e51b62461bcd02815260206004820152601d60248201527f6661696c656420746f207472616e73666572206261736520746f6b656e000000604482015290519081900360640190fd5b604080516001600160a01b03871681526020810185905280820186905290517f181674bd5cf175c47c164c13df571685a06664e17a0dff9ad3473062a4d95b3a9181900360600190a15b610aa58584600202611577565b505060020292915050565b6000610abd84848461166a565b6001600160a01b038416600090815260016020908152604080832033808552925290912054610afd918691610af8908663ffffffff6117b216565b611485565b5060019392505050565b3360008181526001602090815260408083206001600160a01b03871684529091528120549091610432918590610af8908663ffffffff61181216565b6000610b4d6106e6565b610b975760408051600160e51b62461bcd0281526020600482015260106024820152600160801b6f4469766973696f6e206279205a65726f02604482015290519081900360640190fd5b60055460408051600160e01b6370a0823102815230600482015290516000926001600160a01b0316916370a08231916024808301926020929190829003018186803b158015610be557600080fd5b505afa158015610bf9573d6000803e3d6000fd5b505050506040513d6020811015610c0f57600080fd5b50519050610c1b6106e6565b81840281610c2557fe5b049392505050565b6004805460408051600160e01b6370a0823102815230938101939093525160009283926001600160a01b0316916370a0823191602480820192602092909190829003018186803b158015610c8057600080fd5b505afa158015610c94573d6000803e3d6000fd5b505050506040513d6020811015610caa57600080fd5b505160055460408051600160e01b6370a0823102815230600482015290519293506000926001600160a01b03909216916370a0823191602480820192602092909190829003018186803b158015610d0057600080fd5b505afa158015610d14573d6000803e3d6000fd5b505050506040513d6020811015610d2a57600080fd5b505190508084830281610d3957fe5b04949350505050565b6001600160a01b031660009081526020819052604090205490565b6004546001600160a01b031681565b60008082610d7933610d42565b1015610dcf5760408051600160e51b62461bcd02815260206004820152601460248201527f696e73756666696369656e742062616c616e6365000000000000000000000000604482015290519081900360640190fd5b6000610dda846110a8565b90506000610de785610b43565b9050610df33386611876565b6004805460408051600160e01b63a9059cbb028152339381019390935260248301859052516001600160a01b039091169163a9059cbb9160448083019260209291908290030181600087803b158015610e4b57600080fd5b505af1158015610e5f573d6000803e3d6000fd5b505050506040513d6020811015610e7557600080fd5b505060055460408051600160e01b63a9059cbb0281523360048201526024810184905290516001600160a01b039092169163a9059cbb916044808201926020929091908290030181600087803b158015610ece57600080fd5b505af1158015610ee2573d6000803e3d6000fd5b505050506040513d6020811015610ef857600080fd5b50919350915050915091565b3360008181526001602090815260408083206001600160a01b03871684529091528120549091610432918590610af8908663ffffffff6117b216565b600061043233848461166a565b6004805460408051600160e01b6370a0823102815230938101939093525160009283926001600160a01b0316916370a0823191602480820192602092909190829003018186803b158015610fa057600080fd5b505afa158015610fb4573d6000803e3d6000fd5b505050506040513d6020811015610fca57600080fd5b505160055460408051600160e01b6370a0823102815230600482015290519293506000926001600160a01b03909216916370a0823191602480820192602092909190829003018186803b15801561102057600080fd5b505afa158015611034573d6000803e3d6000fd5b505050506040513d602081101561104a57600080fd5b50519050600061107f611063838763ffffffff61181216565b611073858563ffffffff61195216565b9063ffffffff6119ae16565b90506000611093848363ffffffff6117b216565b905061109e81611a12565b9695505050505050565b60006110b26106e6565b6110fc5760408051600160e51b62461bcd0281526020600482015260106024820152600160801b6f4469766973696f6e206279205a65726f02604482015290519081900360640190fd5b6004805460408051600160e01b6370a082310281523093810193909352516000926001600160a01b03909216916370a08231916024808301926020929190829003018186803b158015610be557600080fd5b6005546001600160a01b031681565b60006111676106e6565b6111bb5760408051600160e51b62461bcd02815260206004820152601460248201527f7265736572766520686173206e6f2066756e6473000000000000000000000000604482015290519081900360640190fd5b60006111c683610f4d565b60055460408051600160e01b6323b872dd0281526001600160a01b0388811660048301523060248301526044820188905291519394509116916323b872dd916064808201926020929091908290030181600087803b15801561122757600080fd5b505af115801561123b573d6000803e3d6000fd5b505050506040513d602081101561125157600080fd5b50506004805460408051600160e01b63a9059cbb0281526001600160a01b0389811694820194909452602481018590529051929091169163a9059cbb916044808201926020929091908290030181600087803b1580156112b057600080fd5b505af11580156112c4573d6000803e3d6000fd5b505050506040513d60208110156112da57600080fd5b50516106de5760408051600160e51b62461bcd02815260206004820152601d60248201527f6661696c656420746f207472616e73666572206261736520746f6b656e000000604482015290519081900360640190fd5b6004805460408051600160e01b6370a0823102815230938101939093525160009283926001600160a01b0316916370a0823191602480820192602092909190829003018186803b15801561138357600080fd5b505afa158015611397573d6000803e3d6000fd5b505050506040513d60208110156113ad57600080fd5b505160055460408051600160e01b6370a0823102815230600482015290519293506000926001600160a01b03909216916370a0823191602480820192602092909190829003018186803b15801561140357600080fd5b505afa158015611417573d6000803e3d6000fd5b505050506040513d602081101561142d57600080fd5b505190506000611446611063848763ffffffff61181216565b90506000611093838363ffffffff6117b216565b6001600160a01b03918216600090815260016020908152604080832093909416825291909152205490565b6001600160a01b0383166114cd57604051600160e51b62461bcd028152600401808060200182810382526024815260200180611b076024913960400191505060405180910390fd5b6001600160a01b03821661151557604051600160e51b62461bcd028152600401808060200182810382526022815260200180611a526022913960400191505060405180910390fd5b6001600160a01b03808416600081815260016020908152604080832094871680845294825291829020859055815185815291517f8c5be1e5ebec7d5bd14f71427d1e84f3dd0314c0f7b2291e5b200ac8c7c3b9259281900390910190a3505050565b6001600160a01b0382166115d55760408051600160e51b62461bcd02815260206004820152601f60248201527f45524332303a206d696e7420746f20746865207a65726f206164647265737300604482015290519081900360640190fd5b6002546115e8908263ffffffff61181216565b6002556001600160a01b038216600090815260208190526040902054611614908263ffffffff61181216565b6001600160a01b0383166000818152602081815260408083209490945583518581529351929391927fddf252ad1be2c89b69c2b068fc378daa952ba7f163c4a11628f55a4df523b3ef9281900390910190a35050565b6001600160a01b0383166116b257604051600160e51b62461bcd028152600401808060200182810382526025815260200180611ae26025913960400191505060405180910390fd5b6001600160a01b0382166116fa57604051600160e51b62461bcd028152600401808060200182810382526023815260200180611a2f6023913960400191505060405180910390fd5b6001600160a01b038316600090815260208190526040902054611723908263ffffffff6117b216565b6001600160a01b038085166000908152602081905260408082209390935590841681522054611758908263ffffffff61181216565b6001600160a01b038084166000818152602081815260409182902094909455805185815290519193928716927fddf252ad1be2c89b69c2b068fc378daa952ba7f163c4a11628f55a4df523b3ef92918290030190a3505050565b60008282111561180c5760408051600160e51b62461bcd02815260206004820152601e60248201527f536166654d6174683a207375627472616374696f6e206f766572666c6f770000604482015290519081900360640190fd5b50900390565b60008282018381101561186f5760408051600160e51b62461bcd02815260206004820152601b60248201527f536166654d6174683a206164646974696f6e206f766572666c6f770000000000604482015290519081900360640190fd5b9392505050565b6001600160a01b0382166118be57604051600160e51b62461bcd028152600401808060200182810382526021815260200180611ac16021913960400191505060405180910390fd5b6002546118d1908263ffffffff6117b216565b6002556001600160a01b0382166000908152602081905260409020546118fd908263ffffffff6117b216565b6001600160a01b038316600081815260208181526040808320949094558351858152935191937fddf252ad1be2c89b69c2b068fc378daa952ba7f163c4a11628f55a4df523b3ef929081900390910190a35050565b60008261196157506000610436565b8282028284828161196e57fe5b041461186f57604051600160e51b62461bcd028152600401808060200182810382526021815260200180611aa06021913960400191505060405180910390fd5b6000808211611a075760408051600160e51b62461bcd02815260206004820152601a60248201527f536166654d6174683a206469766973696f6e206279207a65726f000000000000604482015290519081900360640190fd5b6000828481610d3957fe5b600061271060035461271003830281611a2757fe5b049291505056fe45524332303a207472616e7366657220746f20746865207a65726f206164647265737345524332303a20617070726f766520746f20746865207a65726f2061646472657373746f6b656e20616d6f756e74206973206c657373207468616e20616c6c6f776564206d696e20616d6f756e74536166654d6174683a206d756c7469706c69636174696f6e206f766572666c6f7745524332303a206275726e2066726f6d20746865207a65726f206164647265737345524332303a207472616e736665722066726f6d20746865207a65726f206164647265737345524332303a20617070726f76652066726f6d20746865207a65726f2061646472657373a165627a7a723058205af17765e9133bd77f2edc97b3a2bdfe7f8d5656cd897b88dbc3947b3157ec610029",
  "source": "pragma solidity ^0.5.8;\n\nimport \"darknode-sol/contracts/Shifter/Shifter.sol\";\nimport \"openzeppelin-solidity/contracts/token/ERC20/ERC20.sol\";\nimport \"openzeppelin-solidity/contracts/math/SafeMath.sol\";\n\ncontract DEXReserve is ERC20 {\n    uint256 FeeInBIPS;\n    ERC20 public BaseToken;\n    ERC20 public Token;\n    event LogAddLiquidity(address _liquidityProvider, uint256 _tokenAmount, uint256 _baseTokenAmount);\n    event LogDebug(uint256 _rcvAmount);\n\n    constructor (ERC20 _baseToken, ERC20 _token, uint256 _feeInBIPS) public {\n        BaseToken = _baseToken;\n        Token = _token;\n        FeeInBIPS = _feeInBIPS;\n    }\n\n    function buy(address _to, address _from, uint256 _baseTokenAmount) external returns (uint256)  {\n        require(totalSupply() != 0, \"reserve has no funds\");\n        uint256 rcvAmount = calculateBuyRcvAmt(_baseTokenAmount);\n        BaseToken.transferFrom(_from, address(this), _baseTokenAmount);\n        require(rcvAmount < Token.balanceOf(address(this)), \"insufficient balance\");\n        require(Token.transfer(_to, rcvAmount), \"failed to transfer quote token\");\n        return rcvAmount;\n    }\n\n    function sell(address _to, address _from, uint256 _tokenAmount) external returns (uint256) {\n        require(totalSupply() != 0, \"reserve has no funds\");\n        uint256 rcvAmount = calculateSellRcvAmt(_tokenAmount);\n        Token.transferFrom(_from, address(this), _tokenAmount);\n        require(BaseToken.transfer(_to, rcvAmount), \"failed to transfer base token\");\n        return rcvAmount;\n    }\n\n    function calculateBuyRcvAmt(uint256 _sendAmt) public view returns (uint256) {\n        uint256 daiReserve = BaseToken.balanceOf(address(this));\n        uint256 tokenReserve = Token.balanceOf(address(this));\n        uint256 finalQuoteTokenAmount = (daiReserve.mul(tokenReserve)).div(daiReserve.add(_sendAmt));\n        uint256 rcvAmt = tokenReserve.sub(finalQuoteTokenAmount);\n        return _removeFees(rcvAmt);\n    }\n\n    function calculateSellRcvAmt(uint256 _sendAmt) public view returns (uint256) {\n        uint256 daiReserve = BaseToken.balanceOf(address(this));\n        uint256 tokenReserve = Token.balanceOf(address(this));\n        uint256 finalBaseTokenAmount = (daiReserve.mul(tokenReserve)).div(tokenReserve.add(_sendAmt));\n        uint256 rcvAmt = daiReserve.sub(finalBaseTokenAmount);\n        return _removeFees(rcvAmt);\n    }\n\n    function removeLiquidity(uint256 _liquidity) external returns (uint256, uint256) {\n        require(balanceOf(msg.sender) >= _liquidity, \"insufficient balance\");\n        uint256 baseTokenAmount = calculateBaseTokenValue(_liquidity);\n        uint256 quoteTokenAmount = calculateQuoteTokenValue(_liquidity);\n        _burn(msg.sender, _liquidity);\n        BaseToken.transfer(msg.sender, baseTokenAmount);\n        Token.transfer(msg.sender, quoteTokenAmount);\n        return (baseTokenAmount, quoteTokenAmount);\n    }\n\n    function addLiquidity(\n        address _liquidiyProvider, uint256 _maxBaseToken, uint256 _tokenAmount, uint256 _deadline\n        ) external returns (uint256) {\n        require(_deadline > block.number, \"addLiquidity request expired\");\n        Token.transferFrom(msg.sender, address(this), _tokenAmount);\n        if (totalSupply() > 0) {\n            require(_tokenAmount > 0, \"token amount is less than allowed min amount\");\n            uint256 daiAmount = expectedBaseTokenAmount(_tokenAmount);\n            require(daiAmount < _maxBaseToken && BaseToken.transferFrom(_liquidiyProvider, address(this), daiAmount), \"failed to transfer base token\");\n            emit LogAddLiquidity(_liquidiyProvider, _tokenAmount, daiAmount);\n        } else {\n            require(BaseToken.transferFrom(_liquidiyProvider, address(this), _maxBaseToken), \"failed to transfer base token\");\n            emit LogAddLiquidity(_liquidiyProvider, _tokenAmount, _maxBaseToken);\n        }\n        _mint(_liquidiyProvider, _tokenAmount*2);\n        return _tokenAmount*2;\n    }\n\n    function calculateBaseTokenValue(uint256 _liquidity) public view returns (uint256) {\n        require(totalSupply() != 0, \"Division by Zero\");\n        uint256 daiReserve = BaseToken.balanceOf(address(this));\n        return (_liquidity * daiReserve)/totalSupply();\n    }\n\n    function calculateQuoteTokenValue(uint256 _liquidity) public view returns (uint256) {\n        require(totalSupply() != 0, \"Division by Zero\");\n        uint256 tokenReserve = Token.balanceOf(address(this));\n        return (_liquidity * tokenReserve)/totalSupply();\n    }\n\n    function expectedBaseTokenAmount(uint256 _quoteTokenAmount) public view returns (uint256) {\n        uint256 daiReserve = BaseToken.balanceOf(address(this));\n        uint256 tokenReserve = Token.balanceOf(address(this));\n        return (_quoteTokenAmount * daiReserve)/tokenReserve;\n    }\n\n    function _removeFees(uint256 _amount) internal view returns (uint256) {\n        return (_amount * (10000 - FeeInBIPS))/10000;\n    }\n}\n\n/* solhint-disable-next-line */ /* solium-disable-next-line */\ncontract BTC_DAI_Reserve is DEXReserve {\n    constructor (ERC20 _baseToken, ERC20 _token, uint256 _feeInBIPS) public DEXReserve(_baseToken, _token, _feeInBIPS) {\n    }\n}\n\n/* solhint-disable-next-line */ /* solium-disable-next-line */\ncontract ZEC_DAI_Reserve is DEXReserve {\n    constructor (ERC20 _baseToken, ERC20 _token, uint256 _feeInBIPS) public DEXReserve(_baseToken, _token, _feeInBIPS) {\n    }\n}",
  "sourcePath": "/home/noah/github/renproject/dex-demo/ethereum-contracts/contracts/DEXReserve.sol",
  "compiler": {
    "name": "solc",
    "version": "0.5.8+commit.23d335f2.Emscripten.clang"
  },
  "schemaVersion": "3.0.16",
  "updatedAt": "2019-10-22T08:02:16.207Z",
  "devdoc": {
    "methods": {
      "allowance(address,address)": {
        "details": "See `IERC20.allowance`."
      },
      "approve(address,uint256)": {
        "details": "See `IERC20.approve`.     * Requirements:     * - `spender` cannot be the zero address."
      },
      "balanceOf(address)": {
        "details": "See `IERC20.balanceOf`."
      },
      "decreaseAllowance(address,uint256)": {
        "details": "Atomically decreases the allowance granted to `spender` by the caller.     * This is an alternative to `approve` that can be used as a mitigation for problems described in `IERC20.approve`.     * Emits an `Approval` event indicating the updated allowance.     * Requirements:     * - `spender` cannot be the zero address. - `spender` must have allowance for the caller of at least `subtractedValue`."
      },
      "increaseAllowance(address,uint256)": {
        "details": "Atomically increases the allowance granted to `spender` by the caller.     * This is an alternative to `approve` that can be used as a mitigation for problems described in `IERC20.approve`.     * Emits an `Approval` event indicating the updated allowance.     * Requirements:     * - `spender` cannot be the zero address."
      },
      "totalSupply()": {
        "details": "See `IERC20.totalSupply`."
      },
      "transfer(address,uint256)": {
        "details": "See `IERC20.transfer`.     * Requirements:     * - `recipient` cannot be the zero address. - the caller must have a balance of at least `amount`."
      },
      "transferFrom(address,address,uint256)": {
        "details": "See `IERC20.transferFrom`.     * Emits an `Approval` event indicating the updated allowance. This is not required by the EIP. See the note at the beginning of `ERC20`;     * Requirements: - `sender` and `recipient` cannot be the zero address. - `sender` must have a balance of at least `value`. - the caller must have allowance for `sender`'s tokens of at least `amount`."
      }
    }
  },
  "userdoc": {
    "methods": {}
  }
}