{
  "contractName": "DEX",
  "abi": [
    {
      "constant": true,
      "inputs": [],
      "name": "ethereum",
      "outputs": [
        {
          "name": "",
          "type": "address"
        }
      ],
      "payable": false,
      "stateMutability": "view",
      "type": "function"
    },
    {
      "constant": true,
      "inputs": [],
      "name": "BaseToken",
      "outputs": [
        {
          "name": "",
          "type": "address"
        }
      ],
      "payable": false,
      "stateMutability": "view",
      "type": "function"
    },
    {
      "constant": true,
      "inputs": [
        {
          "name": "",
          "type": "address"
        }
      ],
      "name": "reserves",
      "outputs": [
        {
          "name": "",
          "type": "address"
        }
      ],
      "payable": false,
      "stateMutability": "view",
      "type": "function"
    },
    {
      "inputs": [
        {
          "name": "_baseToken",
          "type": "address"
        }
      ],
      "payable": false,
      "stateMutability": "nonpayable",
      "type": "constructor"
    },
    {
      "anonymous": false,
      "inputs": [
        {
          "indexed": false,
          "name": "_src",
          "type": "address"
        },
        {
          "indexed": false,
          "name": "_dst",
          "type": "address"
        },
        {
          "indexed": false,
          "name": "_sendAmount",
          "type": "uint256"
        },
        {
          "indexed": false,
          "name": "_recvAmount",
          "type": "uint256"
        }
      ],
      "name": "LogTrade",
      "type": "event"
    },
    {
      "constant": false,
      "inputs": [
        {
          "name": "_token",
          "type": "address"
        }
      ],
      "name": "recoverTokens",
      "outputs": [],
      "payable": false,
      "stateMutability": "nonpayable",
      "type": "function"
    },
    {
      "constant": false,
      "inputs": [
        {
          "name": "_erc20",
          "type": "address"
        },
        {
          "name": "_reserve",
          "type": "address"
        }
      ],
      "name": "registerReserve",
      "outputs": [],
      "payable": false,
      "stateMutability": "nonpayable",
      "type": "function"
    },
    {
      "constant": false,
      "inputs": [
        {
          "name": "_to",
          "type": "address"
        },
        {
          "name": "_src",
          "type": "address"
        },
        {
          "name": "_dst",
          "type": "address"
        },
        {
          "name": "_sendAmount",
          "type": "uint256"
        }
      ],
      "name": "trade",
      "outputs": [
        {
          "name": "",
          "type": "uint256"
        }
      ],
      "payable": false,
      "stateMutability": "nonpayable",
      "type": "function"
    },
    {
      "constant": true,
      "inputs": [
        {
          "name": "_src",
          "type": "address"
        },
        {
          "name": "_dst",
          "type": "address"
        },
        {
          "name": "_sendAmount",
          "type": "uint256"
        }
      ],
      "name": "calculateReceiveAmount",
      "outputs": [
        {
          "name": "",
          "type": "uint256"
        }
      ],
      "payable": false,
      "stateMutability": "view",
      "type": "function"
    }
  ],
  "bytecode": "0x6080604052600280546001600160a01b03191673eeeeeeeeeeeeeeeeeeeeeeeeeeeeeeeeeeeeeeee17905534801561003657600080fd5b50604051602080610b318339810180604052602081101561005657600080fd5b5051600180546001600160a01b0319166001600160a01b03909216919091179055610aab806100866000396000f3fe608060405234801561001057600080fd5b506004361061007d5760003560e01c806390f817021161005b57806390f8170214610116578063d4eec7291461011e578063d66bd5241461014c578063dca751a6146101725761007d565b806316114acd146100825780635fb31d77146100aa578063878e1b10146100f2575b600080fd5b6100a86004803603602081101561009857600080fd5b50356001600160a01b03166101ae565b005b6100e0600480360360608110156100c057600080fd5b506001600160a01b038135811691602081013590911690604001356102e9565b60408051918252519081900360200190f35b6100fa610502565b604080516001600160a01b039092168252519081900360200190f35b6100fa610511565b6100a86004803603604081101561013457600080fd5b506001600160a01b0381358116916020013516610520565b6100fa6004803603602081101561016257600080fd5b50356001600160a01b03166105be565b6100e06004803603608081101561018857600080fd5b506001600160a01b038135811691602081013582169160408201351690606001356105d9565b6001600160a01b0381166101ef576040513390303180156108fc02916000818181858888f193505050501580156101e9573d6000803e3d6000fd5b506102e6565b60408051600160e01b6370a0823102815230600482015290516001600160a01b0383169163a9059cbb91339184916370a0823191602480820192602092909190829003018186803b15801561024357600080fd5b505afa158015610257573d6000803e3d6000fd5b505050506040513d602081101561026d57600080fd5b50516040805163ffffffff851660e01b81526001600160a01b03909316600484015260248301919091525160448083019260209291908290030181600087803b1580156102b957600080fd5b505af11580156102cd573d6000803e3d6000fd5b505050506040513d60208110156102e357600080fd5b50505b50565b6001546000906001600160a01b038581169116141561038e576001600160a01b0380841660009081526020818152604091829020548251600160e11b6368f4463902815260048101879052925193169263d1e88c72926024808201939291829003018186803b15801561035b57600080fd5b505afa15801561036f573d6000803e3d6000fd5b505050506040513d602081101561038557600080fd5b505190506104fb565b6001546001600160a01b03848116911614156103fd576001600160a01b0380851660009081526020818152604091829020548251600160e01b63b4d5fa7f02815260048101879052925193169263b4d5fa7f926024808201939291829003018186803b15801561035b57600080fd5b6001600160a01b0380841660009081526020818152604080832054888516845292819020548151600160e01b63b4d5fa7f0281526004810188905291519385169463d1e88c729491169263b4d5fa7f9260248082019391829003018186803b15801561046857600080fd5b505afa15801561047c573d6000803e3d6000fd5b505050506040513d602081101561049257600080fd5b50516040805163ffffffff841660e01b81526004810192909252516024808301926020929190829003018186803b1580156104cc57600080fd5b505afa1580156104e0573d6000803e3d6000fd5b505050506040513d60208110156104f657600080fd5b505190505b9392505050565b6002546001600160a01b031681565b6001546001600160a01b031681565b6001600160a01b0382811660009081526020819052604090205416156105905760408051600160e51b62461bcd02815260206004820181905260248201527f746f6b656e207265736572766520616c72656164792072656769737465726564604482015290519081900360640190fd5b6001600160a01b03918216600090815260208190526040902080546001600160a01b03191691909216179055565b6000602081905290815260409020546001600160a01b031681565b60015460009081906001600160a01b03868116911614156106f4576001600160a01b038481166000908152602081905260409020541661065a5760408051600160e51b62461bcd0281526020600482015260116024820152600160791b703ab739bab83837b93a32b2103a37b5b2b702604482015290519081900360640190fd5b6001600160a01b03808516600090815260208181526040808320548151600160e11b630a9f33730281528b8616600482015233602482015260448101899052915194169363153e66e693606480840194938390030190829087803b1580156106c157600080fd5b505af11580156106d5573d6000803e3d6000fd5b505050506040513d60208110156106eb57600080fd5b50519050610a25565b6001546001600160a01b03858116911614156107d7576001600160a01b03858116600090815260208190526040902054166107705760408051600160e51b62461bcd0281526020600482015260116024820152600160791b703ab739bab83837b93a32b2103a37b5b2b702604482015290519081900360640190fd5b6001600160a01b03808616600090815260208181526040808320548151600160e11b636571385b0281528b8616600482015233602482015260448101899052915194169363cae270b693606480840194938390030190829087803b1580156106c157600080fd5b6001600160a01b03858116600090815260208190526040902054161580159061081957506001600160a01b038481166000908152602081905260409020541615155b6108645760408051600160e51b62461bcd0281526020600482015260116024820152600160791b703ab739bab83837b93a32b2103a37b5b2b702604482015290519081900360640190fd5b6001600160a01b03808616600090815260208181526040808320548151600160e11b636571385b0281523060048201523360248201526044810189905291519394169263cae270b69260648084019391929182900301818787803b1580156108cb57600080fd5b505af11580156108df573d6000803e3d6000fd5b505050506040513d60208110156108f557600080fd5b50516001546001600160a01b03878116600090815260208181526040808320548151600160e01b63095ea7b30281529085166004820152602481018790529051959650929093169363095ea7b3936044808501949193918390030190829087803b15801561096257600080fd5b505af1158015610976573d6000803e3d6000fd5b505050506040513d602081101561098c57600080fd5b50506001600160a01b03808616600090815260208181526040808320548151600160e11b630a9f33730281528c8616600482015230602482015260448101879052915194169363153e66e693606480840194938390030190829087803b1580156109f557600080fd5b505af1158015610a09573d6000803e3d6000fd5b505050506040513d6020811015610a1f57600080fd5b50519150505b604080516001600160a01b038088168252861660208201528082018590526060810183905290517f8d10c7a140b316d7362354a44023c657a9c436616f21481cac1cb594aa3054589181900360800190a19594505050505056fea165627a7a72305820427e1a72fc8c0471e0f2379b952ce1b262ee727d5ed1fe6589edb8a19af45dbd0029",
  "source": "pragma solidity ^0.5.0;\n\nimport \"./DEXReserve.sol\";\nimport \"openzeppelin-solidity/contracts/token/ERC20/ERC20.sol\";\n\ncontract DEX {\n    mapping (address=>DEXReserve) public reserves;\n    address public BaseToken;\n    address public ethereum = address(0x00eeeeeeeeeeeeeeeeeeeeeeeeeeeeeeeeeeeeeeee);\n\n    event LogTrade(address _src, address _dst, uint256 _sendAmount, uint256 _recvAmount);\n\n    constructor(address _baseToken) public {\n        BaseToken = _baseToken;\n    }\n\n    /// @notice Allow anyone to recover funds accidentally sent to the contract.\n    /// To withdraw ETH, the token should be set to `0x0`.\n    function recoverTokens(address _token) external {\n        if (_token == address(0x0)) {\n            msg.sender.transfer(address(this).balance);\n        } else {\n            ERC20(_token).transfer(msg.sender, ERC20(_token).balanceOf(address(this)));\n        }\n    }\n\n    function registerReserve(address _erc20, DEXReserve _reserve) external {\n        require(reserves[_erc20] == DEXReserve(0x0), \"token reserve already registered\");\n        reserves[_erc20] = _reserve;\n    }\n\n    function trade(address _to, address _src, address _dst, uint256 _sendAmount) public returns (uint256) {\n        uint256 recvAmount;\n        if (_src == BaseToken) {\n            require(reserves[_dst] != DEXReserve(0x0), \"unsupported token\");\n            recvAmount = reserves[_dst].buy(_to, msg.sender, _sendAmount);\n        } else if (_dst == BaseToken) {\n            require(reserves[_src] != DEXReserve(0x0), \"unsupported token\");\n            recvAmount = reserves[_src].sell(_to, msg.sender, _sendAmount);\n        } else {\n            require(reserves[_src] != DEXReserve(0x0) && reserves[_dst] != DEXReserve(0x0), \"unsupported token\");\n            uint256 intermediteAmount = reserves[_src].sell(address(this), msg.sender, _sendAmount);\n            ERC20(BaseToken).approve(address(reserves[_dst]), intermediteAmount);\n            recvAmount = reserves[_dst].buy(_to, address(this), intermediteAmount);\n        }\n        emit LogTrade(_src, _dst, _sendAmount, recvAmount);\n        return recvAmount;\n    }\n\n    function calculateReceiveAmount(address _src, address _dst, uint256 _sendAmount) public view returns (uint256) {\n        if (_src == BaseToken) {\n            return reserves[_dst].calculateBuyRcvAmt(_sendAmount);\n        }\n        if (_dst == BaseToken) {\n            return reserves[_src].calculateSellRcvAmt(_sendAmount);\n        }\n        return reserves[_dst].calculateBuyRcvAmt(reserves[_src].calculateSellRcvAmt(_sendAmount));\n    }\n}",
  "sourcePath": "/home/noah/github/renproject/dex-demo/ethereum-contracts/contracts/DEX.sol",
  "compiler": {
    "name": "solc",
    "version": "0.5.8+commit.23d335f2.Emscripten.clang"
  },
  "schemaVersion": "3.0.16",
  "updatedAt": "2019-10-22T08:02:16.271Z",
  "devdoc": {
    "methods": {}
  },
  "userdoc": {
    "methods": {
      "recoverTokens(address)": {
        "notice": "Allow anyone to recover funds accidentally sent to the contract. To withdraw ETH, the token should be set to `0x0`."
      }
    }
  }
}