{
  "contractName": "DEXAdapter",
  "abi": [
    {
      "constant": true,
      "inputs": [],
      "name": "dex",
      "outputs": [
        {
          "name": "",
          "type": "address"
        }
      ],
      "payable": false,
      "stateMutability": "view",
      "type": "function"
    },
    {
      "constant": true,
      "inputs": [],
      "name": "shifterRegistry",
      "outputs": [
        {
          "name": "",
          "type": "address"
        }
      ],
      "payable": false,
      "stateMutability": "view",
      "type": "function"
    },
    {
      "inputs": [
        {
          "name": "_dex",
          "type": "address"
        },
        {
          "name": "_shifterRegistry",
          "type": "address"
        }
      ],
      "payable": false,
      "stateMutability": "nonpayable",
      "type": "constructor"
    },
    {
      "anonymous": false,
      "inputs": [
        {
          "indexed": false,
          "name": "src",
          "type": "address"
        },
        {
          "indexed": false,
          "name": "amount",
          "type": "uint256"
        }
      ],
      "name": "LogTransferIn",
      "type": "event"
    },
    {
      "anonymous": false,
      "inputs": [
        {
          "indexed": false,
          "name": "dst",
          "type": "address"
        },
        {
          "indexed": false,
          "name": "amount",
          "type": "uint256"
        }
      ],
      "name": "LogTransferOut",
      "type": "event"
    },
    {
      "constant": false,
      "inputs": [
        {
          "name": "_token",
          "type": "address"
        }
      ],
      "name": "recoverTokens",
      "outputs": [],
      "payable": false,
      "stateMutability": "nonpayable",
      "type": "function"
    },
    {
      "constant": false,
      "inputs": [
        {
          "name": "_src",
          "type": "address"
        },
        {
          "name": "_dst",
          "type": "address"
        },
        {
          "name": "_minDstAmt",
          "type": "uint256"
        },
        {
          "name": "_to",
          "type": "bytes"
        },
        {
          "name": "_refundBN",
          "type": "uint256"
        },
        {
          "name": "_refundAddress",
          "type": "bytes"
        },
        {
          "name": "_amount",
          "type": "uint256"
        },
        {
          "name": "_nHash",
          "type": "bytes32"
        },
        {
          "name": "_sig",
          "type": "bytes"
        }
      ],
      "name": "trade",
      "outputs": [],
      "payable": false,
      "stateMutability": "nonpayable",
      "type": "function"
    },
    {
      "constant": true,
      "inputs": [
        {
          "name": "_src",
          "type": "address"
        },
        {
          "name": "_dst",
          "type": "address"
        },
        {
          "name": "_minDstAmt",
          "type": "uint256"
        },
        {
          "name": "_to",
          "type": "bytes"
        },
        {
          "name": "_refundBN",
          "type": "uint256"
        },
        {
          "name": "_refundAddress",
          "type": "bytes"
        }
      ],
      "name": "hashTradePayload",
      "outputs": [
        {
          "name": "",
          "type": "bytes32"
        }
      ],
      "payable": false,
      "stateMutability": "pure",
      "type": "function"
    },
    {
      "constant": true,
      "inputs": [
        {
          "name": "_liquidityProvider",
          "type": "address"
        },
        {
          "name": "_maxBaseToken",
          "type": "uint256"
        },
        {
          "name": "_token",
          "type": "address"
        },
        {
          "name": "_refundBN",
          "type": "uint256"
        },
        {
          "name": "_refundAddress",
          "type": "bytes"
        }
      ],
      "name": "hashLiquidityPayload",
      "outputs": [
        {
          "name": "",
          "type": "bytes32"
        }
      ],
      "payable": false,
      "stateMutability": "pure",
      "type": "function"
    },
    {
      "constant": true,
      "inputs": [
        {
          "name": "_src",
          "type": "address"
        },
        {
          "name": "_dst",
          "type": "address"
        },
        {
          "name": "_minDstAmt",
          "type": "uint256"
        },
        {
          "name": "_to",
          "type": "bytes"
        },
        {
          "name": "_refundBN",
          "type": "uint256"
        },
        {
          "name": "_refundAddress",
          "type": "bytes"
        }
      ],
      "name": "encodePayload",
      "outputs": [
        {
          "name": "",
          "type": "bytes"
        }
      ],
      "payable": false,
      "stateMutability": "pure",
      "type": "function"
    },
    {
      "constant": false,
      "inputs": [
        {
          "name": "_liquidityProvider",
          "type": "address"
        },
        {
          "name": "_maxBaseToken",
          "type": "uint256"
        },
        {
          "name": "_token",
          "type": "address"
        },
        {
          "name": "_deadline",
          "type": "uint256"
        },
        {
          "name": "_refundAddress",
          "type": "bytes"
        },
        {
          "name": "_amount",
          "type": "uint256"
        },
        {
          "name": "_nHash",
          "type": "bytes32"
        },
        {
          "name": "_sig",
          "type": "bytes"
        }
      ],
      "name": "addLiquidity",
      "outputs": [
        {
          "name": "",
          "type": "uint256"
        }
      ],
      "payable": false,
      "stateMutability": "nonpayable",
      "type": "function"
    },
    {
      "constant": false,
      "inputs": [
        {
          "name": "_token",
          "type": "address"
        },
        {
          "name": "_liquidity",
          "type": "uint256"
        },
        {
          "name": "_tokenAddress",
          "type": "bytes"
        }
      ],
      "name": "removeLiquidity",
      "outputs": [],
      "payable": false,
      "stateMutability": "nonpayable",
      "type": "function"
    },
    {
      "constant": true,
      "inputs": [
        {
          "name": "_src",
          "type": "address"
        },
        {
          "name": "_dst",
          "type": "address"
        },
        {
          "name": "_sendAmount",
          "type": "uint256"
        }
      ],
      "name": "calculateReceiveAmount",
      "outputs": [
        {
          "name": "",
          "type": "uint256"
        }
      ],
      "payable": false,
      "stateMutability": "view",
      "type": "function"
    }
  ],
  "bytecode": "0x608060405234801561001057600080fd5b506040516040806125518339810180604052604081101561003057600080fd5b508051602090910151600180546001600160a01b039283166001600160a01b031991821617909155600080549290931691161790556124dd806100746000396000f3fe608060405234801561001057600080fd5b506004361061009e5760003560e01c8063692058c211610066578063692058c2146105095780637813e50a1461052d578063863cb94e146105f7578063a1f419c91461067a578063e6a12ca9146107cb5761009e565b806316114acd146100a357806333da59af146100cb578063424c39e2146101ce578063590ba492146103945780635fb31d77146104d3575b600080fd5b6100c9600480360360208110156100b957600080fd5b50356001600160a01b03166107d3565b005b6101bc60048036036101008110156100e257600080fd5b6001600160a01b0382358116926020810135926040820135909216916060820135919081019060a081016080820135600160201b81111561012257600080fd5b82018360208201111561013457600080fd5b803590602001918460018302840111600160201b8311171561015557600080fd5b919390928235926020810135929190606081019060400135600160201b81111561017e57600080fd5b82018360208201111561019057600080fd5b803590602001918460018302840111600160201b831117156101b157600080fd5b50909250905061090e565b60408051918252519081900360200190f35b61031f600480360360c08110156101e457600080fd5b6001600160a01b03823581169260208101359091169160408201359190810190608081016060820135600160201b81111561021e57600080fd5b82018360208201111561023057600080fd5b803590602001918460018302840111600160201b8311171561025157600080fd5b91908080601f01602080910402602001604051908101604052809392919081815260200183838082843760009201919091525092958435959094909350604081019250602001359050600160201b8111156102ab57600080fd5b8201836020820111156102bd57600080fd5b803590602001918460018302840111600160201b831117156102de57600080fd5b91908080601f016020809104026020016040519081016040528093929190818152602001838380828437600092019190915250929550610fc6945050505050565b6040805160208082528351818301528351919283929083019185019080838360005b83811015610359578181015183820152602001610341565b50505050905090810190601f1680156103865780820380516001836020036101000a031916815260200191505b509250505060405180910390f35b6100c960048036036101208110156103ab57600080fd5b6001600160a01b03823581169260208101359091169160408201359190810190608081016060820135600160201b8111156103e557600080fd5b8201836020820111156103f757600080fd5b803590602001918460018302840111600160201b8311171561041857600080fd5b91939092823592604081019060200135600160201b81111561043957600080fd5b82018360208201111561044b57600080fd5b803590602001918460018302840111600160201b8311171561046c57600080fd5b919390928235926020810135929190606081019060400135600160201b81111561049557600080fd5b8201836020820111156104a757600080fd5b803590602001918460018302840111600160201b831117156104c857600080fd5b509092509050611101565b6101bc600480360360608110156104e957600080fd5b506001600160a01b0381358116916020810135909116906040013561149e565b610511611532565b604080516001600160a01b039092168252519081900360200190f35b6101bc600480360360a081101561054357600080fd5b6001600160a01b0382358116926020810135926040820135909216916060820135919081019060a081016080820135600160201b81111561058357600080fd5b82018360208201111561059557600080fd5b803590602001918460018302840111600160201b831117156105b657600080fd5b91908080601f016020809104026020016040519081016040528093929190818152602001838380828437600092019190915250929550611541945050505050565b6100c96004803603606081101561060d57600080fd5b6001600160a01b0382351691602081013591810190606081016040820135600160201b81111561063c57600080fd5b82018360208201111561064e57600080fd5b803590602001918460018302840111600160201b8311171561066f57600080fd5b50909250905061161c565b6101bc600480360360c081101561069057600080fd5b6001600160a01b03823581169260208101359091169160408201359190810190608081016060820135600160201b8111156106ca57600080fd5b8201836020820111156106dc57600080fd5b803590602001918460018302840111600160201b831117156106fd57600080fd5b91908080601f01602080910402602001604051908101604052809392919081815260200183838082843760009201919091525092958435959094909350604081019250602001359050600160201b81111561075757600080fd5b82018360208201111561076957600080fd5b803590602001918460018302840111600160201b8311171561078a57600080fd5b91908080601f016020809104026020016040519081016040528093929190818152602001838380828437600092019190915250929550611a84945050505050565b610511611bc6565b6001600160a01b038116610814576040513390303180156108fc02916000818181858888f1935050505015801561080e573d6000803e3d6000fd5b5061090b565b60408051600160e01b6370a0823102815230600482015290516001600160a01b0383169163a9059cbb91339184916370a0823191602480820192602092909190829003018186803b15801561086857600080fd5b505afa15801561087c573d6000803e3d6000fd5b505050506040513d602081101561089257600080fd5b50516040805163ffffffff851660e01b81526001600160a01b03909316600484015260248301919091525160448083019260209291908290030181600087803b1580156108de57600080fd5b505af11580156108f2573d6000803e3d6000fd5b505050506040513d602081101561090857600080fd5b50505b50565b6000805460408051600160e21b63359af5490281526001600160a01b038c8116600483015291518493929092169163d66bd52491602480820192602092909190829003018186803b15801561096257600080fd5b505afa158015610976573d6000803e3d6000fd5b505050506040513d602081101561098c57600080fd5b505190506001600160a01b0381166109e55760408051600160e51b62461bcd0281526020600482015260116024820152600160791b703ab739bab83837b93a32b2103a37b5b2b702604482015290519081900360640190fd5b6000610a2a8d8d8d8d8d8d8080601f01602080910402602001604051908101604052809392919081815260200183838082843760009201919091525061154192505050565b905089431115610cd65760015460408051600160e41b63028c4f410281526001600160a01b038e81166004830152915160009392909216916328c4f41091602480820192602092909190829003018186803b158015610a8857600080fd5b505afa158015610a9c573d6000803e3d6000fd5b505050506040513d6020811015610ab257600080fd5b5051604051600160e21b632ed2876302815260048101848152602482018b9052604482018a9052608060648301908152608483018990526001600160a01b039093169263bb4a1d8c9286928d928d928d928d92909160a401848480828437600081840152601f19601f8201169050808301925050509650505050505050602060405180830381600087803b158015610b4957600080fd5b505af1158015610b5d573d6000803e3d6000fd5b505050506040513d6020811015610b7357600080fd5b81019080805190602001909291905050509050600160009054906101000a90046001600160a01b03166001600160a01b03166328c4f4108d6040518263ffffffff1660e01b815260040180826001600160a01b03166001600160a01b0316815260200191505060206040518083038186803b158015610bf157600080fd5b505afa158015610c05573d6000803e3d6000fd5b505050506040513d6020811015610c1b57600080fd5b505160408051600160e01b638723c3770281526024810184905260048101918252604481018c90526001600160a01b0390921691638723c377918d918d9186918190606401858580828437600081840152601f19601f820116905080830192505050945050505050602060405180830381600087803b158015610c9d57600080fd5b505af1158015610cb1573d6000803e3d6000fd5b505050506040513d6020811015610cc757600080fd5b5060009450610fb89350505050565b60005460408051600160e11b63487c0b8102815290518e926001600160a01b0316916390f81702916004808301926020929190829003018186803b158015610d1d57600080fd5b505afa158015610d31573d6000803e3d6000fd5b505050506040513d6020811015610d4757600080fd5b81019080805190602001909291905050506001600160a01b031663dd62ed3e8f856040518363ffffffff1660e01b815260040180836001600160a01b03166001600160a01b03168152602001826001600160a01b03166001600160a01b031681526020019250505060206040518083038186803b158015610dc757600080fd5b505afa158015610ddb573d6000803e3d6000fd5b505050506040513d6020811015610df157600080fd5b50511015610e3357604051600160e51b62461bcd0281526004018080602001828103825260218152602001806124916021913960400191505060405180910390fd5b6000610e788c8989858a8a8080601f016020809104026020016040519081016040528093929190818152602001838380828437600092019190915250611bd592505050565b90508b6001600160a01b031663095ea7b384836040518363ffffffff1660e01b815260040180836001600160a01b03166001600160a01b0316815260200182815260200192505050602060405180830381600087803b158015610eda57600080fd5b505af1158015610eee573d6000803e3d6000fd5b505050506040513d6020811015610f0457600080fd5b810190808051906020019092919050505050826001600160a01b0316631ece366a8f8f848f6040518563ffffffff1660e01b815260040180856001600160a01b03166001600160a01b03168152602001848152602001838152602001828152602001945050505050602060405180830381600087803b158015610f8657600080fd5b505af1158015610f9a573d6000803e3d6000fd5b505050506040513d6020811015610fb057600080fd5b505193505050505b9a9950505050505050505050565b606086868686868660405160200180876001600160a01b03166001600160a01b03168152602001866001600160a01b03166001600160a01b031681526020018581526020018060200184815260200180602001838103835286818151815260200191508051906020019080838360005b8381101561104e578181015183820152602001611036565b50505050905090810190601f16801561107b5780820380516001836020036101000a031916815260200191505b50838103825284518152845160209182019186019080838360005b838110156110ae578181015183820152602001611096565b50505050905090810190601f1680156110db5780820380516001836020036101000a031916815260200191505b509850505050505050505060405160208183030381529060405290509695505050505050565b600061118b8d8d8d8d8d8080601f016020809104026020016040519081016040528093929190818152602001838380828437600081840152601f19601f820116905080830192505050505050508c8c8c8080601f016020809104026020016040519081016040528093929190818152602001838380828437600092019190915250611a8492505050565b90508743106113ac576000600160009054906101000a90046001600160a01b03166001600160a01b03166328c4f4108f6040518263ffffffff1660e01b815260040180826001600160a01b03166001600160a01b0316815260200191505060206040518083038186803b15801561120157600080fd5b505afa158015611215573d6000803e3d6000fd5b505050506040513d602081101561122b57600080fd5b505190506001600160a01b038116156113a557806001600160a01b031663bb4a1d8c83888888886040518663ffffffff1660e01b815260040180868152602001858152602001848152602001806020018281038252848482818152602001925080828437600081840152601f19601f8201169050808301925050509650505050505050602060405180830381600087803b1580156112c857600080fd5b505af11580156112dc573d6000803e3d6000fd5b505050506040513d60208110156112f257600080fd5b5051600281905560408051600160e01b638723c3770281526024810183905260048101918252604481018a90526001600160a01b03841692638723c377928c928c9291908190606401858580828437600081840152601f19601f820116905080830192505050945050505050602060405180830381600087803b15801561137857600080fd5b505af115801561138c573d6000803e3d6000fd5b505050506040513d60208110156113a257600080fd5b50505b5050611490565b6113ef8d86868487878080601f016020809104026020016040519081016040528093929190818152602001838380828437600092019190915250611bd592505050565b6002819055507ff9a8a6f3535e914cfd5fef422f9f604a324554db59d703e57cf12e77139140e38d60025460405180836001600160a01b03166001600160a01b031681526020018281526020019250505060405180910390a161148e8d8d8d8d8d8080601f016020809104026020016040519081016040528093929190818152602001838380828437600092019190915250506002549150611f279050565b505b505050505050505050505050565b6000805460408051600160e01b635fb31d770281526001600160a01b03878116600483015286811660248301526044820186905291519190921691635fb31d77916064808301926020929190829003018186803b1580156114fe57600080fd5b505afa158015611512573d6000803e3d6000fd5b505050506040513d602081101561152857600080fd5b5051949350505050565b6000546001600160a01b031681565b6000858585858560405160200180866001600160a01b03166001600160a01b03168152602001858152602001846001600160a01b03166001600160a01b0316815260200183815260200180602001828103825283818151815260200191508051906020019080838360005b838110156115c45781810151838201526020016115ac565b50505050905090810190601f1680156115f15780820380516001836020036101000a031916815260200191505b5096505050505050506040516020818303038152906040528051906020012090505b95945050505050565b6000805460408051600160e21b63359af5490281526001600160a01b0388811660048301529151919092169163d66bd524916024808301926020929190829003018186803b15801561166d57600080fd5b505afa158015611681573d6000803e3d6000fd5b505050506040513d602081101561169757600080fd5b505190506001600160a01b0381166116f05760408051600160e51b62461bcd0281526020600482015260116024820152600160791b703ab739bab83837b93a32b2103a37b5b2b702604482015290519081900360640190fd5b60408051600160e01b6323b872dd0281523360048201523060248201526044810186905290516001600160a01b038316916323b872dd9160648083019260209291908290030181600087803b15801561174857600080fd5b505af115801561175c573d6000803e3d6000fd5b505050506040513d602081101561177257600080fd5b505060408051600160e01b639c8f9f2302815260048101869052815160009283926001600160a01b03861692639c8f9f239260248084019391929182900301818787803b1580156117c257600080fd5b505af11580156117d6573d6000803e3d6000fd5b505050506040513d60408110156117ec57600080fd5b50805160209182015160408051600160e11b63487c0b8102815290519295509093506001600160a01b038616926390f8170292600480840193829003018186803b15801561183957600080fd5b505afa15801561184d573d6000803e3d6000fd5b505050506040513d602081101561186357600080fd5b505160408051600160e01b63a9059cbb0281523360048201526024810185905290516001600160a01b039092169163a9059cbb916044808201926020929091908290030181600087803b1580156118b957600080fd5b505af11580156118cd573d6000803e3d6000fd5b505050506040513d60208110156118e357600080fd5b505060015460408051600160e11b636120933b02815290516001600160a01b03928316926328c4f410929087169163c241267691600480820192602092909190829003018186803b15801561193757600080fd5b505afa15801561194b573d6000803e3d6000fd5b505050506040513d602081101561196157600080fd5b50516040805163ffffffff841660e01b81526001600160a01b039092166004830152516024808301926020929190829003018186803b1580156119a357600080fd5b505afa1580156119b7573d6000803e3d6000fd5b505050506040513d60208110156119cd57600080fd5b505160408051600160e01b638723c3770281526024810184905260048101918252604481018790526001600160a01b0390921691638723c377918891889186918190606401858580828437600081840152601f19601f820116905080830192505050945050505050602060405180830381600087803b158015611a4f57600080fd5b505af1158015611a63573d6000803e3d6000fd5b505050506040513d6020811015611a7957600080fd5b505050505050505050565b600086868686868660405160200180876001600160a01b03166001600160a01b03168152602001866001600160a01b03166001600160a01b031681526020018581526020018060200184815260200180602001838103835286818151815260200191508051906020019080838360005b83811015611b0c578181015183820152602001611af4565b50505050905090810190601f168015611b395780820380516001836020036101000a031916815260200191505b50838103825284518152845160209182019186019080838360005b83811015611b6c578181015183820152602001611b54565b50505050905090810190601f168015611b995780820380516001836020036101000a031916815260200191505b50985050505050505050506040516020818303038152906040528051906020012090509695505050505050565b6001546001600160a01b031681565b60015460408051600160e41b63028c4f410281526001600160a01b0388811660048301529151600093849316916328c4f410916024808301926020929190829003018186803b158015611c2757600080fd5b505afa158015611c3b573d6000803e3d6000fd5b505050506040513d6020811015611c5157600080fd5b505190506001600160a01b03811615611d5957806001600160a01b031663bb4a1d8c858888876040518563ffffffff1660e01b81526004018085815260200184815260200183815260200180602001828103825283818151815260200191508051906020019080838360005b83811015611cd5578181015183820152602001611cbd565b50505050905090810190601f168015611d025780820380516001836020036101000a031916815260200191505b5095505050505050602060405180830381600087803b158015611d2457600080fd5b505af1158015611d38573d6000803e3d6000fd5b505050506040513d6020811015611d4e57600080fd5b505191506116139050565b6000809054906101000a90046001600160a01b03166001600160a01b031663878e1b106040518163ffffffff1660e01b815260040160206040518083038186803b158015611da657600080fd5b505afa158015611dba573d6000803e3d6000fd5b505050506040513d6020811015611dd057600080fd5b50516001600160a01b0388811691161415611e465785341015611e3d5760408051600160e51b62461bcd02815260206004820152601760248201527f696e73756666696369656e742065746820616d6f756e74000000000000000000604482015290519081900360640190fd5b34915050611613565b60408051600160e01b6323b872dd0281523360048201523060248201526044810188905290516001600160a01b038916916323b872dd9160648083019260209291908290030181600087803b158015611e9e57600080fd5b505af1158015611eb2573d6000803e3d6000fd5b505050506040513d6020811015611ec857600080fd5b5051611f1e5760408051600160e51b62461bcd02815260206004820152601c60248201527f736f7572636520746f6b656e207472616e73666572206661696c656400000000604482015290519081900360640190fd5b85915050611613565b60015460408051600160e41b63028c4f410281526001600160a01b0387811660048301529151600093849384939116916328c4f41091602480820192602092909190829003018186803b158015611f7d57600080fd5b505afa158015611f91573d6000803e3d6000fd5b505050506040513d6020811015611fa757600080fd5b505190506001600160a01b03811615611fc257309150611fce565b611fcb85612489565b91505b6000809054906101000a90046001600160a01b03166001600160a01b03166390f817026040518163ffffffff1660e01b815260040160206040518083038186803b15801561201b57600080fd5b505afa15801561202f573d6000803e3d6000fd5b505050506040513d602081101561204557600080fd5b50516001600160a01b03898116911614156121585760005460408051600160e21b63359af5490281526001600160a01b038a811660048301529151828c169363095ea7b393169163d66bd524916024808301926020929190829003018186803b1580156120b157600080fd5b505afa1580156120c5573d6000803e3d6000fd5b505050506040513d60208110156120db57600080fd5b50516040805163ffffffff841660e01b81526001600160a01b039092166004830152602482018890525160448083019260209291908290030181600087803b15801561212657600080fd5b505af115801561213a573d6000803e3d6000fd5b505050506040513d602081101561215057600080fd5b506122529050565b60005460408051600160e21b63359af5490281526001600160a01b03808c16600483018190529251929363095ea7b39391169163d66bd524916024808301926020929190829003018186803b1580156121b057600080fd5b505afa1580156121c4573d6000803e3d6000fd5b505050506040513d60208110156121da57600080fd5b50516040805163ffffffff841660e01b81526001600160a01b039092166004830152602482018890525160448083019260209291908290030181600087803b15801561222557600080fd5b505af1158015612239573d6000803e3d6000fd5b505050506040513d602081101561224f57600080fd5b50505b6000805460408051600160e11b636e53a8d30281526001600160a01b0386811660048301528c811660248301528b81166044830152606482018990529151919092169263dca751a692608480820193602093909283900390910190829087803b1580156122be57600080fd5b505af11580156122d2573d6000803e3d6000fd5b505050506040513d60208110156122e857600080fd5b5051925082158015906122fb5750858310155b61234f5760408051600160e51b62461bcd02815260206004820152601660248201527f696e76616c6964207265636569766520616d6f756e7400000000000000000000604482015290519081900360640190fd5b6001600160a01b0381161561243b57806001600160a01b0316638723c37786856040518363ffffffff1660e01b81526004018080602001838152602001828103825284818151815260200191508051906020019080838360005b838110156123c15781810151838201526020016123a9565b50505050905090810190601f1680156123ee5780820380516001836020036101000a031916815260200191505b509350505050602060405180830381600087803b15801561240e57600080fd5b505af1158015612422573d6000803e3d6000fd5b505050506040513d602081101561243857600080fd5b50505b604080516001600160a01b03891681526020810185905281517f44e2ab5a6cfe856e15b49f53aec49ff1d9d164735554befaac76ac4dec58af93929181900390910190a15050505050505050565b601401519056fe696e73756666696369656e74206261736520746f6b656e20616c6c6f77616e6365a165627a7a723058209578d70c27f565a3b1879cd9779d494ee9611bf82c9a1bec7e2eecfc8cab13d90029",
  "source": "pragma solidity ^0.5.8;\n\nimport \"./DEX.sol\";\nimport \"./DEXReserve.sol\";\nimport \"darknode-sol/contracts/Shifter/ShifterRegistry.sol\";\nimport \"darknode-sol/contracts/Shifter/IShifter.sol\";\nimport \"openzeppelin-solidity/contracts/token/ERC20/ERC20.sol\";\n\ncontract DEXAdapter {\n    DEX public dex;\n    ShifterRegistry public shifterRegistry;\n\n    event LogTransferIn(address src, uint256 amount);\n    event LogTransferOut(address dst, uint256 amount);\n\n    constructor(DEX _dex, ShifterRegistry _shifterRegistry) public {\n        shifterRegistry = _shifterRegistry;\n        dex = _dex;\n    }\n\n    /// @notice Allow anyone to recover funds accidentally sent to the contract.\n    /// To withdraw ETH, the token should be set to `0x0`.\n    function recoverTokens(address _token) external {\n        if (_token == address(0x0)) {\n            msg.sender.transfer(address(this).balance);\n        } else {\n            ERC20(_token).transfer(msg.sender, ERC20(_token).balanceOf(address(this)));\n        }\n    }\n\n    // TODO: Fix \"Stack too deep\" error!\n    uint256 transferredAmt;\n\n    function trade(\n        // Payload\n        /*uint256 _relayerFee,*/ address _src, address _dst, uint256 _minDstAmt, bytes calldata _to,\n        uint256 _refundBN, bytes calldata _refundAddress,\n        // Required\n        uint256 _amount, bytes32 _nHash, bytes calldata _sig\n    ) external {\n        transferredAmt;\n        bytes32 pHash = hashTradePayload(_src, _dst, _minDstAmt, _to, _refundBN, _refundAddress);\n        // Handle refunds if the refund block number has passed\n        if (block.number >= _refundBN) {\n            IShifter shifter = shifterRegistry.getShifterByToken(address(_src));\n            if (shifter != IShifter(0x0)) {\n                transferredAmt = shifter.shiftIn(pHash, _amount, _nHash, _sig);\n                shifter.shiftOut(_refundAddress, transferredAmt);\n            }\n            return;\n        }\n\n        transferredAmt = _transferIn(_src, _amount, _nHash, pHash, _sig);\n        emit LogTransferIn(_src, transferredAmt);\n        _doTrade(_src, _dst, _minDstAmt, _to, transferredAmt);\n    }\n\n    function hashTradePayload(\n        /*uint256 _relayerFee,*/ address _src, address _dst, uint256 _minDstAmt, bytes memory _to,\n        uint256 _refundBN, bytes memory _refundAddress\n    ) public pure returns (bytes32) {\n        return keccak256(abi.encode(_src, _dst, _minDstAmt, _to, _refundBN, _refundAddress));\n    }\n\n    function hashLiquidityPayload(\n        address _liquidityProvider,  uint256 _maxBaseToken, address _token,\n        uint256 _refundBN, bytes memory _refundAddress\n    ) public pure returns (bytes32) {\n        return keccak256(abi.encode(_liquidityProvider, _maxBaseToken, _token, _refundBN, _refundAddress));\n    }\n\n    function encodePayload(\n        /*uint256 _relayerFee,*/ ERC20 _src, ERC20 _dst, uint256 _minDstAmt, bytes memory _to,\n        uint256 _refundBN, bytes memory _refundAddress\n    ) public pure returns (bytes memory) {\n        return abi.encode(_src, _dst, _minDstAmt, _to, _refundBN, _refundAddress);\n    }\n\n    function addLiquidity(\n        address _liquidityProvider,  uint256 _maxBaseToken, address _token, uint256 _deadline, bytes calldata _refundAddress,\n        uint256 _amount, bytes32 _nHash, bytes calldata _sig\n        ) external returns (uint256) {\n            DEXReserve reserve = dex.reserves(_token);\n            require(reserve != DEXReserve(0x0), \"unsupported token\");\n            bytes32 lpHash = hashLiquidityPayload(_liquidityProvider, _maxBaseToken, _token, _deadline, _refundAddress);\n            if (block.number > _deadline) {\n                uint256 shiftedAmount = shifterRegistry.getShifterByToken(_token).shiftIn(lpHash, _amount, _nHash, _sig);\n                shifterRegistry.getShifterByToken(_token).shiftOut(_refundAddress, shiftedAmount);\n                return 0;\n            }\n            require(ERC20(dex.BaseToken()).allowance(_liquidityProvider, address(reserve)) >= _maxBaseToken,\n                \"insufficient base token allowance\");\n            uint256 transferredAmount = _transferIn(_token, _amount, _nHash, lpHash, _sig);\n            ERC20(_token).approve(address(reserve), transferredAmount);\n            return reserve.addLiquidity(_liquidityProvider, _maxBaseToken, transferredAmount, _deadline);\n    }\n\n    function removeLiquidity(address _token, uint256 _liquidity, bytes calldata _tokenAddress) external {\n        DEXReserve reserve = dex.reserves(_token);\n        require(reserve != DEXReserve(0x0), \"unsupported token\");\n        reserve.transferFrom(msg.sender, address(this), _liquidity);\n        (uint256 baseTokenAmount, uint256 quoteTokenAmount) = reserve.removeLiquidity(_liquidity);\n        reserve.BaseToken().transfer(msg.sender, baseTokenAmount);\n        shifterRegistry.getShifterByToken(address(reserve.Token())).shiftOut(_tokenAddress, quoteTokenAmount);\n    }\n\n    function _doTrade(\n        address _src, address _dst, uint256 _minDstAmt, bytes memory _to, uint256 _amount\n    ) internal {\n        uint256 recvAmt;\n        address to;\n        IShifter shifter = shifterRegistry.getShifterByToken(address(_dst));\n\n        if (shifter != IShifter(0x0)) {\n            to = address(this);\n        } else {\n            to = _bytesToAddress(_to);\n        }\n\n        if (_src == dex.BaseToken()) {\n            ERC20(_src).approve(address(dex.reserves(_dst)), _amount);\n        } else {\n            ERC20(_src).approve(address(dex.reserves(_src)), _amount);\n        }\n        recvAmt = dex.trade(to, _src, _dst, _amount);\n\n        require(recvAmt > 0 && recvAmt >= _minDstAmt, \"invalid receive amount\");\n        if (shifter != IShifter(0x0)) {\n            shifter.shiftOut(_to, recvAmt);\n        }\n        emit LogTransferOut(_dst, recvAmt);\n    }\n\n    function _transferIn(\n        /*uint256 _relayerFee,*/ address _src, uint256 _amount,\n        bytes32 _nHash, bytes32 _pHash, bytes memory _sig\n    ) internal returns (uint256) {\n        IShifter shifter = shifterRegistry.getShifterByToken(address(_src));\n        if (shifter != IShifter(0x0)) {\n            return shifter.shiftIn(_pHash, _amount, _nHash, _sig);\n        } else if (_src == dex.ethereum()) {\n            require(msg.value >= _amount, \"insufficient eth amount\");\n            return msg.value;\n        } else {\n            require(ERC20(_src).transferFrom(msg.sender, address(this), _amount), \"source token transfer failed\");\n            return _amount;\n        }\n    }\n\n    function _bytesToAddress(bytes memory _addr) internal pure returns (address) {\n        address addr;\n        /* solhint-disable-next-line */ /* solium-disable-next-line */\n        assembly {\n            addr := mload(add(_addr, 20))\n        }\n        return addr;\n    }\n\n    function calculateReceiveAmount(address _src, address _dst, uint256 _sendAmount) public view returns (uint256) {\n        return dex.calculateReceiveAmount(_src, _dst, _sendAmount);\n    }\n}",
  "sourcePath": "/home/noah/github/renproject/dex-demo/ethereum-contracts/contracts/DEXAdapter.sol",
  "compiler": {
    "name": "solc",
    "version": "0.5.8+commit.23d335f2.Emscripten.clang"
  },
  "schemaVersion": "3.0.16",
  "updatedAt": "2019-10-25T02:29:55.559Z",
  "devdoc": {
    "methods": {}
  },
  "userdoc": {
    "methods": {
      "recoverTokens(address)": {
        "notice": "Allow anyone to recover funds accidentally sent to the contract. To withdraw ETH, the token should be set to `0x0`."
      }
    }
  }
}